{
  "_format": "hh-sol-artifact-1",
  "contractName": "MineblastRouter",
  "sourceName": "src/swap/MineblastRouter.sol",
  "abi": [
    {
      "inputs": [
        {
          "internalType": "address",
          "name": "_factory",
          "type": "address"
        },
        {
          "internalType": "address payable",
          "name": "_WETHaddr",
          "type": "address"
        }
      ],
      "stateMutability": "nonpayable",
      "type": "constructor"
    },
    {
      "inputs": [],
      "name": "BLAST",
      "outputs": [
        {
          "internalType": "contract IBlast",
          "name": "",
          "type": "address"
        }
      ],
      "stateMutability": "view",
      "type": "function"
    },
    {
      "inputs": [],
      "name": "WETHaddr",
      "outputs": [
        {
          "internalType": "address payable",
          "name": "",
          "type": "address"
        }
      ],
      "stateMutability": "view",
      "type": "function"
    },
    {
      "inputs": [
        {
          "internalType": "address",
          "name": "tokenA",
          "type": "address"
        },
        {
          "internalType": "address",
          "name": "tokenB",
          "type": "address"
        },
        {
          "internalType": "uint256",
          "name": "amountADesired",
          "type": "uint256"
        },
        {
          "internalType": "uint256",
          "name": "amountBDesired",
          "type": "uint256"
        },
        {
          "internalType": "uint256",
          "name": "amountAMin",
          "type": "uint256"
        },
        {
          "internalType": "uint256",
          "name": "amountBMin",
          "type": "uint256"
        },
        {
          "internalType": "address",
          "name": "to",
          "type": "address"
        },
        {
          "internalType": "uint256",
          "name": "deadline",
          "type": "uint256"
        }
      ],
      "name": "addLiquidity",
      "outputs": [
        {
          "internalType": "uint256",
          "name": "amountA",
          "type": "uint256"
        },
        {
          "internalType": "uint256",
          "name": "amountB",
          "type": "uint256"
        },
        {
          "internalType": "uint256",
          "name": "liquidity",
          "type": "uint256"
        }
      ],
      "stateMutability": "nonpayable",
      "type": "function"
    },
    {
      "inputs": [
        {
          "internalType": "address",
          "name": "token",
          "type": "address"
        },
        {
          "internalType": "uint256",
          "name": "amountTokenDesired",
          "type": "uint256"
        },
        {
          "internalType": "uint256",
          "name": "amountTokenMin",
          "type": "uint256"
        },
        {
          "internalType": "uint256",
          "name": "amountETHMin",
          "type": "uint256"
        },
        {
          "internalType": "address",
          "name": "to",
          "type": "address"
        },
        {
          "internalType": "uint256",
          "name": "deadline",
          "type": "uint256"
        }
      ],
      "name": "addLiquidityETH",
      "outputs": [
        {
          "internalType": "uint256",
          "name": "amountToken",
          "type": "uint256"
        },
        {
          "internalType": "uint256",
          "name": "amountETH",
          "type": "uint256"
        },
        {
          "internalType": "uint256",
          "name": "liquidity",
          "type": "uint256"
        }
      ],
      "stateMutability": "payable",
      "type": "function"
    },
    {
      "inputs": [],
      "name": "factory",
      "outputs": [
        {
          "internalType": "address",
          "name": "",
          "type": "address"
        }
      ],
      "stateMutability": "view",
      "type": "function"
    },
    {
      "inputs": [
        {
          "internalType": "uint256",
          "name": "amountOut",
          "type": "uint256"
        },
        {
          "internalType": "uint256",
          "name": "reserveIn",
          "type": "uint256"
        },
        {
          "internalType": "uint256",
          "name": "reserveOut",
          "type": "uint256"
        }
      ],
      "name": "getAmountIn",
      "outputs": [
        {
          "internalType": "uint256",
          "name": "amountIn",
          "type": "uint256"
        }
      ],
      "stateMutability": "pure",
      "type": "function"
    },
    {
      "inputs": [
        {
          "internalType": "uint256",
          "name": "amountIn",
          "type": "uint256"
        },
        {
          "internalType": "uint256",
          "name": "reserveIn",
          "type": "uint256"
        },
        {
          "internalType": "uint256",
          "name": "reserveOut",
          "type": "uint256"
        }
      ],
      "name": "getAmountOut",
      "outputs": [
        {
          "internalType": "uint256",
          "name": "amountOut",
          "type": "uint256"
        }
      ],
      "stateMutability": "pure",
      "type": "function"
    },
    {
      "inputs": [
        {
          "internalType": "uint256",
          "name": "amountOut",
          "type": "uint256"
        },
        {
          "internalType": "address[]",
          "name": "path",
          "type": "address[]"
        }
      ],
      "name": "getAmountsIn",
      "outputs": [
        {
          "internalType": "uint256[]",
          "name": "amounts",
          "type": "uint256[]"
        }
      ],
      "stateMutability": "view",
      "type": "function"
    },
    {
      "inputs": [
        {
          "internalType": "uint256",
          "name": "amountIn",
          "type": "uint256"
        },
        {
          "internalType": "address[]",
          "name": "path",
          "type": "address[]"
        }
      ],
      "name": "getAmountsOut",
      "outputs": [
        {
          "internalType": "uint256[]",
          "name": "amounts",
          "type": "uint256[]"
        }
      ],
      "stateMutability": "view",
      "type": "function"
    },
    {
      "inputs": [
        {
          "internalType": "uint256",
          "name": "amountA",
          "type": "uint256"
        },
        {
          "internalType": "uint256",
          "name": "reserveA",
          "type": "uint256"
        },
        {
          "internalType": "uint256",
          "name": "reserveB",
          "type": "uint256"
        }
      ],
      "name": "quote",
      "outputs": [
        {
          "internalType": "uint256",
          "name": "amountB",
          "type": "uint256"
        }
      ],
      "stateMutability": "pure",
      "type": "function"
    },
    {
      "inputs": [
        {
          "internalType": "address",
          "name": "tokenA",
          "type": "address"
        },
        {
          "internalType": "address",
          "name": "tokenB",
          "type": "address"
        },
        {
          "internalType": "uint256",
          "name": "liquidity",
          "type": "uint256"
        },
        {
          "internalType": "uint256",
          "name": "amountAMin",
          "type": "uint256"
        },
        {
          "internalType": "uint256",
          "name": "amountBMin",
          "type": "uint256"
        },
        {
          "internalType": "address",
          "name": "to",
          "type": "address"
        },
        {
          "internalType": "uint256",
          "name": "deadline",
          "type": "uint256"
        }
      ],
      "name": "removeLiquidity",
      "outputs": [
        {
          "internalType": "uint256",
          "name": "amountA",
          "type": "uint256"
        },
        {
          "internalType": "uint256",
          "name": "amountB",
          "type": "uint256"
        }
      ],
      "stateMutability": "nonpayable",
      "type": "function"
    },
    {
      "inputs": [
        {
          "internalType": "address",
          "name": "token",
          "type": "address"
        },
        {
          "internalType": "uint256",
          "name": "liquidity",
          "type": "uint256"
        },
        {
          "internalType": "uint256",
          "name": "amountTokenMin",
          "type": "uint256"
        },
        {
          "internalType": "uint256",
          "name": "amountETHMin",
          "type": "uint256"
        },
        {
          "internalType": "address",
          "name": "to",
          "type": "address"
        },
        {
          "internalType": "uint256",
          "name": "deadline",
          "type": "uint256"
        }
      ],
      "name": "removeLiquidityETH",
      "outputs": [
        {
          "internalType": "uint256",
          "name": "amountToken",
          "type": "uint256"
        },
        {
          "internalType": "uint256",
          "name": "amountETH",
          "type": "uint256"
        }
      ],
      "stateMutability": "nonpayable",
      "type": "function"
    },
    {
      "inputs": [
        {
          "internalType": "uint256",
          "name": "amountOut",
          "type": "uint256"
        },
        {
          "internalType": "address[]",
          "name": "path",
          "type": "address[]"
        },
        {
          "internalType": "address",
          "name": "to",
          "type": "address"
        },
        {
          "internalType": "uint256",
          "name": "deadline",
          "type": "uint256"
        }
      ],
      "name": "swapETHForExactTokens",
      "outputs": [
        {
          "internalType": "uint256[]",
          "name": "amounts",
          "type": "uint256[]"
        }
      ],
      "stateMutability": "payable",
      "type": "function"
    },
    {
      "inputs": [
        {
          "internalType": "uint256",
          "name": "amountOutMin",
          "type": "uint256"
        },
        {
          "internalType": "address[]",
          "name": "path",
          "type": "address[]"
        },
        {
          "internalType": "address",
          "name": "to",
          "type": "address"
        },
        {
          "internalType": "uint256",
          "name": "deadline",
          "type": "uint256"
        }
      ],
      "name": "swapExactETHForTokens",
      "outputs": [
        {
          "internalType": "uint256[]",
          "name": "amounts",
          "type": "uint256[]"
        }
      ],
      "stateMutability": "payable",
      "type": "function"
    },
    {
      "inputs": [
        {
          "internalType": "uint256",
          "name": "amountIn",
          "type": "uint256"
        },
        {
          "internalType": "uint256",
          "name": "amountOutMin",
          "type": "uint256"
        },
        {
          "internalType": "address[]",
          "name": "path",
          "type": "address[]"
        },
        {
          "internalType": "address",
          "name": "to",
          "type": "address"
        },
        {
          "internalType": "uint256",
          "name": "deadline",
          "type": "uint256"
        }
      ],
      "name": "swapExactTokensForETH",
      "outputs": [
        {
          "internalType": "uint256[]",
          "name": "amounts",
          "type": "uint256[]"
        }
      ],
      "stateMutability": "nonpayable",
      "type": "function"
    },
    {
      "inputs": [
        {
          "internalType": "uint256",
          "name": "amountIn",
          "type": "uint256"
        },
        {
          "internalType": "uint256",
          "name": "amountOutMin",
          "type": "uint256"
        },
        {
          "internalType": "address[]",
          "name": "path",
          "type": "address[]"
        },
        {
          "internalType": "address",
          "name": "to",
          "type": "address"
        },
        {
          "internalType": "uint256",
          "name": "deadline",
          "type": "uint256"
        }
      ],
      "name": "swapExactTokensForTokens",
      "outputs": [
        {
          "internalType": "uint256[]",
          "name": "amounts",
          "type": "uint256[]"
        }
      ],
      "stateMutability": "nonpayable",
      "type": "function"
    },
    {
      "inputs": [
        {
          "internalType": "uint256",
          "name": "amountOut",
          "type": "uint256"
        },
        {
          "internalType": "uint256",
          "name": "amountInMax",
          "type": "uint256"
        },
        {
          "internalType": "address[]",
          "name": "path",
          "type": "address[]"
        },
        {
          "internalType": "address",
          "name": "to",
          "type": "address"
        },
        {
          "internalType": "uint256",
          "name": "deadline",
          "type": "uint256"
        }
      ],
      "name": "swapTokensForExactETH",
      "outputs": [
        {
          "internalType": "uint256[]",
          "name": "amounts",
          "type": "uint256[]"
        }
      ],
      "stateMutability": "nonpayable",
      "type": "function"
    },
    {
      "inputs": [
        {
          "internalType": "uint256",
          "name": "amountOut",
          "type": "uint256"
        },
        {
          "internalType": "uint256",
          "name": "amountInMax",
          "type": "uint256"
        },
        {
          "internalType": "address[]",
          "name": "path",
          "type": "address[]"
        },
        {
          "internalType": "address",
          "name": "to",
          "type": "address"
        },
        {
          "internalType": "uint256",
          "name": "deadline",
          "type": "uint256"
        }
      ],
      "name": "swapTokensForExactTokens",
      "outputs": [
        {
          "internalType": "uint256[]",
          "name": "amounts",
          "type": "uint256[]"
        }
      ],
      "stateMutability": "nonpayable",
      "type": "function"
    },
    {
      "stateMutability": "payable",
      "type": "receive"
    }
  ],
  "bytecode": "0x60c034620001ea576200365f90600090601f38849003908101601f19168201906001600160401b03821183831017620001d65780839160409687948552833981010312620001ae5780516001600160a01b03918282168203620001d257602001519182168203620001ce5760805260a05273430000000000000000000000000000000000000290813b15620001a1578251634e606c4760e01b8152818160048183875af18015620001c457620001b2575b5090803b15620001ae578180916024855180948193631d70c8d360e31b83523360048401525af18015620001a45762000189575b825161344590816200021a82396080518181816101a7015281816104de015281816108090152818161096f015281816109e901528181610a8901528181610cba01528181610e8401528181611106015281816113e0015281816116210152818161169b0152818161186501528181612a1c0152613136015260a05181818160370152818161017a015281816104b7015281816110da015281816115e301526118380152f35b620001958291620001ef565b620001a15780620000e4565b80fd5b83513d84823e3d90fd5b5080fd5b620001bd90620001ef565b38620000b0565b84513d84823e3d90fd5b8280fd5b8380fd5b634e487b7160e01b84526041600452602484fd5b600080fd5b6001600160401b0381116200020357604052565b634e487b7160e01b600052604160045260246000fdfe604060808152600480361015610060575b5050361561001d57600080fd5b61005e73ffffffffffffffffffffffffffffffffffffffff7f000000000000000000000000000000000000000000000000000000000000000016331461222a565b005b600091823560e01c806302751cec146117f5578063054d50d4146117d957806318cbafe5146116455780631f00ca74146116075780632a675f591461159857806338ed1739146113b95780634a25d94a146110545780637ff36ab514610e6257806385f8c25914610e465780638803dbee14610c9257806397d7577614610c45578063ad615dec14610c22578063baa2abde14610a0d578063c45a01551461099e578063d06ca61f14610955578063e8e3370014610774578063f305d7191461047f5763fb3bdb41146101335750610010565b61014f61013f36611efe565b9691929396949094421115611f75565b8115610453576101a59061016284612055565b73ffffffffffffffffffffffffffffffffffffffff927f000000000000000000000000000000000000000000000000000000000000000084169184168214612076565b7f0000000000000000000000000000000000000000000000000000000000000000976101d086612055565b938560011015610427578a906101f460208901966101ed88612055565b908d612695565b16803b1561040f57818091868c51809481937ffff6cae90000000000000000000000000000000000000000000000000000000083525af1801561040557610413575b505061024e90610247368789611e31565b908a612cc5565b9761026461025b8a6120db565b51341015612187565b8961026e8a6120db565b51833b1561040f578185918b51928380927fd0e30db0000000000000000000000000000000000000000000000000000000008252885af18015610405576103e7575b5050906102d660209392610338956102d06102ca8a612055565b91612055565b91612695565b8a6102e08b6120db565b51938a51968795869485937fa9059cbb00000000000000000000000000000000000000000000000000000000855284016020909392919373ffffffffffffffffffffffffffffffffffffffff60408201951681520152565b03925af19081156103dd579161036161036e959492610368946103899a916103ae575b5061222a565b3691611e31565b84612a17565b610377826120db565b51341161038d575b5191829182611d3d565b0390f35b6103a96103a361039c846120db565b5134611fda565b336123ea565b61037f565b6103d0915060203d6020116103d6575b6103c88183611dd8565b810190612212565b3861035b565b503d6103be565b85513d89823e3d90fd5b6103f49094939294611d79565b61040157909189386102b0565b8980fd5b8a513d84823e3d90fd5b5080fd5b61041c90611d79565b610401578938610236565b60248b6032867f4e487b7100000000000000000000000000000000000000000000000000000000835252fd5b8660326024927f4e487b7100000000000000000000000000000000000000000000000000000000835252fd5b5061049e9161048d36611bef565b989496939897909197421115611f75565b73ffffffffffffffffffffffffffffffffffffffff91827f00000000000000000000000000000000000000000000000000000000000000001661050281897f0000000000000000000000000000000000000000000000000000000000000000612695565b98848a1692833b156107705786519b7ffff6cae9000000000000000000000000000000000000000000000000000000008d52888d8b8183895af180156107665790898d9e8d9e9a9b9c9d9361073a575b5050916105709391610566938634926130ee565b9b819b33906128db565b803b1561072c5785517fd0e30db000000000000000000000000000000000000000000000000000000000815287818a818e865af18015610730579189918993610713575b50610614908c89519485809481937fa9059cbb00000000000000000000000000000000000000000000000000000000835260209c8d9884016020909392919373ffffffffffffffffffffffffffffffffffffffff60408201951681520152565b03925af190811561070957602492610637879695938a9384916106f2575061222a565b8751998a9586947f6a62784200000000000000000000000000000000000000000000000000000000865216908401525af19283156106e757926106b0575b50610389925084341161069e575b51938493846040919493926060820195825260208201520152565b6106ab6103a38634611fda565b610683565b90915082813d83116106e0575b6106c78183611dd8565b810103126106db5761038991519038610675565b600080fd5b503d6106bd565b8251903d90823e3d90fd5b6103d09150883d8a116103d6576103c88183611dd8565b86513d89823e3d90fd5b61071f91939250611d79565b61072c57878791386105b4565b8680fd5b87513d8a823e3d90fd5b90925061074e919394959697989950611d79565b61076257908a8c9796959493928a38610552565b8880fd5b88513d8b823e3d90fd5b8780fd5b508234610952576101007ffffffffffffffffffffffffffffffffffffffffffffffffffffffffffffffffc360112610952576107ae611ba9565b906107b7611bcc565b9260c43573ffffffffffffffffffffffffffffffffffffffff958682168092036106db576107e94260e4351015611f75565b6107ff60a4356084356064356044358a8a6130ee565b97909661082d81887f0000000000000000000000000000000000000000000000000000000000000000612695565b91821696873b1561072c5785517ffff6cae900000000000000000000000000000000000000000000000000000000815287818681838d5af180156107305791888b928d969594610932575b50509261089a92610893602496938360209a999733906128db565b33906128db565b85855197889485937f6a6278420000000000000000000000000000000000000000000000000000000085528401525af191821561092757916108f1575b519283526020830193909352506040810191909152606090f35b90506020823d60201161091f575b8161090c60209383611dd8565b810103126106db576103899151906108d7565b3d91506108ff565b9051903d90823e3d90fd5b9092506109429193949550611d79565b61072c5790888a9392888d610878565b80fd5b83823461040f576103899061099361096c36611e9c565b907f000000000000000000000000000000000000000000000000000000000000000061280b565b905191829182611d3d565b83823461040f57817ffffffffffffffffffffffffffffffffffffffffffffffffffffffffffffffffc36011261040f576020905173ffffffffffffffffffffffffffffffffffffffff7f0000000000000000000000000000000000000000000000000000000000000000168152f35b5091903461040f5760e07ffffffffffffffffffffffffffffffffffffffffffffffffffffffffffffffffc36011261040f57610a47611ba9565b610a4f611bcc565b9260a4359073ffffffffffffffffffffffffffffffffffffffff918281168091036106db57610a824260c4351015611f75565b610aad86857f0000000000000000000000000000000000000000000000000000000000000000612695565b87517f23b872dd0000000000000000000000000000000000000000000000000000000081523381880190815273ffffffffffffffffffffffffffffffffffffffff83166020828101919091526044356040830152928616979290829081906060010381878b5af18015610c1857916024918a9493610bf9575b5084845198899485937f89afcb440000000000000000000000000000000000000000000000000000000085528401525af1948515610bed5781948296610bb1575b5090610b74839285612fd0565b50905016911614600014610bac57905b610b92606435831015612276565b610ba0608435821015612301565b82519182526020820152f35b610b84565b8392919650610b749550610bda90883d8a11610be6575b610bd28183611dd8565b810190612260565b95909596919250610b67565b503d610bc8565b508551903d90823e3d90fd5b610c119060203d6020116103d6576103c88183611dd8565b5038610b26565b89513d86823e3d90fd5b83823461040f57602090610c3e610c3836611c5a565b91612f1f565b9051908152f35b83823461040f57817ffffffffffffffffffffffffffffffffffffffffffffffffffffffffffffffffc36011261040f57602090517343000000000000000000000000000000000000028152f35b5082903461040f57610cb8610ca636611cc3565b98939792959098949194421115611f75565b7f0000000000000000000000000000000000000000000000000000000000000000918415610e1a57610ce986612055565b938560011015610dee5773ffffffffffffffffffffffffffffffffffffffff610d206020890196610d1988612055565b9087612695565b1690813b15610dea57829182918a51809481937ffff6cae90000000000000000000000000000000000000000000000000000000083525af18015610de057610dcc575b50509261036161036893610dba61037f9794610da4610d926103899d99610d8b36898b611e31565b9084612cc5565b9b610d9c8d6120db565b511115612187565b610dad86612055565b926102d06102ca88612055565b610dc38a6120db565b519133906128db565b610dd68291611d79565b6109525780610d63565b88513d84823e3d90fd5b8280fd5b9060326024927f4e487b7100000000000000000000000000000000000000000000000000000000835252fd5b806032857f4e487b71000000000000000000000000000000000000000000000000000000006024945252fd5b83823461040f57602090610c3e610e5c36611c5a565b91612dd1565b50610e6f61013f36611efe565b811561045357610e829061016284612055565b7f0000000000000000000000000000000000000000000000000000000000000000610eac86612055565b938560011015610427578a90610ed06020890196610ec988612055565b9085612695565b16803b1561040f57818091868c51809481937ffff6cae90000000000000000000000000000000000000000000000000000000083525af1801561040557611040575b5050610f29610f22368789611e31565b348361280b565b9889517fffffffffffffffffffffffffffffffffffffffffffffffffffffffffffffffff81019081116110145790610f64610f6c928c6120e8565b5110156120fc565b89610f768a6120db565b51833b1561040f578185918b51928380927fd0e30db0000000000000000000000000000000000000000000000000000000008252885af1801561040557610ffa575b5050906102d660209392610fd2956102d06102ca8a612055565b03925af19081156103dd579161036161037f959492610368946103899a916103ae575061222a565b6110079094939294611d79565b6104015790918938610fb8565b60248c6011877f4e487b7100000000000000000000000000000000000000000000000000000000835252fd5b61104990611d79565b610401578938610f12565b5082903461040f5761107961106836611cc3565b979397959095929192421115611f75565b7fffffffffffffffffffffffffffffffffffffffffffffffffffffffffffffffff9384830183811161138d57906110be6110b98493866111049796612016565b612055565b9073ffffffffffffffffffffffffffffffffffffffff948592837f0000000000000000000000000000000000000000000000000000000000000000169687911614612076565b7f00000000000000000000000000000000000000000000000000000000000000009084156113615761113584612055565b928560011015611335576111506020860194610ec986612055565b16803b15610770578780918e8d51809481937ffff6cae90000000000000000000000000000000000000000000000000000000083525af1801561132b57908891611317575b5050366111a3908686611e31565b6111ad9183612cc5565b996111b78b6120db565b5111156111c390612187565b6111cc83612055565b916111d684612055565b906111e090612055565b906111ea92612695565b6111f38a6120db565b5190336111ff936128db565b3091369061120c92611e31565b906112179188612a17565b85518381019081116112eb5761122d90876120e8565b51813b15610dea57829160248392885194859384927f2e1a7d4d0000000000000000000000000000000000000000000000000000000084528d8401525af180156112e1579082916112cd575b505084519182019182116112a157610389858561037f8661129a87856120e8565b51906123ea565b806011877f4e487b71000000000000000000000000000000000000000000000000000000006024945252fd5b6112d690611d79565b610952578087611279565b85513d84823e3d90fd5b60248360118a7f4e487b7100000000000000000000000000000000000000000000000000000000835252fd5b61132090611d79565b61072c57868d611195565b8b513d8a823e3d90fd5b60248860328f7f4e487b7100000000000000000000000000000000000000000000000000000000835252fd5b60248760328e7f4e487b7100000000000000000000000000000000000000000000000000000000835252fd5b60248560118c7f4e487b7100000000000000000000000000000000000000000000000000000000835252fd5b5082903461040f576113de6113cd36611cc3565b959095949294939193421115611f75565b7f000000000000000000000000000000000000000000000000000000000000000090831561156c5761140f85612055565b9284600110156115405773ffffffffffffffffffffffffffffffffffffffff611446602088019561143f87612055565b9086612695565b16803b15610401578980918c8b51809481937ffff6cae90000000000000000000000000000000000000000000000000000000083525af1801561153657908a91611522575b50506114a39061149c368789611e31565b908461280b565b978851907fffffffffffffffffffffffffffffffffffffffffffffffffffffffffffffffff82019182116114f65750610389995092610dba6103689593610da461036194610f6461037f9b9a988e6120e8565b8060118c7f4e487b71000000000000000000000000000000000000000000000000000000006024945252fd5b61152b90611d79565b61076257888b61148b565b89513d8c823e3d90fd5b60248960328c7f4e487b7100000000000000000000000000000000000000000000000000000000835252fd5b60248860328b7f4e487b7100000000000000000000000000000000000000000000000000000000835252fd5b83823461040f57817ffffffffffffffffffffffffffffffffffffffffffffffffffffffffffffffffc36011261040f576020905173ffffffffffffffffffffffffffffffffffffffff7f0000000000000000000000000000000000000000000000000000000000000000168152f35b83823461040f576103899061099361161e36611e9c565b907f0000000000000000000000000000000000000000000000000000000000000000612cc5565b5082903461040f5761165961106836611cc3565b7fffffffffffffffffffffffffffffffffffffffffffffffffffffffffffffffff9384830183811161138d57906110be6110b98493866116999796612016565b7f0000000000000000000000000000000000000000000000000000000000000000908415611361576116ca84612055565b928560011015611335576116e56020860194610ec986612055565b16803b15610770578780918e8d51809481937ffff6cae90000000000000000000000000000000000000000000000000000000083525af1801561132b576117c4575b5061173e90611737368787611e31565b908361280b565b998a51888101908111611798579261178061121796959361176a611789948f61179298610f64916120e8565b61177385612055565b926102d06102ca87612055565b610dc38d6120db565b30923691611e31565b88612a17565b60248860118f7f4e487b7100000000000000000000000000000000000000000000000000000000835252fd5b966117d261173e9298611d79565b9690611727565b83823461040f57602090610c3e6117ef36611c5a565b91612559565b5091903461040f5761180636611bef565b9691969590939492954211159261181c84611f75565b73ffffffffffffffffffffffffffffffffffffffff9761185e897f00000000000000000000000000000000000000000000000000000000000000001695611f75565b61188985837f0000000000000000000000000000000000000000000000000000000000000000612695565b8a517f23b872dd0000000000000000000000000000000000000000000000000000000081523385820190815273ffffffffffffffffffffffffffffffffffffffff8316602082810191909152604082019a909a52918b1691899082908190606001038189865af18015611b9f57918c918793611b82575b5060248251809481937f89afcb44000000000000000000000000000000000000000000000000000000008352308a8401525af1998a15611b78578591869b611b57575b508061194f8886612fd0565b501690841614600014611b43579161197b85939261197385949c9b5b8d1015612276565b8a1015612301565b8a517fa9059cbb0000000000000000000000000000000000000000000000000000000089820190815273ffffffffffffffffffffffffffffffffffffffff89166024830152604482018c90529083906119ff81606481015b037fffffffffffffffffffffffffffffffffffffffffffffffffffffffffffffffe08101835282611dd8565b51925af1611a0b61238c565b81611b13575b5015611a9157823b1561040f578560248392838b5196879485937f2e1a7d4d0000000000000000000000000000000000000000000000000000000085528401525af1908115611a865750918491611a6d93611a77575b506123ea565b8351928352820152f35b611a8090611d79565b38611a67565b8751903d90823e3d90fd5b608490858951917f08c379a0000000000000000000000000000000000000000000000000000000008352820152602d60248201527f5472616e7366657248656c7065723a3a736166655472616e736665723a20747260448201527f616e73666572206661696c6564000000000000000000000000000000000000006064820152fd5b80518015925087908315611b2b575b50505038611a11565b611b3b9350820181019101612212565b388681611b22565b989161197b85939261197385949c9b61196b565b909a50611b7191508b3d8d11610be657610bd28183611dd8565b9938611943565b8b513d87823e3d90fd5b611b98908b3d8d116103d6576103c88183611dd8565b5038611900565b8c513d88823e3d90fd5b6004359073ffffffffffffffffffffffffffffffffffffffff821682036106db57565b6024359073ffffffffffffffffffffffffffffffffffffffff821682036106db57565b7ffffffffffffffffffffffffffffffffffffffffffffffffffffffffffffffffc60c09101126106db5773ffffffffffffffffffffffffffffffffffffffff60043581811681036106db579160243591604435916064359160843590811681036106db579060a43590565b7ffffffffffffffffffffffffffffffffffffffffffffffffffffffffffffffffc60609101126106db57600435906024359060443590565b9181601f840112156106db5782359167ffffffffffffffff83116106db576020808501948460051b0101116106db57565b60a07ffffffffffffffffffffffffffffffffffffffffffffffffffffffffffffffffc8201126106db5760043591602435916044359067ffffffffffffffff82116106db57611d1491600401611c92565b909160643573ffffffffffffffffffffffffffffffffffffffff811681036106db579060843590565b602090602060408183019282815285518094520193019160005b828110611d65575050505090565b835185529381019392810192600101611d57565b67ffffffffffffffff8111611d8d57604052565b7f4e487b7100000000000000000000000000000000000000000000000000000000600052604160045260246000fd5b6020810190811067ffffffffffffffff821117611d8d57604052565b90601f7fffffffffffffffffffffffffffffffffffffffffffffffffffffffffffffffe0910116810190811067ffffffffffffffff821117611d8d57604052565b67ffffffffffffffff8111611d8d5760051b60200190565b9291611e3c82611e19565b91611e4a6040519384611dd8565b829481845260208094019160051b81019283116106db57905b828210611e705750505050565b813573ffffffffffffffffffffffffffffffffffffffff811681036106db578152908301908301611e63565b9060407ffffffffffffffffffffffffffffffffffffffffffffffffffffffffffffffffc8301126106db57600435916024359067ffffffffffffffff82116106db57806023830112156106db57816024611efb93600401359101611e31565b90565b9060807ffffffffffffffffffffffffffffffffffffffffffffffffffffffffffffffffc8301126106db57600435916024359067ffffffffffffffff82116106db57611f4c91600401611c92565b909160443573ffffffffffffffffffffffffffffffffffffffff811681036106db579060643590565b15611f7c57565b60646040517f08c379a000000000000000000000000000000000000000000000000000000000815260206004820152601860248201527f556e69737761705632526f757465723a204558504952454400000000000000006044820152fd5b91908203918211611fe757565b7f4e487b7100000000000000000000000000000000000000000000000000000000600052601160045260246000fd5b91908110156120265760051b0190565b7f4e487b7100000000000000000000000000000000000000000000000000000000600052603260045260246000fd5b3573ffffffffffffffffffffffffffffffffffffffff811681036106db5790565b1561207d57565b60646040517f08c379a000000000000000000000000000000000000000000000000000000000815260206004820152601d60248201527f556e69737761705632526f757465723a20494e56414c49445f504154480000006044820152fd5b8051156120265760200190565b80518210156120265760209160051b010190565b1561210357565b60846040517f08c379a000000000000000000000000000000000000000000000000000000000815260206004820152602b60248201527f556e69737761705632526f757465723a20494e53554646494349454e545f4f5560448201527f545055545f414d4f554e540000000000000000000000000000000000000000006064820152fd5b1561218e57565b60846040517f08c379a000000000000000000000000000000000000000000000000000000000815260206004820152602760248201527f556e69737761705632526f757465723a204558434553534956455f494e50555460448201527f5f414d4f554e54000000000000000000000000000000000000000000000000006064820152fd5b908160209103126106db575180151581036106db5790565b1561223157565b7f4e487b7100000000000000000000000000000000000000000000000000000000600052600160045260246000fd5b91908260409103126106db576020825192015190565b1561227d57565b60846040517f08c379a000000000000000000000000000000000000000000000000000000000815260206004820152602660248201527f556e69737761705632526f757465723a20494e53554646494349454e545f415f60448201527f414d4f554e5400000000000000000000000000000000000000000000000000006064820152fd5b1561230857565b60846040517f08c379a000000000000000000000000000000000000000000000000000000000815260206004820152602660248201527f556e69737761705632526f757465723a20494e53554646494349454e545f425f60448201527f414d4f554e5400000000000000000000000000000000000000000000000000006064820152fd5b3d156123e5573d9067ffffffffffffffff8211611d8d57604051916123d960207fffffffffffffffffffffffffffffffffffffffffffffffffffffffffffffffe0601f8401160184611dd8565b82523d6000602084013e565b606090565b60008080938193826040516123fe81611dbc565b525af161240961238c565b501561241157565b60846040517f08c379a000000000000000000000000000000000000000000000000000000000815260206004820152603460248201527f5472616e7366657248656c7065723a3a736166655472616e736665724554483a60448201527f20455448207472616e73666572206661696c65640000000000000000000000006064820152fd5b1561249c57565b60846040517f08c379a000000000000000000000000000000000000000000000000000000000815260206004820152602860248201527f4d696e65626c6173744c6962726172793a20494e53554646494349454e545f4c60448201527f49515549444954590000000000000000000000000000000000000000000000006064820152fd5b811561252a570490565b7f4e487b7100000000000000000000000000000000000000000000000000000000600052601260045260246000fd5b91909180156126115761258a6125836125909285151580612608575b61257e90612495565b61322b565b92836132c7565b926132a8565b90810190818111611fe75781106125aa57611efb91612520565b60646040517f08c379a000000000000000000000000000000000000000000000000000000000815260206004820152601460248201527f64732d6d6174682d6164642d6f766572666c6f770000000000000000000000006044820152fd5b50841515612575565b60846040517f08c379a000000000000000000000000000000000000000000000000000000000815260206004820152602b60248201527f4d696e65626c6173744c6962726172793a20494e53554646494349454e545f4960448201527f4e5055545f414d4f554e540000000000000000000000000000000000000000006064820152fd5b916126a290602092612fd0565b919092604473ffffffffffffffffffffffffffffffffffffffff948580938160405197889687957fe6a43905000000000000000000000000000000000000000000000000000000008752166004860152166024840152165afa90811561274b57600091612710575b50905090565b6020813d602011612743575b8161272960209383611dd8565b8101031261040f575191821682036109525750803861270a565b3d915061271c565b6040513d6000823e3d90fd5b1561275e57565b60646040517f08c379a000000000000000000000000000000000000000000000000000000000815260206004820152601e60248201527f4d696e65626c6173744c6962726172793a20494e56414c49445f5041544800006044820152fd5b906127c682611e19565b6127d36040519182611dd8565b8281527fffffffffffffffffffffffffffffffffffffffffffffffffffffffffffffffe06128018294611e19565b0190602036910137565b929161281b600282511015612757565b61282581516127bc565b9161282f836120db565b5260005b81517fffffffffffffffffffffffffffffffffffffffffffffffffffffffffffffffff8101908111611fe7578110156128d55773ffffffffffffffffffffffffffffffffffffffff908161288782856120e8565b5116916001820190818311611fe7576128c76128b66001956128ce936128ad868a6120e8565b5116908b61331f565b906128c1868a6120e8565b51612559565b91866120e8565b5201612833565b50509150565b906000809461294a82956119d360405193849260208401977f23b872dd0000000000000000000000000000000000000000000000000000000089526024850160409194939294606082019573ffffffffffffffffffffffffffffffffffffffff80921683521660208201520152565b51925af161295661238c565b816129e8575b501561296457565b60846040517f08c379a000000000000000000000000000000000000000000000000000000000815260206004820152603160248201527f5472616e7366657248656c7065723a3a7472616e7366657246726f6d3a20747260448201527f616e7366657246726f6d206661696c65640000000000000000000000000000006064820152fd5b80518015925082156129fd575b50503861295c565b612a109250602080918301019101612212565b38806129f5565b9092917f00000000000000000000000000000000000000000000000000000000000000009060005b85517fffffffffffffffffffffffffffffffffffffffffffffffffffffffffffffffff8101908111611fe757811015612cbd5773ffffffffffffffffffffffffffffffffffffffff80612a9283896120e8565b51166001830191828411611fe75780612aab848b6120e8565b511681612ac3612abb8386612fd0565b50958a6120e8565b5194168303612cb557600093905b8a517ffffffffffffffffffffffffffffffffffffffffffffffffffffffffffffffffe8101908111611fe7578390871015612cad57506002860190818711611fe757612b2b84612b2281948f6120e8565b5116828b612695565b945b87612c37575b90612b3e918a612695565b1691604093845192612b4f84611dbc565b60008452843b156106db5785517f022c0d9f0000000000000000000000000000000000000000000000000000000081526004810197909752602487015216604485015260806064850152805160848501819052849160005b828110612c1f575050918160008094827fffffffffffffffffffffffffffffffffffffffffffffffffffffffffffffffe0601f60a49385858286010152011681010301925af1908115612c1557509060019291612c06575b5001612a3f565b612c0f90611d79565b38612bff565b513d6000823e3d90fd5b602082820181015160a4898401015287945001612ba7565b9091612c4483838c612695565b16803b156106db576000908160409160048351809581937ffff6cae90000000000000000000000000000000000000000000000000000000083525af1908115612c15575091859391612b3e93612c9e575b50909150612b33565b612ca790611d79565b38612c95565b908794612b2d565b600090612ad1565b505050509050565b929192612cd6600285511015612757565b612ce084516127bc565b938451927fffffffffffffffffffffffffffffffffffffffffffffffffffffffffffffffff93848101908111611fe757612d1a90876120e8565b528051838101908111611fe757805b612d335750505050565b838101818111612da357612d94612d8d612d7c73ffffffffffffffffffffffffffffffffffffffff80612d6686896120e8565b511690612d7387896120e8565b5116908861331f565b90612d87868c6120e8565b51612dd1565b91886120e8565b528015612da357830180612d29565b602460007f4e487b710000000000000000000000000000000000000000000000000000000081526011600452fd5b908115612e9b57612dff612dfa8383612e0694151580612e92575b612df590612495565b6132c7565b6132a8565b9183611fda565b918211612e3457612e19612e1f9261322b565b90612520565b6001810190818111611fe75781106125aa5790565b60646040517f08c379a000000000000000000000000000000000000000000000000000000000815260206004820152601560248201527f64732d6d6174682d7375622d756e646572666c6f7700000000000000000000006044820152fd5b50861515612dec565b60846040517f08c379a000000000000000000000000000000000000000000000000000000000815260206004820152602c60248201527f4d696e65626c6173744c6962726172793a20494e53554646494349454e545f4f60448201527f55545055545f414d4f554e5400000000000000000000000000000000000000006064820152fd5b8015612f4c57611efb92612f3e9183151580612f4357612df590612495565b612520565b50811515612dec565b60846040517f08c379a000000000000000000000000000000000000000000000000000000000815260206004820152602560248201527f4d696e65626c6173744c6962726172793a20494e53554646494349454e545f4160448201527f4d4f554e540000000000000000000000000000000000000000000000000000006064820152fd5b909173ffffffffffffffffffffffffffffffffffffffff9182841683821681811461306a57101561306557925b9183161561300757565b60646040517f08c379a000000000000000000000000000000000000000000000000000000000815260206004820152601e60248201527f4d696e65626c6173744c6962726172793a205a45524f5f4144445245535300006044820152fd5b612ffd565b60846040517f08c379a000000000000000000000000000000000000000000000000000000000815260206004820152602560248201527f4d696e65626c6173744c6962726172793a204944454e544943414c5f4144445260448201527f45535345530000000000000000000000000000000000000000000000000000006064820152fd5b94919493909293604051937f3274946100000000000000000000000000000000000000000000000000000000855273ffffffffffffffffffffffffffffffffffffffff8092817f000000000000000000000000000000000000000000000000000000000000000016600488015216602486015216604484015260408360648173__$1e7484ef1c9146035a34ca82ca83ec3d07$__5af492831561274b57600090600094613207575b508015806131ff575b156131ac57505050509091565b6131bb84828897959697612f1f565b948386116131d757505050506131d390821015612301565b9091565b8395506131d39450906131ee916131f79394612f1f565b9485111561222a565b831015612276565b50831561319f565b905061322391935060403d604011610be657610bd28183611dd8565b929038613196565b906103e59182810292818404811482151715611fe75783040361324a57565b60646040517f08c379a000000000000000000000000000000000000000000000000000000000815260206004820152601460248201527f64732d6d6174682d6d756c2d6f766572666c6f770000000000000000000000006044820152fd5b906103e89182810292818404811482151715611fe75783040361324a57565b6000929180159182156132de575b50501561324a57565b80820294509150811582850482141715611fe7576132fc9084612520565b1438806132d5565b51906dffffffffffffffffffffffffffff821682036106db57565b908060606004936133526133338785612fd0565b509673ffffffffffffffffffffffffffffffffffffffff948593612695565b16604051948580927f0902f1ac0000000000000000000000000000000000000000000000000000000082525afa92831561274b5760009081946133b6575b5081906dffffffffffffffffffffffffffff809116941694169116146000146131d35791565b93506060843d606011613407575b816133d160609383611dd8565b81010312610952576133e284613304565b9060406133f160208701613304565b95015163ffffffff811603610952575081613390565b3d91506133c456fea26469706673582212203e13b11e09c33815899aeca0cc6863c5506f32d0d85e4a827637221782875da264736f6c63430008170033",
  "linkReferences": {
    "src/swap/libraries/MineblastLibrary.sol": {
      "MineblastLibrary": [
        {
          "length": 20,
          "start": 13193
        }
      ]
    }
  },
  "deployedLinkReferences": {
    "src/swap/libraries/MineblastLibrary.sol": {
      "MineblastLibrary": [
        {
          "length": 20,
          "start": 12655
        }
      ]
    }
  }
}