{
  "_format": "hh-sol-artifact-1",
  "contractName": "MineblastRouter",
  "sourceName": "src/swap/MineblastRouter.sol",
  "abi": [
    {
      "inputs": [
        {
          "internalType": "address",
          "name": "_factory",
          "type": "address"
        },
        {
          "internalType": "address payable",
          "name": "_WETHaddr",
          "type": "address"
        }
      ],
      "stateMutability": "nonpayable",
      "type": "constructor"
    },
    {
      "inputs": [],
      "name": "BLAST",
      "outputs": [
        {
          "internalType": "contract IBlast",
          "name": "",
          "type": "address"
        }
      ],
      "stateMutability": "view",
      "type": "function"
    },
    {
      "inputs": [],
      "name": "WETHaddr",
      "outputs": [
        {
          "internalType": "address payable",
          "name": "",
          "type": "address"
        }
      ],
      "stateMutability": "view",
      "type": "function"
    },
    {
      "inputs": [
        {
          "internalType": "address",
          "name": "tokenA",
          "type": "address"
        },
        {
          "internalType": "address",
          "name": "tokenB",
          "type": "address"
        },
        {
          "internalType": "uint256",
          "name": "amountADesired",
          "type": "uint256"
        },
        {
          "internalType": "uint256",
          "name": "amountBDesired",
          "type": "uint256"
        },
        {
          "internalType": "uint256",
          "name": "amountAMin",
          "type": "uint256"
        },
        {
          "internalType": "uint256",
          "name": "amountBMin",
          "type": "uint256"
        },
        {
          "internalType": "address",
          "name": "to",
          "type": "address"
        },
        {
          "internalType": "uint256",
          "name": "deadline",
          "type": "uint256"
        }
      ],
      "name": "addLiquidity",
      "outputs": [
        {
          "internalType": "uint256",
          "name": "amountA",
          "type": "uint256"
        },
        {
          "internalType": "uint256",
          "name": "amountB",
          "type": "uint256"
        },
        {
          "internalType": "uint256",
          "name": "liquidity",
          "type": "uint256"
        }
      ],
      "stateMutability": "nonpayable",
      "type": "function"
    },
    {
      "inputs": [
        {
          "internalType": "address",
          "name": "token",
          "type": "address"
        },
        {
          "internalType": "uint256",
          "name": "amountTokenDesired",
          "type": "uint256"
        },
        {
          "internalType": "uint256",
          "name": "amountTokenMin",
          "type": "uint256"
        },
        {
          "internalType": "uint256",
          "name": "amountETHMin",
          "type": "uint256"
        },
        {
          "internalType": "address",
          "name": "to",
          "type": "address"
        },
        {
          "internalType": "uint256",
          "name": "deadline",
          "type": "uint256"
        }
      ],
      "name": "addLiquidityETH",
      "outputs": [
        {
          "internalType": "uint256",
          "name": "amountToken",
          "type": "uint256"
        },
        {
          "internalType": "uint256",
          "name": "amountETH",
          "type": "uint256"
        },
        {
          "internalType": "uint256",
          "name": "liquidity",
          "type": "uint256"
        }
      ],
      "stateMutability": "payable",
      "type": "function"
    },
    {
      "inputs": [],
      "name": "factory",
      "outputs": [
        {
          "internalType": "address",
          "name": "",
          "type": "address"
        }
      ],
      "stateMutability": "view",
      "type": "function"
    },
    {
      "inputs": [
        {
          "internalType": "uint256",
          "name": "amountOut",
          "type": "uint256"
        },
        {
          "internalType": "uint256",
          "name": "reserveIn",
          "type": "uint256"
        },
        {
          "internalType": "uint256",
          "name": "reserveOut",
          "type": "uint256"
        }
      ],
      "name": "getAmountIn",
      "outputs": [
        {
          "internalType": "uint256",
          "name": "amountIn",
          "type": "uint256"
        }
      ],
      "stateMutability": "pure",
      "type": "function"
    },
    {
      "inputs": [
        {
          "internalType": "uint256",
          "name": "amountIn",
          "type": "uint256"
        },
        {
          "internalType": "uint256",
          "name": "reserveIn",
          "type": "uint256"
        },
        {
          "internalType": "uint256",
          "name": "reserveOut",
          "type": "uint256"
        }
      ],
      "name": "getAmountOut",
      "outputs": [
        {
          "internalType": "uint256",
          "name": "amountOut",
          "type": "uint256"
        }
      ],
      "stateMutability": "pure",
      "type": "function"
    },
    {
      "inputs": [
        {
          "internalType": "uint256",
          "name": "amountOut",
          "type": "uint256"
        },
        {
          "internalType": "address[]",
          "name": "path",
          "type": "address[]"
        }
      ],
      "name": "getAmountsIn",
      "outputs": [
        {
          "internalType": "uint256[]",
          "name": "amounts",
          "type": "uint256[]"
        }
      ],
      "stateMutability": "view",
      "type": "function"
    },
    {
      "inputs": [
        {
          "internalType": "uint256",
          "name": "amountIn",
          "type": "uint256"
        },
        {
          "internalType": "address[]",
          "name": "path",
          "type": "address[]"
        }
      ],
      "name": "getAmountsOut",
      "outputs": [
        {
          "internalType": "uint256[]",
          "name": "amounts",
          "type": "uint256[]"
        }
      ],
      "stateMutability": "view",
      "type": "function"
    },
    {
      "inputs": [
        {
          "internalType": "uint256",
          "name": "amountA",
          "type": "uint256"
        },
        {
          "internalType": "uint256",
          "name": "reserveA",
          "type": "uint256"
        },
        {
          "internalType": "uint256",
          "name": "reserveB",
          "type": "uint256"
        }
      ],
      "name": "quote",
      "outputs": [
        {
          "internalType": "uint256",
          "name": "amountB",
          "type": "uint256"
        }
      ],
      "stateMutability": "pure",
      "type": "function"
    },
    {
      "inputs": [
        {
          "internalType": "address",
          "name": "tokenA",
          "type": "address"
        },
        {
          "internalType": "address",
          "name": "tokenB",
          "type": "address"
        },
        {
          "internalType": "uint256",
          "name": "liquidity",
          "type": "uint256"
        },
        {
          "internalType": "uint256",
          "name": "amountAMin",
          "type": "uint256"
        },
        {
          "internalType": "uint256",
          "name": "amountBMin",
          "type": "uint256"
        },
        {
          "internalType": "address",
          "name": "to",
          "type": "address"
        },
        {
          "internalType": "uint256",
          "name": "deadline",
          "type": "uint256"
        }
      ],
      "name": "removeLiquidity",
      "outputs": [
        {
          "internalType": "uint256",
          "name": "amountA",
          "type": "uint256"
        },
        {
          "internalType": "uint256",
          "name": "amountB",
          "type": "uint256"
        }
      ],
      "stateMutability": "nonpayable",
      "type": "function"
    },
    {
      "inputs": [
        {
          "internalType": "address",
          "name": "token",
          "type": "address"
        },
        {
          "internalType": "uint256",
          "name": "liquidity",
          "type": "uint256"
        },
        {
          "internalType": "uint256",
          "name": "amountTokenMin",
          "type": "uint256"
        },
        {
          "internalType": "uint256",
          "name": "amountETHMin",
          "type": "uint256"
        },
        {
          "internalType": "address",
          "name": "to",
          "type": "address"
        },
        {
          "internalType": "uint256",
          "name": "deadline",
          "type": "uint256"
        }
      ],
      "name": "removeLiquidityETH",
      "outputs": [
        {
          "internalType": "uint256",
          "name": "amountToken",
          "type": "uint256"
        },
        {
          "internalType": "uint256",
          "name": "amountETH",
          "type": "uint256"
        }
      ],
      "stateMutability": "nonpayable",
      "type": "function"
    },
    {
      "inputs": [
        {
          "internalType": "uint256",
          "name": "amountOut",
          "type": "uint256"
        },
        {
          "internalType": "address[]",
          "name": "path",
          "type": "address[]"
        },
        {
          "internalType": "address",
          "name": "to",
          "type": "address"
        },
        {
          "internalType": "uint256",
          "name": "deadline",
          "type": "uint256"
        }
      ],
      "name": "swapETHForExactTokens",
      "outputs": [
        {
          "internalType": "uint256[]",
          "name": "amounts",
          "type": "uint256[]"
        }
      ],
      "stateMutability": "payable",
      "type": "function"
    },
    {
      "inputs": [
        {
          "internalType": "uint256",
          "name": "amountOutMin",
          "type": "uint256"
        },
        {
          "internalType": "address[]",
          "name": "path",
          "type": "address[]"
        },
        {
          "internalType": "address",
          "name": "to",
          "type": "address"
        },
        {
          "internalType": "uint256",
          "name": "deadline",
          "type": "uint256"
        }
      ],
      "name": "swapExactETHForTokens",
      "outputs": [
        {
          "internalType": "uint256[]",
          "name": "amounts",
          "type": "uint256[]"
        }
      ],
      "stateMutability": "payable",
      "type": "function"
    },
    {
      "inputs": [
        {
          "internalType": "uint256",
          "name": "amountIn",
          "type": "uint256"
        },
        {
          "internalType": "uint256",
          "name": "amountOutMin",
          "type": "uint256"
        },
        {
          "internalType": "address[]",
          "name": "path",
          "type": "address[]"
        },
        {
          "internalType": "address",
          "name": "to",
          "type": "address"
        },
        {
          "internalType": "uint256",
          "name": "deadline",
          "type": "uint256"
        }
      ],
      "name": "swapExactTokensForETH",
      "outputs": [
        {
          "internalType": "uint256[]",
          "name": "amounts",
          "type": "uint256[]"
        }
      ],
      "stateMutability": "nonpayable",
      "type": "function"
    },
    {
      "inputs": [
        {
          "internalType": "uint256",
          "name": "amountIn",
          "type": "uint256"
        },
        {
          "internalType": "uint256",
          "name": "amountOutMin",
          "type": "uint256"
        },
        {
          "internalType": "address[]",
          "name": "path",
          "type": "address[]"
        },
        {
          "internalType": "address",
          "name": "to",
          "type": "address"
        },
        {
          "internalType": "uint256",
          "name": "deadline",
          "type": "uint256"
        }
      ],
      "name": "swapExactTokensForTokens",
      "outputs": [
        {
          "internalType": "uint256[]",
          "name": "amounts",
          "type": "uint256[]"
        }
      ],
      "stateMutability": "nonpayable",
      "type": "function"
    },
    {
      "inputs": [
        {
          "internalType": "uint256",
          "name": "amountOut",
          "type": "uint256"
        },
        {
          "internalType": "uint256",
          "name": "amountInMax",
          "type": "uint256"
        },
        {
          "internalType": "address[]",
          "name": "path",
          "type": "address[]"
        },
        {
          "internalType": "address",
          "name": "to",
          "type": "address"
        },
        {
          "internalType": "uint256",
          "name": "deadline",
          "type": "uint256"
        }
      ],
      "name": "swapTokensForExactETH",
      "outputs": [
        {
          "internalType": "uint256[]",
          "name": "amounts",
          "type": "uint256[]"
        }
      ],
      "stateMutability": "nonpayable",
      "type": "function"
    },
    {
      "inputs": [
        {
          "internalType": "uint256",
          "name": "amountOut",
          "type": "uint256"
        },
        {
          "internalType": "uint256",
          "name": "amountInMax",
          "type": "uint256"
        },
        {
          "internalType": "address[]",
          "name": "path",
          "type": "address[]"
        },
        {
          "internalType": "address",
          "name": "to",
          "type": "address"
        },
        {
          "internalType": "uint256",
          "name": "deadline",
          "type": "uint256"
        }
      ],
      "name": "swapTokensForExactTokens",
      "outputs": [
        {
          "internalType": "uint256[]",
          "name": "amounts",
          "type": "uint256[]"
        }
      ],
      "stateMutability": "nonpayable",
      "type": "function"
    },
    {
      "stateMutability": "payable",
      "type": "receive"
    }
  ],
  "bytecode": "0x60c034620001ea57620034e990600090601f38849003908101601f19168201906001600160401b03821183831017620001d65780839160409687948552833981010312620001ae5780516001600160a01b03918282168203620001d257602001519182168203620001ce5760805260a05273430000000000000000000000000000000000000290813b15620001a1578251634e606c4760e01b8152818160048183875af18015620001c457620001b2575b5090803b15620001ae578180916024855180948193631d70c8d360e31b83523360048401525af18015620001a45762000189575b82516132cf90816200021a82396080518181816101aa015281816104ec015281816107f301528181610959015281816109d301528181610a7301528181610ca901528181610e6c015281816110ed0152818161139e015281816114c00152818161153d015281816116ef015281816128a60152612fc0015260a05181818160370152818161017a015281816104b8015281816110bb0152818161148201526116c20152f35b620001958291620001ef565b620001a15780620000e4565b80fd5b83513d84823e3d90fd5b5080fd5b620001bd90620001ef565b38620000b0565b84513d84823e3d90fd5b8280fd5b8380fd5b634e487b7160e01b84526041600452602484fd5b600080fd5b6001600160401b0381116200020357604052565b634e487b7160e01b600052604160045260246000fdfe604060808152600480361015610060575b5050361561001d57600080fd5b61005e73ffffffffffffffffffffffffffffffffffffffff7f00000000000000000000000000000000000000000000000000000000000000001633146120b4565b005b600091823560e01c806302751cec1461167f578063054d50d41461166357806318cbafe5146114e45780631f00ca74146114a65780632a675f591461143757806338ed1739146113855780634a25d94a146110355780637ff36ab514610e4a57806385f8c25914610e2e5780638803dbee14610c7c57806397d7577614610c2f578063ad615dec14610c0c578063baa2abde146109f7578063c45a015514610988578063d06ca61f1461093f578063e8e337001461075e578063f305d7191461047e5763fb3bdb41146101335750610010565b61014f61013f36611d88565b9691929396949094421115611dff565b8115610452576101a59061016284611edf565b73ffffffffffffffffffffffffffffffffffffffff927f000000000000000000000000000000000000000000000000000000000000000084169184168214611f00565b6101dc7f0000000000000000000000000000000000000000000000000000000000000000986101d5368789611cbb565b908a612b4f565b976101f26101e98a611f65565b51341015612011565b896101fc8a611f65565b51833b1561040e578185918b51928380927fd0e30db0000000000000000000000000000000000000000000000000000000008252885af180156104045761043e575b505061024986611edf565b938560011015610412578a9061026d602089019661026688611edf565b90856126a3565b16803b1561040e57818091868c51809481937ffff6cae90000000000000000000000000000000000000000000000000000000083525af18015610404576103e6575b5050906102d560209392610337956102cf6102c98a611edf565b91611edf565b916126a3565b8a6102df8b611f65565b51938a51968795869485937fa9059cbb00000000000000000000000000000000000000000000000000000000855284016020909392919373ffffffffffffffffffffffffffffffffffffffff60408201951681520152565b03925af19081156103dc579161036061036d959492610367946103889a916103ad575b506120b4565b3691611cbb565b846128a1565b61037682611f65565b51341161038c575b5191829182611bc7565b0390f35b6103a86103a261039b84611f65565b5134611e64565b33612274565b61037e565b6103cf915060203d6020116103d5575b6103c78183611c62565b81019061209c565b3861035a565b503d6103bd565b85513d89823e3d90fd5b6103f39094939294611c03565b61040057909189386102af565b8980fd5b8a513d84823e3d90fd5b5080fd5b60248b6032867f4e487b7100000000000000000000000000000000000000000000000000000000835252fd5b61044790611c03565b61040057893861023e565b8660326024927f4e487b7100000000000000000000000000000000000000000000000000000000835252fd5b6104e261049f84868561049036611a79565b99929394989099421115611dff565b73ffffffffffffffffffffffffffffffffffffffff92837f000000000000000000000000000000000000000000000000000000000000000016943490868b612f78565b97909661051084827f00000000000000000000000000000000000000000000000000000000000000006126a3565b9383851691823b156107505786517ffff6cae900000000000000000000000000000000000000000000000000000000815288818b8183885af1801561075457898c928992610736575b5050610566923390612765565b803b156107285785517fd0e30db000000000000000000000000000000000000000000000000000000000815287818a818e865af1801561072c57918991899361070f575b5061060a908c89519485809481937fa9059cbb00000000000000000000000000000000000000000000000000000000835260209c8d9884016020909392919373ffffffffffffffffffffffffffffffffffffffff60408201951681520152565b03925af19081156107055760249261062d879695938a9384916106e857506120b4565b8751998a9586947f6a62784200000000000000000000000000000000000000000000000000000000865216908401525af19283156106dd57926106a6575b506103889250843411610694575b51938493846040919493926060820195825260208201520152565b6106a16103a28634611e64565b610679565b90915082813d83116106d6575b6106bd8183611c62565b810103126106d1576103889151908561066b565b600080fd5b503d6106b3565b8251903d90823e3d90fd5b6106ff9150883d8a116103d5576103c78183611c62565b8e61035a565b86513d89823e3d90fd5b61071b91939250611c03565b610728578787918c6105aa565b8680fd5b87513d8a823e3d90fd5b9092506107439150611c03565b610750578986898e610559565b8780fd5b88513d8b823e3d90fd5b50823461093c576101007ffffffffffffffffffffffffffffffffffffffffffffffffffffffffffffffffc36011261093c57610798611a33565b906107a1611a56565b9260c43573ffffffffffffffffffffffffffffffffffffffff958682168092036106d1576107d34260e4351015611dff565b6107e960a4356084356064356044358a8a612f78565b97909661081781887f00000000000000000000000000000000000000000000000000000000000000006126a3565b91821696873b156107285785517ffff6cae900000000000000000000000000000000000000000000000000000000815287818681838d5af1801561072c5791888b928d96959461091c575b5050926108849261087d602496938360209a99973390612765565b3390612765565b85855197889485937f6a6278420000000000000000000000000000000000000000000000000000000085528401525af191821561091157916108db575b519283526020830193909352506040810191909152606090f35b90506020823d602011610909575b816108f660209383611c62565b810103126106d1576103889151906108c1565b3d91506108e9565b9051903d90823e3d90fd5b90925061092c9193949550611c03565b6107285790888a9392888d610862565b80fd5b83823461040e576103889061097d61095636611d26565b907f00000000000000000000000000000000000000000000000000000000000000006125d3565b905191829182611bc7565b83823461040e57817ffffffffffffffffffffffffffffffffffffffffffffffffffffffffffffffffc36011261040e576020905173ffffffffffffffffffffffffffffffffffffffff7f0000000000000000000000000000000000000000000000000000000000000000168152f35b5091903461040e5760e07ffffffffffffffffffffffffffffffffffffffffffffffffffffffffffffffffc36011261040e57610a31611a33565b610a39611a56565b9260a4359073ffffffffffffffffffffffffffffffffffffffff918281168091036106d157610a6c4260c4351015611dff565b610a9786857f00000000000000000000000000000000000000000000000000000000000000006126a3565b87517f23b872dd0000000000000000000000000000000000000000000000000000000081523381880190815273ffffffffffffffffffffffffffffffffffffffff83166020828101919091526044356040830152928616979290829081906060010381878b5af18015610c0257916024918a9493610be3575b5084845198899485937f89afcb440000000000000000000000000000000000000000000000000000000085528401525af1948515610bd75781948296610b9b575b5090610b5e839285612e5a565b50905016911614600014610b9657905b610b7c606435831015612100565b610b8a60843582101561218b565b82519182526020820152f35b610b6e565b8392919650610b5e9550610bc490883d8a11610bd0575b610bbc8183611c62565b8101906120ea565b95909596919250610b51565b503d610bb2565b508551903d90823e3d90fd5b610bfb9060203d6020116103d5576103c78183611c62565b5038610b10565b89513d86823e3d90fd5b83823461040e57602090610c28610c2236611ae4565b91612da9565b9051908152f35b83823461040e57817ffffffffffffffffffffffffffffffffffffffffffffffffffffffffffffffffc36011261040e57602090517343000000000000000000000000000000000000028152f35b5082903461040e57610ca1610c9036611b4d565b989397919492959098421115611dff565b610ced610cdb7f000000000000000000000000000000000000000000000000000000000000000093610cd436888a611cbb565b9085612b4f565b97610ce589611f65565b511115612011565b8315610e0257610cfc85611edf565b928460011015610dd65773ffffffffffffffffffffffffffffffffffffffff610d336020880195610d2c87611edf565b90866126a3565b1690813b15610dd257829182918951809481937ffff6cae90000000000000000000000000000000000000000000000000000000083525af18015610dc857610db4575b505092610388969261036061036793610da261037e97610d9586611edf565b926102cf6102c988611edf565b610dab8a611f65565b51913390612765565b610dbe8291611c03565b61093c5780610d76565b87513d84823e3d90fd5b8280fd5b9060326024927f4e487b7100000000000000000000000000000000000000000000000000000000835252fd5b806032847f4e487b71000000000000000000000000000000000000000000000000000000006024945252fd5b83823461040e57602090610c28610e4436611ae4565b91612c5b565b50610e5761013f36611d88565b811561045257610e6a9061016284611edf565b7f0000000000000000000000000000000000000000000000000000000000000000610ea0610e99368789611cbb565b34836125d3565b9889517fffffffffffffffffffffffffffffffffffffffffffffffffffffffffffffffff81019081116110095790610edb610ee3928c611f72565b511015611f86565b89610eed8a611f65565b51833b1561040e578185918b51928380927fd0e30db0000000000000000000000000000000000000000000000000000000008252885af1801561040457610ff5575b5050610f3a86611edf565b938560011015610412578a90610f57602089019661026688611edf565b16803b1561040e57818091868c51809481937ffff6cae90000000000000000000000000000000000000000000000000000000083525af1801561040457610fdb575b5050906102d560209392610fb3956102cf6102c98a611edf565b03925af19081156103dc579161036061037e959492610367946103889a916103ad57506120b4565b610fe89094939294611c03565b6104005790918938610f99565b610ffe90611c03565b610400578938610f2f565b60248c6011877f4e487b7100000000000000000000000000000000000000000000000000000000835252fd5b5082903461040e5761105a61104936611b4d565b979397959095929192421115611dff565b7fffffffffffffffffffffffffffffffffffffffffffffffffffffffffffffffff93848301838111611359579061109f61109a8493866110e59796611ea0565b611edf565b9073ffffffffffffffffffffffffffffffffffffffff948592837f0000000000000000000000000000000000000000000000000000000000000000169687911614611f00565b61112961111f7f000000000000000000000000000000000000000000000000000000000000000092611118368888611cbb565b9084612b4f565b9a610ce58c611f65565b831561132d5761113883611edf565b9184600110156113015761115a602085019361115385611edf565b90846126a3565b16803b15610728578680918d8c51809481937ffff6cae90000000000000000000000000000000000000000000000000000000083525af180156112f7579087916112df575b5050916111d06111d9926111c76111df96956111ba85611edf565b926102cf6102c987611edf565b610dab8d611f65565b30923691611cbb565b886128a1565b85518381019081116112b3576111f59087611f72565b51813b15610dd257829160248392885194859384927f2e1a7d4d0000000000000000000000000000000000000000000000000000000084528d8401525af180156112a957908291611295575b5050845191820191821161126957610388858561037e866112628785611f72565b5190612274565b806011877f4e487b71000000000000000000000000000000000000000000000000000000006024945252fd5b61129e90611c03565b61093c578087611241565b85513d84823e3d90fd5b60248360118a7f4e487b7100000000000000000000000000000000000000000000000000000000835252fd5b6112e890611c03565b6112f357858c61119f565b8580fd5b8a513d89823e3d90fd5b60248760328e7f4e487b7100000000000000000000000000000000000000000000000000000000835252fd5b60248660328d7f4e487b7100000000000000000000000000000000000000000000000000000000835252fd5b60248560118c7f4e487b7100000000000000000000000000000000000000000000000000000000835252fd5b5082903461040e57611399610c9036611b4d565b6113d07f0000000000000000000000000000000000000000000000000000000000000000926113c9368789611cbb565b90846125d3565b9687517fffffffffffffffffffffffffffffffffffffffffffffffffffffffffffffffff810190811161140b5790610edb610ced928a611f72565b6024836011877f4e487b7100000000000000000000000000000000000000000000000000000000835252fd5b83823461040e57817ffffffffffffffffffffffffffffffffffffffffffffffffffffffffffffffffc36011261040e576020905173ffffffffffffffffffffffffffffffffffffffff7f0000000000000000000000000000000000000000000000000000000000000000168152f35b83823461040e576103889061097d6114bd36611d26565b907f0000000000000000000000000000000000000000000000000000000000000000612b4f565b5082903461040e576114f861104936611b4d565b7fffffffffffffffffffffffffffffffffffffffffffffffffffffffffffffffff93848301838111611359579061109f61109a8493866115389796611ea0565b61156f7f000000000000000000000000000000000000000000000000000000000000000091611568368787611cbb565b90836125d3565b998a518881019081116116375790610edb61158a928d611f72565b831561132d5761159983611edf565b918460011015611301576115b4602085019361115385611edf565b16803b15610728578680918d8c51809481937ffff6cae90000000000000000000000000000000000000000000000000000000083525af180156112f757611610575b50916111d06111d9926111c76111df96956111ba85611edf565b6111d9926111c76111df9695939861162a6111d094611c03565b98939596505092506115f6565b60248860118f7f4e487b7100000000000000000000000000000000000000000000000000000000835252fd5b83823461040e57602090610c2861167936611ae4565b916123e3565b5091903461040e5761169036611a79565b969196959093949295421115926116a684611dff565b73ffffffffffffffffffffffffffffffffffffffff976116e8897f00000000000000000000000000000000000000000000000000000000000000001695611dff565b61171385837f00000000000000000000000000000000000000000000000000000000000000006126a3565b8a517f23b872dd0000000000000000000000000000000000000000000000000000000081523385820190815273ffffffffffffffffffffffffffffffffffffffff8316602082810191909152604082019a909a52918b1691899082908190606001038189865af18015611a2957918c918793611a0c575b5060248251809481937f89afcb44000000000000000000000000000000000000000000000000000000008352308a8401525af1998a15611a02578591869b6119e1575b50806117d98886612e5a565b5016908416146000146119cd57916118058593926117fd85949c9b5b8d1015612100565b8a101561218b565b8a517fa9059cbb0000000000000000000000000000000000000000000000000000000089820190815273ffffffffffffffffffffffffffffffffffffffff89166024830152604482018c905290839061188981606481015b037fffffffffffffffffffffffffffffffffffffffffffffffffffffffffffffffe08101835282611c62565b51925af1611895612216565b8161199d575b501561191b57823b1561040e578560248392838b5196879485937f2e1a7d4d0000000000000000000000000000000000000000000000000000000085528401525af190811561191057509184916118f793611901575b50612274565b8351928352820152f35b61190a90611c03565b386118f1565b8751903d90823e3d90fd5b608490858951917f08c379a0000000000000000000000000000000000000000000000000000000008352820152602d60248201527f5472616e7366657248656c7065723a3a736166655472616e736665723a20747260448201527f616e73666572206661696c6564000000000000000000000000000000000000006064820152fd5b805180159250879083156119b5575b5050503861189b565b6119c5935082018101910161209c565b3886816119ac565b98916118058593926117fd85949c9b6117f5565b909a506119fb91508b3d8d11610bd057610bbc8183611c62565b99386117cd565b8b513d87823e3d90fd5b611a22908b3d8d116103d5576103c78183611c62565b503861178a565b8c513d88823e3d90fd5b6004359073ffffffffffffffffffffffffffffffffffffffff821682036106d157565b6024359073ffffffffffffffffffffffffffffffffffffffff821682036106d157565b7ffffffffffffffffffffffffffffffffffffffffffffffffffffffffffffffffc60c09101126106d15773ffffffffffffffffffffffffffffffffffffffff60043581811681036106d1579160243591604435916064359160843590811681036106d1579060a43590565b7ffffffffffffffffffffffffffffffffffffffffffffffffffffffffffffffffc60609101126106d157600435906024359060443590565b9181601f840112156106d15782359167ffffffffffffffff83116106d1576020808501948460051b0101116106d157565b60a07ffffffffffffffffffffffffffffffffffffffffffffffffffffffffffffffffc8201126106d15760043591602435916044359067ffffffffffffffff82116106d157611b9e91600401611b1c565b909160643573ffffffffffffffffffffffffffffffffffffffff811681036106d1579060843590565b602090602060408183019282815285518094520193019160005b828110611bef575050505090565b835185529381019392810192600101611be1565b67ffffffffffffffff8111611c1757604052565b7f4e487b7100000000000000000000000000000000000000000000000000000000600052604160045260246000fd5b6020810190811067ffffffffffffffff821117611c1757604052565b90601f7fffffffffffffffffffffffffffffffffffffffffffffffffffffffffffffffe0910116810190811067ffffffffffffffff821117611c1757604052565b67ffffffffffffffff8111611c175760051b60200190565b9291611cc682611ca3565b91611cd46040519384611c62565b829481845260208094019160051b81019283116106d157905b828210611cfa5750505050565b813573ffffffffffffffffffffffffffffffffffffffff811681036106d1578152908301908301611ced565b9060407ffffffffffffffffffffffffffffffffffffffffffffffffffffffffffffffffc8301126106d157600435916024359067ffffffffffffffff82116106d157806023830112156106d157816024611d8593600401359101611cbb565b90565b9060807ffffffffffffffffffffffffffffffffffffffffffffffffffffffffffffffffc8301126106d157600435916024359067ffffffffffffffff82116106d157611dd691600401611b1c565b909160443573ffffffffffffffffffffffffffffffffffffffff811681036106d1579060643590565b15611e0657565b60646040517f08c379a000000000000000000000000000000000000000000000000000000000815260206004820152601860248201527f556e69737761705632526f757465723a204558504952454400000000000000006044820152fd5b91908203918211611e7157565b7f4e487b7100000000000000000000000000000000000000000000000000000000600052601160045260246000fd5b9190811015611eb05760051b0190565b7f4e487b7100000000000000000000000000000000000000000000000000000000600052603260045260246000fd5b3573ffffffffffffffffffffffffffffffffffffffff811681036106d15790565b15611f0757565b60646040517f08c379a000000000000000000000000000000000000000000000000000000000815260206004820152601d60248201527f556e69737761705632526f757465723a20494e56414c49445f504154480000006044820152fd5b805115611eb05760200190565b8051821015611eb05760209160051b010190565b15611f8d57565b60846040517f08c379a000000000000000000000000000000000000000000000000000000000815260206004820152602b60248201527f556e69737761705632526f757465723a20494e53554646494349454e545f4f5560448201527f545055545f414d4f554e540000000000000000000000000000000000000000006064820152fd5b1561201857565b60846040517f08c379a000000000000000000000000000000000000000000000000000000000815260206004820152602760248201527f556e69737761705632526f757465723a204558434553534956455f494e50555460448201527f5f414d4f554e54000000000000000000000000000000000000000000000000006064820152fd5b908160209103126106d1575180151581036106d15790565b156120bb57565b7f4e487b7100000000000000000000000000000000000000000000000000000000600052600160045260246000fd5b91908260409103126106d1576020825192015190565b1561210757565b60846040517f08c379a000000000000000000000000000000000000000000000000000000000815260206004820152602660248201527f556e69737761705632526f757465723a20494e53554646494349454e545f415f60448201527f414d4f554e5400000000000000000000000000000000000000000000000000006064820152fd5b1561219257565b60846040517f08c379a000000000000000000000000000000000000000000000000000000000815260206004820152602660248201527f556e69737761705632526f757465723a20494e53554646494349454e545f425f60448201527f414d4f554e5400000000000000000000000000000000000000000000000000006064820152fd5b3d1561226f573d9067ffffffffffffffff8211611c17576040519161226360207fffffffffffffffffffffffffffffffffffffffffffffffffffffffffffffffe0601f8401160184611c62565b82523d6000602084013e565b606090565b600080809381938260405161228881611c46565b525af1612293612216565b501561229b57565b60846040517f08c379a000000000000000000000000000000000000000000000000000000000815260206004820152603460248201527f5472616e7366657248656c7065723a3a736166655472616e736665724554483a60448201527f20455448207472616e73666572206661696c65640000000000000000000000006064820152fd5b1561232657565b60846040517f08c379a000000000000000000000000000000000000000000000000000000000815260206004820152602860248201527f4d696e65626c6173744c6962726172793a20494e53554646494349454e545f4c60448201527f49515549444954590000000000000000000000000000000000000000000000006064820152fd5b81156123b4570490565b7f4e487b7100000000000000000000000000000000000000000000000000000000600052601260045260246000fd5b919091801561249b5761241461240d61241a9285151580612492575b6124089061231f565b6130b5565b9283613151565b92613132565b90810190818111611e7157811061243457611d85916123aa565b60646040517f08c379a000000000000000000000000000000000000000000000000000000000815260206004820152601460248201527f64732d6d6174682d6164642d6f766572666c6f770000000000000000000000006044820152fd5b508415156123ff565b60846040517f08c379a000000000000000000000000000000000000000000000000000000000815260206004820152602b60248201527f4d696e65626c6173744c6962726172793a20494e53554646494349454e545f4960448201527f4e5055545f414d4f554e540000000000000000000000000000000000000000006064820152fd5b1561252657565b60646040517f08c379a000000000000000000000000000000000000000000000000000000000815260206004820152601e60248201527f4d696e65626c6173744c6962726172793a20494e56414c49445f5041544800006044820152fd5b9061258e82611ca3565b61259b6040519182611c62565b8281527fffffffffffffffffffffffffffffffffffffffffffffffffffffffffffffffe06125c98294611ca3565b0190602036910137565b92916125e360028251101561251f565b6125ed8151612584565b916125f783611f65565b5260005b81517fffffffffffffffffffffffffffffffffffffffffffffffffffffffffffffffff8101908111611e715781101561269d5773ffffffffffffffffffffffffffffffffffffffff908161264f8285611f72565b5116916001820190818311611e715761268f61267e60019561269693612675868a611f72565b5116908b6131a9565b90612689868a611f72565b516123e3565b9186611f72565b52016125fb565b50509150565b916126b090602092612e5a565b919092604473ffffffffffffffffffffffffffffffffffffffff948580938160405197889687957fe6a43905000000000000000000000000000000000000000000000000000000008752166004860152166024840152165afa9081156127595760009161271e575b50905090565b6020813d602011612751575b8161273760209383611c62565b8101031261040e5751918216820361093c57508038612718565b3d915061272a565b6040513d6000823e3d90fd5b90600080946127d4829561185d60405193849260208401977f23b872dd0000000000000000000000000000000000000000000000000000000089526024850160409194939294606082019573ffffffffffffffffffffffffffffffffffffffff80921683521660208201520152565b51925af16127e0612216565b81612872575b50156127ee57565b60846040517f08c379a000000000000000000000000000000000000000000000000000000000815260206004820152603160248201527f5472616e7366657248656c7065723a3a7472616e7366657246726f6d3a20747260448201527f616e7366657246726f6d206661696c65640000000000000000000000000000006064820152fd5b8051801592508215612887575b5050386127e6565b61289a925060208091830101910161209c565b388061287f565b9092917f00000000000000000000000000000000000000000000000000000000000000009060005b85517fffffffffffffffffffffffffffffffffffffffffffffffffffffffffffffffff8101908111611e7157811015612b475773ffffffffffffffffffffffffffffffffffffffff8061291c8389611f72565b51166001830191828411611e715780612935848b611f72565b51168161294d6129458386612e5a565b50958a611f72565b5194168303612b3f57600093905b8a517ffffffffffffffffffffffffffffffffffffffffffffffffffffffffffffffffe8101908111611e71578390871015612b3757506002860190818711611e71576129b5846129ac81948f611f72565b5116828b6126a3565b945b87612ac1575b906129c8918a6126a3565b16916040938451926129d984611c46565b60008452843b156106d15785517f022c0d9f0000000000000000000000000000000000000000000000000000000081526004810197909752602487015216604485015260806064850152805160848501819052849160005b828110612aa9575050918160008094827fffffffffffffffffffffffffffffffffffffffffffffffffffffffffffffffe0601f60a49385858286010152011681010301925af1908115612a9f57509060019291612a90575b50016128c9565b612a9990611c03565b38612a89565b513d6000823e3d90fd5b602082820181015160a4898401015287945001612a31565b9091612ace83838c6126a3565b16803b156106d1576000908160409160048351809581937ffff6cae90000000000000000000000000000000000000000000000000000000083525af1908115612a9f5750918593916129c893612b28575b509091506129bd565b612b3190611c03565b38612b1f565b9087946129b7565b60009061295b565b505050509050565b929192612b6060028551101561251f565b612b6a8451612584565b938451927fffffffffffffffffffffffffffffffffffffffffffffffffffffffffffffffff93848101908111611e7157612ba49087611f72565b528051838101908111611e7157805b612bbd5750505050565b838101818111612c2d57612c1e612c17612c0673ffffffffffffffffffffffffffffffffffffffff80612bf08689611f72565b511690612bfd8789611f72565b511690886131a9565b90612c11868c611f72565b51612c5b565b9188611f72565b528015612c2d57830180612bb3565b602460007f4e487b710000000000000000000000000000000000000000000000000000000081526011600452fd5b908115612d2557612c89612c848383612c9094151580612d1c575b612c7f9061231f565b613151565b613132565b9183611e64565b918211612cbe57612ca3612ca9926130b5565b906123aa565b6001810190818111611e715781106124345790565b60646040517f08c379a000000000000000000000000000000000000000000000000000000000815260206004820152601560248201527f64732d6d6174682d7375622d756e646572666c6f7700000000000000000000006044820152fd5b50861515612c76565b60846040517f08c379a000000000000000000000000000000000000000000000000000000000815260206004820152602c60248201527f4d696e65626c6173744c6962726172793a20494e53554646494349454e545f4f60448201527f55545055545f414d4f554e5400000000000000000000000000000000000000006064820152fd5b8015612dd657611d8592612dc89183151580612dcd57612c7f9061231f565b6123aa565b50811515612c76565b60846040517f08c379a000000000000000000000000000000000000000000000000000000000815260206004820152602560248201527f4d696e65626c6173744c6962726172793a20494e53554646494349454e545f4160448201527f4d4f554e540000000000000000000000000000000000000000000000000000006064820152fd5b909173ffffffffffffffffffffffffffffffffffffffff91828416838216818114612ef4571015612eef57925b91831615612e9157565b60646040517f08c379a000000000000000000000000000000000000000000000000000000000815260206004820152601e60248201527f4d696e65626c6173744c6962726172793a205a45524f5f4144445245535300006044820152fd5b612e87565b60846040517f08c379a000000000000000000000000000000000000000000000000000000000815260206004820152602560248201527f4d696e65626c6173744c6962726172793a204944454e544943414c5f4144445260448201527f45535345530000000000000000000000000000000000000000000000000000006064820152fd5b94919493909293604051937f3274946100000000000000000000000000000000000000000000000000000000855273ffffffffffffffffffffffffffffffffffffffff8092817f000000000000000000000000000000000000000000000000000000000000000016600488015216602486015216604484015260408360648173__$1e7484ef1c9146035a34ca82ca83ec3d07$__5af492831561275957600090600094613091575b50801580613089575b1561303657505050509091565b61304584828897959697612da9565b94838611613061575050505061305d9082101561218b565b9091565b83955061305d945090613078916130819394612da9565b948511156120b4565b831015612100565b508315613029565b90506130ad91935060403d604011610bd057610bbc8183611c62565b929038613020565b906103e59182810292818404811482151715611e71578304036130d457565b60646040517f08c379a000000000000000000000000000000000000000000000000000000000815260206004820152601460248201527f64732d6d6174682d6d756c2d6f766572666c6f770000000000000000000000006044820152fd5b906103e89182810292818404811482151715611e71578304036130d457565b600092918015918215613168575b5050156130d457565b80820294509150811582850482141715611e715761318690846123aa565b14388061315f565b51906dffffffffffffffffffffffffffff821682036106d157565b908060606004936131dc6131bd8785612e5a565b509673ffffffffffffffffffffffffffffffffffffffff9485936126a3565b16604051948580927f0902f1ac0000000000000000000000000000000000000000000000000000000082525afa928315612759576000908194613240575b5081906dffffffffffffffffffffffffffff8091169416941691161460001461305d5791565b93506060843d606011613291575b8161325b60609383611c62565b8101031261093c5761326c8461318e565b90604061327b6020870161318e565b95015163ffffffff81160361093c57508161321a565b3d915061324e56fea26469706673582212206bdf0921e01be6ca5895e45082ae1fe2d764515a6af2d8fc2b0f5dd3a289d7fb64736f6c63430008170033",
  "linkReferences": {
    "src/swap/libraries/MineblastLibrary.sol": {
      "MineblastLibrary": [
        {
          "length": 20,
          "start": 12819
        }
      ]
    }
  },
  "deployedLinkReferences": {
    "src/swap/libraries/MineblastLibrary.sol": {
      "MineblastLibrary": [
        {
          "length": 20,
          "start": 12281
        }
      ]
    }
  }
}