{
  "_format": "hh-sol-artifact-1",
  "contractName": "BlastTestnetAddressBook",
  "sourceName": "src/blast/BlastTestnetAddressBook.sol",
  "abi": [
    {
      "inputs": [],
      "stateMutability": "nonpayable",
      "type": "constructor"
    },
    {
      "inputs": [],
      "name": "addresses",
      "outputs": [
        {
          "internalType": "address",
          "name": "weth",
          "type": "address"
        },
        {
          "internalType": "address",
          "name": "usdb",
          "type": "address"
        }
      ],
      "stateMutability": "view",
      "type": "function"
    }
  ],
  "bytecode": "0x6080346100945760408101906001600160401b0382118183101761007e5760209160405273420000000000000000000000000000000000002390818152734200000000000000000000000000000000000022928391015260018060a01b031990816000541617600055600154161760015560405160b8908161009a8239f35b634e487b7160e01b600052604160045260246000fd5b600080fdfe6080806040526004361015601257600080fd5b600090813560e01c63da0321cd14602857600080fd5b34607e57817ffffffffffffffffffffffffffffffffffffffffffffffffffffffffffffffffc360112607e57905460015473ffffffffffffffffffffffffffffffffffffffff9182168352166020820152604090f35b5080fdfea264697066735822122033caaa6a0f61075bdd111f39384bdecfdaf63709618433fc5b0582192524d33a64736f6c63430008170033",
  "linkReferences": {},
  "deployedLinkReferences": {}
}