{
  "_format": "hh-sol-artifact-1",
  "contractName": "MineblastSwapPair",
  "sourceName": "src/swap/MineblastSwapPair.sol",
  "abi": [
    {
      "inputs": [],
      "stateMutability": "nonpayable",
      "type": "constructor"
    },
    {
      "anonymous": false,
      "inputs": [
        {
          "indexed": true,
          "internalType": "address",
          "name": "owner",
          "type": "address"
        },
        {
          "indexed": true,
          "internalType": "address",
          "name": "spender",
          "type": "address"
        },
        {
          "indexed": false,
          "internalType": "uint256",
          "name": "value",
          "type": "uint256"
        }
      ],
      "name": "Approval",
      "type": "event"
    },
    {
      "anonymous": false,
      "inputs": [
        {
          "indexed": true,
          "internalType": "address",
          "name": "sender",
          "type": "address"
        },
        {
          "indexed": false,
          "internalType": "uint256",
          "name": "amount0",
          "type": "uint256"
        },
        {
          "indexed": false,
          "internalType": "uint256",
          "name": "amount1",
          "type": "uint256"
        },
        {
          "indexed": true,
          "internalType": "address",
          "name": "to",
          "type": "address"
        }
      ],
      "name": "Burn",
      "type": "event"
    },
    {
      "anonymous": false,
      "inputs": [
        {
          "indexed": true,
          "internalType": "address",
          "name": "sender",
          "type": "address"
        },
        {
          "indexed": false,
          "internalType": "uint256",
          "name": "amount0",
          "type": "uint256"
        },
        {
          "indexed": false,
          "internalType": "uint256",
          "name": "amount1",
          "type": "uint256"
        }
      ],
      "name": "Mint",
      "type": "event"
    },
    {
      "anonymous": false,
      "inputs": [
        {
          "indexed": true,
          "internalType": "address",
          "name": "sender",
          "type": "address"
        },
        {
          "indexed": false,
          "internalType": "uint256",
          "name": "amount0In",
          "type": "uint256"
        },
        {
          "indexed": false,
          "internalType": "uint256",
          "name": "amount1In",
          "type": "uint256"
        },
        {
          "indexed": false,
          "internalType": "uint256",
          "name": "amount0Out",
          "type": "uint256"
        },
        {
          "indexed": false,
          "internalType": "uint256",
          "name": "amount1Out",
          "type": "uint256"
        },
        {
          "indexed": true,
          "internalType": "address",
          "name": "to",
          "type": "address"
        }
      ],
      "name": "Swap",
      "type": "event"
    },
    {
      "anonymous": false,
      "inputs": [
        {
          "indexed": false,
          "internalType": "uint112",
          "name": "reserve0",
          "type": "uint112"
        },
        {
          "indexed": false,
          "internalType": "uint112",
          "name": "reserve1",
          "type": "uint112"
        }
      ],
      "name": "Sync",
      "type": "event"
    },
    {
      "anonymous": false,
      "inputs": [
        {
          "indexed": true,
          "internalType": "address",
          "name": "from",
          "type": "address"
        },
        {
          "indexed": true,
          "internalType": "address",
          "name": "to",
          "type": "address"
        },
        {
          "indexed": false,
          "internalType": "uint256",
          "name": "value",
          "type": "uint256"
        }
      ],
      "name": "Transfer",
      "type": "event"
    },
    {
      "inputs": [],
      "name": "DOMAIN_SEPARATOR",
      "outputs": [
        {
          "internalType": "bytes32",
          "name": "",
          "type": "bytes32"
        }
      ],
      "stateMutability": "view",
      "type": "function"
    },
    {
      "inputs": [],
      "name": "MINIMUM_LIQUIDITY",
      "outputs": [
        {
          "internalType": "uint256",
          "name": "",
          "type": "uint256"
        }
      ],
      "stateMutability": "view",
      "type": "function"
    },
    {
      "inputs": [],
      "name": "PERMIT_TYPEHASH",
      "outputs": [
        {
          "internalType": "bytes32",
          "name": "",
          "type": "bytes32"
        }
      ],
      "stateMutability": "view",
      "type": "function"
    },
    {
      "inputs": [
        {
          "internalType": "address",
          "name": "",
          "type": "address"
        },
        {
          "internalType": "address",
          "name": "",
          "type": "address"
        }
      ],
      "name": "allowance",
      "outputs": [
        {
          "internalType": "uint256",
          "name": "",
          "type": "uint256"
        }
      ],
      "stateMutability": "view",
      "type": "function"
    },
    {
      "inputs": [
        {
          "internalType": "address",
          "name": "spender",
          "type": "address"
        },
        {
          "internalType": "uint256",
          "name": "value",
          "type": "uint256"
        }
      ],
      "name": "approve",
      "outputs": [
        {
          "internalType": "bool",
          "name": "",
          "type": "bool"
        }
      ],
      "stateMutability": "nonpayable",
      "type": "function"
    },
    {
      "inputs": [
        {
          "internalType": "address",
          "name": "",
          "type": "address"
        }
      ],
      "name": "balanceOf",
      "outputs": [
        {
          "internalType": "uint256",
          "name": "",
          "type": "uint256"
        }
      ],
      "stateMutability": "view",
      "type": "function"
    },
    {
      "inputs": [
        {
          "internalType": "address",
          "name": "to",
          "type": "address"
        }
      ],
      "name": "burn",
      "outputs": [
        {
          "internalType": "uint256",
          "name": "amount0",
          "type": "uint256"
        },
        {
          "internalType": "uint256",
          "name": "amount1",
          "type": "uint256"
        }
      ],
      "stateMutability": "nonpayable",
      "type": "function"
    },
    {
      "inputs": [
        {
          "internalType": "uint256",
          "name": "",
          "type": "uint256"
        }
      ],
      "name": "cumulativesTimestamps",
      "outputs": [
        {
          "internalType": "uint64",
          "name": "",
          "type": "uint64"
        }
      ],
      "stateMutability": "view",
      "type": "function"
    },
    {
      "inputs": [],
      "name": "decimals",
      "outputs": [
        {
          "internalType": "uint8",
          "name": "",
          "type": "uint8"
        }
      ],
      "stateMutability": "view",
      "type": "function"
    },
    {
      "inputs": [],
      "name": "factory",
      "outputs": [
        {
          "internalType": "address",
          "name": "",
          "type": "address"
        }
      ],
      "stateMutability": "view",
      "type": "function"
    },
    {
      "inputs": [
        {
          "internalType": "uint112",
          "name": "amountIn",
          "type": "uint112"
        },
        {
          "internalType": "uint32",
          "name": "maxSecondWindow",
          "type": "uint32"
        }
      ],
      "name": "getAveragePrice",
      "outputs": [
        {
          "internalType": "uint256",
          "name": "result",
          "type": "uint256"
        }
      ],
      "stateMutability": "view",
      "type": "function"
    },
    {
      "inputs": [],
      "name": "getReserves",
      "outputs": [
        {
          "internalType": "uint112",
          "name": "_reserve0",
          "type": "uint112"
        },
        {
          "internalType": "uint112",
          "name": "_reserve1",
          "type": "uint112"
        },
        {
          "internalType": "uint32",
          "name": "_blockTimestampLast",
          "type": "uint32"
        }
      ],
      "stateMutability": "view",
      "type": "function"
    },
    {
      "inputs": [
        {
          "internalType": "address",
          "name": "_token0",
          "type": "address"
        },
        {
          "internalType": "address",
          "name": "_token1",
          "type": "address"
        }
      ],
      "name": "initialize",
      "outputs": [],
      "stateMutability": "nonpayable",
      "type": "function"
    },
    {
      "inputs": [
        {
          "internalType": "address",
          "name": "to",
          "type": "address"
        }
      ],
      "name": "mint",
      "outputs": [
        {
          "internalType": "uint256",
          "name": "liquidity",
          "type": "uint256"
        }
      ],
      "stateMutability": "nonpayable",
      "type": "function"
    },
    {
      "inputs": [],
      "name": "name",
      "outputs": [
        {
          "internalType": "string",
          "name": "",
          "type": "string"
        }
      ],
      "stateMutability": "view",
      "type": "function"
    },
    {
      "inputs": [
        {
          "internalType": "address",
          "name": "",
          "type": "address"
        }
      ],
      "name": "nonces",
      "outputs": [
        {
          "internalType": "uint256",
          "name": "",
          "type": "uint256"
        }
      ],
      "stateMutability": "view",
      "type": "function"
    },
    {
      "inputs": [
        {
          "internalType": "address",
          "name": "owner",
          "type": "address"
        },
        {
          "internalType": "address",
          "name": "spender",
          "type": "address"
        },
        {
          "internalType": "uint256",
          "name": "value",
          "type": "uint256"
        },
        {
          "internalType": "uint256",
          "name": "deadline",
          "type": "uint256"
        },
        {
          "internalType": "uint8",
          "name": "v",
          "type": "uint8"
        },
        {
          "internalType": "bytes32",
          "name": "r",
          "type": "bytes32"
        },
        {
          "internalType": "bytes32",
          "name": "s",
          "type": "bytes32"
        }
      ],
      "name": "permit",
      "outputs": [],
      "stateMutability": "nonpayable",
      "type": "function"
    },
    {
      "inputs": [],
      "name": "price0CumulativeLast",
      "outputs": [
        {
          "internalType": "uint256",
          "name": "",
          "type": "uint256"
        }
      ],
      "stateMutability": "view",
      "type": "function"
    },
    {
      "inputs": [],
      "name": "price1CumulativeLast",
      "outputs": [
        {
          "internalType": "uint256",
          "name": "",
          "type": "uint256"
        }
      ],
      "stateMutability": "view",
      "type": "function"
    },
    {
      "inputs": [
        {
          "internalType": "uint256",
          "name": "",
          "type": "uint256"
        }
      ],
      "name": "price1Cumulatives",
      "outputs": [
        {
          "internalType": "uint256",
          "name": "",
          "type": "uint256"
        }
      ],
      "stateMutability": "view",
      "type": "function"
    },
    {
      "inputs": [
        {
          "internalType": "uint256",
          "name": "amount0Out",
          "type": "uint256"
        },
        {
          "internalType": "uint256",
          "name": "amount1Out",
          "type": "uint256"
        },
        {
          "internalType": "address",
          "name": "to",
          "type": "address"
        },
        {
          "internalType": "bytes",
          "name": "data",
          "type": "bytes"
        }
      ],
      "name": "swap",
      "outputs": [],
      "stateMutability": "nonpayable",
      "type": "function"
    },
    {
      "inputs": [],
      "name": "symbol",
      "outputs": [
        {
          "internalType": "string",
          "name": "",
          "type": "string"
        }
      ],
      "stateMutability": "view",
      "type": "function"
    },
    {
      "inputs": [],
      "name": "sync",
      "outputs": [],
      "stateMutability": "nonpayable",
      "type": "function"
    },
    {
      "inputs": [],
      "name": "token0",
      "outputs": [
        {
          "internalType": "address",
          "name": "",
          "type": "address"
        }
      ],
      "stateMutability": "view",
      "type": "function"
    },
    {
      "inputs": [],
      "name": "token1",
      "outputs": [
        {
          "internalType": "address",
          "name": "",
          "type": "address"
        }
      ],
      "stateMutability": "view",
      "type": "function"
    },
    {
      "inputs": [],
      "name": "totalSupply",
      "outputs": [
        {
          "internalType": "uint256",
          "name": "",
          "type": "uint256"
        }
      ],
      "stateMutability": "view",
      "type": "function"
    },
    {
      "inputs": [
        {
          "internalType": "address",
          "name": "to",
          "type": "address"
        },
        {
          "internalType": "uint256",
          "name": "value",
          "type": "uint256"
        }
      ],
      "name": "transfer",
      "outputs": [
        {
          "internalType": "bool",
          "name": "",
          "type": "bool"
        }
      ],
      "stateMutability": "nonpayable",
      "type": "function"
    },
    {
      "inputs": [
        {
          "internalType": "address",
          "name": "from",
          "type": "address"
        },
        {
          "internalType": "address",
          "name": "to",
          "type": "address"
        },
        {
          "internalType": "uint256",
          "name": "value",
          "type": "uint256"
        }
      ],
      "name": "transferFrom",
      "outputs": [
        {
          "internalType": "bool",
          "name": "",
          "type": "bool"
        }
      ],
      "stateMutability": "nonpayable",
      "type": "function"
    }
  ],
  "bytecode": "0x60808060405234620000f1576020816200001b600a93620000f6565b82815201692ab734b9bbb0b8102b1960b11b815220600160206040516200004281620000f6565b82815201603160f81b815220906040519160208301917f8b73c3c69bb8fe3d512ecc4cf759cc79239f7b179b0ffacaa9a75d522b39400f8352604084015260608301524660808301523060a083015260a0825260c082019180831060018060401b03841117620000db5760408390525190206003556001603455600580546001600160a01b03191633179055612ba09081620001138239f35b634e487b7160e01b600052604160045260246000fd5b600080fd5b604081019081106001600160401b03821117620000db5760405256fe6080604052600436101561001257600080fd5b6000803560e01c8063022c0d9f146116b157806306fdde031461163d5780630902f1ac146115b8578063095ea7b3146115735780630dfe16811461152157806318160ddd146114e657806323b872dd146113fb57806330adf81f146113a2578063313ce567146113685780633644e5151461132c578063485cc9551461123357806349faebde146111c45780635909c0d5146111885780635a3d54931461114c57806367effaca146111015780636a62784214610cad57806370a0823114610c4a5780637ecebe0014610be757806389afcb441461083057806395d89b41146107b8578063a9059cbb14610768578063ba9a7a561461072d578063c45a0155146106db578063cfd8978a1461067a578063d21220a714610628578063d505accf14610348578063dd62ed3e146102cd5763fff6cae91461015157600080fd5b346102ca57807ffffffffffffffffffffffffffffffffffffffffffffffffffffffffffffffffc3601126102ca5761018d600160345414612084565b8060345573ffffffffffffffffffffffffffffffffffffffff80600654169060405190817f70a08231000000000000000000000000000000000000000000000000000000009384825230600483015281602460209586935afa9182156102bf578391869361028e575b50600754169360246040518096819382523060048301525afa91821561028357849261024c575b506102449250600854916dffffffffffffffffffffffffffff808460701c16931691612714565b600160345580f35b90915082813d831161027c575b6102638183611f93565b81010312610277576102449151903861021d565b600080fd5b503d610259565b6040513d86823e3d90fd5b8281939294503d83116102b8575b6102a68183611f93565b810103126102775782905191386101f6565b503d61029c565b6040513d87823e3d90fd5b80fd5b50346102ca5760407ffffffffffffffffffffffffffffffffffffffffffffffffffffffffffffffffc3601126102ca57610305611f15565b604061030f611f38565b9273ffffffffffffffffffffffffffffffffffffffff809316815260026020522091166000526020526020604060002054604051908152f35b50346102ca5760e07ffffffffffffffffffffffffffffffffffffffffffffffffffffffffffffffffc3601126102ca57610380611f15565b610388611f38565b604435906064356084359060ff8216809203610624574281106105c65760035473ffffffffffffffffffffffffffffffffffffffff9182871693848952600460205260408920908154917fffffffffffffffffffffffffffffffffffffffffffffffffffffffffffffffff8314610599576001830190556040519260208401927f6e71edae12b1b97f4d1f60370fef10105fa2faae0126114a169c64845d6126c98452876040860152868916606086015289608086015260a085015260c084015260c0835260e083019383851067ffffffffffffffff86111761056a57848b9461012260809560209860405282519020916101008101947f190100000000000000000000000000000000000000000000000000000000000086526101028201520152604281526104b781611f77565b519020906040519182528482015260a435604082015260c435606082015282805260015afa156102bf57855116908115159182610560575b505015610502576104ff92612958565b80f35b60646040517f08c379a000000000000000000000000000000000000000000000000000000000815260206004820152601c60248201527f556e697377617056323a20494e56414c49445f5349474e4154555245000000006044820152fd5b14905038806104ef565b7f4e487b7100000000000000000000000000000000000000000000000000000000600052604160045260246000fd5b60248b7f4e487b710000000000000000000000000000000000000000000000000000000081526011600452fd5b60646040517f08c379a000000000000000000000000000000000000000000000000000000000815260206004820152601260248201527f556e697377617056323a204558504952454400000000000000000000000000006044820152fd5b8580fd5b50346102ca57807ffffffffffffffffffffffffffffffffffffffffffffffffffffffffffffffffc3601126102ca57602073ffffffffffffffffffffffffffffffffffffffff60075416604051908152f35b50346102ca5760207ffffffffffffffffffffffffffffffffffffffffffffffffffffffffffffffffc3601126102ca576004359060208210156102ca57602067ffffffffffffffff6106cb8461203a565b9190546040519260031b1c168152f35b50346102ca57807ffffffffffffffffffffffffffffffffffffffffffffffffffffffffffffffffc3601126102ca57602073ffffffffffffffffffffffffffffffffffffffff60055416604051908152f35b50346102ca57807ffffffffffffffffffffffffffffffffffffffffffffffffffffffffffffffffc3601126102ca5760206040516103e88152f35b50346102ca5760407ffffffffffffffffffffffffffffffffffffffffffffffffffffffffffffffffc3601126102ca576107ad6107a3611f15565b60243590336129bd565b602060405160018152f35b50346102ca57807ffffffffffffffffffffffffffffffffffffffffffffffffffffffffffffffffc3601126102ca5761082c6040516107f681611f5b565b600681527f554e492d56320000000000000000000000000000000000000000000000000000602082015260405191829182611fd4565b0390f35b50346102ca576020807ffffffffffffffffffffffffffffffffffffffffffffffffffffffffffffffffc360112610be357610869611f15565b91610878600160345414612084565b806034556108a26008546dffffffffffffffffffffffffffff91828216928260701c169160e01c90565b5092909373ffffffffffffffffffffffffffffffffffffffff806006541694816007541694604051957f70a082310000000000000000000000000000000000000000000000000000000080885230600489015286886024818c5afa978815610bd8578398610ba9575b5060405198818a523060048b0152878a602481865afa998a1561028357849a610b7a575b50308452600188526109606040852054996109546109598c610954895494859261266a565b61216c565b9c8c61266a565b988a151580610b71575b15610aed576024939291858a923082526001845261098c8160408420546126a1565b3083526001855260408320556109a38183546126a1565b82556040519081527fddf252ad1be2c89b69c2b068fc378daa952ba7f163c4a11628f55a4df523b3ef843092a36109db8c8a83612485565b6109e68b8a86612485565b604051948580928582523060048301525afa928315610283579088918594610abc575b5060246040518094819382523060048301525afa928315610ab05792610a7a575b5097610a399291604099612714565b855191858352848484015216907fdccd412f0b1252819cb1fd330b93224ca42612892bb3f4f789976e6d81936496863392a360016034558351928352820152f35b929150978583813d8311610aa9575b610a938183611f93565b8101031261027757915191979091906040610a2a565b503d610a89565b604051903d90823e3d90fd5b8281939295503d8311610ae6575b610ad48183611f93565b81010312610277578790519238610a09565b503d610aca565b608489604051907f08c379a00000000000000000000000000000000000000000000000000000000082526004820152602860248201527f556e697377617056323a20494e53554646494349454e545f4c4951554944495460448201527f595f4255524e45440000000000000000000000000000000000000000000000006064820152fd5b5089151561096a565b9099508781813d8311610ba2575b610b928183611f93565b810103126102775751983861092f565b503d610b88565b9097508681813d8311610bd1575b610bc18183611f93565b810103126102775751963861090b565b503d610bb7565b6040513d85823e3d90fd5b5080fd5b50346102ca5760207ffffffffffffffffffffffffffffffffffffffffffffffffffffffffffffffffc3601126102ca57604060209173ffffffffffffffffffffffffffffffffffffffff610c39611f15565b168152600483522054604051908152f35b50346102ca5760207ffffffffffffffffffffffffffffffffffffffffffffffffffffffffffffffffc3601126102ca57604060209173ffffffffffffffffffffffffffffffffffffffff610c9c611f15565b168152600183522054604051908152f35b50346102ca57602090817ffffffffffffffffffffffffffffffffffffffffffffffffffffffffffffffffc3601126102ca57610ce7611f15565b90600190610cf88260345414612084565b80603455610d0c60085460e01c42146120e9565b610d326008546dffffffffffffffffffffffffffff91828216928260701c169160e01c90565b5073ffffffffffffffffffffffffffffffffffffffff9291836006541660405188816024817f70a0823100000000000000000000000000000000000000000000000000000000958682523060048301525afa9081156102bf5785916110d4575b508886600754169260246040518095819382523060048301525afa9182156102bf5785926110a5575b506dffffffffffffffffffffffffffff95868416610dd981846126a1565b97861696610de788866126a1565b978154928a8415600014611070579050610e0592935089915061266a565b81600382111561106257508091818b1c908b82018092116110355750905b8282106110175750505b7ffffffffffffffffffffffffffffffffffffffffffffffffffffffffffffffc188101908111610fe85798610e63600054612ae1565b60005560008052888b52610e7b604060002054612ae1565b60008052898c526040600020556000807fddf252ad1be2c89b69c2b068fc378daa952ba7f163c4a11628f55a4df523b3ef8d6040516103e88152a35b8915610f645790610f299594939291610ed28b600054612b55565b6000551680600052888b52610eec8a604060002054612b55565b81600052898c5260406000205560007fddf252ad1be2c89b69c2b068fc378daa952ba7f163c4a11628f55a4df523b3ef8c6040518d8152a3612714565b604051918252848201527f4c209b5fc8ad50758f13e2e1088ba56a560dff690a1c6fef26394f4c03821c4f60403392a2603455604051908152f35b60848b604051907f08c379a00000000000000000000000000000000000000000000000000000000082526004820152602860248201527f556e697377617056323a20494e53554646494349454e545f4c4951554944495460448201527f595f4d494e5445440000000000000000000000000000000000000000000000006064820152fd5b7f4e487b7100000000000000000000000000000000000000000000000000000000600052601160045260246000fd5b90915061102d82611028818461216c565b612ad4565b8a1c90610e23565b807f4e487b7100000000000000000000000000000000000000000000000000000000602492526011600452fd5b915015610e2d575087610e2d565b61108561108c9392610954876109549461266a565b948b61266a565b90508082101561109e57505b98610eb7565b9050611098565b9091508881813d83116110cd575b6110bd8183611f93565b8101031261027757519038610dbb565b503d6110b3565b90508881813d83116110fa575b6110eb8183611f93565b81010312610277575138610d92565b503d6110e1565b50346102ca5760207ffffffffffffffffffffffffffffffffffffffffffffffffffffffffffffffffc3601126102ca576004356020811015610be357602090600b0154604051908152f35b50346102ca57807ffffffffffffffffffffffffffffffffffffffffffffffffffffffffffffffffc3601126102ca576020600a54604051908152f35b50346102ca57807ffffffffffffffffffffffffffffffffffffffffffffffffffffffffffffffffc3601126102ca576020600954604051908152f35b50346102ca5760407ffffffffffffffffffffffffffffffffffffffffffffffffffffffffffffffffc3601126102ca576004356dffffffffffffffffffffffffffff81168103610be3576024359163ffffffff831683036102ca57602061122b84846121b8565b604051908152f35b50346102ca5760407ffffffffffffffffffffffffffffffffffffffffffffffffffffffffffffffffc3601126102ca5761126b611f15565b611273611f38565b73ffffffffffffffffffffffffffffffffffffffff90816005541633036112ce57817fffffffffffffffffffffffff000000000000000000000000000000000000000093168360065416176006551690600754161760075580f35b60646040517f08c379a000000000000000000000000000000000000000000000000000000000815260206004820152601460248201527f556e697377617056323a20464f5242494444454e0000000000000000000000006044820152fd5b50346102ca57807ffffffffffffffffffffffffffffffffffffffffffffffffffffffffffffffffc3601126102ca576020600354604051908152f35b50346102ca57807ffffffffffffffffffffffffffffffffffffffffffffffffffffffffffffffffc3601126102ca57602060405160128152f35b50346102ca57807ffffffffffffffffffffffffffffffffffffffffffffffffffffffffffffffffc3601126102ca5760206040517f6e71edae12b1b97f4d1f60370fef10105fa2faae0126114a169c64845d6126c98152f35b50346102ca5760607ffffffffffffffffffffffffffffffffffffffffffffffffffffffffffffffffc3601126102ca576114a1611436611f15565b61143e611f38565b6044359173ffffffffffffffffffffffffffffffffffffffff811680865260209560028752604081203360005287527fffffffffffffffffffffffffffffffffffffffffffffffffffffffffffffffff604060002054036114aa575b50506129bd565b60405160018152f35b808260409252600288528181203360005288526114cb8683600020546126a1565b9281526002885220336000528652604060002055388061149a565b50346102ca57807ffffffffffffffffffffffffffffffffffffffffffffffffffffffffffffffffc3601126102ca5760209054604051908152f35b50346102ca57807ffffffffffffffffffffffffffffffffffffffffffffffffffffffffffffffffc3601126102ca57602073ffffffffffffffffffffffffffffffffffffffff60065416604051908152f35b50346102ca5760407ffffffffffffffffffffffffffffffffffffffffffffffffffffffffffffffffc3601126102ca576107ad6115ae611f15565b6024359033612958565b50346102ca57807ffffffffffffffffffffffffffffffffffffffffffffffffffffffffffffffffc3601126102ca57606063ffffffff6116146008546dffffffffffffffffffffffffffff91828216928260701c169160e01c90565b909291604051936dffffffffffffffffffffffffffff8092168552166020840152166040820152f35b50346102ca57807ffffffffffffffffffffffffffffffffffffffffffffffffffffffffffffffffc3601126102ca5761082c60405161167b81611f5b565b600a81527f556e697377617020563200000000000000000000000000000000000000000000602082015260405191829182611fd4565b50346102ca5760807ffffffffffffffffffffffffffffffffffffffffffffffffffffffffffffffffc3601126102ca5773ffffffffffffffffffffffffffffffffffffffff60443516604435036102ca5767ffffffffffffffff606435116102ca573660236064350112156102ca5767ffffffffffffffff60643560040135116102ca57366024606435600401356064350101116102ca57611757600160345414612084565b806034556004351580158091611f0a575b15611e865761177d60085460e01c42146120e9565b6117a36008546dffffffffffffffffffffffffffff91828216928260701c169160e01c90565b506dffffffffffffffffffffffffffff829392166004351080611e6b575b15611de75773ffffffffffffffffffffffffffffffffffffffff6006541673ffffffffffffffffffffffffffffffffffffffff60075416928173ffffffffffffffffffffffffffffffffffffffff60443516141580611dc5575b15611d6757611d53575b602435611d3f575b60643560040135611bf5575b906020602492604051938480927f70a082310000000000000000000000000000000000000000000000000000000082523060048301525afa9182156102bf578592611bbe575b506020602493604051948580927f70a082310000000000000000000000000000000000000000000000000000000082523060048301525afa9283156102bf578593611b8a575b506118e26004356dffffffffffffffffffffffffffff861661214e565b821115611b835761190e6119086004356dffffffffffffffffffffffffffff871661214e565b8361214e565b935b6dffffffffffffffffffffffffffff82169361192e6024358661214e565b811115611b7c5761194a6119446024358761214e565b8261214e565b945b8615801590611b73575b15611af0576119a561198e61197c61196d8861262c565b6119768b61264b565b906126a1565b61198861196d8661262c565b9061266a565b916dffffffffffffffffffffffffffff851661266a565b90620f42409182810292818404811482151715610fe857830403611a925710611a34576119d193612714565b60405191825260208201526004356040820152602435606082015273ffffffffffffffffffffffffffffffffffffffff60443516907fd78ad95fa46c994b6551d0da85fc275fe613ce37657fb8d5e3d130840159d82260803392a3600160345580f35b60646040517f08c379a000000000000000000000000000000000000000000000000000000000815260206004820152600c60248201527f556e697377617056323a204b00000000000000000000000000000000000000006044820152fd5b60646040517f08c379a000000000000000000000000000000000000000000000000000000000815260206004820152601460248201527f64732d6d6174682d6d756c2d6f766572666c6f770000000000000000000000006044820152fd5b60846040517f08c379a0000000000000000000000000000000000000000000000000000000008152602060048201526024808201527f556e697377617056323a20494e53554646494349454e545f494e5055545f414d60448201527f4f554e54000000000000000000000000000000000000000000000000000000006064820152fd5b50851515611956565b869461194c565b8493611910565b9092506020813d602011611bb6575b81611ba660209383611f93565b81010312610277575191386118c5565b3d9150611b99565b9291506020833d602011611bed575b81611bda60209383611f93565b810103126102775791519091602061187f565b3d9150611bcd565b73ffffffffffffffffffffffffffffffffffffffff604435163b15611d3b576040517f10d1e85c00000000000000000000000000000000000000000000000000000000815233600482015260043560248201526024356044820152608060648201526064356004013560848201526064356004013560246064350160a48301378560a46064356004013583010152858160a4817fffffffffffffffffffffffffffffffffffffffffffffffffffffffffffffffe0601f60643560040135011681010301818373ffffffffffffffffffffffffffffffffffffffff604435165af18015611d3057611ce6575b50611839565b67ffffffffffffffff8196929611611d0357604052936020611ce0565b6024827f4e487b710000000000000000000000000000000000000000000000000000000081526041600452fd5b6040513d88823e3d90fd5b8480fd5b611d4e60243560443585612485565b61182d565b611d6260043560443583612485565b611825565b60646040517f08c379a000000000000000000000000000000000000000000000000000000000815260206004820152601560248201527f556e697377617056323a20494e56414c49445f544f00000000000000000000006044820152fd5b508373ffffffffffffffffffffffffffffffffffffffff60443516141561181b565b60846040517f08c379a000000000000000000000000000000000000000000000000000000000815260206004820152602160248201527f556e697377617056323a20494e53554646494349454e545f4c4951554944495460448201527f59000000000000000000000000000000000000000000000000000000000000006064820152fd5b506dffffffffffffffffffffffffffff8116602435106117c1565b60846040517f08c379a000000000000000000000000000000000000000000000000000000000815260206004820152602560248201527f556e697377617056323a20494e53554646494349454e545f4f55545055545f4160448201527f4d4f554e540000000000000000000000000000000000000000000000000000006064820152fd5b506024351515611768565b6004359073ffffffffffffffffffffffffffffffffffffffff8216820361027757565b6024359073ffffffffffffffffffffffffffffffffffffffff8216820361027757565b6040810190811067ffffffffffffffff82111761056a57604052565b6080810190811067ffffffffffffffff82111761056a57604052565b90601f7fffffffffffffffffffffffffffffffffffffffffffffffffffffffffffffffe0910116810190811067ffffffffffffffff82111761056a57604052565b60208082528251818301819052939260005b858110612026575050507fffffffffffffffffffffffffffffffffffffffffffffffffffffffffffffffe0601f8460006040809697860101520116010190565b818101830151848201604001528201611fe6565b9060208210156120555760188260021c602b019260031b1690565b7f4e487b7100000000000000000000000000000000000000000000000000000000600052603260045260246000fd5b1561208b57565b60646040517f08c379a000000000000000000000000000000000000000000000000000000000815260206004820152601160248201527f556e697377617056323a204c4f434b45440000000000000000000000000000006044820152fd5b156120f057565b60646040517f08c379a000000000000000000000000000000000000000000000000000000000815260206004820152601960248201527f4d696e65626c617374537761703a2053594e435f4649525354000000000000006044820152fd5b91908203918211610fe857565b9060208110156120555760051b0190565b8115612176570490565b7f4e487b7100000000000000000000000000000000000000000000000000000000600052601260045260246000fd5b81810292918115918404141715610fe857565b60408051600094859493602b93928690805b6020908160038c01101561221757600491600191895467ffffffffffffffff92838216835283828c1c169083015260809281841c168a83015260c01c6060820152019701990198956121ca565b505094509491965094915061040083019167ffffffffffffffff9284811084821117611d035760405260ff9060ff6033541695600a549660085460e01c4281036123d8575b5083815b16602090818110156123ca578061236e5750601f905b818681169189612286848d61215b565b511663ffffffff8a16018a8111612341578a429116108015612338575b6122b1575050508490612260565b945095509550505082101561230b57506dffffffffffffffffffffffffffff936122f76122fd946122ef61230599989561095495600b01549461215b565b51164261214e565b926126a1565b9116906121a5565b60701c90565b807f4e487b7100000000000000000000000000000000000000000000000000000000602492526032600452fd5b508483146122a3565b6024887f4e487b710000000000000000000000000000000000000000000000000000000081526011600452fd5b7fffffffffffffffffffffffffffffffffffffffffffffffffffffffffffffffff0185811161239d5790612276565b6024857f4e487b710000000000000000000000000000000000000000000000000000000081526011600452fd5b505050979650505050505050565b63ffffffff9891986124066008546dffffffffffffffffffffffffffff91828216928260701c169160e01c90565b509190926dffffffffffffffffffffffffffff8085161590811561247a575b5061246a579161245b827bffffffffffffffffffffffffffffffffffffffffffffffffffffffff94612460944216031694612a47565b612a9a565b160201963861225c565b5050505050509550505050505090565b905083161538612425565b906040519261249384611f5b565b601984527f7472616e7366657228616464726573732c75696e7432353629000000000000006020809501526040519073ffffffffffffffffffffffffffffffffffffffff858301937fa9059cbb00000000000000000000000000000000000000000000000000000000855216602483015260448201526044815261251681611f77565b600092839283809351925af1903d15612625573d67ffffffffffffffff8111611d03576040519061256e857fffffffffffffffffffffffffffffffffffffffffffffffffffffffffffffffe0601f8401160183611f93565b81523d828583013e5b826125e5575b5050156125875750565b606490604051907f08c379a00000000000000000000000000000000000000000000000000000000082526004820152601a60248201527f556e697377617056323a205452414e534645525f4641494c45440000000000006044820152fd5b8051925082159190848315612601575b5050509050388061257d565b919381809450010312610be3578201519081151582036102ca5750803880846125f5565b6060612577565b906103e89182810292818404811482151715610fe857830403611a9257565b90600382029180830460031481151715610fe8576003830403611a9257565b600092918015918215612681575b505015611a9257565b9150925061269961269284836121a5565b938461216c565b143880612678565b91906126ad908361214e565b9182116126b657565b60646040517f08c379a000000000000000000000000000000000000000000000000000000000815260206004820152601560248201527f64732d6d6174682d7375622d756e646572666c6f7700000000000000000000006044820152fd5b90926dffffffffffffffffffffffffffff92838311158061294e575b156128f05763ffffffff60085460e01c814216031691821515806128e5575b806128da575b6127e6575b50505091816040927f1c411e9a96e071241c2f21f7726b17ae89e3cab4c78be50e062b03a9fffbbad1941691827bffffffffffffffffffffffffffff00000000000000000000000000007fffffffff000000000000000000000000000000000000000000000000000000004260e01b169260701b16171780600855835192835260701c166020820152a1565b61282b9061245b7bffffffffffffffffffffffffffffffffffffffffffffffffffffffff97959793858561281d8361245b87612a47565b160260095401600955612a47565b1602600a54019182600a5560ff603354166020811015612055577f1c411e9a96e071241c2f21f7726b17ae89e3cab4c78be50e062b03a9fffbbad1946040948392600b015567ffffffffffffffff61288760ff6033541661203a565b819291549060031b91804216831b921b19161790556033547fffffffffffffffffffffffffffffffffffffffffffffffffffffffffffffff00601f600160ff84160116911617603355929481945061275a565b508481161515612755565b50848216151561274f565b60646040517f08c379a000000000000000000000000000000000000000000000000000000000815260206004820152601360248201527f556e697377617056323a204f564552464c4f57000000000000000000000000006044820152fd5b5083851115612730565b909160207f8c5be1e5ebec7d5bd14f71427d1e84f3dd0314c0f7b2291e5b200ac8c7c3b9259173ffffffffffffffffffffffffffffffffffffffff809416938460005260028352604060002095169485600052825280604060002055604051908152a3565b909160207fddf252ad1be2c89b69c2b068fc378daa952ba7f163c4a11628f55a4df523b3ef9173ffffffffffffffffffffffffffffffffffffffff8094169360009585875260018452612a148360408920546126a1565b86885260018552604088205516948581526040612a348382842054612b55565b91878152600185522055604051908152a3565b7bffffffffffffffffffffffffffff00000000000000000000000000006dffffffffffffffffffffffffffff82169160701b16908082046e0100000000000000000000000000001490151715610fe85790565b906dffffffffffffffffffffffffffff16908115612176577bffffffffffffffffffffffffffffffffffffffffffffffffffffffff160490565b91908201809211610fe857565b906103e8820191828111610fe8578210612af757565b60646040517f08c379a000000000000000000000000000000000000000000000000000000000815260206004820152601460248201527f64732d6d6174682d6164642d6f766572666c6f770000000000000000000000006044820152fd5b9190612b619083612ad4565b918210612af75756fea2646970667358221220d34e52bf7b77721e3df159479e47ea814afbde221a6651b2a39882b869283f7464736f6c63430008170033",
  "linkReferences": {},
  "deployedLinkReferences": {}
}