{
  "_format": "hh-sol-artifact-1",
  "contractName": "RebasingWETHMock",
  "sourceName": "src/mocks/RebasingWETHMock.sol",
  "abi": [
    {
      "anonymous": false,
      "inputs": [
        {
          "indexed": true,
          "internalType": "address",
          "name": "owner",
          "type": "address"
        },
        {
          "indexed": true,
          "internalType": "address",
          "name": "spender",
          "type": "address"
        },
        {
          "indexed": false,
          "internalType": "uint256",
          "name": "amount",
          "type": "uint256"
        }
      ],
      "name": "Approval",
      "type": "event"
    },
    {
      "anonymous": false,
      "inputs": [
        {
          "indexed": true,
          "internalType": "address",
          "name": "from",
          "type": "address"
        },
        {
          "indexed": false,
          "internalType": "uint256",
          "name": "amount",
          "type": "uint256"
        }
      ],
      "name": "Deposit",
      "type": "event"
    },
    {
      "anonymous": false,
      "inputs": [
        {
          "indexed": true,
          "internalType": "address",
          "name": "from",
          "type": "address"
        },
        {
          "indexed": true,
          "internalType": "address",
          "name": "to",
          "type": "address"
        },
        {
          "indexed": false,
          "internalType": "uint256",
          "name": "amount",
          "type": "uint256"
        }
      ],
      "name": "Transfer",
      "type": "event"
    },
    {
      "anonymous": false,
      "inputs": [
        {
          "indexed": true,
          "internalType": "address",
          "name": "to",
          "type": "address"
        },
        {
          "indexed": false,
          "internalType": "uint256",
          "name": "amount",
          "type": "uint256"
        }
      ],
      "name": "Withdrawal",
      "type": "event"
    },
    {
      "inputs": [],
      "name": "DOMAIN_SEPARATOR",
      "outputs": [
        {
          "internalType": "bytes32",
          "name": "",
          "type": "bytes32"
        }
      ],
      "stateMutability": "view",
      "type": "function"
    },
    {
      "inputs": [
        {
          "internalType": "address",
          "name": "",
          "type": "address"
        },
        {
          "internalType": "address",
          "name": "",
          "type": "address"
        }
      ],
      "name": "allowance",
      "outputs": [
        {
          "internalType": "uint256",
          "name": "",
          "type": "uint256"
        }
      ],
      "stateMutability": "view",
      "type": "function"
    },
    {
      "inputs": [
        {
          "internalType": "address",
          "name": "spender",
          "type": "address"
        },
        {
          "internalType": "uint256",
          "name": "amount",
          "type": "uint256"
        }
      ],
      "name": "approve",
      "outputs": [
        {
          "internalType": "bool",
          "name": "",
          "type": "bool"
        }
      ],
      "stateMutability": "nonpayable",
      "type": "function"
    },
    {
      "inputs": [
        {
          "internalType": "address",
          "name": "",
          "type": "address"
        }
      ],
      "name": "balanceOf",
      "outputs": [
        {
          "internalType": "uint256",
          "name": "",
          "type": "uint256"
        }
      ],
      "stateMutability": "view",
      "type": "function"
    },
    {
      "inputs": [
        {
          "internalType": "address",
          "name": "_from",
          "type": "address"
        },
        {
          "internalType": "uint256",
          "name": "_amount",
          "type": "uint256"
        }
      ],
      "name": "burn",
      "outputs": [],
      "stateMutability": "nonpayable",
      "type": "function"
    },
    {
      "inputs": [
        {
          "internalType": "address",
          "name": "recipient",
          "type": "address"
        },
        {
          "internalType": "uint256",
          "name": "amount",
          "type": "uint256"
        }
      ],
      "name": "claim",
      "outputs": [
        {
          "internalType": "uint256",
          "name": "",
          "type": "uint256"
        }
      ],
      "stateMutability": "nonpayable",
      "type": "function"
    },
    {
      "inputs": [
        {
          "internalType": "address",
          "name": "",
          "type": "address"
        }
      ],
      "name": "claimable",
      "outputs": [
        {
          "internalType": "uint256",
          "name": "",
          "type": "uint256"
        }
      ],
      "stateMutability": "view",
      "type": "function"
    },
    {
      "inputs": [
        {
          "internalType": "enum YieldMode",
          "name": "",
          "type": "uint8"
        }
      ],
      "name": "configure",
      "outputs": [
        {
          "internalType": "uint256",
          "name": "",
          "type": "uint256"
        }
      ],
      "stateMutability": "nonpayable",
      "type": "function"
    },
    {
      "inputs": [],
      "name": "decimals",
      "outputs": [
        {
          "internalType": "uint8",
          "name": "",
          "type": "uint8"
        }
      ],
      "stateMutability": "view",
      "type": "function"
    },
    {
      "inputs": [],
      "name": "deposit",
      "outputs": [],
      "stateMutability": "payable",
      "type": "function"
    },
    {
      "inputs": [
        {
          "internalType": "address",
          "name": "account",
          "type": "address"
        }
      ],
      "name": "getClaimableAmount",
      "outputs": [
        {
          "internalType": "uint256",
          "name": "",
          "type": "uint256"
        }
      ],
      "stateMutability": "view",
      "type": "function"
    },
    {
      "inputs": [
        {
          "internalType": "address",
          "name": "_to",
          "type": "address"
        },
        {
          "internalType": "uint256",
          "name": "_amount",
          "type": "uint256"
        }
      ],
      "name": "mint",
      "outputs": [],
      "stateMutability": "nonpayable",
      "type": "function"
    },
    {
      "inputs": [],
      "name": "name",
      "outputs": [
        {
          "internalType": "string",
          "name": "",
          "type": "string"
        }
      ],
      "stateMutability": "view",
      "type": "function"
    },
    {
      "inputs": [
        {
          "internalType": "address",
          "name": "",
          "type": "address"
        }
      ],
      "name": "nonces",
      "outputs": [
        {
          "internalType": "uint256",
          "name": "",
          "type": "uint256"
        }
      ],
      "stateMutability": "view",
      "type": "function"
    },
    {
      "inputs": [
        {
          "internalType": "address",
          "name": "owner",
          "type": "address"
        },
        {
          "internalType": "address",
          "name": "spender",
          "type": "address"
        },
        {
          "internalType": "uint256",
          "name": "value",
          "type": "uint256"
        },
        {
          "internalType": "uint256",
          "name": "deadline",
          "type": "uint256"
        },
        {
          "internalType": "uint8",
          "name": "v",
          "type": "uint8"
        },
        {
          "internalType": "bytes32",
          "name": "r",
          "type": "bytes32"
        },
        {
          "internalType": "bytes32",
          "name": "s",
          "type": "bytes32"
        }
      ],
      "name": "permit",
      "outputs": [],
      "stateMutability": "nonpayable",
      "type": "function"
    },
    {
      "inputs": [
        {
          "internalType": "address",
          "name": "account",
          "type": "address"
        },
        {
          "internalType": "uint256",
          "name": "amount",
          "type": "uint256"
        }
      ],
      "name": "setClaimable",
      "outputs": [],
      "stateMutability": "nonpayable",
      "type": "function"
    },
    {
      "inputs": [],
      "name": "symbol",
      "outputs": [
        {
          "internalType": "string",
          "name": "",
          "type": "string"
        }
      ],
      "stateMutability": "view",
      "type": "function"
    },
    {
      "inputs": [],
      "name": "totalSupply",
      "outputs": [
        {
          "internalType": "uint256",
          "name": "",
          "type": "uint256"
        }
      ],
      "stateMutability": "view",
      "type": "function"
    },
    {
      "inputs": [
        {
          "internalType": "address",
          "name": "to",
          "type": "address"
        },
        {
          "internalType": "uint256",
          "name": "amount",
          "type": "uint256"
        }
      ],
      "name": "transfer",
      "outputs": [
        {
          "internalType": "bool",
          "name": "",
          "type": "bool"
        }
      ],
      "stateMutability": "nonpayable",
      "type": "function"
    },
    {
      "inputs": [
        {
          "internalType": "address",
          "name": "from",
          "type": "address"
        },
        {
          "internalType": "address",
          "name": "to",
          "type": "address"
        },
        {
          "internalType": "uint256",
          "name": "amount",
          "type": "uint256"
        }
      ],
      "name": "transferFrom",
      "outputs": [
        {
          "internalType": "bool",
          "name": "",
          "type": "bool"
        }
      ],
      "stateMutability": "nonpayable",
      "type": "function"
    },
    {
      "inputs": [
        {
          "internalType": "uint256",
          "name": "amount",
          "type": "uint256"
        }
      ],
      "name": "withdraw",
      "outputs": [],
      "stateMutability": "nonpayable",
      "type": "function"
    },
    {
      "stateMutability": "payable",
      "type": "receive"
    }
  ],
  "bytecode": "0x60e0604081815234620004285762000017826200042d565b600d825260206c2bb930b83832b21022ba3432b960991b8184015281519262000040846200042d565b60048452630ae8aa8960e31b8285015280516001600160401b03939084811162000412576000908062000074835462000449565b94601f95868111620003c1575b508690868311600114620003595784926200034d575b50508160011b916000199060031b1c19161781555b85518581116200033957600190620000c5825462000449565b858111620002f1575b50858582116001146200028c578394959697988293949262000280575b5050600019600383901b1c191690821b1781555b60126080524660a05282519382908354926200011b8462000449565b90818852888801948982821691826000146200026357505060011462000227575b505085601f1992030116840193808510878611176200021357848452519020938301937f8b73c3c69bb8fe3d512ecc4cf759cc79239f7b179b0ffacaa9a75d522b39400f8552828401527fc89efdaa54c0f20c7adf612882df0950f5a951637e0307cdcb4c672f298b8bc660608401524660808401523060a084015260a0835260c083019483861090861117620001ff575083905251902060c0526112939081620004878239608051816109d7015260a05181610f7d015260c05181610fa40152f35b634e487b7160e01b81526041600452602490fd5b634e487b7160e01b83526041600452602483fd5b90889293508580528286209186925b8284106200024d575050508601019038806200013c565b80548a85018601528a9490930192810162000236565b92509394505060ff19168452151560051b8601019038806200013c565b015190503880620000eb565b82845286842090601f198316855b818110620002db5750998385969798999a9b10620002c1575b505050811b018155620000ff565b015160001960f88460031b161c19169055388080620002b3565b8b8301518455928501929189019189016200029a565b8284528684208680840160051c8201928985106200032f575b0160051c019083905b82811062000323575050620000ce565b85815501839062000313565b925081926200030a565b634e487b7160e01b82526041600452602482fd5b01519050388062000097565b8480528785209250601f198416855b89828210620003aa57505090846001959493921062000390575b505050811b018155620000ac565b015160001960f88460031b161c1916905538808062000382565b600185968293968601518155019501930162000368565b9091508380528684208680850160051c82019289861062000408575b9085949392910160051c01905b818110620003f9575062000081565b858155849350600101620003ea565b92508192620003dd565b634e487b7160e01b600052604160045260246000fd5b600080fd5b604081019081106001600160401b038211176200041257604052565b90600182811c921680156200047b575b60208310146200046557565b634e487b7160e01b600052602260045260246000fd5b91607f16916200045956fe608060408181526004918236101561002a575b505050361561002057600080fd5b610028611156565b005b600092833560e01c91826306fdde0314610d0757508163095ea7b314610c6c57816318160ddd14610c2f5781631a33757d14610beb57816323b872dd14610ad15781632e1a7d4d146109fb578163313ce5671461099f5781633644e5151461095d578163402914f51461090b57816340c10f19146108c85781635b27e8931461086957816370a08231146108075781637ecebe00146107a557816395d89b41146106865781639dc29fac14610643578163a9059cbb14610596578163aad3ec9614610530578163d0e30db0146104f8578163d505accf146101fd578163dd62ed3e14610185575063e12f3a61146101215780610012565b346101815760207ffffffffffffffffffffffffffffffffffffffffffffffffffffffffffffffffc360112610181578060209273ffffffffffffffffffffffffffffffffffffffff610171610ef1565b1681526006845220549051908152f35b5080fd5b9050346101f957817ffffffffffffffffffffffffffffffffffffffffffffffffffffffffffffffffc3601126101f95760209282916101c2610ef1565b6101ca610f19565b9173ffffffffffffffffffffffffffffffffffffffff8092168452865283832091168252845220549051908152f35b8280fd5b8383346101815760e07ffffffffffffffffffffffffffffffffffffffffffffffffffffffffffffffffc36011261018157610236610ef1565b9061023f610f19565b91604435606435926084359260ff84168094036104f45742851061049757610265610f78565b9573ffffffffffffffffffffffffffffffffffffffff8092169586895260209560058752848a209889549960018b01905585519285898501957f6e71edae12b1b97f4d1f60370fef10105fa2faae0126114a169c64845d6126c987528b89870152169a8b606086015288608086015260a085015260c084015260c0835260e0830167ffffffffffffffff948482108683111761046a57818852845190206101008501927f19010000000000000000000000000000000000000000000000000000000000008452610102860152610122850152604281526101608401948186109086111761043e57848752519020835261018082015260a4356101a082015260c4356101c0909101528780528490889060809060015afa1561043457865116968715158061042b575b156103d05786977f8c5be1e5ebec7d5bd14f71427d1e84f3dd0314c0f7b2291e5b200ac8c7c3b9259596975283528087208688528352818188205551908152a380f35b8360649251917f08c379a0000000000000000000000000000000000000000000000000000000008352820152600e60248201527f494e56414c49445f5349474e45520000000000000000000000000000000000006044820152fd5b5084881461038d565b81513d88823e3d90fd5b60248c60418f7f4e487b7100000000000000000000000000000000000000000000000000000000835252fd5b5060248c60418f7f4e487b7100000000000000000000000000000000000000000000000000000000835252fd5b60648860208451917f08c379a0000000000000000000000000000000000000000000000000000000008352820152601760248201527f5045524d49545f444541444c494e455f455850495245440000000000000000006044820152fd5b8680fd5b83807ffffffffffffffffffffffffffffffffffffffffffffffffffffffffffffffffc36011261052d5761052a611156565b80f35b80fd5b50503461018157807ffffffffffffffffffffffffffffffffffffffffffffffffffffffffffffffffc36011261018157908160209261056d610ef1565b9261057b60243580956111f5565b338152600685522061058e838254610f3c565b905551908152f35b50503461018157807ffffffffffffffffffffffffffffffffffffffffffffffffffffffffffffffffc360112610181576020916105d1610ef1565b8273ffffffffffffffffffffffffffffffffffffffff6024359233855260038752828520610600858254610f3c565b90551692838152600386522081815401905582519081527fddf252ad1be2c89b69c2b068fc378daa952ba7f163c4a11628f55a4df523b3ef843392a35160018152f35b505034610181577ffffffffffffffffffffffffffffffffffffffffffffffffffffffffffffffffc36011261052d5761052a61067d610ef1565b6024359061118e565b82843461052d57807ffffffffffffffffffffffffffffffffffffffffffffffffffffffffffffffffc36011261052d578151908060018054906106c882610dc8565b808652926020926001811690811561075a5750600114610702575b6106fe86886106f482890383610e1b565b5191829182610e8b565b0390f35b9350600184527fb10e2d527612073b26eecdfd717e6a320cf44b4afac2b0732d9fcbe2b7fa0cf65b838510610747575050505081016020016106f4826106fe866106e3565b805486860184015293820193810161072a565b6106fe989650879450602093506106f49592507fffffffffffffffffffffffffffffffffffffffffffffffffffffffffffffff0091501682840152151560051b8201019294866106e3565b5050346101815760207ffffffffffffffffffffffffffffffffffffffffffffffffffffffffffffffffc360112610181578060209273ffffffffffffffffffffffffffffffffffffffff6107f7610ef1565b1681526005845220549051908152f35b5050346101815760207ffffffffffffffffffffffffffffffffffffffffffffffffffffffffffffffffc360112610181578060209273ffffffffffffffffffffffffffffffffffffffff610859610ef1565b1681526003845220549051908152f35b50503461018157807ffffffffffffffffffffffffffffffffffffffffffffffffffffffffffffffffc3601126101815773ffffffffffffffffffffffffffffffffffffffff6108b6610ef1565b16825260066020526024359082205580f35b505034610181577ffffffffffffffffffffffffffffffffffffffffffffffffffffffffffffffffc36011261052d5761052a610902610ef1565b602435906111f5565b5050346101815760207ffffffffffffffffffffffffffffffffffffffffffffffffffffffffffffffffc360112610181578060209273ffffffffffffffffffffffffffffffffffffffff610171610ef1565b50503461018157817ffffffffffffffffffffffffffffffffffffffffffffffffffffffffffffffffc36011261018157602090610998610f78565b9051908152f35b50503461018157817ffffffffffffffffffffffffffffffffffffffffffffffffffffffffffffffffc360112610181576020905160ff7f0000000000000000000000000000000000000000000000000000000000000000168152f35b919050346101f95760207ffffffffffffffffffffffffffffffffffffffffffffffffffffffffffffffffc3601126101f957828080808535610a3d813361118e565b85518181527f7fcf532c15f0a6db0bd6d0e038bea71d30d808c7d98cb3bf7268a95bf5081b6560203392a2335af115610a74578280f35b90602060649251917f08c379a0000000000000000000000000000000000000000000000000000000008352820152601360248201527f4554485f5452414e534645525f4641494c4544000000000000000000000000006044820152fd5b82843461052d5760607ffffffffffffffffffffffffffffffffffffffffffffffffffffffffffffffffc36011261052d57610b0a610ef1565b7fddf252ad1be2c89b69c2b068fc378daa952ba7f163c4a11628f55a4df523b3ef610b33610f19565b946044358573ffffffffffffffffffffffffffffffffffffffff80951694858752602098848a958652838920338a52865283892054857fffffffffffffffffffffffffffffffffffffffffffffffffffffffffffffffff8203610bc8575b50505086885260038552828820610ba9858254610f3c565b9055169586815260038452208181540190558551908152a35160018152f35b610bd191610f3c565b90888a528652838920338a528652838920558a8085610b91565b9050346101f95760207ffffffffffffffffffffffffffffffffffffffffffffffffffffffffffffffffc3601126101f9576003903510156101815751908152602090f35b50503461018157817ffffffffffffffffffffffffffffffffffffffffffffffffffffffffffffffffc360112610181576020906002549051908152f35b9050346101f957817ffffffffffffffffffffffffffffffffffffffffffffffffffffffffffffffffc3601126101f957602092610ca7610ef1565b9183602435928392338252875273ffffffffffffffffffffffffffffffffffffffff8282209516948582528752205582519081527f8c5be1e5ebec7d5bd14f71427d1e84f3dd0314c0f7b2291e5b200ac8c7c3b925843392a35160018152f35b8390853461052d57807ffffffffffffffffffffffffffffffffffffffffffffffffffffffffffffffffc36011261052d57805481610d4482610dc8565b8085529160209160019182811690811561075a5750600114610d71576106fe86886106f482890383610e1b565b80809550527f290decd9548b62a8d60345a988386fc84ba6bc95484008f6362f93160ef3e5635b838510610db5575050505081016020016106f4826106fe866106e3565b8054868601840152938201938101610d98565b90600182811c92168015610e11575b6020831014610de257565b7f4e487b7100000000000000000000000000000000000000000000000000000000600052602260045260246000fd5b91607f1691610dd7565b90601f7fffffffffffffffffffffffffffffffffffffffffffffffffffffffffffffffe0910116810190811067ffffffffffffffff821117610e5c57604052565b7f4e487b7100000000000000000000000000000000000000000000000000000000600052604160045260246000fd5b60208082528251818301819052939260005b858110610edd575050507fffffffffffffffffffffffffffffffffffffffffffffffffffffffffffffffe0601f8460006040809697860101520116010190565b818101830151848201604001528201610e9d565b6004359073ffffffffffffffffffffffffffffffffffffffff82168203610f1457565b600080fd5b6024359073ffffffffffffffffffffffffffffffffffffffff82168203610f1457565b91908203918211610f4957565b7f4e487b7100000000000000000000000000000000000000000000000000000000600052601160045260246000fd5b6000467f000000000000000000000000000000000000000000000000000000000000000003610fc657507f000000000000000000000000000000000000000000000000000000000000000090565b60405181548291610fd682610dc8565b80825281602094858201946001908760018216918260001461111a5750506001146110c1575b5061100992500382610e1b565b51902091604051918201927f8b73c3c69bb8fe3d512ecc4cf759cc79239f7b179b0ffacaa9a75d522b39400f845260408301527fc89efdaa54c0f20c7adf612882df0950f5a951637e0307cdcb4c672f298b8bc660608301524660808301523060a083015260a0825260c082019082821067ffffffffffffffff831117611094575060405251902090565b807f4e487b7100000000000000000000000000000000000000000000000000000000602492526041600452fd5b87805286915087907f290decd9548b62a8d60345a988386fc84ba6bc95484008f6362f93160ef3e5635b858310611102575050611009935082010138610ffc565b805483880185015286945088939092019181016110eb565b7fffffffffffffffffffffffffffffffffffffffffffffffffffffffffffffff0016885261100995151560051b8501019250389150610ffc9050565b61116034336111f5565b6040513481527fe1fffcc4923d04b559f4d29a8bfc6cda04eb5b0d3c460751c2402c5c5cc9109c60203392a2565b907fddf252ad1be2c89b69c2b068fc378daa952ba7f163c4a11628f55a4df523b3ef602073ffffffffffffffffffffffffffffffffffffffff600094169283855260038252604085206111e2828254610f3c565b90558060025403600255604051908152a3565b600254828101809111610f4957602073ffffffffffffffffffffffffffffffffffffffff6000937fddf252ad1be2c89b69c2b068fc378daa952ba7f163c4a11628f55a4df523b3ef9360025516938484526003825260408420818154019055604051908152a356fea264697066735822122002303d9eaeffc448dda328b473c60ed0192219318bb29aa62493879c827b6b4e64736f6c63430008170033",
  "linkReferences": {},
  "deployedLinkReferences": {}
}