{
  "_format": "hh-sol-artifact-1",
  "contractName": "MineblastFactory",
  "sourceName": "src/MineblastFactory.sol",
  "abi": [
    {
      "inputs": [
        {
          "internalType": "address",
          "name": "_swapPairFactory",
          "type": "address"
        }
      ],
      "stateMutability": "nonpayable",
      "type": "constructor"
    },
    {
      "inputs": [
        {
          "internalType": "address",
          "name": "owner",
          "type": "address"
        }
      ],
      "name": "OwnableInvalidOwner",
      "type": "error"
    },
    {
      "inputs": [
        {
          "internalType": "address",
          "name": "account",
          "type": "address"
        }
      ],
      "name": "OwnableUnauthorizedAccount",
      "type": "error"
    },
    {
      "anonymous": false,
      "inputs": [
        {
          "indexed": true,
          "internalType": "address",
          "name": "previousOwner",
          "type": "address"
        },
        {
          "indexed": true,
          "internalType": "address",
          "name": "newOwner",
          "type": "address"
        }
      ],
      "name": "OwnershipTransferred",
      "type": "event"
    },
    {
      "anonymous": false,
      "inputs": [
        {
          "indexed": false,
          "internalType": "address",
          "name": "vault",
          "type": "address"
        },
        {
          "indexed": false,
          "internalType": "address",
          "name": "pair",
          "type": "address"
        },
        {
          "indexed": false,
          "internalType": "address",
          "name": "token",
          "type": "address"
        }
      ],
      "name": "VaultCreated",
      "type": "event"
    },
    {
      "inputs": [
        {
          "internalType": "uint256",
          "name": "",
          "type": "uint256"
        }
      ],
      "name": "allVaults",
      "outputs": [
        {
          "internalType": "address",
          "name": "vault",
          "type": "address"
        },
        {
          "internalType": "address",
          "name": "pair",
          "type": "address"
        },
        {
          "internalType": "address",
          "name": "token",
          "type": "address"
        }
      ],
      "stateMutability": "view",
      "type": "function"
    },
    {
      "inputs": [],
      "name": "baseProtocolShareBps",
      "outputs": [
        {
          "internalType": "uint16",
          "name": "",
          "type": "uint16"
        }
      ],
      "stateMutability": "view",
      "type": "function"
    },
    {
      "inputs": [
        {
          "internalType": "uint256",
          "name": "supply",
          "type": "uint256"
        },
        {
          "internalType": "string",
          "name": "name",
          "type": "string"
        },
        {
          "internalType": "string",
          "name": "symbol",
          "type": "string"
        },
        {
          "internalType": "uint64",
          "name": "duration",
          "type": "uint64"
        },
        {
          "internalType": "uint16",
          "name": "ownerSupplyBps",
          "type": "uint16"
        }
      ],
      "name": "createVaultWithNewToken",
      "outputs": [
        {
          "internalType": "address",
          "name": "vaultAddress",
          "type": "address"
        },
        {
          "internalType": "address",
          "name": "pairAddress",
          "type": "address"
        },
        {
          "internalType": "address",
          "name": "tokenAddress",
          "type": "address"
        }
      ],
      "stateMutability": "nonpayable",
      "type": "function"
    },
    {
      "inputs": [],
      "name": "maxOwnerShareBps",
      "outputs": [
        {
          "internalType": "uint16",
          "name": "",
          "type": "uint16"
        }
      ],
      "stateMutability": "view",
      "type": "function"
    },
    {
      "inputs": [],
      "name": "owner",
      "outputs": [
        {
          "internalType": "address",
          "name": "",
          "type": "address"
        }
      ],
      "stateMutability": "view",
      "type": "function"
    },
    {
      "inputs": [],
      "name": "protocolShareFromOwnerShareBps",
      "outputs": [
        {
          "internalType": "uint16",
          "name": "",
          "type": "uint16"
        }
      ],
      "stateMutability": "view",
      "type": "function"
    },
    {
      "inputs": [],
      "name": "renounceOwnership",
      "outputs": [],
      "stateMutability": "nonpayable",
      "type": "function"
    },
    {
      "inputs": [],
      "name": "swapPairFactory",
      "outputs": [
        {
          "internalType": "contract IMineblastSwapPairFactory",
          "name": "",
          "type": "address"
        }
      ],
      "stateMutability": "view",
      "type": "function"
    },
    {
      "inputs": [
        {
          "internalType": "address",
          "name": "newOwner",
          "type": "address"
        }
      ],
      "name": "transferOwnership",
      "outputs": [],
      "stateMutability": "nonpayable",
      "type": "function"
    },
    {
      "inputs": [],
      "name": "wethAddress",
      "outputs": [
        {
          "internalType": "address",
          "name": "",
          "type": "address"
        }
      ],
      "stateMutability": "view",
      "type": "function"
    }
  ],
  "bytecode": "0x6080346100e457601f614b3238819003918201601f19168301916001600160401b038311848410176100e9578084926020946040528339810103126100e457516001600160a01b0390818116908190036100e45733156100cb5760005460018060a01b0319903382821617600055604051933391167f8be0079c531659141344cd1fd0a4f28419497f9722a3daafe3b4186f6b6457e0600080a37342000000000000000000000000000000000000238160025416176002556001541617600155614a3290816101008239f35b604051631e4fbdf760e01b815260006004820152602490fd5b600080fd5b634e487b7160e01b600052604160045260246000fdfe6040608081526004803610156200001557600080fd5b600091823560e01c8063341cd8a5146200047757806341c6f72d146200043b5780634f0e0ef314620003e6578063715018a61462000345578063864a914714620003085780638da5cb5b14620002b55780639094a91e1462000222578063c5d84a9014620001cd578063dbcdf373146200018c5763f2fde38b146200009957600080fd5b34620001885760207ffffffffffffffffffffffffffffffffffffffffffffffffffffffffffffffffc360112620001885781359173ffffffffffffffffffffffffffffffffffffffff918284168094036200018457620000f862000fd8565b831562000155575050600054827fffffffffffffffffffffffff0000000000000000000000000000000000000000821617600055167f8be0079c531659141344cd1fd0a4f28419497f9722a3daafe3b4186f6b6457e0600080a380f35b908460249251917f1e4fbdf7000000000000000000000000000000000000000000000000000000008352820152fd5b8480fd5b8280fd5b838234620001c957817ffffffffffffffffffffffffffffffffffffffffffffffffffffffffffffffffc360112620001c957602090516101f48152f35b5080fd5b838234620001c957817ffffffffffffffffffffffffffffffffffffffffffffffffffffffffffffffffc360112620001c95760209073ffffffffffffffffffffffffffffffffffffffff600154169051908152f35b50919034620001c95760207ffffffffffffffffffffffffffffffffffffffffffffffffffffffffffffffffc360112620001c9573590600354821015620002b257506200026f9062000d34565b5080546001820154600290920154925173ffffffffffffffffffffffffffffffffffffffff918216815291811660208301529091166040820152606090f35b0390f35b80fd5b838234620001c957817ffffffffffffffffffffffffffffffffffffffffffffffffffffffffffffffffc360112620001c95773ffffffffffffffffffffffffffffffffffffffff60209254169051908152f35b838234620001c957817ffffffffffffffffffffffffffffffffffffffffffffffffffffffffffffffffc360112620001c957602090516103e88152f35b8334620002b257807ffffffffffffffffffffffffffffffffffffffffffffffffffffffffffffffffc360112620002b2576200038062000fd8565b600073ffffffffffffffffffffffffffffffffffffffff81547fffffffffffffffffffffffff000000000000000000000000000000000000000081168355167f8be0079c531659141344cd1fd0a4f28419497f9722a3daafe3b4186f6b6457e08280a380f35b838234620001c957817ffffffffffffffffffffffffffffffffffffffffffffffffffffffffffffffffc360112620001c95760209073ffffffffffffffffffffffffffffffffffffffff600254169051908152f35b838234620001c957817ffffffffffffffffffffffffffffffffffffffffffffffffffffffffffffffffc360112620001c9576020905160328152f35b509134620002b25760a07ffffffffffffffffffffffffffffffffffffffffffffffffffffffffffffffffc360112620002b25781359260249081359267ffffffffffffffff93848111620001c957620004d4903690870162000cb5565b936044358181116200018857620004ef903690880162000cb5565b6064359180831680930362000c40576084359661ffff88168098036200018457891562000be45785519061147e90818301918383108584111762000bb9576200054e8493926200055e926200102b863960808452608084019062000d9e565b6020968382038885015262000d9e565b908c89820152606033910152039085f095861562000baf5773ffffffffffffffffffffffffffffffffffffffff92620005a08480600254169916809962000e46565b988751612554808201908282108783111762000b8357606091888e8e8694620024a98639835216998a878301528c82015203019088f09b8c15620009bb576103e8821162000b0257818102918183040362000ad757612710809204906032810281810460320362000aab57839004926101f480840290848204148415171562000a805790620006329104809362000f9b565b91830180931162000a55578884620006ba8f93858f918f986200065b8199620006619362000f9b565b62000f9b565b97519485809481937fa9059cbb00000000000000000000000000000000000000000000000000000000998a8452339084016020909392919373ffffffffffffffffffffffffffffffffffffffff60408201951681520152565b03925af1801562000a4b578e8b87948f93948f9562000a29575b50620007128c835416955197889687958694855284016020909392919373ffffffffffffffffffffffffffffffffffffffff60408201951681520152565b03925af18015620009fd5782878e9f8d9e9f94879462000a07575b50169c8d938b8d518096819582947f095ea7b30000000000000000000000000000000000000000000000000000000084528301916200078e926020909392919373ffffffffffffffffffffffffffffffffffffffff60408201951681520152565b03925af18015620009fd57620009c9575b50893b15620009c55787517ffe4b84df000000000000000000000000000000000000000000000000000000008152808d019190915286818481838e5af18015620009bb57620009a6575b50865192606084019081118482101762000979578752888352820193845285820194878652600354680100000000000000008110156200094f5780600162000835920160035562000d34565b9b909b6200092757505050620002ae969798826002925116937fffffffffffffffffffffffff0000000000000000000000000000000000000000948583541617825583600183019151168582541617905501925116908254161790557f897c133dfbfe1f6239e98b4ffd7e4f6c86a62350a131a7a37790419f58af02f9815180620008f085898984916040919493606084019573ffffffffffffffffffffffffffffffffffffffff9283809216865216602085015216910152565b0390a15173ffffffffffffffffffffffffffffffffffffffff93841681529383166020850152909116604083015281906060820190565b81907f4e487b7100000000000000000000000000000000000000000000000000000000825252fd5b5060418b7f4e487b7100000000000000000000000000000000000000000000000000000000835252fd5b8260418d7f4e487b7100000000000000000000000000000000000000000000000000000000600052526000fd5b8381979297116200094f5787529438620007e9565b88513d89823e3d90fd5b8680fd5b620009ed90833d8511620009f5575b620009e4818362000c44565b81019062000dfe565b50386200079f565b503d620009d8565b89513d8a823e3d90fd5b62000a2190853d8711620009f557620009e4818362000c44565b50386200072d565b62000a4390873d8911620009f557620009e4818362000c44565b5038620006d4565b8b513d8c823e3d90fd5b848960118f7f4e487b7100000000000000000000000000000000000000000000000000000000835252fd5b7f4e487b71000000000000000000000000000000000000000000000000000000008b5260118f52868bfd5b50848960118f7f4e487b7100000000000000000000000000000000000000000000000000000000835252fd5b838860118e7f4e487b7100000000000000000000000000000000000000000000000000000000835252fd5b60848c603e86868d51937f08c379a00000000000000000000000000000000000000000000000000000000085528401528201527f4f776e657220737570706c79206d757374206265206c657373207468616e206f60448201527f7220657175616c20746f20746865206d6178206f776e657220736861726500006064820152fd5b50848960418f7f4e487b7100000000000000000000000000000000000000000000000000000000835252fd5b85513d86823e3d90fd5b898860418e7f4e487b7100000000000000000000000000000000000000000000000000000000835252fd5b606489601d8960208a51937f08c379a00000000000000000000000000000000000000000000000000000000085528401528201527f737570706c79206d7573742062652067726561746572207468616e20300000006044820152fd5b8380fd5b90601f7fffffffffffffffffffffffffffffffffffffffffffffffffffffffffffffffe0910116810190811067ffffffffffffffff82111762000c8657604052565b7f4e487b7100000000000000000000000000000000000000000000000000000000600052604160045260246000fd5b81601f8201121562000d2f5780359067ffffffffffffffff821162000c86576040519262000d0c60207fffffffffffffffffffffffffffffffffffffffffffffffffffffffffffffffe0601f860116018562000c44565b8284526020838301011162000d2f57816000926020809301838601378301015290565b600080fd5b60035481101562000d6f5760039081600052027fc2575a0e9e593c00f959f8c92f12db2869c3395a3b0502d05e2516446f71f85b0190600090565b7f4e487b7100000000000000000000000000000000000000000000000000000000600052603260045260246000fd5b919082519283825260005b84811062000de95750507fffffffffffffffffffffffffffffffffffffffffffffffffffffffffffffffe0601f8460006020809697860101520116010190565b60208183018101518483018201520162000da9565b9081602091031262000d2f5751801515810362000d2f5790565b9081602091031262000d2f575173ffffffffffffffffffffffffffffffffffffffff8116810362000d2f5790565b6001546040517fe6a4390500000000000000000000000000000000000000000000000000000000815273ffffffffffffffffffffffffffffffffffffffff83811660048301528481166024830152929390926020928116908385604481855afa94851562000f6b5760009562000f77575b5084161562000ec857505050905090565b6040517fc9c6539600000000000000000000000000000000000000000000000000000000815273ffffffffffffffffffffffffffffffffffffffff958616600482015291909416602482015290929091508290829060449082906000905af191821562000f6b5760009262000f3c57505090565b62000f609250803d1062000f63575b62000f57818362000c44565b81019062000e18565b90565b503d62000f4b565b6040513d6000823e3d90fd5b62000f93919550843d861162000f635762000f57818362000c44565b933862000eb7565b9190820391821162000fa957565b7f4e487b7100000000000000000000000000000000000000000000000000000000600052601160045260246000fd5b73ffffffffffffffffffffffffffffffffffffffff60005416330362000ffa57565b60246040517f118cdaa7000000000000000000000000000000000000000000000000000000008152336004820152fdfe60e0604090808252346200055b5760006200147e80380380916200002482866200058a565b843982016080838203126200030f5782516001600160401b03908181116200031d578262000054918601620005ae565b6020928386015183811162000557579062000071918701620005ae565b868601516060909601516001600160a01b0381169290839003620005575780518481116200047e5780620000a6885462000624565b92601f9384811162000506575b5087908483116001146200049e57899262000492575b50508160011b916000199060031b1c19161786555b8151908482116200047e578190600193620000fa855462000624565b82811162000429575b5087918311600114620003c5578892620003b9575b5050600019600383901b1c191690821b1781555b60126080524660a05286518554918187620001478562000624565b92838352888301958982821691826000146200039957505060011462000359575b5062000177925003826200058a565b5190208651848101917f8b73c3c69bb8fe3d512ecc4cf759cc79239f7b179b0ffacaa9a75d522b39400f8352888201527fc89efdaa54c0f20c7adf612882df0950f5a951637e0307cdcb4c672f298b8bc660608201524660808201523060a082015260a0815260c081019381851090851117620003455783885251902060c05273430000000000000000000000000000000000000291823b156200034157634e606c4760e01b8152848160048183875af18015620003375762000321575b50813b156200031d5783916024839288519485938492631d70c8d360e31b845260048401525af180156200031357908391620002f7575b5050600254838101809111620002e357907fddf252ad1be2c89b69c2b068fc378daa952ba7f163c4a11628f55a4df523b3ef916002553383526003815284832084815401905584519384523393a351610e1c908162000662823960805181610782015260a05181610c0d015260c05181610c340152f35b634e487b7160e01b83526011600452602483fd5b620003029062000560565b6200030f5781386200026c565b5080fd5b85513d85823e3d90fd5b8380fd5b6200032f9094919462000560565b923862000235565b87513d87823e3d90fd5b8480fd5b634e487b7160e01b86526041600452602486fd5b889150898052818a20908a915b858310620003805750506200017793508201013862000168565b80548388018501528694508a9390920191810162000366565b60ff191688526200017795151560051b8501019250389150620001689050565b01519050388062000118565b8489528789208594509190601f1984168a5b8a828210620004125750508411620003f8575b505050811b0181556200012c565b015160001960f88460031b161c19169055388080620003ea565b8385015186558897909501949384019301620003d7565b909192508489528789208380860160051c8201928a871062000474575b91869588929594930160051c01915b8281106200046557505062000103565b8b815586955087910162000455565b9250819262000446565b634e487b7160e01b87526041600452602487fd5b015190503880620000c9565b898052888a209250601f1984168a5b8a828210620004ef575050908460019594939210620004d5575b505050811b018655620000de565b015160001960f88460031b161c19169055388080620004c7565b6001859682939686015181550195019301620004ad565b9091508880528789208480850160051c8201928a86106200054d575b9085949392910160051c01905b8181106200053e5750620000b3565b8a81558493506001016200052f565b9250819262000522565b8580fd5b600080fd5b6001600160401b0381116200057457604052565b634e487b7160e01b600052604160045260246000fd5b601f909101601f19168101906001600160401b038211908210176200057457604052565b919080601f840112156200055b5782516001600160401b038111620005745760209060405192620005e983601f19601f85011601856200058a565b8184528282870101116200055b5760005b8181106200061057508260009394955001015290565b8581018301518482018401528201620005fa565b90600182811c9216801562000656575b60208310146200064057565b634e487b7160e01b600052602260045260246000fd5b91607f16916200063456fe6080604081815260048036101561001557600080fd5b600092833560e01c90816306fdde031461099757508063095ea7b3146108fd57806318160ddd146108c057806323b872dd146107a6578063313ce5671461074a5780633644e5151461070857806370a08231146106a65780637ecebe001461064457806395d89b411461052257806397d75776146104d5578063a9059cbb14610428578063d505accf146101285763dd62ed3e146100b257600080fd5b3461012457817ffffffffffffffffffffffffffffffffffffffffffffffffffffffffffffffffc3601126101245760209282916100ed610b81565b6100f5610ba9565b9173ffffffffffffffffffffffffffffffffffffffff8092168452865283832091168252845220549051908152f35b8280fd5b509190346104245760e07ffffffffffffffffffffffffffffffffffffffffffffffffffffffffffffffffc36011261042457610162610b81565b9061016b610ba9565b91604435606435926084359260ff8416809403610420574285106103c357610191610c08565b9573ffffffffffffffffffffffffffffffffffffffff8092169586895260209560058752848a209889549960018b01905585519285898501957f6e71edae12b1b97f4d1f60370fef10105fa2faae0126114a169c64845d6126c987528b89870152169a8b606086015288608086015260a085015260c084015260c0835260e0830167ffffffffffffffff948482108683111761039657818852845190206101008501927f19010000000000000000000000000000000000000000000000000000000000008452610102860152610122850152604281526101608401948186109086111761036a57848752519020835261018082015260a4356101a082015260c4356101c0909101528780528490889060809060015afa15610360578651169687151580610357575b156102fc5786977f8c5be1e5ebec7d5bd14f71427d1e84f3dd0314c0f7b2291e5b200ac8c7c3b9259596975283528087208688528352818188205551908152a380f35b8360649251917f08c379a0000000000000000000000000000000000000000000000000000000008352820152600e60248201527f494e56414c49445f5349474e45520000000000000000000000000000000000006044820152fd5b508488146102b9565b81513d88823e3d90fd5b60248c60418f7f4e487b7100000000000000000000000000000000000000000000000000000000835252fd5b5060248c60418f7f4e487b7100000000000000000000000000000000000000000000000000000000835252fd5b60648860208451917f08c379a0000000000000000000000000000000000000000000000000000000008352820152601760248201527f5045524d49545f444541444c494e455f455850495245440000000000000000006044820152fd5b8680fd5b5080fd5b50503461042457807ffffffffffffffffffffffffffffffffffffffffffffffffffffffffffffffffc36011261042457602091610463610b81565b8273ffffffffffffffffffffffffffffffffffffffff6024359233855260038752828520610492858254610bcc565b90551692838152600386522081815401905582519081527fddf252ad1be2c89b69c2b068fc378daa952ba7f163c4a11628f55a4df523b3ef843392a35160018152f35b50503461042457817ffffffffffffffffffffffffffffffffffffffffffffffffffffffffffffffffc36011261042457602090517343000000000000000000000000000000000000028152f35b82843461064157807ffffffffffffffffffffffffffffffffffffffffffffffffffffffffffffffffc3601126106415781519080600180549061056482610a58565b80865292602092600181169081156105f6575060011461059e575b61059a868861059082890383610aab565b5191829182610b1b565b0390f35b9350600184527fb10e2d527612073b26eecdfd717e6a320cf44b4afac2b0732d9fcbe2b7fa0cf65b8385106105e3575050505081016020016105908261059a8661057f565b80548686018401529382019381016105c6565b61059a989650879450602093506105909592507fffffffffffffffffffffffffffffffffffffffffffffffffffffffffffffff0091501682840152151560051b82010192948661057f565b80fd5b5050346104245760207ffffffffffffffffffffffffffffffffffffffffffffffffffffffffffffffffc360112610424578060209273ffffffffffffffffffffffffffffffffffffffff610696610b81565b1681526005845220549051908152f35b5050346104245760207ffffffffffffffffffffffffffffffffffffffffffffffffffffffffffffffffc360112610424578060209273ffffffffffffffffffffffffffffffffffffffff6106f8610b81565b1681526003845220549051908152f35b50503461042457817ffffffffffffffffffffffffffffffffffffffffffffffffffffffffffffffffc36011261042457602090610743610c08565b9051908152f35b50503461042457817ffffffffffffffffffffffffffffffffffffffffffffffffffffffffffffffffc360112610424576020905160ff7f0000000000000000000000000000000000000000000000000000000000000000168152f35b5091346106415760607ffffffffffffffffffffffffffffffffffffffffffffffffffffffffffffffffc360112610641576107df610b81565b7fddf252ad1be2c89b69c2b068fc378daa952ba7f163c4a11628f55a4df523b3ef610808610ba9565b946044358573ffffffffffffffffffffffffffffffffffffffff80951694858752602098848a958652838920338a52865283892054857fffffffffffffffffffffffffffffffffffffffffffffffffffffffffffffffff820361089d575b5050508688526003855282882061087e858254610bcc565b9055169586815260038452208181540190558551908152a35160018152f35b6108a691610bcc565b90888a528652838920338a52865283892055388085610866565b50503461042457817ffffffffffffffffffffffffffffffffffffffffffffffffffffffffffffffffc360112610424576020906002549051908152f35b503461012457817ffffffffffffffffffffffffffffffffffffffffffffffffffffffffffffffffc36011261012457602092610937610b81565b9183602435928392338252875273ffffffffffffffffffffffffffffffffffffffff8282209516948582528752205582519081527f8c5be1e5ebec7d5bd14f71427d1e84f3dd0314c0f7b2291e5b200ac8c7c3b925843392a35160018152f35b8390853461064157807ffffffffffffffffffffffffffffffffffffffffffffffffffffffffffffffffc360112610641578054816109d482610a58565b808552916020916001918281169081156105f65750600114610a015761059a868861059082890383610aab565b80809550527f290decd9548b62a8d60345a988386fc84ba6bc95484008f6362f93160ef3e5635b838510610a45575050505081016020016105908261059a8661057f565b8054868601840152938201938101610a28565b90600182811c92168015610aa1575b6020831014610a7257565b7f4e487b7100000000000000000000000000000000000000000000000000000000600052602260045260246000fd5b91607f1691610a67565b90601f7fffffffffffffffffffffffffffffffffffffffffffffffffffffffffffffffe0910116810190811067ffffffffffffffff821117610aec57604052565b7f4e487b7100000000000000000000000000000000000000000000000000000000600052604160045260246000fd5b60208082528251818301819052939260005b858110610b6d575050507fffffffffffffffffffffffffffffffffffffffffffffffffffffffffffffffe0601f8460006040809697860101520116010190565b818101830151848201604001528201610b2d565b6004359073ffffffffffffffffffffffffffffffffffffffff82168203610ba457565b600080fd5b6024359073ffffffffffffffffffffffffffffffffffffffff82168203610ba457565b91908203918211610bd957565b7f4e487b7100000000000000000000000000000000000000000000000000000000600052601160045260246000fd5b6000467f000000000000000000000000000000000000000000000000000000000000000003610c5657507f000000000000000000000000000000000000000000000000000000000000000090565b60405181548291610c6682610a58565b808252816020948582019460019087600182169182600014610daa575050600114610d51575b50610c9992500382610aab565b51902091604051918201927f8b73c3c69bb8fe3d512ecc4cf759cc79239f7b179b0ffacaa9a75d522b39400f845260408301527fc89efdaa54c0f20c7adf612882df0950f5a951637e0307cdcb4c672f298b8bc660608301524660808301523060a083015260a0825260c082019082821067ffffffffffffffff831117610d24575060405251902090565b807f4e487b7100000000000000000000000000000000000000000000000000000000602492526041600452fd5b87805286915087907f290decd9548b62a8d60345a988386fc84ba6bc95484008f6362f93160ef3e5635b858310610d92575050610c99935082010138610c8c565b80548388018501528694508893909201918101610d7b565b7fffffffffffffffffffffffffffffffffffffffffffffffffffffffffffffff00168852610c9995151560051b8501019250389150610c8c905056fea26469706673582212202f580a9268c0aa1e3a9b37a5510cb2195c74b8dc317fd01ac1009571586432b964736f6c6343000817003360a060409080825234620002a857600090606081620025548038038091620000288285620002d7565b83398101031262000216576200003e81620002fb565b90836200004e60208301620002fb565b910151916001600160401b039081841690818503620002a45733156200028c578554336001600160a01b0319808316821789558951976001600160a01b039773420000000000000000000000000000000000002395949193899283167f8be0079c531659141344cd1fd0a4f28419497f9722a3daafe3b4186f6b6457e08d80a381600754951660805216906006541617600655600160a01b600160e01b039060a01b169063ffffffff60e01b161717600755420180421162000278571660018060401b0319600854161760085573430000000000000000000000000000000000000291823b156200027457634e606c4760e01b8152838160048183875af180156200026a5762000255575b5060208391600754166024865180948193631a33757d60e01b8352600260048401525af180156200024b576200021a575b50803b1562000216578180916024855180948193631d70c8d360e31b83523060048401525af180156200020c57620001f1575b8251612243908162000311823960805181818161032101528181610716015281816111ed015281816113500152611b2c0152f35b620001fd8291620002ad565b620002095780620001bd565b80fd5b83513d84823e3d90fd5b5080fd5b602090813d831162000243575b620002338183620002d7565b810103126200021657386200018a565b503d62000227565b84513d85823e3d90fd5b9262000263602094620002ad565b9262000159565b85513d86823e3d90fd5b8380fd5b634e487b7160e01b85526011600452602485fd5b8651631e4fbdf760e01b815260048101879052602490fd5b8580fd5b600080fd5b6001600160401b038111620002c157604052565b634e487b7160e01b600052604160045260246000fd5b601f909101601f19168101906001600160401b03821190821017620002c157604052565b51906001600160a01b0382168203620002a85756fe6040608081526004908136101561001557600080fd5b600091823560e01c80630599f50f146115d6578063081e3eda146115995780630ad58d2f146114d85780630fb5a6b41461148e5780631526fe271461140f57806317caf6f1146113d257806318fccc761461121157806323be76d9146111a257806326991cc81461114f5780632f940c70146110005780633fc8cef314610fad578063499582c014610f7057806351eb05a614610ef757806357a5b58c14610e5f578063715018a614610dc357806379d12ffb14610d5e5780637f37df3b14610b2f5780638da5cb5b14610ade5780638dbdbe6d1461096157806393f1a40b146108eb57806397d757761461089e578063c24a0f8b14610853578063d1abb9071461060e578063dd49756e1461059f578063f2fde38b146104bd5763fe4b84df1461013f57600080fd5b346104b9576020807ffffffffffffffffffffffffffffffffffffffffffffffffffffffffffffffffc3601126104b55781359261017a6121bc565b73ffffffffffffffffffffffffffffffffffffffff80600754169384875280845260ff838820541661045957600554946127109586810180911161042d5760055560025495680100000000000000009687811015610401578060016101e292016002556116ad565b81549060031b908685831b921b191617905567ffffffffffffffff9685519061020a8261174a565b8a8252884216888301528287830152600154908110156103d5579061023882600161023e9401600155611713565b90611e97565b81895282865284892060017fffffffffffffffffffffffffffffffffffffffffffffffffffffffffffffff00825416179055600254907fffffffffffffffffffffffffffffffffffffffffffffffffffffffffffffffff82019182116103a9579288928695927f4710feb78e3bce8d2e3ca2989a8eb2f8bcd32a6a55b4535942c180fc4d2e295289809761031d9a51908152a384517f23b872dd0000000000000000000000000000000000000000000000000000000081523391810191825230602083015260408201939093529194859283918b918391606090910190565b03927f0000000000000000000000000000000000000000000000000000000000000000165af19081156103a057509161036a939161036f9593610372575b505060075460a01c169061183e565b61218b565b80f35b8161039192903d10610399575b61038981836117a9565b810190611826565b50388061035b565b503d61037f565b513d87823e3d90fd5b60248a6011867f4e487b7100000000000000000000000000000000000000000000000000000000835252fd5b60248b6041877f4e487b7100000000000000000000000000000000000000000000000000000000835252fd5b60248a6041867f4e487b7100000000000000000000000000000000000000000000000000000000835252fd5b6024896011857f4e487b7100000000000000000000000000000000000000000000000000000000835252fd5b606490848451917f08c379a0000000000000000000000000000000000000000000000000000000008352820152601360248201527f546f6b656e20616c7265616479206164646564000000000000000000000000006044820152fd5b8380fd5b8280fd5b50346104b95760207ffffffffffffffffffffffffffffffffffffffffffffffffffffffffffffffffc3601126104b9576104f5611635565b906104fe6121bc565b73ffffffffffffffffffffffffffffffffffffffff8092169283156105705750508254827fffffffffffffffffffffffff00000000000000000000000000000000000000008216178455167f8be0079c531659141344cd1fd0a4f28419497f9722a3daafe3b4186f6b6457e08380a380f35b908460249251917f1e4fbdf7000000000000000000000000000000000000000000000000000000008352820152fd5b50346104b95760207ffffffffffffffffffffffffffffffffffffffffffffffffffffffffffffffffc3601126104b957359160025483101561060b575073ffffffffffffffffffffffffffffffffffffffff6105fc6020936116ad565b92905490519260031b1c168152f35b80fd5b5090346104b95761061e36611658565b90919261062a84611f3c565b9284875260209260038452828820338952845282882061069b8382548861069464e8d4a510008061066f6fffffffffffffffffffffffffffffffff8095511686611e02565b049061068d6001890194610684865485611e15565b9e511687611e02565b0490611e15565b9055611e2e565b90558473ffffffffffffffffffffffffffffffffffffffff9788868b875192838092816107127fa9059cbb00000000000000000000000000000000000000000000000000000000998a83528b8a84016020909392919373ffffffffffffffffffffffffffffffffffffffff60408201951681520152565b03927f0000000000000000000000000000000000000000000000000000000000000000165af18015610849579287928592879561082c575b508c8c6107568d6116ad565b90549060031b1c16926107978a5197889687958694855284016020909392919373ffffffffffffffffffffffffffffffffffffffff60408201951681520152565b03925af1801561082257918798917f71bab65ced2e5750775a0613be067df48ef06cf92a496ebf7663ae0660924954979893610805575b50845193845216917f8166bf25f8a2b7ed3c85049207da4358d16edbed977d23fa2ee6f0dde3ec2132853392a4519283523392a380f35b61081b90873d89116103995761038981836117a9565b50386107ce565b84513d8b823e3d90fd5b61084290853d87116103995761038981836117a9565b503861074a565b86513d8d823e3d90fd5b50503461089a57817ffffffffffffffffffffffffffffffffffffffffffffffffffffffffffffffffc36011261089a5760209067ffffffffffffffff600854169051908152f35b5080fd5b50503461089a57817ffffffffffffffffffffffffffffffffffffffffffffffffffffffffffffffffc36011261089a57602090517343000000000000000000000000000000000000028152f35b50346104b957817ffffffffffffffffffffffffffffffffffffffffffffffffffffffffffffffffc3601126104b95791819261092561160d565b90358252600360205273ffffffffffffffffffffffffffffffffffffffff83832091168252602052206001815491015482519182526020820152f35b5090346104b95761097136611658565b90919261097d84611f3c565b94848752602092600384528288209673ffffffffffffffffffffffffffffffffffffffff80921697888a5285526001848a206109ba8882546117ea565b81550164e8d4a510006109e26fffffffffffffffffffffffffffffffff835494511689611e02565b04918a83820193841291129080158216911516176103a9579285928792610a789555610a0d896116ad565b90549060031b1c16908a86518096819582947f23b872dd00000000000000000000000000000000000000000000000000000000845230903390850160409194939294606082019573ffffffffffffffffffffffffffffffffffffffff80921683521660208201520152565b03925af18015610ad457907f02d7e648dd130fc184d383e55bb126ac4c9c60e8f94bf05acdf557ba2d540b47939291610ab7575b50519283523392a480f35b610acd90833d85116103995761038981836117a9565b5038610aac565b82513d89823e3d90fd5b50503461089a57817ffffffffffffffffffffffffffffffffffffffffffffffffffffffffffffffffc36011261089a5773ffffffffffffffffffffffffffffffffffffffff60209254169051908152f35b50346104b957817ffffffffffffffffffffffffffffffffffffffffffffffffffffffffffffffffc3601126104b95780356024610b6a61160d565b92610b7d610b7784611713565b50611e3b565b958381526020966003885286822073ffffffffffffffffffffffffffffffffffffffff809716835288528787832096610bc96fffffffffffffffffffffffffffffffff845116976116ad565b90549060031b1c168851958680927f70a0823100000000000000000000000000000000000000000000000000000000825230888301525afa938415610d54578294610d25575b5067ffffffffffffffff878160085416804211600014610d1c575b828b8501511690818482161180610d13575b610c6b575b8b83610c648c600164e8d4a51000610c5a8f8454611e02565b0491015490611e15565b9051908152f35b91610c8c84610c82610c969694610c9f9896611e7d565b1660095490611e02565b9201511690611e02565b6005549061183e565b9164e8d4a5100092838102938185041490151715610ce7575050610c5a610cdc610c649594610cd660019564e8d4a510009561183e565b906117ea565b939438878180610c41565b9060116024927f4e487b7100000000000000000000000000000000000000000000000000000000835252fd5b50871515610c3c565b50814216610c2a565b9093508781813d8311610d4d575b610d3d81836117a9565b8101031261089a57519238610c0f565b503d610d33565b87513d84823e3d90fd5b50346104b95760207ffffffffffffffffffffffffffffffffffffffffffffffffffffffffffffffffc3601126104b9578160209360ff9273ffffffffffffffffffffffffffffffffffffffff610db2611635565b168252855220541690519015158152f35b833461060b57807ffffffffffffffffffffffffffffffffffffffffffffffffffffffffffffffffc36011261060b57610dfa6121bc565b8073ffffffffffffffffffffffffffffffffffffffff81547fffffffffffffffffffffffff000000000000000000000000000000000000000081168355167f8be0079c531659141344cd1fd0a4f28419497f9722a3daafe3b4186f6b6457e08280a380f35b83823461089a5760207ffffffffffffffffffffffffffffffffffffffffffffffffffffffffffffffffc36011261089a57803567ffffffffffffffff918282116104b557366023830112156104b5578101359182116104b95760249060053660248560051b84010111610ef357845b848110610ed9578580f35b80610eec85600193851b86010135611f3c565b5001610ece565b8480fd5b50913461060b5760207ffffffffffffffffffffffffffffffffffffffffffffffffffffffffffffffffc36011261060b5750610f3560609235611f3c565b908051916fffffffffffffffffffffffffffffffff81511683528160208201519167ffffffffffffffff809316602086015201511690820152f35b50503461089a57817ffffffffffffffffffffffffffffffffffffffffffffffffffffffffffffffffc36011261089a576020906009549051908152f35b50503461089a57817ffffffffffffffffffffffffffffffffffffffffffffffffffffffffffffffffc36011261089a5760209073ffffffffffffffffffffffffffffffffffffffff600754169051908152f35b50346104b957817ffffffffffffffffffffffffffffffffffffffffffffffffffffffffffffffffc3601126104b9576110e69160018483359261104161160d565b9084835260208096600382528285203386528252828520908582549783828a955501558461106e896116ad565b979073ffffffffffffffffffffffffffffffffffffffff988991549060031b1c169286519c8d95869485937fa9059cbb00000000000000000000000000000000000000000000000000000000855284016020909392919373ffffffffffffffffffffffffffffffffffffffff60408201951681520152565b03925af1968715611145577f2cac5e20e1541d836381527a43f651851e302817b71dc8e810284e69210c1c6b94959697611128575b505193845216933392a480f35b61113e90883d8a116103995761038981836117a9565b503861111b565b81513d8a823e3d90fd5b50503461089a57817ffffffffffffffffffffffffffffffffffffffffffffffffffffffffffffffffc36011261089a5760209073ffffffffffffffffffffffffffffffffffffffff600654169051908152f35b50503461089a57817ffffffffffffffffffffffffffffffffffffffffffffffffffffffffffffffffc36011261089a576020905173ffffffffffffffffffffffffffffffffffffffff7f0000000000000000000000000000000000000000000000000000000000000000168152f35b5090346104b957807ffffffffffffffffffffffffffffffffffffffffffffffffffffffffffffffffc3601126104b95781359061124c61160d565b9261125683611f3c565b91838652602091600383528187203388528352600164e8d4a51000611294848a20966fffffffffffffffffffffffffffffffff885491511690611e02565b049401936112a3855482611e15565b9455836112e3575b507f71bab65ced2e5750775a0613be067df48ef06cf92a496ebf7663ae0660924954929394506112d9611877565b519283523392a380f35b81517fa9059cbb00000000000000000000000000000000000000000000000000000000815273ffffffffffffffffffffffffffffffffffffffff9096169086019081526020810184905282908690819060400103818973ffffffffffffffffffffffffffffffffffffffff7f0000000000000000000000000000000000000000000000000000000000000000165af19485156113c8577f71bab65ced2e5750775a0613be067df48ef06cf92a496ebf7663ae06609249549394956113ab575b859493506112ab565b6113c190833d85116103995761038981836117a9565b50386113a2565b81513d88823e3d90fd5b50503461089a57817ffffffffffffffffffffffffffffffffffffffffffffffffffffffffffffffffc36011261089a576020906005549051908152f35b50346104b95760207ffffffffffffffffffffffffffffffffffffffffffffffffffffffffffffffffc3601126104b957359160015483101561060b5750611457606092611713565b5054908051916fffffffffffffffffffffffffffffffff8116835267ffffffffffffffff8160801c16602084015260c01c90820152f35b50503461089a57817ffffffffffffffffffffffffffffffffffffffffffffffffffffffffffffffffc36011261089a5760209067ffffffffffffffff60075460a01c169051908152f35b50346104b95761155891836114ec36611658565b909291936114f985611f3c565b8584528460209788926003845284872033885284528487209061153f600183019164e8d4a5100061068d6fffffffffffffffffffffffffffffffff855493511688611e02565b905561154c838254611e2e565b90558461106e896116ad565b03925af1968715611145577f8166bf25f8a2b7ed3c85049207da4358d16edbed977d23fa2ee6f0dde3ec21329495969761112857505193845216933392a480f35b50503461089a57817ffffffffffffffffffffffffffffffffffffffffffffffffffffffffffffffffc36011261089a576020906001549051908152f35b833461060b57807ffffffffffffffffffffffffffffffffffffffffffffffffffffffffffffffffc36011261060b5761036f611877565b6024359073ffffffffffffffffffffffffffffffffffffffff8216820361163057565b600080fd5b6004359073ffffffffffffffffffffffffffffffffffffffff8216820361163057565b7ffffffffffffffffffffffffffffffffffffffffffffffffffffffffffffffffc606091011261163057600435906024359060443573ffffffffffffffffffffffffffffffffffffffff811681036116305790565b6002548110156116e45760026000527f405787fa12a823e0f2b7631cc41b3ba8828b3321ca811111fa75cd3aa3bb5ace0190600090565b7f4e487b7100000000000000000000000000000000000000000000000000000000600052603260045260246000fd5b6001548110156116e45760016000527fb10e2d527612073b26eecdfd717e6a320cf44b4afac2b0732d9fcbe2b7fa0cf60190600090565b6060810190811067ffffffffffffffff82111761176657604052565b7f4e487b7100000000000000000000000000000000000000000000000000000000600052604160045260246000fd5b67ffffffffffffffff811161176657604052565b90601f7fffffffffffffffffffffffffffffffffffffffffffffffffffffffffffffffe0910116810190811067ffffffffffffffff82111761176657604052565b919082018092116117f757565b7f4e487b7100000000000000000000000000000000000000000000000000000000600052601160045260246000fd5b90816020910312611630575180151581036116305790565b8115611848570490565b7f4e487b7100000000000000000000000000000000000000000000000000000000600052601260045260246000fd5b60075460009073ffffffffffffffffffffffffffffffffffffffff80911660409283517fe12f3a6100000000000000000000000000000000000000000000000000000000815260049030828201526020938482602481845afa918215611ce9578492611dd3575b5066038d7ea4c680008210611dca5784875180927faad3ec9600000000000000000000000000000000000000000000000000000000825281878161194888308b84016020909392919373ffffffffffffffffffffffffffffffffffffffff60408201951681520152565b03925af18015611ce957908591611da1575b505085517f954fa5ee00000000000000000000000000000000000000000000000000000000815230838201523060248201528481604481877343000000000000000000000000000000000000025af18015611ce957908591611d78575b505084600754164790803b15610ef3578490848951809481937fd0e30db00000000000000000000000000000000000000000000000000000000083525af18015611ce957611d63575b50611a0c9047906117ea565b938060065416948651957f49faebde0000000000000000000000000000000000000000000000000000000087526dffffffffffffffffffffffffffff82168488015260c860248801528587604481845afa968715611d16578597611d34575b50803b15610ef357848091858a51809481937ffff6cae90000000000000000000000000000000000000000000000000000000083525af18015611d1657908591611d20575b5085611b1884600754168560065416948b519485809481937fa9059cbb00000000000000000000000000000000000000000000000000000000998a84528c84016020909392919373ffffffffffffffffffffffffffffffffffffffff60408201951681520152565b03925af18015611d1657611cf9575b5084827f000000000000000000000000000000000000000000000000000000000000000016968360065416908015600014611cf35750670de0b6b3a7640000925b611b9f8a51948593849384528884016020909392919373ffffffffffffffffffffffffffffffffffffffff60408201951681520152565b0381878a5af18015611ce9579185918593611ccc575b506006541660248851809481937f6a62784200000000000000000000000000000000000000000000000000000000835230888401525af18015611cc257908491611c99575b509060248651809681937f70a0823100000000000000000000000000000000000000000000000000000000835230908301525afa938415611c8f575092611c5d575b505061036a611c5b9167ffffffffffffffff60075460a01c169061183e565b565b90809250813d8311611c88575b611c7481836117a9565b81010312611630575161036a611c5b611c3c565b503d611c6a565b51903d90823e3d90fd5b813d8311611cbb575b611cac81836117a9565b81010312611630578238611bfa565b503d611ca2565b86513d85823e3d90fd5b611ce290833d85116103995761038981836117a9565b5038611bb5565b87513d86823e3d90fd5b92611b68565b611d0f90863d88116103995761038981836117a9565b5038611b27565b88513d87823e3d90fd5b611d2990611795565b6104b5578338611ab0565b9096508581813d8311611d5c575b611d4c81836117a9565b8101031261163057519538611a6b565b503d611d42565b92611d71611a0c9294611795565b9290611a00565b813d8311611d9a575b611d8b81836117a9565b810103126104b95783386119b7565b503d611d81565b813d8311611dc3575b611db481836117a9565b810103126104b957833861195a565b503d611daa565b50505050505050565b9091508481813d8311611dfb575b611deb81836117a9565b810103126104b5575190386118de565b503d611de1565b818102929181159184041417156117f757565b818103929160001380158285131691841216176117f757565b919082039182116117f757565b90604051611e488161174a565b60408193546fffffffffffffffffffffffffffffffff8116835267ffffffffffffffff8160801c16602084015260c01c910152565b67ffffffffffffffff91821690821603919082116117f757565b9190611f0d578051602082015160409092015160809290921b77ffffffffffffffff00000000000000000000000000000000166fffffffffffffffffffffffffffffffff919091161760c09190911b7fffffffffffffffff00000000000000000000000000000000000000000000000016179055565b7f4e487b7100000000000000000000000000000000000000000000000000000000600052600060045260246000fd5b906040918251611f4b8161174a565b600090818152818560209282848201520152611f69610b7784611713565b9467ffffffffffffffff806008541680421160001461218157935b838801908282511690838716918211611fa2575b5050505050505050565b73ffffffffffffffffffffffffffffffffffffffff96866024611fc48b6116ad565b9190549189519b8c9384927f70a0823100000000000000000000000000000000000000000000000000000000845230600485015260031b1c165afa97881561217757908b918399612144575b5088612083575b5050509181606095937f0fc9545022a542541ad085d091fb09a2ab36fee366a4576ab63714ea907ad353979593526120528a6102388a611713565b5116926fffffffffffffffffffffffffffffffff895116928251948552840152820152a23880808080808080611f98565b61209e918688610c8c82610c82610c9696828c511690611e7d565b906fffffffffffffffffffffffffffffffff91828c51169164e8d4a5100091828102928184041490151715612117575091612106606098969492610cd68b7f0fc9545022a542541ad085d091fb09a2ab36fee366a4576ab63714ea907ad3539c9a989661183e565b168b52919395509193958938612017565b807f4e487b7100000000000000000000000000000000000000000000000000000000602492526011600452fd5b8880929a508193503d8311612170575b61215e81836117a9565b8101031261089a578a90519738612010565b503d612154565b86513d84823e3d90fd5b5080421693611f84565b60207fce627de7a3c0ab1e1b091d6a60d128ea2327f929866814370c4be8e19d5def359180600955604051908152a1565b73ffffffffffffffffffffffffffffffffffffffff6000541633036121dd57565b60246040517f118cdaa7000000000000000000000000000000000000000000000000000000008152336004820152fdfea26469706673582212201b3d9a93c0007ecdee2993df4927842596be053dd2ffdbbe1fe7f9d392772a9164736f6c63430008170033a2646970667358221220e1dc5615b7dcf73ab87c4a35867d61948afd522d0a9b966bbd755f6912c1f0e264736f6c63430008170033",
  "linkReferences": {},
  "deployedLinkReferences": {}
}