{
  "_format": "hh-sol-artifact-1",
  "contractName": "MineblastFactory",
  "sourceName": "src/MineblastFactory.sol",
  "abi": [
    {
      "inputs": [
        {
          "internalType": "address",
          "name": "_swapPairFactory",
          "type": "address"
        }
      ],
      "stateMutability": "nonpayable",
      "type": "constructor"
    },
    {
      "inputs": [
        {
          "internalType": "address",
          "name": "owner",
          "type": "address"
        }
      ],
      "name": "OwnableInvalidOwner",
      "type": "error"
    },
    {
      "inputs": [
        {
          "internalType": "address",
          "name": "account",
          "type": "address"
        }
      ],
      "name": "OwnableUnauthorizedAccount",
      "type": "error"
    },
    {
      "anonymous": false,
      "inputs": [
        {
          "indexed": true,
          "internalType": "address",
          "name": "previousOwner",
          "type": "address"
        },
        {
          "indexed": true,
          "internalType": "address",
          "name": "newOwner",
          "type": "address"
        }
      ],
      "name": "OwnershipTransferred",
      "type": "event"
    },
    {
      "anonymous": false,
      "inputs": [
        {
          "indexed": false,
          "internalType": "address",
          "name": "vault",
          "type": "address"
        },
        {
          "indexed": false,
          "internalType": "address",
          "name": "pair",
          "type": "address"
        },
        {
          "indexed": false,
          "internalType": "address",
          "name": "token",
          "type": "address"
        }
      ],
      "name": "VaultCreated",
      "type": "event"
    },
    {
      "inputs": [
        {
          "internalType": "uint256",
          "name": "",
          "type": "uint256"
        }
      ],
      "name": "allVaults",
      "outputs": [
        {
          "internalType": "address",
          "name": "vault",
          "type": "address"
        },
        {
          "internalType": "address",
          "name": "pair",
          "type": "address"
        },
        {
          "internalType": "address",
          "name": "token",
          "type": "address"
        }
      ],
      "stateMutability": "view",
      "type": "function"
    },
    {
      "inputs": [],
      "name": "baseProtocolShareBps",
      "outputs": [
        {
          "internalType": "uint16",
          "name": "",
          "type": "uint16"
        }
      ],
      "stateMutability": "view",
      "type": "function"
    },
    {
      "inputs": [
        {
          "internalType": "uint256",
          "name": "supply",
          "type": "uint256"
        },
        {
          "internalType": "string",
          "name": "name",
          "type": "string"
        },
        {
          "internalType": "string",
          "name": "symbol",
          "type": "string"
        },
        {
          "internalType": "uint64",
          "name": "duration",
          "type": "uint64"
        },
        {
          "internalType": "uint16",
          "name": "ownerSupplyBps",
          "type": "uint16"
        }
      ],
      "name": "createVaultWithNewToken",
      "outputs": [
        {
          "internalType": "address",
          "name": "vaultAddress",
          "type": "address"
        },
        {
          "internalType": "address",
          "name": "pairAddress",
          "type": "address"
        },
        {
          "internalType": "address",
          "name": "tokenAddress",
          "type": "address"
        }
      ],
      "stateMutability": "nonpayable",
      "type": "function"
    },
    {
      "inputs": [],
      "name": "maxOwnerShareBps",
      "outputs": [
        {
          "internalType": "uint16",
          "name": "",
          "type": "uint16"
        }
      ],
      "stateMutability": "view",
      "type": "function"
    },
    {
      "inputs": [],
      "name": "owner",
      "outputs": [
        {
          "internalType": "address",
          "name": "",
          "type": "address"
        }
      ],
      "stateMutability": "view",
      "type": "function"
    },
    {
      "inputs": [],
      "name": "protocolShareFromOwnerShareBps",
      "outputs": [
        {
          "internalType": "uint16",
          "name": "",
          "type": "uint16"
        }
      ],
      "stateMutability": "view",
      "type": "function"
    },
    {
      "inputs": [],
      "name": "renounceOwnership",
      "outputs": [],
      "stateMutability": "nonpayable",
      "type": "function"
    },
    {
      "inputs": [],
      "name": "swapPairFactory",
      "outputs": [
        {
          "internalType": "contract IMineblastSwapPairFactory",
          "name": "",
          "type": "address"
        }
      ],
      "stateMutability": "view",
      "type": "function"
    },
    {
      "inputs": [
        {
          "internalType": "address",
          "name": "newOwner",
          "type": "address"
        }
      ],
      "name": "transferOwnership",
      "outputs": [],
      "stateMutability": "nonpayable",
      "type": "function"
    },
    {
      "inputs": [],
      "name": "wethAddress",
      "outputs": [
        {
          "internalType": "address",
          "name": "",
          "type": "address"
        }
      ],
      "stateMutability": "view",
      "type": "function"
    }
  ],
  "bytecode": "0x6080346100e457601f61521138819003918201601f19168301916001600160401b038311848410176100e9578084926020946040528339810103126100e457516001600160a01b0390818116908190036100e45733156100cb5760005460018060a01b0319903382821617600055604051933391167f8be0079c531659141344cd1fd0a4f28419497f9722a3daafe3b4186f6b6457e0600080a3734200000000000000000000000000000000000023816002541617600255600154161760015561511190816101008239f35b604051631e4fbdf760e01b815260006004820152602490fd5b600080fd5b634e487b7160e01b600052604160045260246000fdfe6040608081526004803610156200001557600080fd5b600091823560e01c8063341cd8a5146200047757806341c6f72d146200043b5780634f0e0ef314620003e6578063715018a61462000345578063864a914714620003085780638da5cb5b14620002b55780639094a91e1462000222578063c5d84a9014620001cd578063dbcdf373146200018c5763f2fde38b146200009957600080fd5b34620001885760207ffffffffffffffffffffffffffffffffffffffffffffffffffffffffffffffffc360112620001885781359173ffffffffffffffffffffffffffffffffffffffff918284168094036200018457620000f862000fd8565b831562000155575050600054827fffffffffffffffffffffffff0000000000000000000000000000000000000000821617600055167f8be0079c531659141344cd1fd0a4f28419497f9722a3daafe3b4186f6b6457e0600080a380f35b908460249251917f1e4fbdf7000000000000000000000000000000000000000000000000000000008352820152fd5b8480fd5b8280fd5b838234620001c957817ffffffffffffffffffffffffffffffffffffffffffffffffffffffffffffffffc360112620001c957602090516101f48152f35b5080fd5b838234620001c957817ffffffffffffffffffffffffffffffffffffffffffffffffffffffffffffffffc360112620001c95760209073ffffffffffffffffffffffffffffffffffffffff600154169051908152f35b50919034620001c95760207ffffffffffffffffffffffffffffffffffffffffffffffffffffffffffffffffc360112620001c9573590600354821015620002b257506200026f9062000d34565b5080546001820154600290920154925173ffffffffffffffffffffffffffffffffffffffff918216815291811660208301529091166040820152606090f35b0390f35b80fd5b838234620001c957817ffffffffffffffffffffffffffffffffffffffffffffffffffffffffffffffffc360112620001c95773ffffffffffffffffffffffffffffffffffffffff60209254169051908152f35b838234620001c957817ffffffffffffffffffffffffffffffffffffffffffffffffffffffffffffffffc360112620001c957602090516103e88152f35b8334620002b257807ffffffffffffffffffffffffffffffffffffffffffffffffffffffffffffffffc360112620002b2576200038062000fd8565b600073ffffffffffffffffffffffffffffffffffffffff81547fffffffffffffffffffffffff000000000000000000000000000000000000000081168355167f8be0079c531659141344cd1fd0a4f28419497f9722a3daafe3b4186f6b6457e08280a380f35b838234620001c957817ffffffffffffffffffffffffffffffffffffffffffffffffffffffffffffffffc360112620001c95760209073ffffffffffffffffffffffffffffffffffffffff600254169051908152f35b838234620001c957817ffffffffffffffffffffffffffffffffffffffffffffffffffffffffffffffffc360112620001c9576020905160328152f35b509134620002b25760a07ffffffffffffffffffffffffffffffffffffffffffffffffffffffffffffffffc360112620002b25781359260249081359267ffffffffffffffff93848111620001c957620004d4903690870162000cb5565b936044358181116200018857620004ef903690880162000cb5565b6064359180831680930362000c40576084359661ffff88168098036200018457891562000be45785519061147e90818301918383108584111762000bb9576200054e8493926200055e926200102b863960808452608084019062000d9e565b6020968382038885015262000d9e565b908c89820152606033910152039085f095861562000baf5773ffffffffffffffffffffffffffffffffffffffff92620005a08480600254169916809962000e46565b988751612c33808201908282108783111762000b8357606091888e8e8694620024a98639835216998a878301528c82015203019088f09b8c15620009bb576103e8821162000b0257818102918183040362000ad757612710809204906032810281810460320362000aab57839004926101f480840290848204148415171562000a805790620006329104809362000f9b565b91830180931162000a55578884620006ba8f93858f918f986200065b8199620006619362000f9b565b62000f9b565b97519485809481937fa9059cbb00000000000000000000000000000000000000000000000000000000998a8452339084016020909392919373ffffffffffffffffffffffffffffffffffffffff60408201951681520152565b03925af1801562000a4b578e8b87948f93948f9562000a29575b50620007128c835416955197889687958694855284016020909392919373ffffffffffffffffffffffffffffffffffffffff60408201951681520152565b03925af18015620009fd5782878e9f8d9e9f94879462000a07575b50169c8d938b8d518096819582947f095ea7b30000000000000000000000000000000000000000000000000000000084528301916200078e926020909392919373ffffffffffffffffffffffffffffffffffffffff60408201951681520152565b03925af18015620009fd57620009c9575b50893b15620009c55787517ffe4b84df000000000000000000000000000000000000000000000000000000008152808d019190915286818481838e5af18015620009bb57620009a6575b50865192606084019081118482101762000979578752888352820193845285820194878652600354680100000000000000008110156200094f5780600162000835920160035562000d34565b9b909b6200092757505050620002ae969798826002925116937fffffffffffffffffffffffff0000000000000000000000000000000000000000948583541617825583600183019151168582541617905501925116908254161790557f897c133dfbfe1f6239e98b4ffd7e4f6c86a62350a131a7a37790419f58af02f9815180620008f085898984916040919493606084019573ffffffffffffffffffffffffffffffffffffffff9283809216865216602085015216910152565b0390a15173ffffffffffffffffffffffffffffffffffffffff93841681529383166020850152909116604083015281906060820190565b81907f4e487b7100000000000000000000000000000000000000000000000000000000825252fd5b5060418b7f4e487b7100000000000000000000000000000000000000000000000000000000835252fd5b8260418d7f4e487b7100000000000000000000000000000000000000000000000000000000600052526000fd5b8381979297116200094f5787529438620007e9565b88513d89823e3d90fd5b8680fd5b620009ed90833d8511620009f5575b620009e4818362000c44565b81019062000dfe565b50386200079f565b503d620009d8565b89513d8a823e3d90fd5b62000a2190853d8711620009f557620009e4818362000c44565b50386200072d565b62000a4390873d8911620009f557620009e4818362000c44565b5038620006d4565b8b513d8c823e3d90fd5b848960118f7f4e487b7100000000000000000000000000000000000000000000000000000000835252fd5b7f4e487b71000000000000000000000000000000000000000000000000000000008b5260118f52868bfd5b50848960118f7f4e487b7100000000000000000000000000000000000000000000000000000000835252fd5b838860118e7f4e487b7100000000000000000000000000000000000000000000000000000000835252fd5b60848c603e86868d51937f08c379a00000000000000000000000000000000000000000000000000000000085528401528201527f4f776e657220737570706c79206d757374206265206c657373207468616e206f60448201527f7220657175616c20746f20746865206d6178206f776e657220736861726500006064820152fd5b50848960418f7f4e487b7100000000000000000000000000000000000000000000000000000000835252fd5b85513d86823e3d90fd5b898860418e7f4e487b7100000000000000000000000000000000000000000000000000000000835252fd5b606489601d8960208a51937f08c379a00000000000000000000000000000000000000000000000000000000085528401528201527f737570706c79206d7573742062652067726561746572207468616e20300000006044820152fd5b8380fd5b90601f7fffffffffffffffffffffffffffffffffffffffffffffffffffffffffffffffe0910116810190811067ffffffffffffffff82111762000c8657604052565b7f4e487b7100000000000000000000000000000000000000000000000000000000600052604160045260246000fd5b81601f8201121562000d2f5780359067ffffffffffffffff821162000c86576040519262000d0c60207fffffffffffffffffffffffffffffffffffffffffffffffffffffffffffffffe0601f860116018562000c44565b8284526020838301011162000d2f57816000926020809301838601378301015290565b600080fd5b60035481101562000d6f5760039081600052027fc2575a0e9e593c00f959f8c92f12db2869c3395a3b0502d05e2516446f71f85b0190600090565b7f4e487b7100000000000000000000000000000000000000000000000000000000600052603260045260246000fd5b919082519283825260005b84811062000de95750507fffffffffffffffffffffffffffffffffffffffffffffffffffffffffffffffe0601f8460006020809697860101520116010190565b60208183018101518483018201520162000da9565b9081602091031262000d2f5751801515810362000d2f5790565b9081602091031262000d2f575173ffffffffffffffffffffffffffffffffffffffff8116810362000d2f5790565b6001546040517fe6a4390500000000000000000000000000000000000000000000000000000000815273ffffffffffffffffffffffffffffffffffffffff83811660048301528481166024830152929390926020928116908385604481855afa94851562000f6b5760009562000f77575b5084161562000ec857505050905090565b6040517fc9c6539600000000000000000000000000000000000000000000000000000000815273ffffffffffffffffffffffffffffffffffffffff958616600482015291909416602482015290929091508290829060449082906000905af191821562000f6b5760009262000f3c57505090565b62000f609250803d1062000f63575b62000f57818362000c44565b81019062000e18565b90565b503d62000f4b565b6040513d6000823e3d90fd5b62000f93919550843d861162000f635762000f57818362000c44565b933862000eb7565b9190820391821162000fa957565b7f4e487b7100000000000000000000000000000000000000000000000000000000600052601160045260246000fd5b73ffffffffffffffffffffffffffffffffffffffff60005416330362000ffa57565b60246040517f118cdaa7000000000000000000000000000000000000000000000000000000008152336004820152fdfe60e0604090808252346200055b5760006200147e80380380916200002482866200058a565b843982016080838203126200030f5782516001600160401b03908181116200031d578262000054918601620005ae565b6020928386015183811162000557579062000071918701620005ae565b868601516060909601516001600160a01b0381169290839003620005575780518481116200047e5780620000a6885462000624565b92601f9384811162000506575b5087908483116001146200049e57899262000492575b50508160011b916000199060031b1c19161786555b8151908482116200047e578190600193620000fa855462000624565b82811162000429575b5087918311600114620003c5578892620003b9575b5050600019600383901b1c191690821b1781555b60126080524660a05286518554918187620001478562000624565b92838352888301958982821691826000146200039957505060011462000359575b5062000177925003826200058a565b5190208651848101917f8b73c3c69bb8fe3d512ecc4cf759cc79239f7b179b0ffacaa9a75d522b39400f8352888201527fc89efdaa54c0f20c7adf612882df0950f5a951637e0307cdcb4c672f298b8bc660608201524660808201523060a082015260a0815260c081019381851090851117620003455783885251902060c05273430000000000000000000000000000000000000291823b156200034157634e606c4760e01b8152848160048183875af18015620003375762000321575b50813b156200031d5783916024839288519485938492631d70c8d360e31b845260048401525af180156200031357908391620002f7575b5050600254838101809111620002e357907fddf252ad1be2c89b69c2b068fc378daa952ba7f163c4a11628f55a4df523b3ef916002553383526003815284832084815401905584519384523393a351610e1c908162000662823960805181610782015260a05181610c0d015260c05181610c340152f35b634e487b7160e01b83526011600452602483fd5b620003029062000560565b6200030f5781386200026c565b5080fd5b85513d85823e3d90fd5b8380fd5b6200032f9094919462000560565b923862000235565b87513d87823e3d90fd5b8480fd5b634e487b7160e01b86526041600452602486fd5b889150898052818a20908a915b858310620003805750506200017793508201013862000168565b80548388018501528694508a9390920191810162000366565b60ff191688526200017795151560051b8501019250389150620001689050565b01519050388062000118565b8489528789208594509190601f1984168a5b8a828210620004125750508411620003f8575b505050811b0181556200012c565b015160001960f88460031b161c19169055388080620003ea565b8385015186558897909501949384019301620003d7565b909192508489528789208380860160051c8201928a871062000474575b91869588929594930160051c01915b8281106200046557505062000103565b8b815586955087910162000455565b9250819262000446565b634e487b7160e01b87526041600452602487fd5b015190503880620000c9565b898052888a209250601f1984168a5b8a828210620004ef575050908460019594939210620004d5575b505050811b018655620000de565b015160001960f88460031b161c19169055388080620004c7565b6001859682939686015181550195019301620004ad565b9091508880528789208480850160051c8201928a86106200054d575b9085949392910160051c01905b8181106200053e5750620000b3565b8a81558493506001016200052f565b9250819262000522565b8580fd5b600080fd5b6001600160401b0381116200057457604052565b634e487b7160e01b600052604160045260246000fd5b601f909101601f19168101906001600160401b038211908210176200057457604052565b919080601f840112156200055b5782516001600160401b038111620005745760209060405192620005e983601f19601f85011601856200058a565b8184528282870101116200055b5760005b8181106200061057508260009394955001015290565b8581018301518482018401528201620005fa565b90600182811c9216801562000656575b60208310146200064057565b634e487b7160e01b600052602260045260246000fd5b91607f16916200063456fe6080604081815260048036101561001557600080fd5b600092833560e01c90816306fdde031461099757508063095ea7b3146108fd57806318160ddd146108c057806323b872dd146107a6578063313ce5671461074a5780633644e5151461070857806370a08231146106a65780637ecebe001461064457806395d89b411461052257806397d75776146104d5578063a9059cbb14610428578063d505accf146101285763dd62ed3e146100b257600080fd5b3461012457817ffffffffffffffffffffffffffffffffffffffffffffffffffffffffffffffffc3601126101245760209282916100ed610b81565b6100f5610ba9565b9173ffffffffffffffffffffffffffffffffffffffff8092168452865283832091168252845220549051908152f35b8280fd5b509190346104245760e07ffffffffffffffffffffffffffffffffffffffffffffffffffffffffffffffffc36011261042457610162610b81565b9061016b610ba9565b91604435606435926084359260ff8416809403610420574285106103c357610191610c08565b9573ffffffffffffffffffffffffffffffffffffffff8092169586895260209560058752848a209889549960018b01905585519285898501957f6e71edae12b1b97f4d1f60370fef10105fa2faae0126114a169c64845d6126c987528b89870152169a8b606086015288608086015260a085015260c084015260c0835260e0830167ffffffffffffffff948482108683111761039657818852845190206101008501927f19010000000000000000000000000000000000000000000000000000000000008452610102860152610122850152604281526101608401948186109086111761036a57848752519020835261018082015260a4356101a082015260c4356101c0909101528780528490889060809060015afa15610360578651169687151580610357575b156102fc5786977f8c5be1e5ebec7d5bd14f71427d1e84f3dd0314c0f7b2291e5b200ac8c7c3b9259596975283528087208688528352818188205551908152a380f35b8360649251917f08c379a0000000000000000000000000000000000000000000000000000000008352820152600e60248201527f494e56414c49445f5349474e45520000000000000000000000000000000000006044820152fd5b508488146102b9565b81513d88823e3d90fd5b60248c60418f7f4e487b7100000000000000000000000000000000000000000000000000000000835252fd5b5060248c60418f7f4e487b7100000000000000000000000000000000000000000000000000000000835252fd5b60648860208451917f08c379a0000000000000000000000000000000000000000000000000000000008352820152601760248201527f5045524d49545f444541444c494e455f455850495245440000000000000000006044820152fd5b8680fd5b5080fd5b50503461042457807ffffffffffffffffffffffffffffffffffffffffffffffffffffffffffffffffc36011261042457602091610463610b81565b8273ffffffffffffffffffffffffffffffffffffffff6024359233855260038752828520610492858254610bcc565b90551692838152600386522081815401905582519081527fddf252ad1be2c89b69c2b068fc378daa952ba7f163c4a11628f55a4df523b3ef843392a35160018152f35b50503461042457817ffffffffffffffffffffffffffffffffffffffffffffffffffffffffffffffffc36011261042457602090517343000000000000000000000000000000000000028152f35b82843461064157807ffffffffffffffffffffffffffffffffffffffffffffffffffffffffffffffffc3601126106415781519080600180549061056482610a58565b80865292602092600181169081156105f6575060011461059e575b61059a868861059082890383610aab565b5191829182610b1b565b0390f35b9350600184527fb10e2d527612073b26eecdfd717e6a320cf44b4afac2b0732d9fcbe2b7fa0cf65b8385106105e3575050505081016020016105908261059a8661057f565b80548686018401529382019381016105c6565b61059a989650879450602093506105909592507fffffffffffffffffffffffffffffffffffffffffffffffffffffffffffffff0091501682840152151560051b82010192948661057f565b80fd5b5050346104245760207ffffffffffffffffffffffffffffffffffffffffffffffffffffffffffffffffc360112610424578060209273ffffffffffffffffffffffffffffffffffffffff610696610b81565b1681526005845220549051908152f35b5050346104245760207ffffffffffffffffffffffffffffffffffffffffffffffffffffffffffffffffc360112610424578060209273ffffffffffffffffffffffffffffffffffffffff6106f8610b81565b1681526003845220549051908152f35b50503461042457817ffffffffffffffffffffffffffffffffffffffffffffffffffffffffffffffffc36011261042457602090610743610c08565b9051908152f35b50503461042457817ffffffffffffffffffffffffffffffffffffffffffffffffffffffffffffffffc360112610424576020905160ff7f0000000000000000000000000000000000000000000000000000000000000000168152f35b5091346106415760607ffffffffffffffffffffffffffffffffffffffffffffffffffffffffffffffffc360112610641576107df610b81565b7fddf252ad1be2c89b69c2b068fc378daa952ba7f163c4a11628f55a4df523b3ef610808610ba9565b946044358573ffffffffffffffffffffffffffffffffffffffff80951694858752602098848a958652838920338a52865283892054857fffffffffffffffffffffffffffffffffffffffffffffffffffffffffffffffff820361089d575b5050508688526003855282882061087e858254610bcc565b9055169586815260038452208181540190558551908152a35160018152f35b6108a691610bcc565b90888a528652838920338a52865283892055388085610866565b50503461042457817ffffffffffffffffffffffffffffffffffffffffffffffffffffffffffffffffc360112610424576020906002549051908152f35b503461012457817ffffffffffffffffffffffffffffffffffffffffffffffffffffffffffffffffc36011261012457602092610937610b81565b9183602435928392338252875273ffffffffffffffffffffffffffffffffffffffff8282209516948582528752205582519081527f8c5be1e5ebec7d5bd14f71427d1e84f3dd0314c0f7b2291e5b200ac8c7c3b925843392a35160018152f35b8390853461064157807ffffffffffffffffffffffffffffffffffffffffffffffffffffffffffffffffc360112610641578054816109d482610a58565b808552916020916001918281169081156105f65750600114610a015761059a868861059082890383610aab565b80809550527f290decd9548b62a8d60345a988386fc84ba6bc95484008f6362f93160ef3e5635b838510610a45575050505081016020016105908261059a8661057f565b8054868601840152938201938101610a28565b90600182811c92168015610aa1575b6020831014610a7257565b7f4e487b7100000000000000000000000000000000000000000000000000000000600052602260045260246000fd5b91607f1691610a67565b90601f7fffffffffffffffffffffffffffffffffffffffffffffffffffffffffffffffe0910116810190811067ffffffffffffffff821117610aec57604052565b7f4e487b7100000000000000000000000000000000000000000000000000000000600052604160045260246000fd5b60208082528251818301819052939260005b858110610b6d575050507fffffffffffffffffffffffffffffffffffffffffffffffffffffffffffffffe0601f8460006040809697860101520116010190565b818101830151848201604001528201610b2d565b6004359073ffffffffffffffffffffffffffffffffffffffff82168203610ba457565b600080fd5b6024359073ffffffffffffffffffffffffffffffffffffffff82168203610ba457565b91908203918211610bd957565b7f4e487b7100000000000000000000000000000000000000000000000000000000600052601160045260246000fd5b6000467f000000000000000000000000000000000000000000000000000000000000000003610c5657507f000000000000000000000000000000000000000000000000000000000000000090565b60405181548291610c6682610a58565b808252816020948582019460019087600182169182600014610daa575050600114610d51575b50610c9992500382610aab565b51902091604051918201927f8b73c3c69bb8fe3d512ecc4cf759cc79239f7b179b0ffacaa9a75d522b39400f845260408301527fc89efdaa54c0f20c7adf612882df0950f5a951637e0307cdcb4c672f298b8bc660608301524660808301523060a083015260a0825260c082019082821067ffffffffffffffff831117610d24575060405251902090565b807f4e487b7100000000000000000000000000000000000000000000000000000000602492526041600452fd5b87805286915087907f290decd9548b62a8d60345a988386fc84ba6bc95484008f6362f93160ef3e5635b858310610d92575050610c99935082010138610c8c565b80548388018501528694508893909201918101610d7b565b7fffffffffffffffffffffffffffffffffffffffffffffffffffffffffffffff00168852610c9995151560051b8501019250389150610c8c905056fea26469706673582212202f580a9268c0aa1e3a9b37a5510cb2195c74b8dc317fd01ac1009571586432b964736f6c6343000817003360a060409080825234620002a85760009060608162002c338038038091620000288285620002d7565b83398101031262000216576200003e81620002fb565b90836200004e60208301620002fb565b910151916001600160401b039081841690818503620002a45733156200028c578554336001600160a01b0319808316821789558951976001600160a01b039773420000000000000000000000000000000000002395949193899283167f8be0079c531659141344cd1fd0a4f28419497f9722a3daafe3b4186f6b6457e08d80a381600754951660805216906006541617600655600160a01b600160e01b039060a01b169063ffffffff60e01b161717600755420180421162000278571660018060401b0319600854161760085573430000000000000000000000000000000000000291823b156200027457634e606c4760e01b8152838160048183875af180156200026a5762000255575b5060208391600754166024865180948193631a33757d60e01b8352600260048401525af180156200024b576200021a575b50803b1562000216578180916024855180948193631d70c8d360e31b83523060048401525af180156200020c57620001f1575b82516129229081620003118239608051818181610343015281816109ec015281816115e90152818161174c0152611f570152f35b620001fd8291620002ad565b620002095780620001bd565b80fd5b83513d84823e3d90fd5b5080fd5b602090813d831162000243575b620002338183620002d7565b810103126200021657386200018a565b503d62000227565b84513d85823e3d90fd5b9262000263602094620002ad565b9262000159565b85513d86823e3d90fd5b8380fd5b634e487b7160e01b85526011600452602485fd5b8651631e4fbdf760e01b815260048101879052602490fd5b8580fd5b600080fd5b6001600160401b038111620002c157604052565b634e487b7160e01b600052604160045260246000fd5b601f909101601f19168101906001600160401b03821190821017620002c157604052565b51906001600160a01b0382168203620002a85756fe60406080815260049081361015610020575b5050361561001e57600080fd5b005b600091823560e01c80630599f50f146119d2578063081e3eda146119955780630ad58d2f146118d45780630fb5a6b41461188a5780631526fe271461180b57806317caf6f1146117ce57806318fccc761461160d57806323be76d91461159e57806326991cc81461154b57806328b564a0146114215780632f940c70146112d05780633fc8cef31461127d578063499582c01461124057806351eb05a6146111c757806357a5b58c1461112f578063715018a61461109257806379d12ffb1461102d5780637f37df3b14610df75780638da5cb5b14610da65780638dbdbe6d14610c3557806393f1a40b14610bbd57806397d7577614610b70578063c24a0f8b14610b29578063d1abb907146108e9578063dd49756e1461087a578063e2e5bdb7146105c6578063f2fde38b146104e15763fe4b84df146101615750610011565b346104dd576020807ffffffffffffffffffffffffffffffffffffffffffffffffffffffffffffffffc3601126104d95781359261019c61289b565b73ffffffffffffffffffffffffffffffffffffffff80600754169384875280845260ff838820541661047d57600554946127109586810180911161044f5760055560025495680100000000000000009687811015610423578060016102049201600255611aa4565b81549060031b908685831b921b191617905567ffffffffffffffff9685519061022c82611bb8565b8a8252884216888301528287830152600154908110156103f7579061025a8260016102609401600155611b3e565b906122de565b81895282865284892060017fffffffffffffffffffffffffffffffffffffffffffffffffffffffffffffff00825416179055600254907fffffffffffffffffffffffffffffffffffffffffffffffffffffffffffffffff82019182116103cb579288928695927f4710feb78e3bce8d2e3ca2989a8eb2f8bcd32a6a55b4535942c180fc4d2e295289809761033f9a51908152a384517f23b872dd0000000000000000000000000000000000000000000000000000000081523391810191825230602083015260408201939093529194859283918b918391606090910190565b03927f0000000000000000000000000000000000000000000000000000000000000000165af19081156103c257509161038c93916103919593610394575b505060075460a01c1690611c69565b61286a565b80f35b816103b392903d106103bb575b6103ab8183611bd4565b810190611c51565b50388061037d565b503d6103a1565b513d87823e3d90fd5b60248a6011867f4e487b7100000000000000000000000000000000000000000000000000000000835252fd5b60248b6041877f4e487b7100000000000000000000000000000000000000000000000000000000835252fd5b60248a6041867f4e487b7100000000000000000000000000000000000000000000000000000000835252fd5b6011837f4e487b71000000000000000000000000000000000000000000000000000000006000525260246000fd5b606490848451917f08c379a0000000000000000000000000000000000000000000000000000000008352820152601360248201527f546f6b656e20616c7265616479206164646564000000000000000000000000006044820152fd5b8380fd5b8280fd5b50346104dd5760207ffffffffffffffffffffffffffffffffffffffffffffffffffffffffffffffffc3601126104dd57610519611a2c565b9061052261289b565b73ffffffffffffffffffffffffffffffffffffffff809216928315610597575050600054827fffffffffffffffffffffffff0000000000000000000000000000000000000000821617600055167f8be0079c531659141344cd1fd0a4f28419497f9722a3daafe3b4186f6b6457e0600080a380f35b908460249251917f1e4fbdf7000000000000000000000000000000000000000000000000000000008352820152fd5b5090807ffffffffffffffffffffffffffffffffffffffffffffffffffffffffffffffffc3601126104dd578135906105fc611a09565b90610605612383565b91858052602092600384528287203360005284528260002090610652600183019164e8d4a5100061064b6fffffffffffffffffffffffffffffffff85549351168a61222d565b0490612240565b905561065f858254612259565b905573ffffffffffffffffffffffffffffffffffffffff90868260075416803b1561087657818760248a83895195869485937f2e1a7d4d0000000000000000000000000000000000000000000000000000000085528401525af1801561086c57610854575b50501693815183810167ffffffffffffffff9180821083831117610826578882818094938194895252888a5af1903d15610820573d9081116107f257835190610734867fffffffffffffffffffffffffffffffffffffffffffffffffffffffffffffffe0601f8401160183611bd4565b815287853d92013e5b15610771575051918252839133917f8166bf25f8a2b7ed3c85049207da4358d16edbed977d23fa2ee6f0dde3ec213291a480f35b8260849251917f08c379a0000000000000000000000000000000000000000000000000000000008352820152603460248201527f5472616e7366657248656c7065723a3a736166655472616e736665724554483a60448201527f20455448207472616e73666572206661696c65640000000000000000000000006064820152fd5b6041837f4e487b71000000000000000000000000000000000000000000000000000000006000525260246000fd5b5061073d565b6041847f4e487b71000000000000000000000000000000000000000000000000000000006000525260246000fd5b61085d90611b75565b6108685786386106c4565b8680fd5b85513d84823e3d90fd5b5080fd5b50346104dd5760207ffffffffffffffffffffffffffffffffffffffffffffffffffffffffffffffffc3601126104dd5735916002548310156108e6575073ffffffffffffffffffffffffffffffffffffffff6108d7602093611aa4565b92905490519260031b1c168152f35b80fd5b5090346104dd576108f936611a4f565b9091926109058461261b565b9284875260209260038452828820336000528452826000206109718382548861096a64e8d4a510008061094c6fffffffffffffffffffffffffffffffff809551168661222d565b049061064b6001890194610961865485612240565b9e51168761222d565b9055612259565b90558473ffffffffffffffffffffffffffffffffffffffff9788868b875192838092816109e87fa9059cbb00000000000000000000000000000000000000000000000000000000998a83528b8a84016020909392919373ffffffffffffffffffffffffffffffffffffffff60408201951681520152565b03927f0000000000000000000000000000000000000000000000000000000000000000165af18015610b1f5792879285928795610b02575b508c8c610a2c8d611aa4565b90549060031b1c1692610a6d8a5197889687958694855284016020909392919373ffffffffffffffffffffffffffffffffffffffff60408201951681520152565b03925af18015610af857918798917f71bab65ced2e5750775a0613be067df48ef06cf92a496ebf7663ae0660924954979893610adb575b50845193845216917f8166bf25f8a2b7ed3c85049207da4358d16edbed977d23fa2ee6f0dde3ec2132853392a4519283523392a380f35b610af190873d89116103bb576103ab8183611bd4565b5038610aa4565b84513d8b823e3d90fd5b610b1890853d87116103bb576103ab8183611bd4565b5038610a20565b86513d8d823e3d90fd5b50503461087657817ffffffffffffffffffffffffffffffffffffffffffffffffffffffffffffffffc3601126108765760209067ffffffffffffffff600854169051908152f35b50503461087657817ffffffffffffffffffffffffffffffffffffffffffffffffffffffffffffffffc36011261087657602090517343000000000000000000000000000000000000028152f35b5082346108e657827ffffffffffffffffffffffffffffffffffffffffffffffffffffffffffffffffc3601126108e6578273ffffffffffffffffffffffffffffffffffffffff91610c0c611a09565b933581526003602052209116600052602052806000206001815491015482519182526020820152f35b5090346104dd57610c4536611a4f565b93909192610d40610c558561261b565b9585885284602094859260038452858b209973ffffffffffffffffffffffffffffffffffffffff8092169a8b6000528552610cca600188600020610c9a878254611c15565b8155019164e8d4a51000610cc36fffffffffffffffffffffffffffffffff85549351168861222d565b0490612266565b9055610cd589611aa4565b90549060031b1c16908a86518096819582947f23b872dd00000000000000000000000000000000000000000000000000000000845230903390850160409194939294606082019573ffffffffffffffffffffffffffffffffffffffff80921683521660208201520152565b03925af18015610d9c57907f02d7e648dd130fc184d383e55bb126ac4c9c60e8f94bf05acdf557ba2d540b47939291610d7f575b50519283523392a480f35b610d9590833d85116103bb576103ab8183611bd4565b5038610d74565b82513d89823e3d90fd5b50503461087657817ffffffffffffffffffffffffffffffffffffffffffffffffffffffffffffffffc3601126108765773ffffffffffffffffffffffffffffffffffffffff60209254169051908152f35b50346104dd57817ffffffffffffffffffffffffffffffffffffffffffffffffffffffffffffffffc3601126104dd5780356024610e32611a09565b92610e45610e3f84611b3e565b50612282565b958381526020966003885286822073ffffffffffffffffffffffffffffffffffffffff8097166000528852878760002096610e936fffffffffffffffffffffffffffffffff84511697611aa4565b90549060031b1c168851958680927f70a0823100000000000000000000000000000000000000000000000000000000825230888301525afa938415611023578294610fef575b5067ffffffffffffffff878160085416804211600014610fe6575b828b8501511690818482161180610fdd575b610f35575b8b83610f2e8c600164e8d4a51000610f248f845461222d565b0491015490612240565b9051908152f35b91610f5684610f4c610f609694610f6998966122c4565b166009549061222d565b920151169061222d565b60055490611c69565b9164e8d4a5100092838102938185041490151715610fb1575050610f24610fa6610f2e9594610fa060019564e8d4a5100095611c69565b90611c15565b939438878180610f0b565b9060116024927f4e487b7100000000000000000000000000000000000000000000000000000000835252fd5b50871515610f06565b50814216610ef4565b9093508781813d831161101c575b6110078183611bd4565b8101031261101757519238610ed9565b600080fd5b503d610ffd565b87513d84823e3d90fd5b50346104dd5760207ffffffffffffffffffffffffffffffffffffffffffffffffffffffffffffffffc3601126104dd578160209360ff9273ffffffffffffffffffffffffffffffffffffffff611081611a2c565b168252855220541690519015158152f35b83346108e657807ffffffffffffffffffffffffffffffffffffffffffffffffffffffffffffffffc3601126108e6576110c961289b565b600073ffffffffffffffffffffffffffffffffffffffff81547fffffffffffffffffffffffff000000000000000000000000000000000000000081168355167f8be0079c531659141344cd1fd0a4f28419497f9722a3daafe3b4186f6b6457e08280a380f35b8382346108765760207ffffffffffffffffffffffffffffffffffffffffffffffffffffffffffffffffc36011261087657803567ffffffffffffffff918282116104d957366023830112156104d9578101359182116104dd5760249060053660248560051b840101116111c357845b8481106111a9578580f35b806111bc85600193851b8601013561261b565b500161119e565b8480fd5b5091346108e65760207ffffffffffffffffffffffffffffffffffffffffffffffffffffffffffffffffc3601126108e657506112056060923561261b565b908051916fffffffffffffffffffffffffffffffff81511683528160208201519167ffffffffffffffff809316602086015201511690820152f35b50503461087657817ffffffffffffffffffffffffffffffffffffffffffffffffffffffffffffffffc360112610876576020906009549051908152f35b50503461087657817ffffffffffffffffffffffffffffffffffffffffffffffffffffffffffffffffc3601126108765760209073ffffffffffffffffffffffffffffffffffffffff600754169051908152f35b50346104dd57817ffffffffffffffffffffffffffffffffffffffffffffffffffffffffffffffffc3601126104dd576113b891600184833592611311611a09565b90848352602080966003825282852033600052825282600020908582549783828a955501558461134089611aa4565b979073ffffffffffffffffffffffffffffffffffffffff988991549060031b1c169286519c8d95869485937fa9059cbb00000000000000000000000000000000000000000000000000000000855284016020909392919373ffffffffffffffffffffffffffffffffffffffff60408201951681520152565b03925af1968715611417577f2cac5e20e1541d836381527a43f651851e302817b71dc8e810284e69210c1c6b949596976113fa575b505193845216933392a480f35b61141090883d8a116103bb576103ab8183611bd4565b50386113ed565b81513d8a823e3d90fd5b508290817ffffffffffffffffffffffffffffffffffffffffffffffffffffffffffffffffc3601126108765773ffffffffffffffffffffffffffffffffffffffff60075416803b156104dd5782908451928380927fd0e30db000000000000000000000000000000000000000000000000000000000825234905af1801561154157611532575b50906114b1612383565b8280526003602052818320336000526020526115006001836000206114d7348254611c15565b8155019164e8d4a51000610cc36fffffffffffffffffffffffffffffffff85549351163461222d565b9055513481528133917f02d7e648dd130fc184d383e55bb126ac4c9c60e8f94bf05acdf557ba2d540b4760203392a480f35b61153b90611b75565b826114a7565b83513d84823e3d90fd5b50503461087657817ffffffffffffffffffffffffffffffffffffffffffffffffffffffffffffffffc3601126108765760209073ffffffffffffffffffffffffffffffffffffffff600654169051908152f35b50503461087657817ffffffffffffffffffffffffffffffffffffffffffffffffffffffffffffffffc360112610876576020905173ffffffffffffffffffffffffffffffffffffffff7f0000000000000000000000000000000000000000000000000000000000000000168152f35b5090346104dd57807ffffffffffffffffffffffffffffffffffffffffffffffffffffffffffffffffc3601126104dd57813590611648611a09565b926116528361261b565b91838652602091600383528187203388528352600164e8d4a51000611690848a20966fffffffffffffffffffffffffffffffff88549151169061222d565b0494019361169f855482612240565b9455836116df575b507f71bab65ced2e5750775a0613be067df48ef06cf92a496ebf7663ae0660924954929394506116d5611ca2565b519283523392a380f35b81517fa9059cbb00000000000000000000000000000000000000000000000000000000815273ffffffffffffffffffffffffffffffffffffffff9096169086019081526020810184905282908690819060400103818973ffffffffffffffffffffffffffffffffffffffff7f0000000000000000000000000000000000000000000000000000000000000000165af19485156117c4577f71bab65ced2e5750775a0613be067df48ef06cf92a496ebf7663ae06609249549394956117a7575b859493506116a7565b6117bd90833d85116103bb576103ab8183611bd4565b503861179e565b81513d88823e3d90fd5b50503461087657817ffffffffffffffffffffffffffffffffffffffffffffffffffffffffffffffffc360112610876576020906005549051908152f35b50346104dd5760207ffffffffffffffffffffffffffffffffffffffffffffffffffffffffffffffffc3601126104dd5735916001548310156108e65750611853606092611b3e565b5054908051916fffffffffffffffffffffffffffffffff8116835267ffffffffffffffff8160801c16602084015260c01c90820152f35b50503461087657817ffffffffffffffffffffffffffffffffffffffffffffffffffffffffffffffffc3601126108765760209067ffffffffffffffff60075460a01c169051908152f35b50346104dd5761195491836118e836611a4f565b909291936118f58561261b565b8584528460209788926003845284872033885284528487209061193b600183019164e8d4a5100061064b6fffffffffffffffffffffffffffffffff85549351168861222d565b9055611948838254612259565b90558461134089611aa4565b03925af1968715611417577f8166bf25f8a2b7ed3c85049207da4358d16edbed977d23fa2ee6f0dde3ec2132949596976113fa57505193845216933392a480f35b50503461087657817ffffffffffffffffffffffffffffffffffffffffffffffffffffffffffffffffc360112610876576020906001549051908152f35b83346108e657807ffffffffffffffffffffffffffffffffffffffffffffffffffffffffffffffffc3601126108e657610391611ca2565b6024359073ffffffffffffffffffffffffffffffffffffffff8216820361101757565b6004359073ffffffffffffffffffffffffffffffffffffffff8216820361101757565b7ffffffffffffffffffffffffffffffffffffffffffffffffffffffffffffffffc606091011261101757600435906024359060443573ffffffffffffffffffffffffffffffffffffffff811681036110175790565b600254811015611adb5760026000527f405787fa12a823e0f2b7631cc41b3ba8828b3321ca811111fa75cd3aa3bb5ace0190600090565b7f4e487b7100000000000000000000000000000000000000000000000000000000600052603260045260246000fd5b60015415611adb5760016000527fb10e2d527612073b26eecdfd717e6a320cf44b4afac2b0732d9fcbe2b7fa0cf690600090565b600154811015611adb5760016000527fb10e2d527612073b26eecdfd717e6a320cf44b4afac2b0732d9fcbe2b7fa0cf60190600090565b67ffffffffffffffff8111611b8957604052565b7f4e487b7100000000000000000000000000000000000000000000000000000000600052604160045260246000fd5b6060810190811067ffffffffffffffff821117611b8957604052565b90601f7fffffffffffffffffffffffffffffffffffffffffffffffffffffffffffffffe0910116810190811067ffffffffffffffff821117611b8957604052565b91908201809211611c2257565b7f4e487b7100000000000000000000000000000000000000000000000000000000600052601160045260246000fd5b90816020910312611017575180151581036110175790565b8115611c73570490565b7f4e487b7100000000000000000000000000000000000000000000000000000000600052601260045260246000fd5b60075460009073ffffffffffffffffffffffffffffffffffffffff80911660409283517fe12f3a6100000000000000000000000000000000000000000000000000000000815260049030828201526020938482602481845afa9182156121145784926121fe575b5066038d7ea4c6800082106121f55784875180927faad3ec96000000000000000000000000000000000000000000000000000000008252818781611d7388308b84016020909392919373ffffffffffffffffffffffffffffffffffffffff60408201951681520152565b03925af18015612114579085916121cc575b505085517f954fa5ee00000000000000000000000000000000000000000000000000000000815230838201523060248201528481604481877343000000000000000000000000000000000000025af18015612114579085916121a3575b505084600754164790803b156111c3578490848951809481937fd0e30db00000000000000000000000000000000000000000000000000000000083525af180156121145761218e575b50611e37904790611c15565b938060065416948651957f49faebde0000000000000000000000000000000000000000000000000000000087526dffffffffffffffffffffffffffff82168488015260c860248801528587604481845afa96871561214157859761215f575b50803b156111c357848091858a51809481937ffff6cae90000000000000000000000000000000000000000000000000000000083525af180156121415790859161214b575b5085611f4384600754168560065416948b519485809481937fa9059cbb00000000000000000000000000000000000000000000000000000000998a84528c84016020909392919373ffffffffffffffffffffffffffffffffffffffff60408201951681520152565b03925af1801561214157612124575b5084827f00000000000000000000000000000000000000000000000000000000000000001696836006541690801560001461211e5750670de0b6b3a7640000925b611fca8a51948593849384528884016020909392919373ffffffffffffffffffffffffffffffffffffffff60408201951681520152565b0381878a5af180156121145791859185936120f7575b506006541660248851809481937f6a62784200000000000000000000000000000000000000000000000000000000835230888401525af180156120ed579084916120c4575b509060248651809681937f70a0823100000000000000000000000000000000000000000000000000000000835230908301525afa9384156120ba575092612088575b505061038c6120869167ffffffffffffffff60075460a01c1690611c69565b565b90809250813d83116120b3575b61209f8183611bd4565b81010312611017575161038c612086612067565b503d612095565b51903d90823e3d90fd5b813d83116120e6575b6120d78183611bd4565b81010312611017578238612025565b503d6120cd565b86513d85823e3d90fd5b61210d90833d85116103bb576103ab8183611bd4565b5038611fe0565b87513d86823e3d90fd5b92611f93565b61213a90863d88116103bb576103ab8183611bd4565b5038611f52565b88513d87823e3d90fd5b61215490611b75565b6104d9578338611edb565b9096508581813d8311612187575b6121778183611bd4565b8101031261101757519538611e96565b503d61216d565b9261219c611e379294611b75565b9290611e2b565b813d83116121c5575b6121b68183611bd4565b810103126104dd578338611de2565b503d6121ac565b813d83116121ee575b6121df8183611bd4565b810103126104dd578338611d85565b503d6121d5565b50505050505050565b9091508481813d8311612226575b6122168183611bd4565b810103126104d957519038611d09565b503d61220c565b81810292918115918404141715611c2257565b81810392916000138015828513169184121617611c2257565b91908203918211611c2257565b91909160008382019384129112908015821691151617611c2257565b9060405161228f81611bb8565b60408193546fffffffffffffffffffffffffffffffff8116835267ffffffffffffffff8160801c16602084015260c01c910152565b67ffffffffffffffff9182169082160391908211611c2257565b9190612354578051602082015160409092015160809290921b77ffffffffffffffff00000000000000000000000000000000166fffffffffffffffffffffffffffffffff919091161760c09190911b7fffffffffffffffff00000000000000000000000000000000000000000000000016179055565b7f4e487b7100000000000000000000000000000000000000000000000000000000600052600060045260246000fd5b60409081519061239282611bb8565b60008083528084602094828682015201526123ae610e3f611b0a565b9267ffffffffffffffff94856008541680421160001461261157955b828601818151168289169081116123e7575b505050505050909150565b600254156125e457859697986002602497528573ffffffffffffffffffffffffffffffffffffffff7f405787fa12a823e0f2b7631cc41b3ba8828b3321ca811111fa75cd3aa3bb5ace54168651988980927f70a082310000000000000000000000000000000000000000000000000000000082523060048301525afa9687156125da5788976125a7575b50866124e1575b509181606095937f0fc9545022a542541ad085d091fb09a2ab36fee366a4576ab63714ea907ad353979593526124b08a61025a611b0a565b5116926fffffffffffffffffffffffffffffffff895116928251948552840152820152a281903880808080806123dc565b610f606124f985610f4c6125059482885116906122c4565b85878d0151169061222d565b6fffffffffffffffffffffffffffffffff90818b51169064e8d4a510009081810291818304149015171561257a579161256b606098969492610fa08b7f0fc9545022a542541ad085d091fb09a2ab36fee366a4576ab63714ea907ad3539c9a9896611c69565b168b5291939550919395612478565b60248a7f4e487b710000000000000000000000000000000000000000000000000000000081526011600452fd5b9096508581813d83116125d3575b6125bf8183611bd4565b810103126125cf57519538612471565b8780fd5b503d6125b5565b85513d8a823e3d90fd5b6024867f4e487b710000000000000000000000000000000000000000000000000000000081526032600452fd5b50854216956123ca565b90604091825161262a81611bb8565b600090818152818560209282848201520152612648610e3f84611b3e565b9467ffffffffffffffff806008541680421160001461286057935b838801908282511690838716918211612681575b5050505050505050565b73ffffffffffffffffffffffffffffffffffffffff968660246126a38b611aa4565b9190549189519b8c9384927f70a0823100000000000000000000000000000000000000000000000000000000845230600485015260031b1c165afa97881561285657908b918399612823575b5088612762575b5050509181606095937f0fc9545022a542541ad085d091fb09a2ab36fee366a4576ab63714ea907ad353979593526127318a61025a8a611b3e565b5116926fffffffffffffffffffffffffffffffff895116928251948552840152820152a23880808080808080612677565b61277d918688610f5682610f4c610f6096828c5116906122c4565b906fffffffffffffffffffffffffffffffff91828c51169164e8d4a51000918281029281840414901517156127f65750916127e5606098969492610fa08b7f0fc9545022a542541ad085d091fb09a2ab36fee366a4576ab63714ea907ad3539c9a9896611c69565b168b529193955091939589386126f6565b807f4e487b7100000000000000000000000000000000000000000000000000000000602492526011600452fd5b8880929a508193503d831161284f575b61283d8183611bd4565b81010312610876578a905197386126ef565b503d612833565b86513d84823e3d90fd5b5080421693612663565b60207fce627de7a3c0ab1e1b091d6a60d128ea2327f929866814370c4be8e19d5def359180600955604051908152a1565b73ffffffffffffffffffffffffffffffffffffffff6000541633036128bc57565b60246040517f118cdaa7000000000000000000000000000000000000000000000000000000008152336004820152fdfea26469706673582212204f82bbd51f4588e89a2ee41a0ade9052b21bf332d66f8f7fe8bf14e293f5608564736f6c63430008170033a2646970667358221220a0d70e9e73eca9887ccd28d9a6eea7fcfd1ba7a4b33e8f62eeb7d109ca49f93f64736f6c63430008170033",
  "linkReferences": {},
  "deployedLinkReferences": {}
}