{
  "_format": "hh-sol-artifact-1",
  "contractName": "MineblastFactory",
  "sourceName": "src/MineblastFactory.sol",
  "abi": [
    {
      "inputs": [
        {
          "internalType": "address",
          "name": "_swapPairFactory",
          "type": "address"
        }
      ],
      "stateMutability": "nonpayable",
      "type": "constructor"
    },
    {
      "inputs": [
        {
          "internalType": "address",
          "name": "owner",
          "type": "address"
        }
      ],
      "name": "OwnableInvalidOwner",
      "type": "error"
    },
    {
      "inputs": [
        {
          "internalType": "address",
          "name": "account",
          "type": "address"
        }
      ],
      "name": "OwnableUnauthorizedAccount",
      "type": "error"
    },
    {
      "anonymous": false,
      "inputs": [
        {
          "indexed": true,
          "internalType": "address",
          "name": "previousOwner",
          "type": "address"
        },
        {
          "indexed": true,
          "internalType": "address",
          "name": "newOwner",
          "type": "address"
        }
      ],
      "name": "OwnershipTransferred",
      "type": "event"
    },
    {
      "anonymous": false,
      "inputs": [
        {
          "indexed": false,
          "internalType": "address",
          "name": "vault",
          "type": "address"
        },
        {
          "indexed": false,
          "internalType": "address",
          "name": "pair",
          "type": "address"
        },
        {
          "indexed": false,
          "internalType": "address",
          "name": "token",
          "type": "address"
        }
      ],
      "name": "VaultCreated",
      "type": "event"
    },
    {
      "inputs": [
        {
          "internalType": "uint256",
          "name": "",
          "type": "uint256"
        }
      ],
      "name": "allVaults",
      "outputs": [
        {
          "internalType": "address",
          "name": "vault",
          "type": "address"
        },
        {
          "internalType": "address",
          "name": "pair",
          "type": "address"
        },
        {
          "internalType": "address",
          "name": "token",
          "type": "address"
        },
        {
          "internalType": "uint16",
          "name": "ownerShareBps",
          "type": "uint16"
        }
      ],
      "stateMutability": "view",
      "type": "function"
    },
    {
      "inputs": [],
      "name": "baseProtocolShareBps",
      "outputs": [
        {
          "internalType": "uint16",
          "name": "",
          "type": "uint16"
        }
      ],
      "stateMutability": "view",
      "type": "function"
    },
    {
      "inputs": [
        {
          "internalType": "uint256",
          "name": "supply",
          "type": "uint256"
        },
        {
          "internalType": "string",
          "name": "name",
          "type": "string"
        },
        {
          "internalType": "string",
          "name": "symbol",
          "type": "string"
        },
        {
          "internalType": "uint64",
          "name": "duration",
          "type": "uint64"
        },
        {
          "internalType": "uint16",
          "name": "ownerSupplyBps",
          "type": "uint16"
        }
      ],
      "name": "createVaultWithNewToken",
      "outputs": [
        {
          "internalType": "address",
          "name": "vaultAddress",
          "type": "address"
        },
        {
          "internalType": "address",
          "name": "pairAddress",
          "type": "address"
        },
        {
          "internalType": "address",
          "name": "tokenAddress",
          "type": "address"
        }
      ],
      "stateMutability": "nonpayable",
      "type": "function"
    },
    {
      "inputs": [
        {
          "internalType": "uint64",
          "name": "maxElements",
          "type": "uint64"
        },
        {
          "internalType": "uint64",
          "name": "offset",
          "type": "uint64"
        }
      ],
      "name": "getAllVaults",
      "outputs": [
        {
          "components": [
            {
              "internalType": "address",
              "name": "vault",
              "type": "address"
            },
            {
              "internalType": "address",
              "name": "pair",
              "type": "address"
            },
            {
              "internalType": "address",
              "name": "token",
              "type": "address"
            },
            {
              "internalType": "uint16",
              "name": "ownerShareBps",
              "type": "uint16"
            }
          ],
          "internalType": "struct MineblastFactory.VaultInfo[]",
          "name": "",
          "type": "tuple[]"
        }
      ],
      "stateMutability": "view",
      "type": "function"
    },
    {
      "inputs": [],
      "name": "getAllVaultsLength",
      "outputs": [
        {
          "internalType": "uint64",
          "name": "",
          "type": "uint64"
        }
      ],
      "stateMutability": "view",
      "type": "function"
    },
    {
      "inputs": [],
      "name": "maxOwnerShareBps",
      "outputs": [
        {
          "internalType": "uint16",
          "name": "",
          "type": "uint16"
        }
      ],
      "stateMutability": "view",
      "type": "function"
    },
    {
      "inputs": [],
      "name": "owner",
      "outputs": [
        {
          "internalType": "address",
          "name": "",
          "type": "address"
        }
      ],
      "stateMutability": "view",
      "type": "function"
    },
    {
      "inputs": [],
      "name": "protocolShareFromOwnerShareBps",
      "outputs": [
        {
          "internalType": "uint16",
          "name": "",
          "type": "uint16"
        }
      ],
      "stateMutability": "view",
      "type": "function"
    },
    {
      "inputs": [],
      "name": "renounceOwnership",
      "outputs": [],
      "stateMutability": "nonpayable",
      "type": "function"
    },
    {
      "inputs": [],
      "name": "swapPairFactory",
      "outputs": [
        {
          "internalType": "contract IMineblastSwapPairFactory",
          "name": "",
          "type": "address"
        }
      ],
      "stateMutability": "view",
      "type": "function"
    },
    {
      "inputs": [
        {
          "internalType": "address",
          "name": "newOwner",
          "type": "address"
        }
      ],
      "name": "transferOwnership",
      "outputs": [],
      "stateMutability": "nonpayable",
      "type": "function"
    },
    {
      "inputs": [],
      "name": "wethAddress",
      "outputs": [
        {
          "internalType": "address",
          "name": "",
          "type": "address"
        }
      ],
      "stateMutability": "view",
      "type": "function"
    }
  ],
  "bytecode": "0x6080346100e457601f61570638819003918201601f19168301916001600160401b038311848410176100e9578084926020946040528339810103126100e457516001600160a01b0390818116908190036100e45733156100cb5760005460018060a01b0319903382821617600055604051933391167f8be0079c531659141344cd1fd0a4f28419497f9722a3daafe3b4186f6b6457e0600080a3734200000000000000000000000000000000000023816002541617600255600154161760015561560690816101008239f35b604051631e4fbdf760e01b815260006004820152602490fd5b600080fd5b634e487b7160e01b600052604160045260246000fdfe60806040818152600490813610156200001757600080fd5b600092833560e01c908163090d85d51462000d6657508063341cd8a514620004e157806341c6f72d14620004a55780634f0e0ef31462000450578063715018a614620003af578063864a914714620003725780638da5cb5b146200031f5780639094a91e14620002875780639d080a50146200023e578063c5d84a9014620001e9578063dbcdf37314620001a85763f2fde38b14620000b557600080fd5b34620001a45760207ffffffffffffffffffffffffffffffffffffffffffffffffffffffffffffffffc360112620001a45781359173ffffffffffffffffffffffffffffffffffffffff91828416809403620001a0576200011462001294565b831562000171575050600054827fffffffffffffffffffffffff0000000000000000000000000000000000000000821617600055167f8be0079c531659141344cd1fd0a4f28419497f9722a3daafe3b4186f6b6457e0600080a380f35b908460249251917f1e4fbdf7000000000000000000000000000000000000000000000000000000008352820152fd5b8480fd5b8280fd5b838234620001e557817ffffffffffffffffffffffffffffffffffffffffffffffffffffffffffffffffc360112620001e557602090516101f48152f35b5080fd5b838234620001e557817ffffffffffffffffffffffffffffffffffffffffffffffffffffffffffffffffc360112620001e55760209073ffffffffffffffffffffffffffffffffffffffff600154169051908152f35b838234620001e557817ffffffffffffffffffffffffffffffffffffffffffffffffffffffffffffffffc360112620001e55760209067ffffffffffffffff600354169051908152f35b509034620001a45760207ffffffffffffffffffffffffffffffffffffffffffffffffffffffffffffffffc360112620001a45735916003548310156200031c575061ffff620002d860809362001111565b5073ffffffffffffffffffffffffffffffffffffffff928382541693600281600185015416930154928251958652602086015282169084015260a01c166060820152f35b80fd5b838234620001e557817ffffffffffffffffffffffffffffffffffffffffffffffffffffffffffffffffc360112620001e55773ffffffffffffffffffffffffffffffffffffffff60209254169051908152f35b838234620001e557817ffffffffffffffffffffffffffffffffffffffffffffffffffffffffffffffffc360112620001e557602090516103e88152f35b83346200031c57807ffffffffffffffffffffffffffffffffffffffffffffffffffffffffffffffffc3601126200031c57620003ea62001294565b600073ffffffffffffffffffffffffffffffffffffffff81547fffffffffffffffffffffffff000000000000000000000000000000000000000081168355167f8be0079c531659141344cd1fd0a4f28419497f9722a3daafe3b4186f6b6457e08280a380f35b838234620001e557817ffffffffffffffffffffffffffffffffffffffffffffffffffffffffffffffffc360112620001e55760209073ffffffffffffffffffffffffffffffffffffffff600254169051908152f35b838234620001e557817ffffffffffffffffffffffffffffffffffffffffffffffffffffffffffffffffc360112620001e5576020905160328152f35b5091346200031c5760a07ffffffffffffffffffffffffffffffffffffffffffffffffffffffffffffffffc3601126200031c5781359260249081359267ffffffffffffffff93848111620001e5576200053e903690870162001092565b604435858111620001a45762000558903690880162001092565b946064359481861680960362000d62576084359261ffff8416809403620001a057891562000d065785519061147e90818301918383108684111762000cdb57620005b8849392620005c892620012e7863960808452608084019062001203565b60209b8382038d85015262001203565b908c89820152606033910152039085f096871562000cd15773ffffffffffffffffffffffffffffffffffffffff92836001541697828b8680600254169c169a8a519c8d927fc9c653960000000000000000000000000000000000000000000000000000000084528301528b87830152818a5a92604493f1998a1562000abf57879a62000c92575b50875190612e6c90818301918383108584111762000c6657918391888e8e606096620027658739845216878301528b82015203019087f09a8b1562000c5c576103e8861162000bdb5785810290808204870362000bb0576127108092046101f480820290828204148215171562000b845783620006cf91048092620011c7565b9183620006dc826200127d565b049382850180951162000b5957620007798f93858f918f98978f9662000720926200071a828f99620007126200071a956200127d565b0490620011c7565b620011c7565b97519485809481937fa9059cbb00000000000000000000000000000000000000000000000000000000998a8452339084016020909392919373ffffffffffffffffffffffffffffffffffffffff60408201951681520152565b03925af1801562000b4f578e8b88948f93948f9562000b2d575b50620007d18c835416955197889687958694855284016020909392919373ffffffffffffffffffffffffffffffffffffffff60408201951681520152565b03925af1801562000b015782878e9f8d9e9f94889462000b0b575b50169c8d938b8d518096819582947f095ea7b30000000000000000000000000000000000000000000000000000000084528301916200084d926020909392919373ffffffffffffffffffffffffffffffffffffffff60408201951681520152565b03925af1801562000b015762000acd575b50893b1562000ac95787517ffe4b84df000000000000000000000000000000000000000000000000000000008152808d01919091529086828581838e5af1801562000abf5762000a80575b5050855190620008b98262001004565b888252810191838a16835286820195888752606083019586526003546801000000000000000081101562000a5657806001620008f9920160035562001111565b9c909c62000a2e57505050986002918362000a2a999a9b51167fffffffffffffffffffffffff00000000000000000000000000000000000000009081845416178355846001840192511690825416179055019251167fffffffffffffffffffff0000000000000000000000000000000000000000000075ffff00000000000000000000000000000000000000008454935160a01b169216171790557f897c133dfbfe1f6239e98b4ffd7e4f6c86a62350a131a7a37790419f58af02f9815180620009f385898984916040919493606084019573ffffffffffffffffffffffffffffffffffffffff9283809216865216602085015216910152565b0390a15173ffffffffffffffffffffffffffffffffffffffff93841681529383166020850152909116604083015281906060820190565b0390f35b81907f4e487b7100000000000000000000000000000000000000000000000000000000825252fd5b5060418c7f4e487b7100000000000000000000000000000000000000000000000000000000835252fd5b819692961162000a95578652933880620008a9565b5060418a7f4e487b7100000000000000000000000000000000000000000000000000000000835252fd5b88513d89823e3d90fd5b8680fd5b62000af190843d861162000af9575b62000ae8818362001050565b81019062001263565b50386200085e565b503d62000adc565b89513d8a823e3d90fd5b62000b2590853d871162000af95762000ae8818362001050565b5038620007ec565b62000b4790873d891162000af95762000ae8818362001050565b503862000793565b8b513d8c823e3d90fd5b7f4e487b71000000000000000000000000000000000000000000000000000000008b5260118f52878bfd5b50858960118f7f4e487b7100000000000000000000000000000000000000000000000000000000835252fd5b848860118e7f4e487b7100000000000000000000000000000000000000000000000000000000835252fd5b60848b603e86868c51937f08c379a00000000000000000000000000000000000000000000000000000000085528401528201527f4f776e657220737570706c79206d757374206265206c657373207468616e206f60448201527f7220657175616c20746f20746865206d6178206f776e657220736861726500006064820152fd5b87513d88823e3d90fd5b50858960418f7f4e487b7100000000000000000000000000000000000000000000000000000000835252fd5b9099508281813d831162000cc9575b62000cad818362001050565b8101031262000ac95751848116810362000ac95798386200064f565b503d62000ca1565b85513d86823e3d90fd5b848860418e7f4e487b7100000000000000000000000000000000000000000000000000000000835252fd5b606489601d8460208a51937f08c379a00000000000000000000000000000000000000000000000000000000085528401528201527f737570706c79206d7573742062652067726561746572207468616e20300000006044820152fd5b8380fd5b9050838334620001e557837ffffffffffffffffffffffffffffffffffffffffffffffffffffffffffffffffc360112620001e557803567ffffffffffffffff93848216820362000d625760243592858416918285036200100057600354918284101562000fa55750508291818794928562000de4819596896200117b565b161162000f8e575b505050169062000dfc82620011d5565b9062000e0b8651928362001050565b82825262000e1983620011d5565b907fffffffffffffffffffffffffffffffffffffffffffffffffffffffffffffffe06020920182865b82811062000f5f57505050845b8681168581101562000ee4578162000edb6001928b61ffff62000e7e62000e788e988a6200117b565b62001111565b5082519262000e8d8462001004565b600273ffffffffffffffffffffffffffffffffffffffff92838154168652838a820154168d87015201549182169084015260a01c16606082015262000ed3828a620011ee565b5287620011ee565b50011662000e4f565b88848689835192808401908085528351809252808686019401925b82811062000f0d5785850386f35b8351805173ffffffffffffffffffffffffffffffffffffffff90811687528184015181168785015288820151168887015260609081015161ffff16908601526080909401939281019260010162000eff565b895162000f6c8162001004565b8881528883820152888b82015288606082015282828801015201839062000e42565b62000f9b929350620011c7565b1681878062000dec565b9060206064927f08c379a0000000000000000000000000000000000000000000000000000000008352820152601760248201527f4f6666736574206973206f7574206f6620626f756e64730000000000000000006044820152fd5b8580fd5b6080810190811067ffffffffffffffff8211176200102157604052565b7f4e487b7100000000000000000000000000000000000000000000000000000000600052604160045260246000fd5b90601f7fffffffffffffffffffffffffffffffffffffffffffffffffffffffffffffffe0910116810190811067ffffffffffffffff8211176200102157604052565b81601f820112156200110c5780359067ffffffffffffffff8211620010215760405192620010e960207fffffffffffffffffffffffffffffffffffffffffffffffffffffffffffffffe0601f860116018562001050565b828452602083830101116200110c57816000926020809301838601378301015290565b600080fd5b6003548110156200114c5760039081600052027fc2575a0e9e593c00f959f8c92f12db2869c3395a3b0502d05e2516446f71f85b0190600090565b7f4e487b7100000000000000000000000000000000000000000000000000000000600052603260045260246000fd5b91909167ffffffffffffffff808094169116019182116200119857565b7f4e487b7100000000000000000000000000000000000000000000000000000000600052601160045260246000fd5b919082039182116200119857565b67ffffffffffffffff8111620010215760051b60200190565b80518210156200114c5760209160051b010190565b919082519283825260005b8481106200124e5750507fffffffffffffffffffffffffffffffffffffffffffffffffffffffffffffffe0601f8460006020809697860101520116010190565b6020818301810151848301820152016200120e565b908160209103126200110c575180151581036200110c5790565b906032820291808304603214901517156200119857565b73ffffffffffffffffffffffffffffffffffffffff600054163303620012b657565b60246040517f118cdaa7000000000000000000000000000000000000000000000000000000008152336004820152fdfe60e0604090808252346200055b5760006200147e80380380916200002482866200058a565b843982016080838203126200030f5782516001600160401b03908181116200031d578262000054918601620005ae565b6020928386015183811162000557579062000071918701620005ae565b868601516060909601516001600160a01b0381169290839003620005575780518481116200047e5780620000a6885462000624565b92601f9384811162000506575b5087908483116001146200049e57899262000492575b50508160011b916000199060031b1c19161786555b8151908482116200047e578190600193620000fa855462000624565b82811162000429575b5087918311600114620003c5578892620003b9575b5050600019600383901b1c191690821b1781555b60126080524660a05286518554918187620001478562000624565b92838352888301958982821691826000146200039957505060011462000359575b5062000177925003826200058a565b5190208651848101917f8b73c3c69bb8fe3d512ecc4cf759cc79239f7b179b0ffacaa9a75d522b39400f8352888201527fc89efdaa54c0f20c7adf612882df0950f5a951637e0307cdcb4c672f298b8bc660608201524660808201523060a082015260a0815260c081019381851090851117620003455783885251902060c05273430000000000000000000000000000000000000291823b156200034157634e606c4760e01b8152848160048183875af18015620003375762000321575b50813b156200031d5783916024839288519485938492631d70c8d360e31b845260048401525af180156200031357908391620002f7575b5050600254838101809111620002e357907fddf252ad1be2c89b69c2b068fc378daa952ba7f163c4a11628f55a4df523b3ef916002553383526003815284832084815401905584519384523393a351610e1c908162000662823960805181610782015260a05181610c0d015260c05181610c340152f35b634e487b7160e01b83526011600452602483fd5b620003029062000560565b6200030f5781386200026c565b5080fd5b85513d85823e3d90fd5b8380fd5b6200032f9094919462000560565b923862000235565b87513d87823e3d90fd5b8480fd5b634e487b7160e01b86526041600452602486fd5b889150898052818a20908a915b858310620003805750506200017793508201013862000168565b80548388018501528694508a9390920191810162000366565b60ff191688526200017795151560051b8501019250389150620001689050565b01519050388062000118565b8489528789208594509190601f1984168a5b8a828210620004125750508411620003f8575b505050811b0181556200012c565b015160001960f88460031b161c19169055388080620003ea565b8385015186558897909501949384019301620003d7565b909192508489528789208380860160051c8201928a871062000474575b91869588929594930160051c01915b8281106200046557505062000103565b8b815586955087910162000455565b9250819262000446565b634e487b7160e01b87526041600452602487fd5b015190503880620000c9565b898052888a209250601f1984168a5b8a828210620004ef575050908460019594939210620004d5575b505050811b018655620000de565b015160001960f88460031b161c19169055388080620004c7565b6001859682939686015181550195019301620004ad565b9091508880528789208480850160051c8201928a86106200054d575b9085949392910160051c01905b8181106200053e5750620000b3565b8a81558493506001016200052f565b9250819262000522565b8580fd5b600080fd5b6001600160401b0381116200057457604052565b634e487b7160e01b600052604160045260246000fd5b601f909101601f19168101906001600160401b038211908210176200057457604052565b919080601f840112156200055b5782516001600160401b038111620005745760209060405192620005e983601f19601f85011601856200058a565b8184528282870101116200055b5760005b8181106200061057508260009394955001015290565b8581018301518482018401528201620005fa565b90600182811c9216801562000656575b60208310146200064057565b634e487b7160e01b600052602260045260246000fd5b91607f16916200063456fe6080604081815260048036101561001557600080fd5b600092833560e01c90816306fdde031461099757508063095ea7b3146108fd57806318160ddd146108c057806323b872dd146107a6578063313ce5671461074a5780633644e5151461070857806370a08231146106a65780637ecebe001461064457806395d89b411461052257806397d75776146104d5578063a9059cbb14610428578063d505accf146101285763dd62ed3e146100b257600080fd5b3461012457817ffffffffffffffffffffffffffffffffffffffffffffffffffffffffffffffffc3601126101245760209282916100ed610b81565b6100f5610ba9565b9173ffffffffffffffffffffffffffffffffffffffff8092168452865283832091168252845220549051908152f35b8280fd5b509190346104245760e07ffffffffffffffffffffffffffffffffffffffffffffffffffffffffffffffffc36011261042457610162610b81565b9061016b610ba9565b91604435606435926084359260ff8416809403610420574285106103c357610191610c08565b9573ffffffffffffffffffffffffffffffffffffffff8092169586895260209560058752848a209889549960018b01905585519285898501957f6e71edae12b1b97f4d1f60370fef10105fa2faae0126114a169c64845d6126c987528b89870152169a8b606086015288608086015260a085015260c084015260c0835260e0830167ffffffffffffffff948482108683111761039657818852845190206101008501927f19010000000000000000000000000000000000000000000000000000000000008452610102860152610122850152604281526101608401948186109086111761036a57848752519020835261018082015260a4356101a082015260c4356101c0909101528780528490889060809060015afa15610360578651169687151580610357575b156102fc5786977f8c5be1e5ebec7d5bd14f71427d1e84f3dd0314c0f7b2291e5b200ac8c7c3b9259596975283528087208688528352818188205551908152a380f35b8360649251917f08c379a0000000000000000000000000000000000000000000000000000000008352820152600e60248201527f494e56414c49445f5349474e45520000000000000000000000000000000000006044820152fd5b508488146102b9565b81513d88823e3d90fd5b60248c60418f7f4e487b7100000000000000000000000000000000000000000000000000000000835252fd5b5060248c60418f7f4e487b7100000000000000000000000000000000000000000000000000000000835252fd5b60648860208451917f08c379a0000000000000000000000000000000000000000000000000000000008352820152601760248201527f5045524d49545f444541444c494e455f455850495245440000000000000000006044820152fd5b8680fd5b5080fd5b50503461042457807ffffffffffffffffffffffffffffffffffffffffffffffffffffffffffffffffc36011261042457602091610463610b81565b8273ffffffffffffffffffffffffffffffffffffffff6024359233855260038752828520610492858254610bcc565b90551692838152600386522081815401905582519081527fddf252ad1be2c89b69c2b068fc378daa952ba7f163c4a11628f55a4df523b3ef843392a35160018152f35b50503461042457817ffffffffffffffffffffffffffffffffffffffffffffffffffffffffffffffffc36011261042457602090517343000000000000000000000000000000000000028152f35b82843461064157807ffffffffffffffffffffffffffffffffffffffffffffffffffffffffffffffffc3601126106415781519080600180549061056482610a58565b80865292602092600181169081156105f6575060011461059e575b61059a868861059082890383610aab565b5191829182610b1b565b0390f35b9350600184527fb10e2d527612073b26eecdfd717e6a320cf44b4afac2b0732d9fcbe2b7fa0cf65b8385106105e3575050505081016020016105908261059a8661057f565b80548686018401529382019381016105c6565b61059a989650879450602093506105909592507fffffffffffffffffffffffffffffffffffffffffffffffffffffffffffffff0091501682840152151560051b82010192948661057f565b80fd5b5050346104245760207ffffffffffffffffffffffffffffffffffffffffffffffffffffffffffffffffc360112610424578060209273ffffffffffffffffffffffffffffffffffffffff610696610b81565b1681526005845220549051908152f35b5050346104245760207ffffffffffffffffffffffffffffffffffffffffffffffffffffffffffffffffc360112610424578060209273ffffffffffffffffffffffffffffffffffffffff6106f8610b81565b1681526003845220549051908152f35b50503461042457817ffffffffffffffffffffffffffffffffffffffffffffffffffffffffffffffffc36011261042457602090610743610c08565b9051908152f35b50503461042457817ffffffffffffffffffffffffffffffffffffffffffffffffffffffffffffffffc360112610424576020905160ff7f0000000000000000000000000000000000000000000000000000000000000000168152f35b5091346106415760607ffffffffffffffffffffffffffffffffffffffffffffffffffffffffffffffffc360112610641576107df610b81565b7fddf252ad1be2c89b69c2b068fc378daa952ba7f163c4a11628f55a4df523b3ef610808610ba9565b946044358573ffffffffffffffffffffffffffffffffffffffff80951694858752602098848a958652838920338a52865283892054857fffffffffffffffffffffffffffffffffffffffffffffffffffffffffffffffff820361089d575b5050508688526003855282882061087e858254610bcc565b9055169586815260038452208181540190558551908152a35160018152f35b6108a691610bcc565b90888a528652838920338a52865283892055388085610866565b50503461042457817ffffffffffffffffffffffffffffffffffffffffffffffffffffffffffffffffc360112610424576020906002549051908152f35b503461012457817ffffffffffffffffffffffffffffffffffffffffffffffffffffffffffffffffc36011261012457602092610937610b81565b9183602435928392338252875273ffffffffffffffffffffffffffffffffffffffff8282209516948582528752205582519081527f8c5be1e5ebec7d5bd14f71427d1e84f3dd0314c0f7b2291e5b200ac8c7c3b925843392a35160018152f35b8390853461064157807ffffffffffffffffffffffffffffffffffffffffffffffffffffffffffffffffc360112610641578054816109d482610a58565b808552916020916001918281169081156105f65750600114610a015761059a868861059082890383610aab565b80809550527f290decd9548b62a8d60345a988386fc84ba6bc95484008f6362f93160ef3e5635b838510610a45575050505081016020016105908261059a8661057f565b8054868601840152938201938101610a28565b90600182811c92168015610aa1575b6020831014610a7257565b7f4e487b7100000000000000000000000000000000000000000000000000000000600052602260045260246000fd5b91607f1691610a67565b90601f7fffffffffffffffffffffffffffffffffffffffffffffffffffffffffffffffe0910116810190811067ffffffffffffffff821117610aec57604052565b7f4e487b7100000000000000000000000000000000000000000000000000000000600052604160045260246000fd5b60208082528251818301819052939260005b858110610b6d575050507fffffffffffffffffffffffffffffffffffffffffffffffffffffffffffffffe0601f8460006040809697860101520116010190565b818101830151848201604001528201610b2d565b6004359073ffffffffffffffffffffffffffffffffffffffff82168203610ba457565b600080fd5b6024359073ffffffffffffffffffffffffffffffffffffffff82168203610ba457565b91908203918211610bd957565b7f4e487b7100000000000000000000000000000000000000000000000000000000600052601160045260246000fd5b6000467f000000000000000000000000000000000000000000000000000000000000000003610c5657507f000000000000000000000000000000000000000000000000000000000000000090565b60405181548291610c6682610a58565b808252816020948582019460019087600182169182600014610daa575050600114610d51575b50610c9992500382610aab565b51902091604051918201927f8b73c3c69bb8fe3d512ecc4cf759cc79239f7b179b0ffacaa9a75d522b39400f845260408301527fc89efdaa54c0f20c7adf612882df0950f5a951637e0307cdcb4c672f298b8bc660608301524660808301523060a083015260a0825260c082019082821067ffffffffffffffff831117610d24575060405251902090565b807f4e487b7100000000000000000000000000000000000000000000000000000000602492526041600452fd5b87805286915087907f290decd9548b62a8d60345a988386fc84ba6bc95484008f6362f93160ef3e5635b858310610d92575050610c99935082010138610c8c565b80548388018501528694508893909201918101610d7b565b7fffffffffffffffffffffffffffffffffffffffffffffffffffffffffffffff00168852610c9995151560051b8501019250389150610c8c905056fea26469706673582212202f580a9268c0aa1e3a9b37a5510cb2195c74b8dc317fd01ac1009571586432b964736f6c6343000817003360a060409080825234620002a85760009060608162002e6c8038038091620000288285620002d7565b83398101031262000216576200003e81620002fb565b90836200004e60208301620002fb565b910151916001600160401b039081841690818503620002a45733156200028c578554336001600160a01b0319808316821789558951976001600160a01b039773420000000000000000000000000000000000002395949193899283167f8be0079c531659141344cd1fd0a4f28419497f9722a3daafe3b4186f6b6457e08d80a381600754951660805216906006541617600655600160a01b600160e01b039060a01b169063ffffffff60e01b161717600755420180421162000278571660018060401b0319600854161760085573430000000000000000000000000000000000000291823b156200027457634e606c4760e01b8152838160048183875af180156200026a5762000255575b5060208391600754166024865180948193631a33757d60e01b8352600260048401525af180156200024b576200021a575b50803b1562000216578180916024855180948193631d70c8d360e31b83523060048401525af180156200020c57620001f1575b8251612b5b908162000311823960805181818161037f01528181610acf01528181611781015281816118e4015261211f0152f35b620001fd8291620002ad565b620002095780620001bd565b80fd5b83513d84823e3d90fd5b5080fd5b602090813d831162000243575b620002338183620002d7565b810103126200021657386200018a565b503d62000227565b84513d85823e3d90fd5b9262000263602094620002ad565b9262000159565b85513d86823e3d90fd5b8380fd5b634e487b7160e01b85526011600452602485fd5b8651631e4fbdf760e01b815260048101879052602490fd5b8580fd5b600080fd5b6001600160401b038111620002c157604052565b634e487b7160e01b600052604160045260246000fd5b601f909101601f19168101906001600160401b03821190821017620002c157604052565b51906001600160a01b0382168203620002a85756fe60406080815260049081361015610020575b5050361561001e57600080fd5b005b600091823560e01c80630599f50f14611b6a578063081e3eda14611b2d5780630ad58d2f14611a6c5780630fb5a6b414611a225780631526fe27146119a357806317caf6f11461196657806318fccc76146117a557806323be76d91461173657806326991cc8146116e357806328b564a0146115b95780632f940c7014611468578063378dc3dc1461142b5780633fc8cef3146113d857806341ea6a6514611390578063499582c01461135357806351eb05a6146112da57806357a5b58c146112425780636a5e265014611205578063715018a61461116857806379d12ffb146111035780637f37df3b14610eda5780638da5cb5b14610e895780638dbdbe6d14610d1857806393f1a40b14610ca057806397d7577614610c53578063c24a0f8b14610c0c578063d1abb907146109cc578063dd49756e1461095d578063e2e5bdb7146106ad578063f2fde38b146105c8578063f95d39191461058b578063fb6d21d91461051d5763fe4b84df146101985750610011565b34610519576020807ffffffffffffffffffffffffffffffffffffffffffffffffffffffffffffffffc360112610515578135926101d3612ad4565b73ffffffffffffffffffffffffffffffffffffffff80600754169384875280845260ff83882054166104b957600554946127109586810180911161048b576005556002549568010000000000000000968781101561045f5780600161023b9201600255611c3c565b81549060031b908685831b921b191617905567ffffffffffffffff9685519061026382611d50565b8a82528842168883015282878301526001549081101561043357906102918260016102979401600155611cd6565b906124d7565b81895282865284892060017fffffffffffffffffffffffffffffffffffffffffffffffffffffffffffffff00825416179055600254907fffffffffffffffffffffffffffffffffffffffffffffffffffffffffffffffff8201918211610407579288928695927f4710feb78e3bce8d2e3ca2989a8eb2f8bcd32a6a55b4535942c180fc4d2e295289809761037b9a51908152a3600a83905584517f23b872dd0000000000000000000000000000000000000000000000000000000081523391810191825230602083015260408201939093529194859283918b918391606090910190565b03927f0000000000000000000000000000000000000000000000000000000000000000165af19081156103fe5750916103c893916103cd95936103d0575b505060075460a01c1690611e21565b612a63565b80f35b816103ef92903d106103f7575b6103e78183611d6c565b810190611de9565b5038806103b9565b503d6103dd565b513d87823e3d90fd5b60248a6011867f4e487b7100000000000000000000000000000000000000000000000000000000835252fd5b60248b6041877f4e487b7100000000000000000000000000000000000000000000000000000000835252fd5b60248a6041867f4e487b7100000000000000000000000000000000000000000000000000000000835252fd5b6011837f4e487b71000000000000000000000000000000000000000000000000000000006000525260246000fd5b606490848451917f08c379a0000000000000000000000000000000000000000000000000000000008352820152601360248201527f546f6b656e20616c7265616479206164646564000000000000000000000000006044820152fd5b8380fd5b8280fd5b50503461058757817ffffffffffffffffffffffffffffffffffffffffffffffffffffffffffffffffc3601126105875760209061058060095461057a600c5461057467ffffffffffffffff600854871c1642611e01565b90611e0e565b90611dad565b9051908152f35b5080fd5b50503461058757817ffffffffffffffffffffffffffffffffffffffffffffffffffffffffffffffffc36011261058757602090600b549051908152f35b50346105195760207ffffffffffffffffffffffffffffffffffffffffffffffffffffffffffffffffc36011261051957610600611bc4565b90610609612ad4565b73ffffffffffffffffffffffffffffffffffffffff80921692831561067e575050600054827fffffffffffffffffffffffff0000000000000000000000000000000000000000821617600055167f8be0079c531659141344cd1fd0a4f28419497f9722a3daafe3b4186f6b6457e0600080a380f35b908460249251917f1e4fbdf7000000000000000000000000000000000000000000000000000000008352820152fd5b5090807ffffffffffffffffffffffffffffffffffffffffffffffffffffffffffffffffc360112610519578135906106e3611ba1565b906106ec61257c565b91858052602092600384528287203360005284528260002090610739600183019164e8d4a510006107326fffffffffffffffffffffffffffffffff85549351168a611e0e565b0490612446565b9055610746858254611e01565b905573ffffffffffffffffffffffffffffffffffffffff90868260075416803b1561058757818760248a83895195869485937f2e1a7d4d0000000000000000000000000000000000000000000000000000000085528401525af180156109535761093b575b50501693815183810167ffffffffffffffff918082108383111761090d578882818094938194895252888a5af1903d15610907573d9081116108d95783519061081b867fffffffffffffffffffffffffffffffffffffffffffffffffffffffffffffffe0601f8401160183611d6c565b815287853d92013e5b15610858575051918252839133917f8166bf25f8a2b7ed3c85049207da4358d16edbed977d23fa2ee6f0dde3ec213291a480f35b8260849251917f08c379a0000000000000000000000000000000000000000000000000000000008352820152603460248201527f5472616e7366657248656c7065723a3a736166655472616e736665724554483a60448201527f20455448207472616e73666572206661696c65640000000000000000000000006064820152fd5b6041837f4e487b71000000000000000000000000000000000000000000000000000000006000525260246000fd5b50610824565b6041847f4e487b71000000000000000000000000000000000000000000000000000000006000525260246000fd5b61094490611d0d565b61094f5786386107ab565b8680fd5b85513d84823e3d90fd5b50346105195760207ffffffffffffffffffffffffffffffffffffffffffffffffffffffffffffffffc3601126105195735916002548310156109c9575073ffffffffffffffffffffffffffffffffffffffff6109ba602093611c3c565b92905490519260031b1c168152f35b80fd5b509034610519576109dc36611be7565b9091926109e884612814565b928487526020926003845282882033600052845282600020610a5483825488610a4d64e8d4a5100080610a2f6fffffffffffffffffffffffffffffffff8095511686611e0e565b04906107326001890194610a44865485612446565b9e511687611e0e565b9055611e01565b90558473ffffffffffffffffffffffffffffffffffffffff9788868b87519283809281610acb7fa9059cbb00000000000000000000000000000000000000000000000000000000998a83528b8a84016020909392919373ffffffffffffffffffffffffffffffffffffffff60408201951681520152565b03927f0000000000000000000000000000000000000000000000000000000000000000165af18015610c025792879285928795610be5575b508c8c610b0f8d611c3c565b90549060031b1c1692610b508a5197889687958694855284016020909392919373ffffffffffffffffffffffffffffffffffffffff60408201951681520152565b03925af18015610bdb57918798917f71bab65ced2e5750775a0613be067df48ef06cf92a496ebf7663ae0660924954979893610bbe575b50845193845216917f8166bf25f8a2b7ed3c85049207da4358d16edbed977d23fa2ee6f0dde3ec2132853392a4519283523392a380f35b610bd490873d89116103f7576103e78183611d6c565b5038610b87565b84513d8b823e3d90fd5b610bfb90853d87116103f7576103e78183611d6c565b5038610b03565b86513d8d823e3d90fd5b50503461058757817ffffffffffffffffffffffffffffffffffffffffffffffffffffffffffffffffc3601126105875760209067ffffffffffffffff600854169051908152f35b50503461058757817ffffffffffffffffffffffffffffffffffffffffffffffffffffffffffffffffc36011261058757602090517343000000000000000000000000000000000000028152f35b5082346109c957827ffffffffffffffffffffffffffffffffffffffffffffffffffffffffffffffffc3601126109c9578273ffffffffffffffffffffffffffffffffffffffff91610cef611ba1565b933581526003602052209116600052602052806000206001815491015482519182526020820152f35b50903461051957610d2836611be7565b93909192610e23610d3885612814565b9585885284602094859260038452858b209973ffffffffffffffffffffffffffffffffffffffff8092169a8b6000528552610dad600188600020610d7d878254611dad565b8155019164e8d4a51000610da66fffffffffffffffffffffffffffffffff855493511688611e0e565b049061245f565b9055610db889611c3c565b90549060031b1c16908a86518096819582947f23b872dd00000000000000000000000000000000000000000000000000000000845230903390850160409194939294606082019573ffffffffffffffffffffffffffffffffffffffff80921683521660208201520152565b03925af18015610e7f57907f02d7e648dd130fc184d383e55bb126ac4c9c60e8f94bf05acdf557ba2d540b47939291610e62575b50519283523392a480f35b610e7890833d85116103f7576103e78183611d6c565b5038610e57565b82513d89823e3d90fd5b50503461058757817ffffffffffffffffffffffffffffffffffffffffffffffffffffffffffffffffc3601126105875773ffffffffffffffffffffffffffffffffffffffff60209254169051908152f35b503461051957817ffffffffffffffffffffffffffffffffffffffffffffffffffffffffffffffffc3601126105195780356024610f15611ba1565b92610f28610f2284611cd6565b5061247b565b958381526020966003885286822073ffffffffffffffffffffffffffffffffffffffff8097166000528852878760002096610f766fffffffffffffffffffffffffffffffff84511697611c3c565b90549060031b1c168851958680927f70a0823100000000000000000000000000000000000000000000000000000000825230888301525afa9384156110f95782946110c5575b5067ffffffffffffffff8781600854168042116000146110bc575b828b85015116908184821611806110b3575b611011575b8b836105808c600164e8d4a510006110078f8454611e0e565b0491015490612446565b916110328461102861103c969461104598966124bd565b16600c5490611e0e565b9201511690611e0e565b60055490611e21565b9164e8d4a510009283810293818504149015171561108757505061100761107c610580959461057a60019564e8d4a5100095611e21565b939438878180610fee565b9060116024927f4e487b7100000000000000000000000000000000000000000000000000000000835252fd5b50871515610fe9565b50814216610fd7565b9093508781813d83116110f2575b6110dd8183611d6c565b810103126110ed57519238610fbc565b600080fd5b503d6110d3565b87513d84823e3d90fd5b50346105195760207ffffffffffffffffffffffffffffffffffffffffffffffffffffffffffffffffc360112610519578160209360ff9273ffffffffffffffffffffffffffffffffffffffff611157611bc4565b168252855220541690519015158152f35b83346109c957807ffffffffffffffffffffffffffffffffffffffffffffffffffffffffffffffffc3601126109c95761119f612ad4565b600073ffffffffffffffffffffffffffffffffffffffff81547fffffffffffffffffffffffff000000000000000000000000000000000000000081168355167f8be0079c531659141344cd1fd0a4f28419497f9722a3daafe3b4186f6b6457e08280a380f35b50503461058757817ffffffffffffffffffffffffffffffffffffffffffffffffffffffffffffffffc360112610587576020906009549051908152f35b8382346105875760207ffffffffffffffffffffffffffffffffffffffffffffffffffffffffffffffffc36011261058757803567ffffffffffffffff918282116105155736602383011215610515578101359182116105195760249060053660248560051b840101116112d657845b8481106112bc578580f35b806112cf85600193851b86010135612814565b50016112b1565b8480fd5b5091346109c95760207ffffffffffffffffffffffffffffffffffffffffffffffffffffffffffffffffc3601126109c9575061131860609235612814565b908051916fffffffffffffffffffffffffffffffff81511683528160208201519167ffffffffffffffff809316602086015201511690820152f35b50503461058757817ffffffffffffffffffffffffffffffffffffffffffffffffffffffffffffffffc36011261058757602090600c549051908152f35b50503461058757817ffffffffffffffffffffffffffffffffffffffffffffffffffffffffffffffffc360112610587576008548151911c67ffffffffffffffff168152602090f35b50503461058757817ffffffffffffffffffffffffffffffffffffffffffffffffffffffffffffffffc3601126105875760209073ffffffffffffffffffffffffffffffffffffffff600754169051908152f35b50503461058757817ffffffffffffffffffffffffffffffffffffffffffffffffffffffffffffffffc36011261058757602090600a549051908152f35b503461051957817ffffffffffffffffffffffffffffffffffffffffffffffffffffffffffffffffc36011261051957611550916001848335926114a9611ba1565b90848352602080966003825282852033600052825282600020908582549783828a95550155846114d889611c3c565b979073ffffffffffffffffffffffffffffffffffffffff988991549060031b1c169286519c8d95869485937fa9059cbb00000000000000000000000000000000000000000000000000000000855284016020909392919373ffffffffffffffffffffffffffffffffffffffff60408201951681520152565b03925af19687156115af577f2cac5e20e1541d836381527a43f651851e302817b71dc8e810284e69210c1c6b94959697611592575b505193845216933392a480f35b6115a890883d8a116103f7576103e78183611d6c565b5038611585565b81513d8a823e3d90fd5b508290817ffffffffffffffffffffffffffffffffffffffffffffffffffffffffffffffffc3601126105875773ffffffffffffffffffffffffffffffffffffffff60075416803b156105195782908451928380927fd0e30db000000000000000000000000000000000000000000000000000000000825234905af180156116d9576116ca575b509061164961257c565b82805260036020528183203360005260205261169860018360002061166f348254611dad565b8155019164e8d4a51000610da66fffffffffffffffffffffffffffffffff855493511634611e0e565b9055513481528133917f02d7e648dd130fc184d383e55bb126ac4c9c60e8f94bf05acdf557ba2d540b4760203392a480f35b6116d390611d0d565b8261163f565b83513d84823e3d90fd5b50503461058757817ffffffffffffffffffffffffffffffffffffffffffffffffffffffffffffffffc3601126105875760209073ffffffffffffffffffffffffffffffffffffffff600654169051908152f35b50503461058757817ffffffffffffffffffffffffffffffffffffffffffffffffffffffffffffffffc360112610587576020905173ffffffffffffffffffffffffffffffffffffffff7f0000000000000000000000000000000000000000000000000000000000000000168152f35b50903461051957807ffffffffffffffffffffffffffffffffffffffffffffffffffffffffffffffffc360112610519578135906117e0611ba1565b926117ea83612814565b91838652602091600383528187203388528352600164e8d4a51000611828848a20966fffffffffffffffffffffffffffffffff885491511690611e0e565b04940193611837855482612446565b945583611877575b507f71bab65ced2e5750775a0613be067df48ef06cf92a496ebf7663ae06609249549293945061186d611e5a565b519283523392a380f35b81517fa9059cbb00000000000000000000000000000000000000000000000000000000815273ffffffffffffffffffffffffffffffffffffffff9096169086019081526020810184905282908690819060400103818973ffffffffffffffffffffffffffffffffffffffff7f0000000000000000000000000000000000000000000000000000000000000000165af194851561195c577f71bab65ced2e5750775a0613be067df48ef06cf92a496ebf7663ae066092495493949561193f575b8594935061183f565b61195590833d85116103f7576103e78183611d6c565b5038611936565b81513d88823e3d90fd5b50503461058757817ffffffffffffffffffffffffffffffffffffffffffffffffffffffffffffffffc360112610587576020906005549051908152f35b50346105195760207ffffffffffffffffffffffffffffffffffffffffffffffffffffffffffffffffc3601126105195735916001548310156109c957506119eb606092611cd6565b5054908051916fffffffffffffffffffffffffffffffff8116835267ffffffffffffffff8160801c16602084015260c01c90820152f35b50503461058757817ffffffffffffffffffffffffffffffffffffffffffffffffffffffffffffffffc3601126105875760209067ffffffffffffffff60075460a01c169051908152f35b503461051957611aec9183611a8036611be7565b90929193611a8d85612814565b85845284602097889260038452848720338852845284872090611ad3600183019164e8d4a510006107326fffffffffffffffffffffffffffffffff855493511688611e0e565b9055611ae0838254611e01565b9055846114d889611c3c565b03925af19687156115af577f8166bf25f8a2b7ed3c85049207da4358d16edbed977d23fa2ee6f0dde3ec21329495969761159257505193845216933392a480f35b50503461058757817ffffffffffffffffffffffffffffffffffffffffffffffffffffffffffffffffc360112610587576020906001549051908152f35b83346109c957807ffffffffffffffffffffffffffffffffffffffffffffffffffffffffffffffffc3601126109c9576103cd611e5a565b6024359073ffffffffffffffffffffffffffffffffffffffff821682036110ed57565b6004359073ffffffffffffffffffffffffffffffffffffffff821682036110ed57565b7ffffffffffffffffffffffffffffffffffffffffffffffffffffffffffffffffc60609101126110ed57600435906024359060443573ffffffffffffffffffffffffffffffffffffffff811681036110ed5790565b600254811015611c735760026000527f405787fa12a823e0f2b7631cc41b3ba8828b3321ca811111fa75cd3aa3bb5ace0190600090565b7f4e487b7100000000000000000000000000000000000000000000000000000000600052603260045260246000fd5b60015415611c735760016000527fb10e2d527612073b26eecdfd717e6a320cf44b4afac2b0732d9fcbe2b7fa0cf690600090565b600154811015611c735760016000527fb10e2d527612073b26eecdfd717e6a320cf44b4afac2b0732d9fcbe2b7fa0cf60190600090565b67ffffffffffffffff8111611d2157604052565b7f4e487b7100000000000000000000000000000000000000000000000000000000600052604160045260246000fd5b6060810190811067ffffffffffffffff821117611d2157604052565b90601f7fffffffffffffffffffffffffffffffffffffffffffffffffffffffffffffffe0910116810190811067ffffffffffffffff821117611d2157604052565b91908201809211611dba57565b7f4e487b7100000000000000000000000000000000000000000000000000000000600052601160045260246000fd5b908160209103126110ed575180151581036110ed5790565b91908203918211611dba57565b81810292918115918404141715611dba57565b8115611e2b570490565b7f4e487b7100000000000000000000000000000000000000000000000000000000600052601260045260246000fd5b60075460009073ffffffffffffffffffffffffffffffffffffffff80911660409283517fe12f3a6100000000000000000000000000000000000000000000000000000000815260049030828201526020938482602481845afa9182156122ef578492612417575b5066038d7ea4c68000821061240e5784875180927faad3ec96000000000000000000000000000000000000000000000000000000008252818781611f2b88308b84016020909392919373ffffffffffffffffffffffffffffffffffffffff60408201951681520152565b03925af180156122ef579085916123e5575b505085517f954fa5ee00000000000000000000000000000000000000000000000000000000815230838201523060248201528481604481877343000000000000000000000000000000000000025af180156122ef579085916123bc575b505084600754164790803b156112d6578490848951809481937fd0e30db00000000000000000000000000000000000000000000000000000000083525af180156122ef576123a7575b50611fef904790611dad565b9380600654168651907f49faebde0000000000000000000000000000000000000000000000000000000082526dffffffffffffffffffffffffffff87168483015260c860248301528582604481845afa91821561235a578592612378575b50803b156112d657848091858a51809481937ffff6cae90000000000000000000000000000000000000000000000000000000083525af1801561235a57908591612364575b50856120fa84600754168560065416998b519485809481937fa9059cbb000000000000000000000000000000000000000000000000000000009e8f84528c84016020909392919373ffffffffffffffffffffffffffffffffffffffff60408201951681520152565b03925af1801561235a5761233d575b50806123385750670de0b6b3a76400005b8095827f0000000000000000000000000000000000000000000000000000000000000000169188517f70a0823100000000000000000000000000000000000000000000000000000000815230868201528781602481875afa90811561232e578791612301575b508091116122f9575b506006548851918252831673ffffffffffffffffffffffffffffffffffffffff16848201908152602081018890529091869183919082908890829060400103925af180156122ef5785928594926024926122d2575b506006541691885195869384927f6a62784200000000000000000000000000000000000000000000000000000000845230908401525af19081156122c7575061229e575b505061229c916122376103c892600b54611dad565b600b5561226060095461057a600c5461057467ffffffffffffffff8096600854901c1642611e01565b60095561226b61257c565b5061229661228a612281600a54600b5490611e01565b60095490611e01565b91429060085416611e01565b90611e21565b565b813d83116122c0575b6122b18183611d6c565b810103126110ed573880612222565b503d6122a7565b8551903d90823e3d90fd5b6122e890853d87116103f7576103e78183611d6c565b50386121de565b87513d86823e3d90fd5b965085612189565b90508781813d8311612327575b6123188183611d6c565b810103126110ed575138612180565b503d61230e565b8a513d89823e3d90fd5b61211a565b61235390863d88116103f7576103e78183611d6c565b5038612109565b88513d87823e3d90fd5b61236d90611d0d565b610515578338612092565b9091508581813d83116123a0575b6123908183611d6c565b810103126110ed5751903861204d565b503d612386565b926123b5611fef9294611d0d565b9290611fe3565b813d83116123de575b6123cf8183611d6c565b81010312610519578338611f9a565b503d6123c5565b813d8311612407575b6123f88183611d6c565b81010312610519578338611f3d565b503d6123ee565b50505050505050565b9091508481813d831161243f575b61242f8183611d6c565b8101031261051557519038611ec1565b503d612425565b81810392916000138015828513169184121617611dba57565b91909160008382019384129112908015821691151617611dba57565b9060405161248881611d50565b60408193546fffffffffffffffffffffffffffffffff8116835267ffffffffffffffff8160801c16602084015260c01c910152565b67ffffffffffffffff9182169082160391908211611dba57565b919061254d578051602082015160409092015160809290921b77ffffffffffffffff00000000000000000000000000000000166fffffffffffffffffffffffffffffffff919091161760c09190911b7fffffffffffffffff00000000000000000000000000000000000000000000000016179055565b7f4e487b7100000000000000000000000000000000000000000000000000000000600052600060045260246000fd5b60409081519061258b82611d50565b60008083528084602094828682015201526125a7610f22611ca2565b9267ffffffffffffffff94856008541680421160001461280a57955b828601818151168289169081116125e0575b505050505050909150565b600254156127dd57859697986002602497528573ffffffffffffffffffffffffffffffffffffffff7f405787fa12a823e0f2b7631cc41b3ba8828b3321ca811111fa75cd3aa3bb5ace54168651988980927f70a082310000000000000000000000000000000000000000000000000000000082523060048301525afa9687156127d35788976127a0575b50866126da575b509181606095937f0fc9545022a542541ad085d091fb09a2ab36fee366a4576ab63714ea907ad353979593526126a98a610291611ca2565b5116926fffffffffffffffffffffffffffffffff895116928251948552840152820152a281903880808080806125d5565b61103c6126f2856110286126fe9482885116906124bd565b85878d01511690611e0e565b6fffffffffffffffffffffffffffffffff90818b51169064e8d4a5100090818102918183041490151715612773579161276460609896949261057a8b7f0fc9545022a542541ad085d091fb09a2ab36fee366a4576ab63714ea907ad3539c9a9896611e21565b168b5291939550919395612671565b60248a7f4e487b710000000000000000000000000000000000000000000000000000000081526011600452fd5b9096508581813d83116127cc575b6127b88183611d6c565b810103126127c85751953861266a565b8780fd5b503d6127ae565b85513d8a823e3d90fd5b6024867f4e487b710000000000000000000000000000000000000000000000000000000081526032600452fd5b50854216956125c3565b90604091825161282381611d50565b600090818152818560209282848201520152612841610f2284611cd6565b9467ffffffffffffffff8060085416804211600014612a5957935b83880190828251169083871691821161287a575b5050505050505050565b73ffffffffffffffffffffffffffffffffffffffff9686602461289c8b611c3c565b9190549189519b8c9384927f70a0823100000000000000000000000000000000000000000000000000000000845230600485015260031b1c165afa978815612a4f57908b918399612a1c575b508861295b575b5050509181606095937f0fc9545022a542541ad085d091fb09a2ab36fee366a4576ab63714ea907ad3539795935261292a8a6102918a611cd6565b5116926fffffffffffffffffffffffffffffffff895116928251948552840152820152a23880808080808080612870565b6129769186886110328261102861103c96828c5116906124bd565b906fffffffffffffffffffffffffffffffff91828c51169164e8d4a51000918281029281840414901517156129ef5750916129de60609896949261057a8b7f0fc9545022a542541ad085d091fb09a2ab36fee366a4576ab63714ea907ad3539c9a9896611e21565b168b529193955091939589386128ef565b807f4e487b7100000000000000000000000000000000000000000000000000000000602492526011600452fd5b8880929a508193503d8311612a48575b612a368183611d6c565b81010312610587578a905197386128e8565b503d612a2c565b86513d84823e3d90fd5b508042169361285c565b60207fce627de7a3c0ab1e1b091d6a60d128ea2327f929866814370c4be8e19d5def359180600c556008547fffffffffffffffffffffffffffffffff0000000000000000ffffffffffffffff6fffffffffffffffff00000000000000004260401b16911617600855604051908152a1565b73ffffffffffffffffffffffffffffffffffffffff600054163303612af557565b60246040517f118cdaa7000000000000000000000000000000000000000000000000000000008152336004820152fdfea2646970667358221220e9d7a8ada1cbf1771371dbaf2b3ae8d321f64cee5b14d017530e45215dd77e5e64736f6c63430008170033a26469706673582212207e5b074a7c459eacf851b1f77b8b38be247dd474b626bd1f244cbc7f9d09f56e64736f6c63430008170033",
  "linkReferences": {},
  "deployedLinkReferences": {}
}