{
  "_format": "hh-sol-artifact-1",
  "contractName": "BlastERC20",
  "sourceName": "src/BlastERC20.sol",
  "abi": [
    {
      "inputs": [
        {
          "internalType": "string",
          "name": "_name",
          "type": "string"
        },
        {
          "internalType": "string",
          "name": "_symbol",
          "type": "string"
        },
        {
          "internalType": "uint256",
          "name": "totalSupply",
          "type": "uint256"
        },
        {
          "internalType": "address",
          "name": "claimer",
          "type": "address"
        }
      ],
      "stateMutability": "nonpayable",
      "type": "constructor"
    },
    {
      "anonymous": false,
      "inputs": [
        {
          "indexed": true,
          "internalType": "address",
          "name": "owner",
          "type": "address"
        },
        {
          "indexed": true,
          "internalType": "address",
          "name": "spender",
          "type": "address"
        },
        {
          "indexed": false,
          "internalType": "uint256",
          "name": "amount",
          "type": "uint256"
        }
      ],
      "name": "Approval",
      "type": "event"
    },
    {
      "anonymous": false,
      "inputs": [
        {
          "indexed": true,
          "internalType": "address",
          "name": "from",
          "type": "address"
        },
        {
          "indexed": true,
          "internalType": "address",
          "name": "to",
          "type": "address"
        },
        {
          "indexed": false,
          "internalType": "uint256",
          "name": "amount",
          "type": "uint256"
        }
      ],
      "name": "Transfer",
      "type": "event"
    },
    {
      "inputs": [],
      "name": "BLAST",
      "outputs": [
        {
          "internalType": "contract IBlast",
          "name": "",
          "type": "address"
        }
      ],
      "stateMutability": "view",
      "type": "function"
    },
    {
      "inputs": [],
      "name": "DOMAIN_SEPARATOR",
      "outputs": [
        {
          "internalType": "bytes32",
          "name": "",
          "type": "bytes32"
        }
      ],
      "stateMutability": "view",
      "type": "function"
    },
    {
      "inputs": [
        {
          "internalType": "address",
          "name": "",
          "type": "address"
        },
        {
          "internalType": "address",
          "name": "",
          "type": "address"
        }
      ],
      "name": "allowance",
      "outputs": [
        {
          "internalType": "uint256",
          "name": "",
          "type": "uint256"
        }
      ],
      "stateMutability": "view",
      "type": "function"
    },
    {
      "inputs": [
        {
          "internalType": "address",
          "name": "spender",
          "type": "address"
        },
        {
          "internalType": "uint256",
          "name": "amount",
          "type": "uint256"
        }
      ],
      "name": "approve",
      "outputs": [
        {
          "internalType": "bool",
          "name": "",
          "type": "bool"
        }
      ],
      "stateMutability": "nonpayable",
      "type": "function"
    },
    {
      "inputs": [
        {
          "internalType": "address",
          "name": "",
          "type": "address"
        }
      ],
      "name": "balanceOf",
      "outputs": [
        {
          "internalType": "uint256",
          "name": "",
          "type": "uint256"
        }
      ],
      "stateMutability": "view",
      "type": "function"
    },
    {
      "inputs": [],
      "name": "decimals",
      "outputs": [
        {
          "internalType": "uint8",
          "name": "",
          "type": "uint8"
        }
      ],
      "stateMutability": "view",
      "type": "function"
    },
    {
      "inputs": [],
      "name": "name",
      "outputs": [
        {
          "internalType": "string",
          "name": "",
          "type": "string"
        }
      ],
      "stateMutability": "view",
      "type": "function"
    },
    {
      "inputs": [
        {
          "internalType": "address",
          "name": "",
          "type": "address"
        }
      ],
      "name": "nonces",
      "outputs": [
        {
          "internalType": "uint256",
          "name": "",
          "type": "uint256"
        }
      ],
      "stateMutability": "view",
      "type": "function"
    },
    {
      "inputs": [
        {
          "internalType": "address",
          "name": "owner",
          "type": "address"
        },
        {
          "internalType": "address",
          "name": "spender",
          "type": "address"
        },
        {
          "internalType": "uint256",
          "name": "value",
          "type": "uint256"
        },
        {
          "internalType": "uint256",
          "name": "deadline",
          "type": "uint256"
        },
        {
          "internalType": "uint8",
          "name": "v",
          "type": "uint8"
        },
        {
          "internalType": "bytes32",
          "name": "r",
          "type": "bytes32"
        },
        {
          "internalType": "bytes32",
          "name": "s",
          "type": "bytes32"
        }
      ],
      "name": "permit",
      "outputs": [],
      "stateMutability": "nonpayable",
      "type": "function"
    },
    {
      "inputs": [],
      "name": "symbol",
      "outputs": [
        {
          "internalType": "string",
          "name": "",
          "type": "string"
        }
      ],
      "stateMutability": "view",
      "type": "function"
    },
    {
      "inputs": [],
      "name": "totalSupply",
      "outputs": [
        {
          "internalType": "uint256",
          "name": "",
          "type": "uint256"
        }
      ],
      "stateMutability": "view",
      "type": "function"
    },
    {
      "inputs": [
        {
          "internalType": "address",
          "name": "to",
          "type": "address"
        },
        {
          "internalType": "uint256",
          "name": "amount",
          "type": "uint256"
        }
      ],
      "name": "transfer",
      "outputs": [
        {
          "internalType": "bool",
          "name": "",
          "type": "bool"
        }
      ],
      "stateMutability": "nonpayable",
      "type": "function"
    },
    {
      "inputs": [
        {
          "internalType": "address",
          "name": "from",
          "type": "address"
        },
        {
          "internalType": "address",
          "name": "to",
          "type": "address"
        },
        {
          "internalType": "uint256",
          "name": "amount",
          "type": "uint256"
        }
      ],
      "name": "transferFrom",
      "outputs": [
        {
          "internalType": "bool",
          "name": "",
          "type": "bool"
        }
      ],
      "stateMutability": "nonpayable",
      "type": "function"
    }
  ],
  "bytecode": "0x60e0604090808252346200055b5760006200147e80380380916200002482866200058a565b843982016080838203126200030f5782516001600160401b03908181116200031d578262000054918601620005ae565b6020928386015183811162000557579062000071918701620005ae565b868601516060909601516001600160a01b0381169290839003620005575780518481116200047e5780620000a6885462000624565b92601f9384811162000506575b5087908483116001146200049e57899262000492575b50508160011b916000199060031b1c19161786555b8151908482116200047e578190600193620000fa855462000624565b82811162000429575b5087918311600114620003c5578892620003b9575b5050600019600383901b1c191690821b1781555b60126080524660a05286518554918187620001478562000624565b92838352888301958982821691826000146200039957505060011462000359575b5062000177925003826200058a565b5190208651848101917f8b73c3c69bb8fe3d512ecc4cf759cc79239f7b179b0ffacaa9a75d522b39400f8352888201527fc89efdaa54c0f20c7adf612882df0950f5a951637e0307cdcb4c672f298b8bc660608201524660808201523060a082015260a0815260c081019381851090851117620003455783885251902060c05273430000000000000000000000000000000000000291823b156200034157634e606c4760e01b8152848160048183875af18015620003375762000321575b50813b156200031d5783916024839288519485938492631d70c8d360e31b845260048401525af180156200031357908391620002f7575b5050600254838101809111620002e357907fddf252ad1be2c89b69c2b068fc378daa952ba7f163c4a11628f55a4df523b3ef916002553383526003815284832084815401905584519384523393a351610e1c908162000662823960805181610782015260a05181610c0d015260c05181610c340152f35b634e487b7160e01b83526011600452602483fd5b620003029062000560565b6200030f5781386200026c565b5080fd5b85513d85823e3d90fd5b8380fd5b6200032f9094919462000560565b923862000235565b87513d87823e3d90fd5b8480fd5b634e487b7160e01b86526041600452602486fd5b889150898052818a20908a915b858310620003805750506200017793508201013862000168565b80548388018501528694508a9390920191810162000366565b60ff191688526200017795151560051b8501019250389150620001689050565b01519050388062000118565b8489528789208594509190601f1984168a5b8a828210620004125750508411620003f8575b505050811b0181556200012c565b015160001960f88460031b161c19169055388080620003ea565b8385015186558897909501949384019301620003d7565b909192508489528789208380860160051c8201928a871062000474575b91869588929594930160051c01915b8281106200046557505062000103565b8b815586955087910162000455565b9250819262000446565b634e487b7160e01b87526041600452602487fd5b015190503880620000c9565b898052888a209250601f1984168a5b8a828210620004ef575050908460019594939210620004d5575b505050811b018655620000de565b015160001960f88460031b161c19169055388080620004c7565b6001859682939686015181550195019301620004ad565b9091508880528789208480850160051c8201928a86106200054d575b9085949392910160051c01905b8181106200053e5750620000b3565b8a81558493506001016200052f565b9250819262000522565b8580fd5b600080fd5b6001600160401b0381116200057457604052565b634e487b7160e01b600052604160045260246000fd5b601f909101601f19168101906001600160401b038211908210176200057457604052565b919080601f840112156200055b5782516001600160401b038111620005745760209060405192620005e983601f19601f85011601856200058a565b8184528282870101116200055b5760005b8181106200061057508260009394955001015290565b8581018301518482018401528201620005fa565b90600182811c9216801562000656575b60208310146200064057565b634e487b7160e01b600052602260045260246000fd5b91607f16916200063456fe6080604081815260048036101561001557600080fd5b600092833560e01c90816306fdde031461099757508063095ea7b3146108fd57806318160ddd146108c057806323b872dd146107a6578063313ce5671461074a5780633644e5151461070857806370a08231146106a65780637ecebe001461064457806395d89b411461052257806397d75776146104d5578063a9059cbb14610428578063d505accf146101285763dd62ed3e146100b257600080fd5b3461012457817ffffffffffffffffffffffffffffffffffffffffffffffffffffffffffffffffc3601126101245760209282916100ed610b81565b6100f5610ba9565b9173ffffffffffffffffffffffffffffffffffffffff8092168452865283832091168252845220549051908152f35b8280fd5b509190346104245760e07ffffffffffffffffffffffffffffffffffffffffffffffffffffffffffffffffc36011261042457610162610b81565b9061016b610ba9565b91604435606435926084359260ff8416809403610420574285106103c357610191610c08565b9573ffffffffffffffffffffffffffffffffffffffff8092169586895260209560058752848a209889549960018b01905585519285898501957f6e71edae12b1b97f4d1f60370fef10105fa2faae0126114a169c64845d6126c987528b89870152169a8b606086015288608086015260a085015260c084015260c0835260e0830167ffffffffffffffff948482108683111761039657818852845190206101008501927f19010000000000000000000000000000000000000000000000000000000000008452610102860152610122850152604281526101608401948186109086111761036a57848752519020835261018082015260a4356101a082015260c4356101c0909101528780528490889060809060015afa15610360578651169687151580610357575b156102fc5786977f8c5be1e5ebec7d5bd14f71427d1e84f3dd0314c0f7b2291e5b200ac8c7c3b9259596975283528087208688528352818188205551908152a380f35b8360649251917f08c379a0000000000000000000000000000000000000000000000000000000008352820152600e60248201527f494e56414c49445f5349474e45520000000000000000000000000000000000006044820152fd5b508488146102b9565b81513d88823e3d90fd5b60248c60418f7f4e487b7100000000000000000000000000000000000000000000000000000000835252fd5b5060248c60418f7f4e487b7100000000000000000000000000000000000000000000000000000000835252fd5b60648860208451917f08c379a0000000000000000000000000000000000000000000000000000000008352820152601760248201527f5045524d49545f444541444c494e455f455850495245440000000000000000006044820152fd5b8680fd5b5080fd5b50503461042457807ffffffffffffffffffffffffffffffffffffffffffffffffffffffffffffffffc36011261042457602091610463610b81565b8273ffffffffffffffffffffffffffffffffffffffff6024359233855260038752828520610492858254610bcc565b90551692838152600386522081815401905582519081527fddf252ad1be2c89b69c2b068fc378daa952ba7f163c4a11628f55a4df523b3ef843392a35160018152f35b50503461042457817ffffffffffffffffffffffffffffffffffffffffffffffffffffffffffffffffc36011261042457602090517343000000000000000000000000000000000000028152f35b82843461064157807ffffffffffffffffffffffffffffffffffffffffffffffffffffffffffffffffc3601126106415781519080600180549061056482610a58565b80865292602092600181169081156105f6575060011461059e575b61059a868861059082890383610aab565b5191829182610b1b565b0390f35b9350600184527fb10e2d527612073b26eecdfd717e6a320cf44b4afac2b0732d9fcbe2b7fa0cf65b8385106105e3575050505081016020016105908261059a8661057f565b80548686018401529382019381016105c6565b61059a989650879450602093506105909592507fffffffffffffffffffffffffffffffffffffffffffffffffffffffffffffff0091501682840152151560051b82010192948661057f565b80fd5b5050346104245760207ffffffffffffffffffffffffffffffffffffffffffffffffffffffffffffffffc360112610424578060209273ffffffffffffffffffffffffffffffffffffffff610696610b81565b1681526005845220549051908152f35b5050346104245760207ffffffffffffffffffffffffffffffffffffffffffffffffffffffffffffffffc360112610424578060209273ffffffffffffffffffffffffffffffffffffffff6106f8610b81565b1681526003845220549051908152f35b50503461042457817ffffffffffffffffffffffffffffffffffffffffffffffffffffffffffffffffc36011261042457602090610743610c08565b9051908152f35b50503461042457817ffffffffffffffffffffffffffffffffffffffffffffffffffffffffffffffffc360112610424576020905160ff7f0000000000000000000000000000000000000000000000000000000000000000168152f35b5091346106415760607ffffffffffffffffffffffffffffffffffffffffffffffffffffffffffffffffc360112610641576107df610b81565b7fddf252ad1be2c89b69c2b068fc378daa952ba7f163c4a11628f55a4df523b3ef610808610ba9565b946044358573ffffffffffffffffffffffffffffffffffffffff80951694858752602098848a958652838920338a52865283892054857fffffffffffffffffffffffffffffffffffffffffffffffffffffffffffffffff820361089d575b5050508688526003855282882061087e858254610bcc565b9055169586815260038452208181540190558551908152a35160018152f35b6108a691610bcc565b90888a528652838920338a52865283892055388085610866565b50503461042457817ffffffffffffffffffffffffffffffffffffffffffffffffffffffffffffffffc360112610424576020906002549051908152f35b503461012457817ffffffffffffffffffffffffffffffffffffffffffffffffffffffffffffffffc36011261012457602092610937610b81565b9183602435928392338252875273ffffffffffffffffffffffffffffffffffffffff8282209516948582528752205582519081527f8c5be1e5ebec7d5bd14f71427d1e84f3dd0314c0f7b2291e5b200ac8c7c3b925843392a35160018152f35b8390853461064157807ffffffffffffffffffffffffffffffffffffffffffffffffffffffffffffffffc360112610641578054816109d482610a58565b808552916020916001918281169081156105f65750600114610a015761059a868861059082890383610aab565b80809550527f290decd9548b62a8d60345a988386fc84ba6bc95484008f6362f93160ef3e5635b838510610a45575050505081016020016105908261059a8661057f565b8054868601840152938201938101610a28565b90600182811c92168015610aa1575b6020831014610a7257565b7f4e487b7100000000000000000000000000000000000000000000000000000000600052602260045260246000fd5b91607f1691610a67565b90601f7fffffffffffffffffffffffffffffffffffffffffffffffffffffffffffffffe0910116810190811067ffffffffffffffff821117610aec57604052565b7f4e487b7100000000000000000000000000000000000000000000000000000000600052604160045260246000fd5b60208082528251818301819052939260005b858110610b6d575050507fffffffffffffffffffffffffffffffffffffffffffffffffffffffffffffffe0601f8460006040809697860101520116010190565b818101830151848201604001528201610b2d565b6004359073ffffffffffffffffffffffffffffffffffffffff82168203610ba457565b600080fd5b6024359073ffffffffffffffffffffffffffffffffffffffff82168203610ba457565b91908203918211610bd957565b7f4e487b7100000000000000000000000000000000000000000000000000000000600052601160045260246000fd5b6000467f000000000000000000000000000000000000000000000000000000000000000003610c5657507f000000000000000000000000000000000000000000000000000000000000000090565b60405181548291610c6682610a58565b808252816020948582019460019087600182169182600014610daa575050600114610d51575b50610c9992500382610aab565b51902091604051918201927f8b73c3c69bb8fe3d512ecc4cf759cc79239f7b179b0ffacaa9a75d522b39400f845260408301527fc89efdaa54c0f20c7adf612882df0950f5a951637e0307cdcb4c672f298b8bc660608301524660808301523060a083015260a0825260c082019082821067ffffffffffffffff831117610d24575060405251902090565b807f4e487b7100000000000000000000000000000000000000000000000000000000602492526041600452fd5b87805286915087907f290decd9548b62a8d60345a988386fc84ba6bc95484008f6362f93160ef3e5635b858310610d92575050610c99935082010138610c8c565b80548388018501528694508893909201918101610d7b565b7fffffffffffffffffffffffffffffffffffffffffffffffffffffffffffffff00168852610c9995151560051b8501019250389150610c8c905056fea26469706673582212202f580a9268c0aa1e3a9b37a5510cb2195c74b8dc317fd01ac1009571586432b964736f6c63430008170033",
  "linkReferences": {},
  "deployedLinkReferences": {}
}