{
  "_format": "hh-sol-artifact-1",
  "contractName": "MineblastLibrary",
  "sourceName": "src/swap/libraries/MineblastLibrary.sol",
  "abi": [
    {
      "inputs": [
        {
          "internalType": "address",
          "name": "factory",
          "type": "address"
        },
        {
          "internalType": "address",
          "name": "tokenA",
          "type": "address"
        },
        {
          "internalType": "address",
          "name": "tokenB",
          "type": "address"
        }
      ],
      "name": "getReserves",
      "outputs": [
        {
          "internalType": "uint256",
          "name": "reserveA",
          "type": "uint256"
        },
        {
          "internalType": "uint256",
          "name": "reserveB",
          "type": "uint256"
        }
      ],
      "stateMutability": "view",
      "type": "function"
    }
  ],
  "bytecode": "0x6080806040523461001a576104079081610020823930815050f35b600080fdfe604060808152600436101561001357600080fd5b6000803560e01c63327494611461002957600080fd5b60607ffffffffffffffffffffffffffffffffffffffffffffffffffffffffffffffffc3601126102205760043573ffffffffffffffffffffffffffffffffffffffff9081811680910361021c57602435828116918282036102185760443584811681036101c55782916100ab826100a48897969488956102b3565b50946102b3565b89939193519788947fe6a4390500000000000000000000000000000000000000000000000000000000865216600485015216602483015281604460209788935afa9081156101d1579084929187916101db575b5060609060048951809781937f0902f1ac000000000000000000000000000000000000000000000000000000008352165afa9384156101d15786908795610173575b506dffffffffffffffffffffffffffff80911694169550161460001461016d5791905b8351928352820152f35b90610163565b9450506060843d6060116101c9575b8161018f60609383610223565b810103126101c5576101a084610293565b876101ac878701610293565b95015163ffffffff8116036101c15738610140565b8680fd5b8580fd5b3d9150610182565b87513d88823e3d90fd5b80929350868092503d8311610211575b6101f58183610223565b810103126101c5575183811681036101c55783919060606100fe565b503d6101eb565b8480fd5b8280fd5b80fd5b90601f7fffffffffffffffffffffffffffffffffffffffffffffffffffffffffffffffe0910116810190811067ffffffffffffffff82111761026457604052565b7f4e487b7100000000000000000000000000000000000000000000000000000000600052604160045260246000fd5b51906dffffffffffffffffffffffffffff821682036102ae57565b600080fd5b909173ffffffffffffffffffffffffffffffffffffffff9182841683821681811461034d57101561034857925b918316156102ea57565b60646040517f08c379a000000000000000000000000000000000000000000000000000000000815260206004820152601e60248201527f4d696e65626c6173744c6962726172793a205a45524f5f4144445245535300006044820152fd5b6102e0565b60846040517f08c379a000000000000000000000000000000000000000000000000000000000815260206004820152602560248201527f4d696e65626c6173744c6962726172793a204944454e544943414c5f4144445260448201527f45535345530000000000000000000000000000000000000000000000000000006064820152fdfea264697066735822122051e06e5b91df664ec1368914d31465730dd200842dbcb8be733e50de64995b2464736f6c63430008170033",
  "linkReferences": {},
  "deployedLinkReferences": {}
}