{
  "_format": "hh-sol-artifact-1",
  "contractName": "MineblastVault",
  "sourceName": "src/MineblastVault.sol",
  "abi": [
    {
      "inputs": [
        {
          "internalType": "address",
          "name": "_outputToken",
          "type": "address"
        },
        {
          "internalType": "address",
          "name": "_swapPair",
          "type": "address"
        },
        {
          "internalType": "uint64",
          "name": "_duration",
          "type": "uint64"
        }
      ],
      "stateMutability": "nonpayable",
      "type": "constructor"
    },
    {
      "inputs": [
        {
          "internalType": "address",
          "name": "owner",
          "type": "address"
        }
      ],
      "name": "OwnableInvalidOwner",
      "type": "error"
    },
    {
      "inputs": [
        {
          "internalType": "address",
          "name": "account",
          "type": "address"
        }
      ],
      "name": "OwnableUnauthorizedAccount",
      "type": "error"
    },
    {
      "anonymous": false,
      "inputs": [
        {
          "indexed": true,
          "internalType": "address",
          "name": "user",
          "type": "address"
        },
        {
          "indexed": true,
          "internalType": "uint256",
          "name": "pid",
          "type": "uint256"
        },
        {
          "indexed": false,
          "internalType": "uint256",
          "name": "amount",
          "type": "uint256"
        },
        {
          "indexed": true,
          "internalType": "address",
          "name": "to",
          "type": "address"
        }
      ],
      "name": "Deposit",
      "type": "event"
    },
    {
      "anonymous": false,
      "inputs": [
        {
          "indexed": true,
          "internalType": "address",
          "name": "user",
          "type": "address"
        },
        {
          "indexed": true,
          "internalType": "uint256",
          "name": "pid",
          "type": "uint256"
        },
        {
          "indexed": false,
          "internalType": "uint256",
          "name": "amount",
          "type": "uint256"
        },
        {
          "indexed": true,
          "internalType": "address",
          "name": "to",
          "type": "address"
        }
      ],
      "name": "EmergencyWithdraw",
      "type": "event"
    },
    {
      "anonymous": false,
      "inputs": [
        {
          "indexed": true,
          "internalType": "address",
          "name": "user",
          "type": "address"
        },
        {
          "indexed": true,
          "internalType": "uint256",
          "name": "pid",
          "type": "uint256"
        },
        {
          "indexed": false,
          "internalType": "uint256",
          "name": "amount",
          "type": "uint256"
        }
      ],
      "name": "Harvest",
      "type": "event"
    },
    {
      "anonymous": false,
      "inputs": [
        {
          "indexed": false,
          "internalType": "uint256",
          "name": "outputPerSecond",
          "type": "uint256"
        }
      ],
      "name": "LogOutputPerSecond",
      "type": "event"
    },
    {
      "anonymous": false,
      "inputs": [
        {
          "indexed": true,
          "internalType": "uint256",
          "name": "pid",
          "type": "uint256"
        },
        {
          "indexed": false,
          "internalType": "uint256",
          "name": "allocPoint",
          "type": "uint256"
        },
        {
          "indexed": true,
          "internalType": "contract IERC20",
          "name": "lpToken",
          "type": "address"
        }
      ],
      "name": "LogPoolAddition",
      "type": "event"
    },
    {
      "anonymous": false,
      "inputs": [
        {
          "indexed": true,
          "internalType": "uint256",
          "name": "pid",
          "type": "uint256"
        },
        {
          "indexed": false,
          "internalType": "uint256",
          "name": "allocPoint",
          "type": "uint256"
        }
      ],
      "name": "LogSetPool",
      "type": "event"
    },
    {
      "anonymous": false,
      "inputs": [
        {
          "indexed": true,
          "internalType": "uint256",
          "name": "pid",
          "type": "uint256"
        },
        {
          "indexed": false,
          "internalType": "uint64",
          "name": "lastRewardTime",
          "type": "uint64"
        },
        {
          "indexed": false,
          "internalType": "uint256",
          "name": "lpSupply",
          "type": "uint256"
        },
        {
          "indexed": false,
          "internalType": "uint256",
          "name": "accPerShare",
          "type": "uint256"
        }
      ],
      "name": "LogUpdatePool",
      "type": "event"
    },
    {
      "anonymous": false,
      "inputs": [
        {
          "indexed": true,
          "internalType": "address",
          "name": "previousOwner",
          "type": "address"
        },
        {
          "indexed": true,
          "internalType": "address",
          "name": "newOwner",
          "type": "address"
        }
      ],
      "name": "OwnershipTransferred",
      "type": "event"
    },
    {
      "anonymous": false,
      "inputs": [
        {
          "indexed": true,
          "internalType": "address",
          "name": "user",
          "type": "address"
        },
        {
          "indexed": true,
          "internalType": "uint256",
          "name": "pid",
          "type": "uint256"
        },
        {
          "indexed": false,
          "internalType": "uint256",
          "name": "amount",
          "type": "uint256"
        },
        {
          "indexed": true,
          "internalType": "address",
          "name": "to",
          "type": "address"
        }
      ],
      "name": "Withdraw",
      "type": "event"
    },
    {
      "inputs": [],
      "name": "BLAST",
      "outputs": [
        {
          "internalType": "contract IBlast",
          "name": "",
          "type": "address"
        }
      ],
      "stateMutability": "view",
      "type": "function"
    },
    {
      "inputs": [],
      "name": "OUTPUT_TOKEN",
      "outputs": [
        {
          "internalType": "contract IERC20",
          "name": "",
          "type": "address"
        }
      ],
      "stateMutability": "view",
      "type": "function"
    },
    {
      "inputs": [
        {
          "internalType": "address",
          "name": "",
          "type": "address"
        }
      ],
      "name": "addedTokens",
      "outputs": [
        {
          "internalType": "bool",
          "name": "",
          "type": "bool"
        }
      ],
      "stateMutability": "view",
      "type": "function"
    },
    {
      "inputs": [
        {
          "internalType": "uint256",
          "name": "pid",
          "type": "uint256"
        },
        {
          "internalType": "uint256",
          "name": "amount",
          "type": "uint256"
        },
        {
          "internalType": "address",
          "name": "to",
          "type": "address"
        }
      ],
      "name": "deposit",
      "outputs": [],
      "stateMutability": "nonpayable",
      "type": "function"
    },
    {
      "inputs": [
        {
          "internalType": "uint256",
          "name": "",
          "type": "uint256"
        }
      ],
      "name": "depositTokens",
      "outputs": [
        {
          "internalType": "contract IERC20",
          "name": "",
          "type": "address"
        }
      ],
      "stateMutability": "view",
      "type": "function"
    },
    {
      "inputs": [],
      "name": "duration",
      "outputs": [
        {
          "internalType": "uint64",
          "name": "",
          "type": "uint64"
        }
      ],
      "stateMutability": "view",
      "type": "function"
    },
    {
      "inputs": [
        {
          "internalType": "uint256",
          "name": "pid",
          "type": "uint256"
        },
        {
          "internalType": "address",
          "name": "to",
          "type": "address"
        }
      ],
      "name": "emergencyWithdraw",
      "outputs": [],
      "stateMutability": "nonpayable",
      "type": "function"
    },
    {
      "inputs": [],
      "name": "endDate",
      "outputs": [
        {
          "internalType": "uint64",
          "name": "",
          "type": "uint64"
        }
      ],
      "stateMutability": "view",
      "type": "function"
    },
    {
      "inputs": [
        {
          "internalType": "uint256",
          "name": "_pid",
          "type": "uint256"
        },
        {
          "internalType": "address",
          "name": "_user",
          "type": "address"
        }
      ],
      "name": "getPending",
      "outputs": [
        {
          "internalType": "uint256",
          "name": "pending",
          "type": "uint256"
        }
      ],
      "stateMutability": "view",
      "type": "function"
    },
    {
      "inputs": [],
      "name": "getUnlocked",
      "outputs": [
        {
          "internalType": "uint256",
          "name": "unlockedAmount",
          "type": "uint256"
        }
      ],
      "stateMutability": "view",
      "type": "function"
    },
    {
      "inputs": [
        {
          "internalType": "uint256",
          "name": "pid",
          "type": "uint256"
        },
        {
          "internalType": "address",
          "name": "to",
          "type": "address"
        }
      ],
      "name": "harvest",
      "outputs": [],
      "stateMutability": "nonpayable",
      "type": "function"
    },
    {
      "inputs": [],
      "name": "initialSupply",
      "outputs": [
        {
          "internalType": "uint256",
          "name": "",
          "type": "uint256"
        }
      ],
      "stateMutability": "view",
      "type": "function"
    },
    {
      "inputs": [
        {
          "internalType": "uint256",
          "name": "supply",
          "type": "uint256"
        }
      ],
      "name": "initialize",
      "outputs": [],
      "stateMutability": "nonpayable",
      "type": "function"
    },
    {
      "inputs": [],
      "name": "lastOutputChangeDate",
      "outputs": [
        {
          "internalType": "uint64",
          "name": "",
          "type": "uint64"
        }
      ],
      "stateMutability": "view",
      "type": "function"
    },
    {
      "inputs": [
        {
          "internalType": "uint256[]",
          "name": "pids",
          "type": "uint256[]"
        }
      ],
      "name": "massUpdatePools",
      "outputs": [],
      "stateMutability": "nonpayable",
      "type": "function"
    },
    {
      "inputs": [],
      "name": "outputPerSecond",
      "outputs": [
        {
          "internalType": "uint256",
          "name": "",
          "type": "uint256"
        }
      ],
      "stateMutability": "view",
      "type": "function"
    },
    {
      "inputs": [],
      "name": "owner",
      "outputs": [
        {
          "internalType": "address",
          "name": "",
          "type": "address"
        }
      ],
      "stateMutability": "view",
      "type": "function"
    },
    {
      "inputs": [
        {
          "internalType": "uint256",
          "name": "",
          "type": "uint256"
        }
      ],
      "name": "poolInfo",
      "outputs": [
        {
          "internalType": "uint128",
          "name": "accPerShare",
          "type": "uint128"
        },
        {
          "internalType": "uint64",
          "name": "lastRewardTime",
          "type": "uint64"
        },
        {
          "internalType": "uint64",
          "name": "allocPoint",
          "type": "uint64"
        }
      ],
      "stateMutability": "view",
      "type": "function"
    },
    {
      "inputs": [],
      "name": "poolLength",
      "outputs": [
        {
          "internalType": "uint256",
          "name": "pools",
          "type": "uint256"
        }
      ],
      "stateMutability": "view",
      "type": "function"
    },
    {
      "inputs": [],
      "name": "renounceOwnership",
      "outputs": [],
      "stateMutability": "nonpayable",
      "type": "function"
    },
    {
      "inputs": [],
      "name": "sentToLP",
      "outputs": [
        {
          "internalType": "uint256",
          "name": "",
          "type": "uint256"
        }
      ],
      "stateMutability": "view",
      "type": "function"
    },
    {
      "inputs": [],
      "name": "swapPair",
      "outputs": [
        {
          "internalType": "contract MineblastSwapPair",
          "name": "",
          "type": "address"
        }
      ],
      "stateMutability": "view",
      "type": "function"
    },
    {
      "inputs": [],
      "name": "totalAllocPoint",
      "outputs": [
        {
          "internalType": "uint256",
          "name": "",
          "type": "uint256"
        }
      ],
      "stateMutability": "view",
      "type": "function"
    },
    {
      "inputs": [
        {
          "internalType": "address",
          "name": "newOwner",
          "type": "address"
        }
      ],
      "name": "transferOwnership",
      "outputs": [],
      "stateMutability": "nonpayable",
      "type": "function"
    },
    {
      "inputs": [],
      "name": "unlocked",
      "outputs": [
        {
          "internalType": "uint256",
          "name": "",
          "type": "uint256"
        }
      ],
      "stateMutability": "view",
      "type": "function"
    },
    {
      "inputs": [
        {
          "internalType": "uint256",
          "name": "pid",
          "type": "uint256"
        }
      ],
      "name": "updatePool",
      "outputs": [
        {
          "components": [
            {
              "internalType": "uint128",
              "name": "accPerShare",
              "type": "uint128"
            },
            {
              "internalType": "uint64",
              "name": "lastRewardTime",
              "type": "uint64"
            },
            {
              "internalType": "uint64",
              "name": "allocPoint",
              "type": "uint64"
            }
          ],
          "internalType": "struct MineblastVault.PoolInfo",
          "name": "pool",
          "type": "tuple"
        }
      ],
      "stateMutability": "nonpayable",
      "type": "function"
    },
    {
      "inputs": [
        {
          "internalType": "uint256",
          "name": "",
          "type": "uint256"
        },
        {
          "internalType": "address",
          "name": "",
          "type": "address"
        }
      ],
      "name": "userInfo",
      "outputs": [
        {
          "internalType": "uint256",
          "name": "amount",
          "type": "uint256"
        },
        {
          "internalType": "int256",
          "name": "rewardDebt",
          "type": "int256"
        }
      ],
      "stateMutability": "view",
      "type": "function"
    },
    {
      "inputs": [],
      "name": "weth",
      "outputs": [
        {
          "internalType": "contract WETH",
          "name": "",
          "type": "address"
        }
      ],
      "stateMutability": "view",
      "type": "function"
    },
    {
      "inputs": [
        {
          "internalType": "uint256",
          "name": "pid",
          "type": "uint256"
        },
        {
          "internalType": "uint256",
          "name": "amount",
          "type": "uint256"
        },
        {
          "internalType": "address",
          "name": "to",
          "type": "address"
        }
      ],
      "name": "withdraw",
      "outputs": [],
      "stateMutability": "nonpayable",
      "type": "function"
    },
    {
      "inputs": [
        {
          "internalType": "uint256",
          "name": "pid",
          "type": "uint256"
        },
        {
          "internalType": "uint256",
          "name": "amount",
          "type": "uint256"
        },
        {
          "internalType": "address",
          "name": "to",
          "type": "address"
        }
      ],
      "name": "withdrawAndHarvest",
      "outputs": [],
      "stateMutability": "nonpayable",
      "type": "function"
    },
    {
      "inputs": [
        {
          "internalType": "uint256",
          "name": "amount",
          "type": "uint256"
        },
        {
          "internalType": "address",
          "name": "to",
          "type": "address"
        }
      ],
      "name": "withdrawAndUnwrap",
      "outputs": [],
      "stateMutability": "payable",
      "type": "function"
    },
    {
      "inputs": [],
      "name": "wrapAndDeposit",
      "outputs": [],
      "stateMutability": "payable",
      "type": "function"
    },
    {
      "inputs": [],
      "name": "yieldToLiquidity",
      "outputs": [],
      "stateMutability": "nonpayable",
      "type": "function"
    },
    {
      "stateMutability": "payable",
      "type": "receive"
    }
  ],
  "bytecode": "0x60a060409080825234620002a85760009060608162002e6c8038038091620000288285620002d7565b83398101031262000216576200003e81620002fb565b90836200004e60208301620002fb565b910151916001600160401b039081841690818503620002a45733156200028c578554336001600160a01b0319808316821789558951976001600160a01b039773420000000000000000000000000000000000002395949193899283167f8be0079c531659141344cd1fd0a4f28419497f9722a3daafe3b4186f6b6457e08d80a381600754951660805216906006541617600655600160a01b600160e01b039060a01b169063ffffffff60e01b161717600755420180421162000278571660018060401b0319600854161760085573430000000000000000000000000000000000000291823b156200027457634e606c4760e01b8152838160048183875af180156200026a5762000255575b5060208391600754166024865180948193631a33757d60e01b8352600260048401525af180156200024b576200021a575b50803b1562000216578180916024855180948193631d70c8d360e31b83523060048401525af180156200020c57620001f1575b8251612b5b908162000311823960805181818161037f01528181610acf01528181611781015281816118e4015261211f0152f35b620001fd8291620002ad565b620002095780620001bd565b80fd5b83513d84823e3d90fd5b5080fd5b602090813d831162000243575b620002338183620002d7565b810103126200021657386200018a565b503d62000227565b84513d85823e3d90fd5b9262000263602094620002ad565b9262000159565b85513d86823e3d90fd5b8380fd5b634e487b7160e01b85526011600452602485fd5b8651631e4fbdf760e01b815260048101879052602490fd5b8580fd5b600080fd5b6001600160401b038111620002c157604052565b634e487b7160e01b600052604160045260246000fd5b601f909101601f19168101906001600160401b03821190821017620002c157604052565b51906001600160a01b0382168203620002a85756fe60406080815260049081361015610020575b5050361561001e57600080fd5b005b600091823560e01c80630599f50f14611b6a578063081e3eda14611b2d5780630ad58d2f14611a6c5780630fb5a6b414611a225780631526fe27146119a357806317caf6f11461196657806318fccc76146117a557806323be76d91461173657806326991cc8146116e357806328b564a0146115b95780632f940c7014611468578063378dc3dc1461142b5780633fc8cef3146113d857806341ea6a6514611390578063499582c01461135357806351eb05a6146112da57806357a5b58c146112425780636a5e265014611205578063715018a61461116857806379d12ffb146111035780637f37df3b14610eda5780638da5cb5b14610e895780638dbdbe6d14610d1857806393f1a40b14610ca057806397d7577614610c53578063c24a0f8b14610c0c578063d1abb907146109cc578063dd49756e1461095d578063e2e5bdb7146106ad578063f2fde38b146105c8578063f95d39191461058b578063fb6d21d91461051d5763fe4b84df146101985750610011565b34610519576020807ffffffffffffffffffffffffffffffffffffffffffffffffffffffffffffffffc360112610515578135926101d3612ad4565b73ffffffffffffffffffffffffffffffffffffffff80600754169384875280845260ff83882054166104b957600554946127109586810180911161048b576005556002549568010000000000000000968781101561045f5780600161023b9201600255611c3c565b81549060031b908685831b921b191617905567ffffffffffffffff9685519061026382611d50565b8a82528842168883015282878301526001549081101561043357906102918260016102979401600155611cd6565b906124d7565b81895282865284892060017fffffffffffffffffffffffffffffffffffffffffffffffffffffffffffffff00825416179055600254907fffffffffffffffffffffffffffffffffffffffffffffffffffffffffffffffff8201918211610407579288928695927f4710feb78e3bce8d2e3ca2989a8eb2f8bcd32a6a55b4535942c180fc4d2e295289809761037b9a51908152a3600a83905584517f23b872dd0000000000000000000000000000000000000000000000000000000081523391810191825230602083015260408201939093529194859283918b918391606090910190565b03927f0000000000000000000000000000000000000000000000000000000000000000165af19081156103fe5750916103c893916103cd95936103d0575b505060075460a01c1690611e21565b612a63565b80f35b816103ef92903d106103f7575b6103e78183611d6c565b810190611de9565b5038806103b9565b503d6103dd565b513d87823e3d90fd5b60248a6011867f4e487b7100000000000000000000000000000000000000000000000000000000835252fd5b60248b6041877f4e487b7100000000000000000000000000000000000000000000000000000000835252fd5b60248a6041867f4e487b7100000000000000000000000000000000000000000000000000000000835252fd5b6011837f4e487b71000000000000000000000000000000000000000000000000000000006000525260246000fd5b606490848451917f08c379a0000000000000000000000000000000000000000000000000000000008352820152601360248201527f546f6b656e20616c7265616479206164646564000000000000000000000000006044820152fd5b8380fd5b8280fd5b50503461058757817ffffffffffffffffffffffffffffffffffffffffffffffffffffffffffffffffc3601126105875760209061058060095461057a600c5461057467ffffffffffffffff600854871c1642611e01565b90611e0e565b90611dad565b9051908152f35b5080fd5b50503461058757817ffffffffffffffffffffffffffffffffffffffffffffffffffffffffffffffffc36011261058757602090600b549051908152f35b50346105195760207ffffffffffffffffffffffffffffffffffffffffffffffffffffffffffffffffc36011261051957610600611bc4565b90610609612ad4565b73ffffffffffffffffffffffffffffffffffffffff80921692831561067e575050600054827fffffffffffffffffffffffff0000000000000000000000000000000000000000821617600055167f8be0079c531659141344cd1fd0a4f28419497f9722a3daafe3b4186f6b6457e0600080a380f35b908460249251917f1e4fbdf7000000000000000000000000000000000000000000000000000000008352820152fd5b5090807ffffffffffffffffffffffffffffffffffffffffffffffffffffffffffffffffc360112610519578135906106e3611ba1565b906106ec61257c565b91858052602092600384528287203360005284528260002090610739600183019164e8d4a510006107326fffffffffffffffffffffffffffffffff85549351168a611e0e565b0490612446565b9055610746858254611e01565b905573ffffffffffffffffffffffffffffffffffffffff90868260075416803b1561058757818760248a83895195869485937f2e1a7d4d0000000000000000000000000000000000000000000000000000000085528401525af180156109535761093b575b50501693815183810167ffffffffffffffff918082108383111761090d578882818094938194895252888a5af1903d15610907573d9081116108d95783519061081b867fffffffffffffffffffffffffffffffffffffffffffffffffffffffffffffffe0601f8401160183611d6c565b815287853d92013e5b15610858575051918252839133917f8166bf25f8a2b7ed3c85049207da4358d16edbed977d23fa2ee6f0dde3ec213291a480f35b8260849251917f08c379a0000000000000000000000000000000000000000000000000000000008352820152603460248201527f5472616e7366657248656c7065723a3a736166655472616e736665724554483a60448201527f20455448207472616e73666572206661696c65640000000000000000000000006064820152fd5b6041837f4e487b71000000000000000000000000000000000000000000000000000000006000525260246000fd5b50610824565b6041847f4e487b71000000000000000000000000000000000000000000000000000000006000525260246000fd5b61094490611d0d565b61094f5786386107ab565b8680fd5b85513d84823e3d90fd5b50346105195760207ffffffffffffffffffffffffffffffffffffffffffffffffffffffffffffffffc3601126105195735916002548310156109c9575073ffffffffffffffffffffffffffffffffffffffff6109ba602093611c3c565b92905490519260031b1c168152f35b80fd5b509034610519576109dc36611be7565b9091926109e884612814565b928487526020926003845282882033600052845282600020610a5483825488610a4d64e8d4a5100080610a2f6fffffffffffffffffffffffffffffffff8095511686611e0e565b04906107326001890194610a44865485612446565b9e511687611e0e565b9055611e01565b90558473ffffffffffffffffffffffffffffffffffffffff9788868b87519283809281610acb7fa9059cbb00000000000000000000000000000000000000000000000000000000998a83528b8a84016020909392919373ffffffffffffffffffffffffffffffffffffffff60408201951681520152565b03927f0000000000000000000000000000000000000000000000000000000000000000165af18015610c025792879285928795610be5575b508c8c610b0f8d611c3c565b90549060031b1c1692610b508a5197889687958694855284016020909392919373ffffffffffffffffffffffffffffffffffffffff60408201951681520152565b03925af18015610bdb57918798917f71bab65ced2e5750775a0613be067df48ef06cf92a496ebf7663ae0660924954979893610bbe575b50845193845216917f8166bf25f8a2b7ed3c85049207da4358d16edbed977d23fa2ee6f0dde3ec2132853392a4519283523392a380f35b610bd490873d89116103f7576103e78183611d6c565b5038610b87565b84513d8b823e3d90fd5b610bfb90853d87116103f7576103e78183611d6c565b5038610b03565b86513d8d823e3d90fd5b50503461058757817ffffffffffffffffffffffffffffffffffffffffffffffffffffffffffffffffc3601126105875760209067ffffffffffffffff600854169051908152f35b50503461058757817ffffffffffffffffffffffffffffffffffffffffffffffffffffffffffffffffc36011261058757602090517343000000000000000000000000000000000000028152f35b5082346109c957827ffffffffffffffffffffffffffffffffffffffffffffffffffffffffffffffffc3601126109c9578273ffffffffffffffffffffffffffffffffffffffff91610cef611ba1565b933581526003602052209116600052602052806000206001815491015482519182526020820152f35b50903461051957610d2836611be7565b93909192610e23610d3885612814565b9585885284602094859260038452858b209973ffffffffffffffffffffffffffffffffffffffff8092169a8b6000528552610dad600188600020610d7d878254611dad565b8155019164e8d4a51000610da66fffffffffffffffffffffffffffffffff855493511688611e0e565b049061245f565b9055610db889611c3c565b90549060031b1c16908a86518096819582947f23b872dd00000000000000000000000000000000000000000000000000000000845230903390850160409194939294606082019573ffffffffffffffffffffffffffffffffffffffff80921683521660208201520152565b03925af18015610e7f57907f02d7e648dd130fc184d383e55bb126ac4c9c60e8f94bf05acdf557ba2d540b47939291610e62575b50519283523392a480f35b610e7890833d85116103f7576103e78183611d6c565b5038610e57565b82513d89823e3d90fd5b50503461058757817ffffffffffffffffffffffffffffffffffffffffffffffffffffffffffffffffc3601126105875773ffffffffffffffffffffffffffffffffffffffff60209254169051908152f35b503461051957817ffffffffffffffffffffffffffffffffffffffffffffffffffffffffffffffffc3601126105195780356024610f15611ba1565b92610f28610f2284611cd6565b5061247b565b958381526020966003885286822073ffffffffffffffffffffffffffffffffffffffff8097166000528852878760002096610f766fffffffffffffffffffffffffffffffff84511697611c3c565b90549060031b1c168851958680927f70a0823100000000000000000000000000000000000000000000000000000000825230888301525afa9384156110f95782946110c5575b5067ffffffffffffffff8781600854168042116000146110bc575b828b85015116908184821611806110b3575b611011575b8b836105808c600164e8d4a510006110078f8454611e0e565b0491015490612446565b916110328461102861103c969461104598966124bd565b16600c5490611e0e565b9201511690611e0e565b60055490611e21565b9164e8d4a510009283810293818504149015171561108757505061100761107c610580959461057a60019564e8d4a5100095611e21565b939438878180610fee565b9060116024927f4e487b7100000000000000000000000000000000000000000000000000000000835252fd5b50871515610fe9565b50814216610fd7565b9093508781813d83116110f2575b6110dd8183611d6c565b810103126110ed57519238610fbc565b600080fd5b503d6110d3565b87513d84823e3d90fd5b50346105195760207ffffffffffffffffffffffffffffffffffffffffffffffffffffffffffffffffc360112610519578160209360ff9273ffffffffffffffffffffffffffffffffffffffff611157611bc4565b168252855220541690519015158152f35b83346109c957807ffffffffffffffffffffffffffffffffffffffffffffffffffffffffffffffffc3601126109c95761119f612ad4565b600073ffffffffffffffffffffffffffffffffffffffff81547fffffffffffffffffffffffff000000000000000000000000000000000000000081168355167f8be0079c531659141344cd1fd0a4f28419497f9722a3daafe3b4186f6b6457e08280a380f35b50503461058757817ffffffffffffffffffffffffffffffffffffffffffffffffffffffffffffffffc360112610587576020906009549051908152f35b8382346105875760207ffffffffffffffffffffffffffffffffffffffffffffffffffffffffffffffffc36011261058757803567ffffffffffffffff918282116105155736602383011215610515578101359182116105195760249060053660248560051b840101116112d657845b8481106112bc578580f35b806112cf85600193851b86010135612814565b50016112b1565b8480fd5b5091346109c95760207ffffffffffffffffffffffffffffffffffffffffffffffffffffffffffffffffc3601126109c9575061131860609235612814565b908051916fffffffffffffffffffffffffffffffff81511683528160208201519167ffffffffffffffff809316602086015201511690820152f35b50503461058757817ffffffffffffffffffffffffffffffffffffffffffffffffffffffffffffffffc36011261058757602090600c549051908152f35b50503461058757817ffffffffffffffffffffffffffffffffffffffffffffffffffffffffffffffffc360112610587576008548151911c67ffffffffffffffff168152602090f35b50503461058757817ffffffffffffffffffffffffffffffffffffffffffffffffffffffffffffffffc3601126105875760209073ffffffffffffffffffffffffffffffffffffffff600754169051908152f35b50503461058757817ffffffffffffffffffffffffffffffffffffffffffffffffffffffffffffffffc36011261058757602090600a549051908152f35b503461051957817ffffffffffffffffffffffffffffffffffffffffffffffffffffffffffffffffc36011261051957611550916001848335926114a9611ba1565b90848352602080966003825282852033600052825282600020908582549783828a95550155846114d889611c3c565b979073ffffffffffffffffffffffffffffffffffffffff988991549060031b1c169286519c8d95869485937fa9059cbb00000000000000000000000000000000000000000000000000000000855284016020909392919373ffffffffffffffffffffffffffffffffffffffff60408201951681520152565b03925af19687156115af577f2cac5e20e1541d836381527a43f651851e302817b71dc8e810284e69210c1c6b94959697611592575b505193845216933392a480f35b6115a890883d8a116103f7576103e78183611d6c565b5038611585565b81513d8a823e3d90fd5b508290817ffffffffffffffffffffffffffffffffffffffffffffffffffffffffffffffffc3601126105875773ffffffffffffffffffffffffffffffffffffffff60075416803b156105195782908451928380927fd0e30db000000000000000000000000000000000000000000000000000000000825234905af180156116d9576116ca575b509061164961257c565b82805260036020528183203360005260205261169860018360002061166f348254611dad565b8155019164e8d4a51000610da66fffffffffffffffffffffffffffffffff855493511634611e0e565b9055513481528133917f02d7e648dd130fc184d383e55bb126ac4c9c60e8f94bf05acdf557ba2d540b4760203392a480f35b6116d390611d0d565b8261163f565b83513d84823e3d90fd5b50503461058757817ffffffffffffffffffffffffffffffffffffffffffffffffffffffffffffffffc3601126105875760209073ffffffffffffffffffffffffffffffffffffffff600654169051908152f35b50503461058757817ffffffffffffffffffffffffffffffffffffffffffffffffffffffffffffffffc360112610587576020905173ffffffffffffffffffffffffffffffffffffffff7f0000000000000000000000000000000000000000000000000000000000000000168152f35b50903461051957807ffffffffffffffffffffffffffffffffffffffffffffffffffffffffffffffffc360112610519578135906117e0611ba1565b926117ea83612814565b91838652602091600383528187203388528352600164e8d4a51000611828848a20966fffffffffffffffffffffffffffffffff885491511690611e0e565b04940193611837855482612446565b945583611877575b507f71bab65ced2e5750775a0613be067df48ef06cf92a496ebf7663ae06609249549293945061186d611e5a565b519283523392a380f35b81517fa9059cbb00000000000000000000000000000000000000000000000000000000815273ffffffffffffffffffffffffffffffffffffffff9096169086019081526020810184905282908690819060400103818973ffffffffffffffffffffffffffffffffffffffff7f0000000000000000000000000000000000000000000000000000000000000000165af194851561195c577f71bab65ced2e5750775a0613be067df48ef06cf92a496ebf7663ae066092495493949561193f575b8594935061183f565b61195590833d85116103f7576103e78183611d6c565b5038611936565b81513d88823e3d90fd5b50503461058757817ffffffffffffffffffffffffffffffffffffffffffffffffffffffffffffffffc360112610587576020906005549051908152f35b50346105195760207ffffffffffffffffffffffffffffffffffffffffffffffffffffffffffffffffc3601126105195735916001548310156109c957506119eb606092611cd6565b5054908051916fffffffffffffffffffffffffffffffff8116835267ffffffffffffffff8160801c16602084015260c01c90820152f35b50503461058757817ffffffffffffffffffffffffffffffffffffffffffffffffffffffffffffffffc3601126105875760209067ffffffffffffffff60075460a01c169051908152f35b503461051957611aec9183611a8036611be7565b90929193611a8d85612814565b85845284602097889260038452848720338852845284872090611ad3600183019164e8d4a510006107326fffffffffffffffffffffffffffffffff855493511688611e0e565b9055611ae0838254611e01565b9055846114d889611c3c565b03925af19687156115af577f8166bf25f8a2b7ed3c85049207da4358d16edbed977d23fa2ee6f0dde3ec21329495969761159257505193845216933392a480f35b50503461058757817ffffffffffffffffffffffffffffffffffffffffffffffffffffffffffffffffc360112610587576020906001549051908152f35b83346109c957807ffffffffffffffffffffffffffffffffffffffffffffffffffffffffffffffffc3601126109c9576103cd611e5a565b6024359073ffffffffffffffffffffffffffffffffffffffff821682036110ed57565b6004359073ffffffffffffffffffffffffffffffffffffffff821682036110ed57565b7ffffffffffffffffffffffffffffffffffffffffffffffffffffffffffffffffc60609101126110ed57600435906024359060443573ffffffffffffffffffffffffffffffffffffffff811681036110ed5790565b600254811015611c735760026000527f405787fa12a823e0f2b7631cc41b3ba8828b3321ca811111fa75cd3aa3bb5ace0190600090565b7f4e487b7100000000000000000000000000000000000000000000000000000000600052603260045260246000fd5b60015415611c735760016000527fb10e2d527612073b26eecdfd717e6a320cf44b4afac2b0732d9fcbe2b7fa0cf690600090565b600154811015611c735760016000527fb10e2d527612073b26eecdfd717e6a320cf44b4afac2b0732d9fcbe2b7fa0cf60190600090565b67ffffffffffffffff8111611d2157604052565b7f4e487b7100000000000000000000000000000000000000000000000000000000600052604160045260246000fd5b6060810190811067ffffffffffffffff821117611d2157604052565b90601f7fffffffffffffffffffffffffffffffffffffffffffffffffffffffffffffffe0910116810190811067ffffffffffffffff821117611d2157604052565b91908201809211611dba57565b7f4e487b7100000000000000000000000000000000000000000000000000000000600052601160045260246000fd5b908160209103126110ed575180151581036110ed5790565b91908203918211611dba57565b81810292918115918404141715611dba57565b8115611e2b570490565b7f4e487b7100000000000000000000000000000000000000000000000000000000600052601260045260246000fd5b60075460009073ffffffffffffffffffffffffffffffffffffffff80911660409283517fe12f3a6100000000000000000000000000000000000000000000000000000000815260049030828201526020938482602481845afa9182156122ef578492612417575b5066038d7ea4c68000821061240e5784875180927faad3ec96000000000000000000000000000000000000000000000000000000008252818781611f2b88308b84016020909392919373ffffffffffffffffffffffffffffffffffffffff60408201951681520152565b03925af180156122ef579085916123e5575b505085517f954fa5ee00000000000000000000000000000000000000000000000000000000815230838201523060248201528481604481877343000000000000000000000000000000000000025af180156122ef579085916123bc575b505084600754164790803b156112d6578490848951809481937fd0e30db00000000000000000000000000000000000000000000000000000000083525af180156122ef576123a7575b50611fef904790611dad565b9380600654168651907f49faebde0000000000000000000000000000000000000000000000000000000082526dffffffffffffffffffffffffffff87168483015260c860248301528582604481845afa91821561235a578592612378575b50803b156112d657848091858a51809481937ffff6cae90000000000000000000000000000000000000000000000000000000083525af1801561235a57908591612364575b50856120fa84600754168560065416998b519485809481937fa9059cbb000000000000000000000000000000000000000000000000000000009e8f84528c84016020909392919373ffffffffffffffffffffffffffffffffffffffff60408201951681520152565b03925af1801561235a5761233d575b50806123385750670de0b6b3a76400005b8095827f0000000000000000000000000000000000000000000000000000000000000000169188517f70a0823100000000000000000000000000000000000000000000000000000000815230868201528781602481875afa90811561232e578791612301575b508091116122f9575b506006548851918252831673ffffffffffffffffffffffffffffffffffffffff16848201908152602081018890529091869183919082908890829060400103925af180156122ef5785928594926024926122d2575b506006541691885195869384927f6a62784200000000000000000000000000000000000000000000000000000000845230908401525af19081156122c7575061229e575b505061229c916122376103c892600b54611dad565b600b5561226060095461057a600c5461057467ffffffffffffffff8096600854901c1642611e01565b60095561226b61257c565b5061229661228a612281600a54600b5490611e01565b60095490611e01565b91429060085416611e01565b90611e21565b565b813d83116122c0575b6122b18183611d6c565b810103126110ed573880612222565b503d6122a7565b8551903d90823e3d90fd5b6122e890853d87116103f7576103e78183611d6c565b50386121de565b87513d86823e3d90fd5b965085612189565b90508781813d8311612327575b6123188183611d6c565b810103126110ed575138612180565b503d61230e565b8a513d89823e3d90fd5b61211a565b61235390863d88116103f7576103e78183611d6c565b5038612109565b88513d87823e3d90fd5b61236d90611d0d565b610515578338612092565b9091508581813d83116123a0575b6123908183611d6c565b810103126110ed5751903861204d565b503d612386565b926123b5611fef9294611d0d565b9290611fe3565b813d83116123de575b6123cf8183611d6c565b81010312610519578338611f9a565b503d6123c5565b813d8311612407575b6123f88183611d6c565b81010312610519578338611f3d565b503d6123ee565b50505050505050565b9091508481813d831161243f575b61242f8183611d6c565b8101031261051557519038611ec1565b503d612425565b81810392916000138015828513169184121617611dba57565b91909160008382019384129112908015821691151617611dba57565b9060405161248881611d50565b60408193546fffffffffffffffffffffffffffffffff8116835267ffffffffffffffff8160801c16602084015260c01c910152565b67ffffffffffffffff9182169082160391908211611dba57565b919061254d578051602082015160409092015160809290921b77ffffffffffffffff00000000000000000000000000000000166fffffffffffffffffffffffffffffffff919091161760c09190911b7fffffffffffffffff00000000000000000000000000000000000000000000000016179055565b7f4e487b7100000000000000000000000000000000000000000000000000000000600052600060045260246000fd5b60409081519061258b82611d50565b60008083528084602094828682015201526125a7610f22611ca2565b9267ffffffffffffffff94856008541680421160001461280a57955b828601818151168289169081116125e0575b505050505050909150565b600254156127dd57859697986002602497528573ffffffffffffffffffffffffffffffffffffffff7f405787fa12a823e0f2b7631cc41b3ba8828b3321ca811111fa75cd3aa3bb5ace54168651988980927f70a082310000000000000000000000000000000000000000000000000000000082523060048301525afa9687156127d35788976127a0575b50866126da575b509181606095937f0fc9545022a542541ad085d091fb09a2ab36fee366a4576ab63714ea907ad353979593526126a98a610291611ca2565b5116926fffffffffffffffffffffffffffffffff895116928251948552840152820152a281903880808080806125d5565b61103c6126f2856110286126fe9482885116906124bd565b85878d01511690611e0e565b6fffffffffffffffffffffffffffffffff90818b51169064e8d4a5100090818102918183041490151715612773579161276460609896949261057a8b7f0fc9545022a542541ad085d091fb09a2ab36fee366a4576ab63714ea907ad3539c9a9896611e21565b168b5291939550919395612671565b60248a7f4e487b710000000000000000000000000000000000000000000000000000000081526011600452fd5b9096508581813d83116127cc575b6127b88183611d6c565b810103126127c85751953861266a565b8780fd5b503d6127ae565b85513d8a823e3d90fd5b6024867f4e487b710000000000000000000000000000000000000000000000000000000081526032600452fd5b50854216956125c3565b90604091825161282381611d50565b600090818152818560209282848201520152612841610f2284611cd6565b9467ffffffffffffffff8060085416804211600014612a5957935b83880190828251169083871691821161287a575b5050505050505050565b73ffffffffffffffffffffffffffffffffffffffff9686602461289c8b611c3c565b9190549189519b8c9384927f70a0823100000000000000000000000000000000000000000000000000000000845230600485015260031b1c165afa978815612a4f57908b918399612a1c575b508861295b575b5050509181606095937f0fc9545022a542541ad085d091fb09a2ab36fee366a4576ab63714ea907ad3539795935261292a8a6102918a611cd6565b5116926fffffffffffffffffffffffffffffffff895116928251948552840152820152a23880808080808080612870565b6129769186886110328261102861103c96828c5116906124bd565b906fffffffffffffffffffffffffffffffff91828c51169164e8d4a51000918281029281840414901517156129ef5750916129de60609896949261057a8b7f0fc9545022a542541ad085d091fb09a2ab36fee366a4576ab63714ea907ad3539c9a9896611e21565b168b529193955091939589386128ef565b807f4e487b7100000000000000000000000000000000000000000000000000000000602492526011600452fd5b8880929a508193503d8311612a48575b612a368183611d6c565b81010312610587578a905197386128e8565b503d612a2c565b86513d84823e3d90fd5b508042169361285c565b60207fce627de7a3c0ab1e1b091d6a60d128ea2327f929866814370c4be8e19d5def359180600c556008547fffffffffffffffffffffffffffffffff0000000000000000ffffffffffffffff6fffffffffffffffff00000000000000004260401b16911617600855604051908152a1565b73ffffffffffffffffffffffffffffffffffffffff600054163303612af557565b60246040517f118cdaa7000000000000000000000000000000000000000000000000000000008152336004820152fdfea2646970667358221220e9d7a8ada1cbf1771371dbaf2b3ae8d321f64cee5b14d017530e45215dd77e5e64736f6c63430008170033",
  "linkReferences": {},
  "deployedLinkReferences": {}
}