{
  "_format": "hh-sol-artifact-1",
  "contractName": "MineblastVault",
  "sourceName": "src/MineblastVault.sol",
  "abi": [
    {
      "inputs": [
        {
          "internalType": "address",
          "name": "_outputToken",
          "type": "address"
        },
        {
          "internalType": "address",
          "name": "_swapPair",
          "type": "address"
        },
        {
          "internalType": "uint64",
          "name": "_duration",
          "type": "uint64"
        }
      ],
      "stateMutability": "nonpayable",
      "type": "constructor"
    },
    {
      "inputs": [
        {
          "internalType": "address",
          "name": "owner",
          "type": "address"
        }
      ],
      "name": "OwnableInvalidOwner",
      "type": "error"
    },
    {
      "inputs": [
        {
          "internalType": "address",
          "name": "account",
          "type": "address"
        }
      ],
      "name": "OwnableUnauthorizedAccount",
      "type": "error"
    },
    {
      "anonymous": false,
      "inputs": [
        {
          "indexed": true,
          "internalType": "address",
          "name": "user",
          "type": "address"
        },
        {
          "indexed": true,
          "internalType": "uint256",
          "name": "pid",
          "type": "uint256"
        },
        {
          "indexed": false,
          "internalType": "uint256",
          "name": "amount",
          "type": "uint256"
        },
        {
          "indexed": true,
          "internalType": "address",
          "name": "to",
          "type": "address"
        }
      ],
      "name": "Deposit",
      "type": "event"
    },
    {
      "anonymous": false,
      "inputs": [
        {
          "indexed": true,
          "internalType": "address",
          "name": "user",
          "type": "address"
        },
        {
          "indexed": true,
          "internalType": "uint256",
          "name": "pid",
          "type": "uint256"
        },
        {
          "indexed": false,
          "internalType": "uint256",
          "name": "amount",
          "type": "uint256"
        },
        {
          "indexed": true,
          "internalType": "address",
          "name": "to",
          "type": "address"
        }
      ],
      "name": "EmergencyWithdraw",
      "type": "event"
    },
    {
      "anonymous": false,
      "inputs": [
        {
          "indexed": true,
          "internalType": "address",
          "name": "user",
          "type": "address"
        },
        {
          "indexed": true,
          "internalType": "uint256",
          "name": "pid",
          "type": "uint256"
        },
        {
          "indexed": false,
          "internalType": "uint256",
          "name": "amount",
          "type": "uint256"
        }
      ],
      "name": "Harvest",
      "type": "event"
    },
    {
      "anonymous": false,
      "inputs": [
        {
          "indexed": false,
          "internalType": "uint256",
          "name": "outputPerSecond",
          "type": "uint256"
        }
      ],
      "name": "LogOutputPerSecond",
      "type": "event"
    },
    {
      "anonymous": false,
      "inputs": [
        {
          "indexed": true,
          "internalType": "uint256",
          "name": "pid",
          "type": "uint256"
        },
        {
          "indexed": false,
          "internalType": "uint256",
          "name": "allocPoint",
          "type": "uint256"
        },
        {
          "indexed": true,
          "internalType": "contract IERC20",
          "name": "lpToken",
          "type": "address"
        }
      ],
      "name": "LogPoolAddition",
      "type": "event"
    },
    {
      "anonymous": false,
      "inputs": [
        {
          "indexed": true,
          "internalType": "uint256",
          "name": "pid",
          "type": "uint256"
        },
        {
          "indexed": false,
          "internalType": "uint256",
          "name": "allocPoint",
          "type": "uint256"
        }
      ],
      "name": "LogSetPool",
      "type": "event"
    },
    {
      "anonymous": false,
      "inputs": [
        {
          "indexed": true,
          "internalType": "uint256",
          "name": "pid",
          "type": "uint256"
        },
        {
          "indexed": false,
          "internalType": "uint64",
          "name": "lastRewardTime",
          "type": "uint64"
        },
        {
          "indexed": false,
          "internalType": "uint256",
          "name": "lpSupply",
          "type": "uint256"
        },
        {
          "indexed": false,
          "internalType": "uint256",
          "name": "accPerShare",
          "type": "uint256"
        }
      ],
      "name": "LogUpdatePool",
      "type": "event"
    },
    {
      "anonymous": false,
      "inputs": [
        {
          "indexed": true,
          "internalType": "address",
          "name": "previousOwner",
          "type": "address"
        },
        {
          "indexed": true,
          "internalType": "address",
          "name": "newOwner",
          "type": "address"
        }
      ],
      "name": "OwnershipTransferred",
      "type": "event"
    },
    {
      "anonymous": false,
      "inputs": [
        {
          "indexed": true,
          "internalType": "address",
          "name": "user",
          "type": "address"
        },
        {
          "indexed": true,
          "internalType": "uint256",
          "name": "pid",
          "type": "uint256"
        },
        {
          "indexed": false,
          "internalType": "uint256",
          "name": "amount",
          "type": "uint256"
        },
        {
          "indexed": true,
          "internalType": "address",
          "name": "to",
          "type": "address"
        }
      ],
      "name": "Withdraw",
      "type": "event"
    },
    {
      "inputs": [],
      "name": "BLAST",
      "outputs": [
        {
          "internalType": "contract IBlast",
          "name": "",
          "type": "address"
        }
      ],
      "stateMutability": "view",
      "type": "function"
    },
    {
      "inputs": [],
      "name": "OUTPUT_TOKEN",
      "outputs": [
        {
          "internalType": "contract IERC20",
          "name": "",
          "type": "address"
        }
      ],
      "stateMutability": "view",
      "type": "function"
    },
    {
      "inputs": [
        {
          "internalType": "address",
          "name": "",
          "type": "address"
        }
      ],
      "name": "addedTokens",
      "outputs": [
        {
          "internalType": "bool",
          "name": "",
          "type": "bool"
        }
      ],
      "stateMutability": "view",
      "type": "function"
    },
    {
      "inputs": [
        {
          "internalType": "uint256",
          "name": "pid",
          "type": "uint256"
        },
        {
          "internalType": "uint256",
          "name": "amount",
          "type": "uint256"
        },
        {
          "internalType": "address",
          "name": "to",
          "type": "address"
        }
      ],
      "name": "deposit",
      "outputs": [],
      "stateMutability": "nonpayable",
      "type": "function"
    },
    {
      "inputs": [
        {
          "internalType": "uint256",
          "name": "",
          "type": "uint256"
        }
      ],
      "name": "depositTokens",
      "outputs": [
        {
          "internalType": "contract IERC20",
          "name": "",
          "type": "address"
        }
      ],
      "stateMutability": "view",
      "type": "function"
    },
    {
      "inputs": [],
      "name": "duration",
      "outputs": [
        {
          "internalType": "uint64",
          "name": "",
          "type": "uint64"
        }
      ],
      "stateMutability": "view",
      "type": "function"
    },
    {
      "inputs": [
        {
          "internalType": "uint256",
          "name": "pid",
          "type": "uint256"
        },
        {
          "internalType": "address",
          "name": "to",
          "type": "address"
        }
      ],
      "name": "emergencyWithdraw",
      "outputs": [],
      "stateMutability": "nonpayable",
      "type": "function"
    },
    {
      "inputs": [],
      "name": "endDate",
      "outputs": [
        {
          "internalType": "uint64",
          "name": "",
          "type": "uint64"
        }
      ],
      "stateMutability": "view",
      "type": "function"
    },
    {
      "inputs": [
        {
          "internalType": "uint256",
          "name": "_pid",
          "type": "uint256"
        },
        {
          "internalType": "address",
          "name": "_user",
          "type": "address"
        }
      ],
      "name": "getPending",
      "outputs": [
        {
          "internalType": "uint256",
          "name": "pending",
          "type": "uint256"
        }
      ],
      "stateMutability": "view",
      "type": "function"
    },
    {
      "inputs": [
        {
          "internalType": "uint256",
          "name": "pid",
          "type": "uint256"
        },
        {
          "internalType": "address",
          "name": "to",
          "type": "address"
        }
      ],
      "name": "harvest",
      "outputs": [],
      "stateMutability": "nonpayable",
      "type": "function"
    },
    {
      "inputs": [
        {
          "internalType": "uint256",
          "name": "supply",
          "type": "uint256"
        }
      ],
      "name": "initialize",
      "outputs": [],
      "stateMutability": "nonpayable",
      "type": "function"
    },
    {
      "inputs": [
        {
          "internalType": "uint256[]",
          "name": "pids",
          "type": "uint256[]"
        }
      ],
      "name": "massUpdatePools",
      "outputs": [],
      "stateMutability": "nonpayable",
      "type": "function"
    },
    {
      "inputs": [],
      "name": "outputPerSecond",
      "outputs": [
        {
          "internalType": "uint256",
          "name": "",
          "type": "uint256"
        }
      ],
      "stateMutability": "view",
      "type": "function"
    },
    {
      "inputs": [],
      "name": "owner",
      "outputs": [
        {
          "internalType": "address",
          "name": "",
          "type": "address"
        }
      ],
      "stateMutability": "view",
      "type": "function"
    },
    {
      "inputs": [
        {
          "internalType": "uint256",
          "name": "",
          "type": "uint256"
        }
      ],
      "name": "poolInfo",
      "outputs": [
        {
          "internalType": "uint128",
          "name": "accPerShare",
          "type": "uint128"
        },
        {
          "internalType": "uint64",
          "name": "lastRewardTime",
          "type": "uint64"
        },
        {
          "internalType": "uint64",
          "name": "allocPoint",
          "type": "uint64"
        }
      ],
      "stateMutability": "view",
      "type": "function"
    },
    {
      "inputs": [],
      "name": "poolLength",
      "outputs": [
        {
          "internalType": "uint256",
          "name": "pools",
          "type": "uint256"
        }
      ],
      "stateMutability": "view",
      "type": "function"
    },
    {
      "inputs": [],
      "name": "renounceOwnership",
      "outputs": [],
      "stateMutability": "nonpayable",
      "type": "function"
    },
    {
      "inputs": [],
      "name": "swapPair",
      "outputs": [
        {
          "internalType": "contract MineblastSwapPair",
          "name": "",
          "type": "address"
        }
      ],
      "stateMutability": "view",
      "type": "function"
    },
    {
      "inputs": [],
      "name": "totalAllocPoint",
      "outputs": [
        {
          "internalType": "uint256",
          "name": "",
          "type": "uint256"
        }
      ],
      "stateMutability": "view",
      "type": "function"
    },
    {
      "inputs": [
        {
          "internalType": "address",
          "name": "newOwner",
          "type": "address"
        }
      ],
      "name": "transferOwnership",
      "outputs": [],
      "stateMutability": "nonpayable",
      "type": "function"
    },
    {
      "inputs": [
        {
          "internalType": "uint256",
          "name": "pid",
          "type": "uint256"
        }
      ],
      "name": "updatePool",
      "outputs": [
        {
          "components": [
            {
              "internalType": "uint128",
              "name": "accPerShare",
              "type": "uint128"
            },
            {
              "internalType": "uint64",
              "name": "lastRewardTime",
              "type": "uint64"
            },
            {
              "internalType": "uint64",
              "name": "allocPoint",
              "type": "uint64"
            }
          ],
          "internalType": "struct MineblastVault.PoolInfo",
          "name": "pool",
          "type": "tuple"
        }
      ],
      "stateMutability": "nonpayable",
      "type": "function"
    },
    {
      "inputs": [
        {
          "internalType": "uint256",
          "name": "",
          "type": "uint256"
        },
        {
          "internalType": "address",
          "name": "",
          "type": "address"
        }
      ],
      "name": "userInfo",
      "outputs": [
        {
          "internalType": "uint256",
          "name": "amount",
          "type": "uint256"
        },
        {
          "internalType": "int256",
          "name": "rewardDebt",
          "type": "int256"
        }
      ],
      "stateMutability": "view",
      "type": "function"
    },
    {
      "inputs": [],
      "name": "weth",
      "outputs": [
        {
          "internalType": "contract WETH",
          "name": "",
          "type": "address"
        }
      ],
      "stateMutability": "view",
      "type": "function"
    },
    {
      "inputs": [
        {
          "internalType": "uint256",
          "name": "pid",
          "type": "uint256"
        },
        {
          "internalType": "uint256",
          "name": "amount",
          "type": "uint256"
        },
        {
          "internalType": "address",
          "name": "to",
          "type": "address"
        }
      ],
      "name": "withdraw",
      "outputs": [],
      "stateMutability": "nonpayable",
      "type": "function"
    },
    {
      "inputs": [
        {
          "internalType": "uint256",
          "name": "pid",
          "type": "uint256"
        },
        {
          "internalType": "uint256",
          "name": "amount",
          "type": "uint256"
        },
        {
          "internalType": "address",
          "name": "to",
          "type": "address"
        }
      ],
      "name": "withdrawAndHarvest",
      "outputs": [],
      "stateMutability": "nonpayable",
      "type": "function"
    },
    {
      "inputs": [
        {
          "internalType": "uint256",
          "name": "amount",
          "type": "uint256"
        },
        {
          "internalType": "address",
          "name": "to",
          "type": "address"
        }
      ],
      "name": "withdrawAndUnwrap",
      "outputs": [],
      "stateMutability": "payable",
      "type": "function"
    },
    {
      "inputs": [],
      "name": "wrapAndDeposit",
      "outputs": [],
      "stateMutability": "payable",
      "type": "function"
    },
    {
      "inputs": [],
      "name": "yieldToLiquidity",
      "outputs": [],
      "stateMutability": "nonpayable",
      "type": "function"
    },
    {
      "stateMutability": "payable",
      "type": "receive"
    }
  ],
  "bytecode": "0x60a060409080825234620002a85760009060608162002c338038038091620000288285620002d7565b83398101031262000216576200003e81620002fb565b90836200004e60208301620002fb565b910151916001600160401b039081841690818503620002a45733156200028c578554336001600160a01b0319808316821789558951976001600160a01b039773420000000000000000000000000000000000002395949193899283167f8be0079c531659141344cd1fd0a4f28419497f9722a3daafe3b4186f6b6457e08d80a381600754951660805216906006541617600655600160a01b600160e01b039060a01b169063ffffffff60e01b161717600755420180421162000278571660018060401b0319600854161760085573430000000000000000000000000000000000000291823b156200027457634e606c4760e01b8152838160048183875af180156200026a5762000255575b5060208391600754166024865180948193631a33757d60e01b8352600260048401525af180156200024b576200021a575b50803b1562000216578180916024855180948193631d70c8d360e31b83523060048401525af180156200020c57620001f1575b82516129229081620003118239608051818181610343015281816109ec015281816115e90152818161174c0152611f570152f35b620001fd8291620002ad565b620002095780620001bd565b80fd5b83513d84823e3d90fd5b5080fd5b602090813d831162000243575b620002338183620002d7565b810103126200021657386200018a565b503d62000227565b84513d85823e3d90fd5b9262000263602094620002ad565b9262000159565b85513d86823e3d90fd5b8380fd5b634e487b7160e01b85526011600452602485fd5b8651631e4fbdf760e01b815260048101879052602490fd5b8580fd5b600080fd5b6001600160401b038111620002c157604052565b634e487b7160e01b600052604160045260246000fd5b601f909101601f19168101906001600160401b03821190821017620002c157604052565b51906001600160a01b0382168203620002a85756fe60406080815260049081361015610020575b5050361561001e57600080fd5b005b600091823560e01c80630599f50f146119d2578063081e3eda146119955780630ad58d2f146118d45780630fb5a6b41461188a5780631526fe271461180b57806317caf6f1146117ce57806318fccc761461160d57806323be76d91461159e57806326991cc81461154b57806328b564a0146114215780632f940c70146112d05780633fc8cef31461127d578063499582c01461124057806351eb05a6146111c757806357a5b58c1461112f578063715018a61461109257806379d12ffb1461102d5780637f37df3b14610df75780638da5cb5b14610da65780638dbdbe6d14610c3557806393f1a40b14610bbd57806397d7577614610b70578063c24a0f8b14610b29578063d1abb907146108e9578063dd49756e1461087a578063e2e5bdb7146105c6578063f2fde38b146104e15763fe4b84df146101615750610011565b346104dd576020807ffffffffffffffffffffffffffffffffffffffffffffffffffffffffffffffffc3601126104d95781359261019c61289b565b73ffffffffffffffffffffffffffffffffffffffff80600754169384875280845260ff838820541661047d57600554946127109586810180911161044f5760055560025495680100000000000000009687811015610423578060016102049201600255611aa4565b81549060031b908685831b921b191617905567ffffffffffffffff9685519061022c82611bb8565b8a8252884216888301528287830152600154908110156103f7579061025a8260016102609401600155611b3e565b906122de565b81895282865284892060017fffffffffffffffffffffffffffffffffffffffffffffffffffffffffffffff00825416179055600254907fffffffffffffffffffffffffffffffffffffffffffffffffffffffffffffffff82019182116103cb579288928695927f4710feb78e3bce8d2e3ca2989a8eb2f8bcd32a6a55b4535942c180fc4d2e295289809761033f9a51908152a384517f23b872dd0000000000000000000000000000000000000000000000000000000081523391810191825230602083015260408201939093529194859283918b918391606090910190565b03927f0000000000000000000000000000000000000000000000000000000000000000165af19081156103c257509161038c93916103919593610394575b505060075460a01c1690611c69565b61286a565b80f35b816103b392903d106103bb575b6103ab8183611bd4565b810190611c51565b50388061037d565b503d6103a1565b513d87823e3d90fd5b60248a6011867f4e487b7100000000000000000000000000000000000000000000000000000000835252fd5b60248b6041877f4e487b7100000000000000000000000000000000000000000000000000000000835252fd5b60248a6041867f4e487b7100000000000000000000000000000000000000000000000000000000835252fd5b6011837f4e487b71000000000000000000000000000000000000000000000000000000006000525260246000fd5b606490848451917f08c379a0000000000000000000000000000000000000000000000000000000008352820152601360248201527f546f6b656e20616c7265616479206164646564000000000000000000000000006044820152fd5b8380fd5b8280fd5b50346104dd5760207ffffffffffffffffffffffffffffffffffffffffffffffffffffffffffffffffc3601126104dd57610519611a2c565b9061052261289b565b73ffffffffffffffffffffffffffffffffffffffff809216928315610597575050600054827fffffffffffffffffffffffff0000000000000000000000000000000000000000821617600055167f8be0079c531659141344cd1fd0a4f28419497f9722a3daafe3b4186f6b6457e0600080a380f35b908460249251917f1e4fbdf7000000000000000000000000000000000000000000000000000000008352820152fd5b5090807ffffffffffffffffffffffffffffffffffffffffffffffffffffffffffffffffc3601126104dd578135906105fc611a09565b90610605612383565b91858052602092600384528287203360005284528260002090610652600183019164e8d4a5100061064b6fffffffffffffffffffffffffffffffff85549351168a61222d565b0490612240565b905561065f858254612259565b905573ffffffffffffffffffffffffffffffffffffffff90868260075416803b1561087657818760248a83895195869485937f2e1a7d4d0000000000000000000000000000000000000000000000000000000085528401525af1801561086c57610854575b50501693815183810167ffffffffffffffff9180821083831117610826578882818094938194895252888a5af1903d15610820573d9081116107f257835190610734867fffffffffffffffffffffffffffffffffffffffffffffffffffffffffffffffe0601f8401160183611bd4565b815287853d92013e5b15610771575051918252839133917f8166bf25f8a2b7ed3c85049207da4358d16edbed977d23fa2ee6f0dde3ec213291a480f35b8260849251917f08c379a0000000000000000000000000000000000000000000000000000000008352820152603460248201527f5472616e7366657248656c7065723a3a736166655472616e736665724554483a60448201527f20455448207472616e73666572206661696c65640000000000000000000000006064820152fd5b6041837f4e487b71000000000000000000000000000000000000000000000000000000006000525260246000fd5b5061073d565b6041847f4e487b71000000000000000000000000000000000000000000000000000000006000525260246000fd5b61085d90611b75565b6108685786386106c4565b8680fd5b85513d84823e3d90fd5b5080fd5b50346104dd5760207ffffffffffffffffffffffffffffffffffffffffffffffffffffffffffffffffc3601126104dd5735916002548310156108e6575073ffffffffffffffffffffffffffffffffffffffff6108d7602093611aa4565b92905490519260031b1c168152f35b80fd5b5090346104dd576108f936611a4f565b9091926109058461261b565b9284875260209260038452828820336000528452826000206109718382548861096a64e8d4a510008061094c6fffffffffffffffffffffffffffffffff809551168661222d565b049061064b6001890194610961865485612240565b9e51168761222d565b9055612259565b90558473ffffffffffffffffffffffffffffffffffffffff9788868b875192838092816109e87fa9059cbb00000000000000000000000000000000000000000000000000000000998a83528b8a84016020909392919373ffffffffffffffffffffffffffffffffffffffff60408201951681520152565b03927f0000000000000000000000000000000000000000000000000000000000000000165af18015610b1f5792879285928795610b02575b508c8c610a2c8d611aa4565b90549060031b1c1692610a6d8a5197889687958694855284016020909392919373ffffffffffffffffffffffffffffffffffffffff60408201951681520152565b03925af18015610af857918798917f71bab65ced2e5750775a0613be067df48ef06cf92a496ebf7663ae0660924954979893610adb575b50845193845216917f8166bf25f8a2b7ed3c85049207da4358d16edbed977d23fa2ee6f0dde3ec2132853392a4519283523392a380f35b610af190873d89116103bb576103ab8183611bd4565b5038610aa4565b84513d8b823e3d90fd5b610b1890853d87116103bb576103ab8183611bd4565b5038610a20565b86513d8d823e3d90fd5b50503461087657817ffffffffffffffffffffffffffffffffffffffffffffffffffffffffffffffffc3601126108765760209067ffffffffffffffff600854169051908152f35b50503461087657817ffffffffffffffffffffffffffffffffffffffffffffffffffffffffffffffffc36011261087657602090517343000000000000000000000000000000000000028152f35b5082346108e657827ffffffffffffffffffffffffffffffffffffffffffffffffffffffffffffffffc3601126108e6578273ffffffffffffffffffffffffffffffffffffffff91610c0c611a09565b933581526003602052209116600052602052806000206001815491015482519182526020820152f35b5090346104dd57610c4536611a4f565b93909192610d40610c558561261b565b9585885284602094859260038452858b209973ffffffffffffffffffffffffffffffffffffffff8092169a8b6000528552610cca600188600020610c9a878254611c15565b8155019164e8d4a51000610cc36fffffffffffffffffffffffffffffffff85549351168861222d565b0490612266565b9055610cd589611aa4565b90549060031b1c16908a86518096819582947f23b872dd00000000000000000000000000000000000000000000000000000000845230903390850160409194939294606082019573ffffffffffffffffffffffffffffffffffffffff80921683521660208201520152565b03925af18015610d9c57907f02d7e648dd130fc184d383e55bb126ac4c9c60e8f94bf05acdf557ba2d540b47939291610d7f575b50519283523392a480f35b610d9590833d85116103bb576103ab8183611bd4565b5038610d74565b82513d89823e3d90fd5b50503461087657817ffffffffffffffffffffffffffffffffffffffffffffffffffffffffffffffffc3601126108765773ffffffffffffffffffffffffffffffffffffffff60209254169051908152f35b50346104dd57817ffffffffffffffffffffffffffffffffffffffffffffffffffffffffffffffffc3601126104dd5780356024610e32611a09565b92610e45610e3f84611b3e565b50612282565b958381526020966003885286822073ffffffffffffffffffffffffffffffffffffffff8097166000528852878760002096610e936fffffffffffffffffffffffffffffffff84511697611aa4565b90549060031b1c168851958680927f70a0823100000000000000000000000000000000000000000000000000000000825230888301525afa938415611023578294610fef575b5067ffffffffffffffff878160085416804211600014610fe6575b828b8501511690818482161180610fdd575b610f35575b8b83610f2e8c600164e8d4a51000610f248f845461222d565b0491015490612240565b9051908152f35b91610f5684610f4c610f609694610f6998966122c4565b166009549061222d565b920151169061222d565b60055490611c69565b9164e8d4a5100092838102938185041490151715610fb1575050610f24610fa6610f2e9594610fa060019564e8d4a5100095611c69565b90611c15565b939438878180610f0b565b9060116024927f4e487b7100000000000000000000000000000000000000000000000000000000835252fd5b50871515610f06565b50814216610ef4565b9093508781813d831161101c575b6110078183611bd4565b8101031261101757519238610ed9565b600080fd5b503d610ffd565b87513d84823e3d90fd5b50346104dd5760207ffffffffffffffffffffffffffffffffffffffffffffffffffffffffffffffffc3601126104dd578160209360ff9273ffffffffffffffffffffffffffffffffffffffff611081611a2c565b168252855220541690519015158152f35b83346108e657807ffffffffffffffffffffffffffffffffffffffffffffffffffffffffffffffffc3601126108e6576110c961289b565b600073ffffffffffffffffffffffffffffffffffffffff81547fffffffffffffffffffffffff000000000000000000000000000000000000000081168355167f8be0079c531659141344cd1fd0a4f28419497f9722a3daafe3b4186f6b6457e08280a380f35b8382346108765760207ffffffffffffffffffffffffffffffffffffffffffffffffffffffffffffffffc36011261087657803567ffffffffffffffff918282116104d957366023830112156104d9578101359182116104dd5760249060053660248560051b840101116111c357845b8481106111a9578580f35b806111bc85600193851b8601013561261b565b500161119e565b8480fd5b5091346108e65760207ffffffffffffffffffffffffffffffffffffffffffffffffffffffffffffffffc3601126108e657506112056060923561261b565b908051916fffffffffffffffffffffffffffffffff81511683528160208201519167ffffffffffffffff809316602086015201511690820152f35b50503461087657817ffffffffffffffffffffffffffffffffffffffffffffffffffffffffffffffffc360112610876576020906009549051908152f35b50503461087657817ffffffffffffffffffffffffffffffffffffffffffffffffffffffffffffffffc3601126108765760209073ffffffffffffffffffffffffffffffffffffffff600754169051908152f35b50346104dd57817ffffffffffffffffffffffffffffffffffffffffffffffffffffffffffffffffc3601126104dd576113b891600184833592611311611a09565b90848352602080966003825282852033600052825282600020908582549783828a955501558461134089611aa4565b979073ffffffffffffffffffffffffffffffffffffffff988991549060031b1c169286519c8d95869485937fa9059cbb00000000000000000000000000000000000000000000000000000000855284016020909392919373ffffffffffffffffffffffffffffffffffffffff60408201951681520152565b03925af1968715611417577f2cac5e20e1541d836381527a43f651851e302817b71dc8e810284e69210c1c6b949596976113fa575b505193845216933392a480f35b61141090883d8a116103bb576103ab8183611bd4565b50386113ed565b81513d8a823e3d90fd5b508290817ffffffffffffffffffffffffffffffffffffffffffffffffffffffffffffffffc3601126108765773ffffffffffffffffffffffffffffffffffffffff60075416803b156104dd5782908451928380927fd0e30db000000000000000000000000000000000000000000000000000000000825234905af1801561154157611532575b50906114b1612383565b8280526003602052818320336000526020526115006001836000206114d7348254611c15565b8155019164e8d4a51000610cc36fffffffffffffffffffffffffffffffff85549351163461222d565b9055513481528133917f02d7e648dd130fc184d383e55bb126ac4c9c60e8f94bf05acdf557ba2d540b4760203392a480f35b61153b90611b75565b826114a7565b83513d84823e3d90fd5b50503461087657817ffffffffffffffffffffffffffffffffffffffffffffffffffffffffffffffffc3601126108765760209073ffffffffffffffffffffffffffffffffffffffff600654169051908152f35b50503461087657817ffffffffffffffffffffffffffffffffffffffffffffffffffffffffffffffffc360112610876576020905173ffffffffffffffffffffffffffffffffffffffff7f0000000000000000000000000000000000000000000000000000000000000000168152f35b5090346104dd57807ffffffffffffffffffffffffffffffffffffffffffffffffffffffffffffffffc3601126104dd57813590611648611a09565b926116528361261b565b91838652602091600383528187203388528352600164e8d4a51000611690848a20966fffffffffffffffffffffffffffffffff88549151169061222d565b0494019361169f855482612240565b9455836116df575b507f71bab65ced2e5750775a0613be067df48ef06cf92a496ebf7663ae0660924954929394506116d5611ca2565b519283523392a380f35b81517fa9059cbb00000000000000000000000000000000000000000000000000000000815273ffffffffffffffffffffffffffffffffffffffff9096169086019081526020810184905282908690819060400103818973ffffffffffffffffffffffffffffffffffffffff7f0000000000000000000000000000000000000000000000000000000000000000165af19485156117c4577f71bab65ced2e5750775a0613be067df48ef06cf92a496ebf7663ae06609249549394956117a7575b859493506116a7565b6117bd90833d85116103bb576103ab8183611bd4565b503861179e565b81513d88823e3d90fd5b50503461087657817ffffffffffffffffffffffffffffffffffffffffffffffffffffffffffffffffc360112610876576020906005549051908152f35b50346104dd5760207ffffffffffffffffffffffffffffffffffffffffffffffffffffffffffffffffc3601126104dd5735916001548310156108e65750611853606092611b3e565b5054908051916fffffffffffffffffffffffffffffffff8116835267ffffffffffffffff8160801c16602084015260c01c90820152f35b50503461087657817ffffffffffffffffffffffffffffffffffffffffffffffffffffffffffffffffc3601126108765760209067ffffffffffffffff60075460a01c169051908152f35b50346104dd5761195491836118e836611a4f565b909291936118f58561261b565b8584528460209788926003845284872033885284528487209061193b600183019164e8d4a5100061064b6fffffffffffffffffffffffffffffffff85549351168861222d565b9055611948838254612259565b90558461134089611aa4565b03925af1968715611417577f8166bf25f8a2b7ed3c85049207da4358d16edbed977d23fa2ee6f0dde3ec2132949596976113fa57505193845216933392a480f35b50503461087657817ffffffffffffffffffffffffffffffffffffffffffffffffffffffffffffffffc360112610876576020906001549051908152f35b83346108e657807ffffffffffffffffffffffffffffffffffffffffffffffffffffffffffffffffc3601126108e657610391611ca2565b6024359073ffffffffffffffffffffffffffffffffffffffff8216820361101757565b6004359073ffffffffffffffffffffffffffffffffffffffff8216820361101757565b7ffffffffffffffffffffffffffffffffffffffffffffffffffffffffffffffffc606091011261101757600435906024359060443573ffffffffffffffffffffffffffffffffffffffff811681036110175790565b600254811015611adb5760026000527f405787fa12a823e0f2b7631cc41b3ba8828b3321ca811111fa75cd3aa3bb5ace0190600090565b7f4e487b7100000000000000000000000000000000000000000000000000000000600052603260045260246000fd5b60015415611adb5760016000527fb10e2d527612073b26eecdfd717e6a320cf44b4afac2b0732d9fcbe2b7fa0cf690600090565b600154811015611adb5760016000527fb10e2d527612073b26eecdfd717e6a320cf44b4afac2b0732d9fcbe2b7fa0cf60190600090565b67ffffffffffffffff8111611b8957604052565b7f4e487b7100000000000000000000000000000000000000000000000000000000600052604160045260246000fd5b6060810190811067ffffffffffffffff821117611b8957604052565b90601f7fffffffffffffffffffffffffffffffffffffffffffffffffffffffffffffffe0910116810190811067ffffffffffffffff821117611b8957604052565b91908201809211611c2257565b7f4e487b7100000000000000000000000000000000000000000000000000000000600052601160045260246000fd5b90816020910312611017575180151581036110175790565b8115611c73570490565b7f4e487b7100000000000000000000000000000000000000000000000000000000600052601260045260246000fd5b60075460009073ffffffffffffffffffffffffffffffffffffffff80911660409283517fe12f3a6100000000000000000000000000000000000000000000000000000000815260049030828201526020938482602481845afa9182156121145784926121fe575b5066038d7ea4c6800082106121f55784875180927faad3ec96000000000000000000000000000000000000000000000000000000008252818781611d7388308b84016020909392919373ffffffffffffffffffffffffffffffffffffffff60408201951681520152565b03925af18015612114579085916121cc575b505085517f954fa5ee00000000000000000000000000000000000000000000000000000000815230838201523060248201528481604481877343000000000000000000000000000000000000025af18015612114579085916121a3575b505084600754164790803b156111c3578490848951809481937fd0e30db00000000000000000000000000000000000000000000000000000000083525af180156121145761218e575b50611e37904790611c15565b938060065416948651957f49faebde0000000000000000000000000000000000000000000000000000000087526dffffffffffffffffffffffffffff82168488015260c860248801528587604481845afa96871561214157859761215f575b50803b156111c357848091858a51809481937ffff6cae90000000000000000000000000000000000000000000000000000000083525af180156121415790859161214b575b5085611f4384600754168560065416948b519485809481937fa9059cbb00000000000000000000000000000000000000000000000000000000998a84528c84016020909392919373ffffffffffffffffffffffffffffffffffffffff60408201951681520152565b03925af1801561214157612124575b5084827f00000000000000000000000000000000000000000000000000000000000000001696836006541690801560001461211e5750670de0b6b3a7640000925b611fca8a51948593849384528884016020909392919373ffffffffffffffffffffffffffffffffffffffff60408201951681520152565b0381878a5af180156121145791859185936120f7575b506006541660248851809481937f6a62784200000000000000000000000000000000000000000000000000000000835230888401525af180156120ed579084916120c4575b509060248651809681937f70a0823100000000000000000000000000000000000000000000000000000000835230908301525afa9384156120ba575092612088575b505061038c6120869167ffffffffffffffff60075460a01c1690611c69565b565b90809250813d83116120b3575b61209f8183611bd4565b81010312611017575161038c612086612067565b503d612095565b51903d90823e3d90fd5b813d83116120e6575b6120d78183611bd4565b81010312611017578238612025565b503d6120cd565b86513d85823e3d90fd5b61210d90833d85116103bb576103ab8183611bd4565b5038611fe0565b87513d86823e3d90fd5b92611f93565b61213a90863d88116103bb576103ab8183611bd4565b5038611f52565b88513d87823e3d90fd5b61215490611b75565b6104d9578338611edb565b9096508581813d8311612187575b6121778183611bd4565b8101031261101757519538611e96565b503d61216d565b9261219c611e379294611b75565b9290611e2b565b813d83116121c5575b6121b68183611bd4565b810103126104dd578338611de2565b503d6121ac565b813d83116121ee575b6121df8183611bd4565b810103126104dd578338611d85565b503d6121d5565b50505050505050565b9091508481813d8311612226575b6122168183611bd4565b810103126104d957519038611d09565b503d61220c565b81810292918115918404141715611c2257565b81810392916000138015828513169184121617611c2257565b91908203918211611c2257565b91909160008382019384129112908015821691151617611c2257565b9060405161228f81611bb8565b60408193546fffffffffffffffffffffffffffffffff8116835267ffffffffffffffff8160801c16602084015260c01c910152565b67ffffffffffffffff9182169082160391908211611c2257565b9190612354578051602082015160409092015160809290921b77ffffffffffffffff00000000000000000000000000000000166fffffffffffffffffffffffffffffffff919091161760c09190911b7fffffffffffffffff00000000000000000000000000000000000000000000000016179055565b7f4e487b7100000000000000000000000000000000000000000000000000000000600052600060045260246000fd5b60409081519061239282611bb8565b60008083528084602094828682015201526123ae610e3f611b0a565b9267ffffffffffffffff94856008541680421160001461261157955b828601818151168289169081116123e7575b505050505050909150565b600254156125e457859697986002602497528573ffffffffffffffffffffffffffffffffffffffff7f405787fa12a823e0f2b7631cc41b3ba8828b3321ca811111fa75cd3aa3bb5ace54168651988980927f70a082310000000000000000000000000000000000000000000000000000000082523060048301525afa9687156125da5788976125a7575b50866124e1575b509181606095937f0fc9545022a542541ad085d091fb09a2ab36fee366a4576ab63714ea907ad353979593526124b08a61025a611b0a565b5116926fffffffffffffffffffffffffffffffff895116928251948552840152820152a281903880808080806123dc565b610f606124f985610f4c6125059482885116906122c4565b85878d0151169061222d565b6fffffffffffffffffffffffffffffffff90818b51169064e8d4a510009081810291818304149015171561257a579161256b606098969492610fa08b7f0fc9545022a542541ad085d091fb09a2ab36fee366a4576ab63714ea907ad3539c9a9896611c69565b168b5291939550919395612478565b60248a7f4e487b710000000000000000000000000000000000000000000000000000000081526011600452fd5b9096508581813d83116125d3575b6125bf8183611bd4565b810103126125cf57519538612471565b8780fd5b503d6125b5565b85513d8a823e3d90fd5b6024867f4e487b710000000000000000000000000000000000000000000000000000000081526032600452fd5b50854216956123ca565b90604091825161262a81611bb8565b600090818152818560209282848201520152612648610e3f84611b3e565b9467ffffffffffffffff806008541680421160001461286057935b838801908282511690838716918211612681575b5050505050505050565b73ffffffffffffffffffffffffffffffffffffffff968660246126a38b611aa4565b9190549189519b8c9384927f70a0823100000000000000000000000000000000000000000000000000000000845230600485015260031b1c165afa97881561285657908b918399612823575b5088612762575b5050509181606095937f0fc9545022a542541ad085d091fb09a2ab36fee366a4576ab63714ea907ad353979593526127318a61025a8a611b3e565b5116926fffffffffffffffffffffffffffffffff895116928251948552840152820152a23880808080808080612677565b61277d918688610f5682610f4c610f6096828c5116906122c4565b906fffffffffffffffffffffffffffffffff91828c51169164e8d4a51000918281029281840414901517156127f65750916127e5606098969492610fa08b7f0fc9545022a542541ad085d091fb09a2ab36fee366a4576ab63714ea907ad3539c9a9896611c69565b168b529193955091939589386126f6565b807f4e487b7100000000000000000000000000000000000000000000000000000000602492526011600452fd5b8880929a508193503d831161284f575b61283d8183611bd4565b81010312610876578a905197386126ef565b503d612833565b86513d84823e3d90fd5b5080421693612663565b60207fce627de7a3c0ab1e1b091d6a60d128ea2327f929866814370c4be8e19d5def359180600955604051908152a1565b73ffffffffffffffffffffffffffffffffffffffff6000541633036128bc57565b60246040517f118cdaa7000000000000000000000000000000000000000000000000000000008152336004820152fdfea26469706673582212204f82bbd51f4588e89a2ee41a0ade9052b21bf332d66f8f7fe8bf14e293f5608564736f6c63430008170033",
  "linkReferences": {},
  "deployedLinkReferences": {}
}