{
  "_format": "hh-sol-artifact-1",
  "contractName": "MineblastVault",
  "sourceName": "src/MineblastVault.sol",
  "abi": [
    {
      "inputs": [
        {
          "internalType": "address",
          "name": "_outputToken",
          "type": "address"
        },
        {
          "internalType": "address",
          "name": "_swapPair",
          "type": "address"
        },
        {
          "internalType": "uint64",
          "name": "_duration",
          "type": "uint64"
        }
      ],
      "stateMutability": "nonpayable",
      "type": "constructor"
    },
    {
      "inputs": [
        {
          "internalType": "address",
          "name": "owner",
          "type": "address"
        }
      ],
      "name": "OwnableInvalidOwner",
      "type": "error"
    },
    {
      "inputs": [
        {
          "internalType": "address",
          "name": "account",
          "type": "address"
        }
      ],
      "name": "OwnableUnauthorizedAccount",
      "type": "error"
    },
    {
      "anonymous": false,
      "inputs": [
        {
          "indexed": true,
          "internalType": "address",
          "name": "user",
          "type": "address"
        },
        {
          "indexed": true,
          "internalType": "uint256",
          "name": "pid",
          "type": "uint256"
        },
        {
          "indexed": false,
          "internalType": "uint256",
          "name": "amount",
          "type": "uint256"
        },
        {
          "indexed": true,
          "internalType": "address",
          "name": "to",
          "type": "address"
        }
      ],
      "name": "Deposit",
      "type": "event"
    },
    {
      "anonymous": false,
      "inputs": [
        {
          "indexed": true,
          "internalType": "address",
          "name": "user",
          "type": "address"
        },
        {
          "indexed": true,
          "internalType": "uint256",
          "name": "pid",
          "type": "uint256"
        },
        {
          "indexed": false,
          "internalType": "uint256",
          "name": "amount",
          "type": "uint256"
        },
        {
          "indexed": true,
          "internalType": "address",
          "name": "to",
          "type": "address"
        }
      ],
      "name": "EmergencyWithdraw",
      "type": "event"
    },
    {
      "anonymous": false,
      "inputs": [
        {
          "indexed": true,
          "internalType": "address",
          "name": "user",
          "type": "address"
        },
        {
          "indexed": true,
          "internalType": "uint256",
          "name": "pid",
          "type": "uint256"
        },
        {
          "indexed": false,
          "internalType": "uint256",
          "name": "amount",
          "type": "uint256"
        }
      ],
      "name": "Harvest",
      "type": "event"
    },
    {
      "anonymous": false,
      "inputs": [
        {
          "indexed": false,
          "internalType": "uint256",
          "name": "outputPerSecond",
          "type": "uint256"
        }
      ],
      "name": "LogOutputPerSecond",
      "type": "event"
    },
    {
      "anonymous": false,
      "inputs": [
        {
          "indexed": true,
          "internalType": "uint256",
          "name": "pid",
          "type": "uint256"
        },
        {
          "indexed": false,
          "internalType": "uint256",
          "name": "allocPoint",
          "type": "uint256"
        },
        {
          "indexed": true,
          "internalType": "contract IERC20",
          "name": "lpToken",
          "type": "address"
        }
      ],
      "name": "LogPoolAddition",
      "type": "event"
    },
    {
      "anonymous": false,
      "inputs": [
        {
          "indexed": true,
          "internalType": "uint256",
          "name": "pid",
          "type": "uint256"
        },
        {
          "indexed": false,
          "internalType": "uint256",
          "name": "allocPoint",
          "type": "uint256"
        }
      ],
      "name": "LogSetPool",
      "type": "event"
    },
    {
      "anonymous": false,
      "inputs": [
        {
          "indexed": true,
          "internalType": "uint256",
          "name": "pid",
          "type": "uint256"
        },
        {
          "indexed": false,
          "internalType": "uint64",
          "name": "lastRewardTime",
          "type": "uint64"
        },
        {
          "indexed": false,
          "internalType": "uint256",
          "name": "lpSupply",
          "type": "uint256"
        },
        {
          "indexed": false,
          "internalType": "uint256",
          "name": "accPerShare",
          "type": "uint256"
        }
      ],
      "name": "LogUpdatePool",
      "type": "event"
    },
    {
      "anonymous": false,
      "inputs": [
        {
          "indexed": true,
          "internalType": "address",
          "name": "previousOwner",
          "type": "address"
        },
        {
          "indexed": true,
          "internalType": "address",
          "name": "newOwner",
          "type": "address"
        }
      ],
      "name": "OwnershipTransferred",
      "type": "event"
    },
    {
      "anonymous": false,
      "inputs": [
        {
          "indexed": true,
          "internalType": "address",
          "name": "user",
          "type": "address"
        },
        {
          "indexed": true,
          "internalType": "uint256",
          "name": "pid",
          "type": "uint256"
        },
        {
          "indexed": false,
          "internalType": "uint256",
          "name": "amount",
          "type": "uint256"
        },
        {
          "indexed": true,
          "internalType": "address",
          "name": "to",
          "type": "address"
        }
      ],
      "name": "Withdraw",
      "type": "event"
    },
    {
      "inputs": [],
      "name": "BLAST",
      "outputs": [
        {
          "internalType": "contract IBlast",
          "name": "",
          "type": "address"
        }
      ],
      "stateMutability": "view",
      "type": "function"
    },
    {
      "inputs": [],
      "name": "OUTPUT_TOKEN",
      "outputs": [
        {
          "internalType": "contract IERC20",
          "name": "",
          "type": "address"
        }
      ],
      "stateMutability": "view",
      "type": "function"
    },
    {
      "inputs": [
        {
          "internalType": "address",
          "name": "",
          "type": "address"
        }
      ],
      "name": "addedTokens",
      "outputs": [
        {
          "internalType": "bool",
          "name": "",
          "type": "bool"
        }
      ],
      "stateMutability": "view",
      "type": "function"
    },
    {
      "inputs": [
        {
          "internalType": "uint256",
          "name": "pid",
          "type": "uint256"
        },
        {
          "internalType": "uint256",
          "name": "amount",
          "type": "uint256"
        },
        {
          "internalType": "address",
          "name": "to",
          "type": "address"
        }
      ],
      "name": "deposit",
      "outputs": [],
      "stateMutability": "nonpayable",
      "type": "function"
    },
    {
      "inputs": [
        {
          "internalType": "uint256",
          "name": "",
          "type": "uint256"
        }
      ],
      "name": "depositTokens",
      "outputs": [
        {
          "internalType": "contract IERC20",
          "name": "",
          "type": "address"
        }
      ],
      "stateMutability": "view",
      "type": "function"
    },
    {
      "inputs": [],
      "name": "duration",
      "outputs": [
        {
          "internalType": "uint64",
          "name": "",
          "type": "uint64"
        }
      ],
      "stateMutability": "view",
      "type": "function"
    },
    {
      "inputs": [
        {
          "internalType": "uint256",
          "name": "pid",
          "type": "uint256"
        },
        {
          "internalType": "address",
          "name": "to",
          "type": "address"
        }
      ],
      "name": "emergencyWithdraw",
      "outputs": [],
      "stateMutability": "nonpayable",
      "type": "function"
    },
    {
      "inputs": [],
      "name": "endDate",
      "outputs": [
        {
          "internalType": "uint64",
          "name": "",
          "type": "uint64"
        }
      ],
      "stateMutability": "view",
      "type": "function"
    },
    {
      "inputs": [
        {
          "internalType": "uint256",
          "name": "_pid",
          "type": "uint256"
        },
        {
          "internalType": "address",
          "name": "_user",
          "type": "address"
        }
      ],
      "name": "getPending",
      "outputs": [
        {
          "internalType": "uint256",
          "name": "pending",
          "type": "uint256"
        }
      ],
      "stateMutability": "view",
      "type": "function"
    },
    {
      "inputs": [
        {
          "internalType": "uint256",
          "name": "pid",
          "type": "uint256"
        },
        {
          "internalType": "address",
          "name": "to",
          "type": "address"
        }
      ],
      "name": "harvest",
      "outputs": [],
      "stateMutability": "nonpayable",
      "type": "function"
    },
    {
      "inputs": [
        {
          "internalType": "uint256",
          "name": "supply",
          "type": "uint256"
        }
      ],
      "name": "initialize",
      "outputs": [],
      "stateMutability": "nonpayable",
      "type": "function"
    },
    {
      "inputs": [
        {
          "internalType": "uint256[]",
          "name": "pids",
          "type": "uint256[]"
        }
      ],
      "name": "massUpdatePools",
      "outputs": [],
      "stateMutability": "nonpayable",
      "type": "function"
    },
    {
      "inputs": [],
      "name": "outputPerSecond",
      "outputs": [
        {
          "internalType": "uint256",
          "name": "",
          "type": "uint256"
        }
      ],
      "stateMutability": "view",
      "type": "function"
    },
    {
      "inputs": [],
      "name": "owner",
      "outputs": [
        {
          "internalType": "address",
          "name": "",
          "type": "address"
        }
      ],
      "stateMutability": "view",
      "type": "function"
    },
    {
      "inputs": [
        {
          "internalType": "uint256",
          "name": "",
          "type": "uint256"
        }
      ],
      "name": "poolInfo",
      "outputs": [
        {
          "internalType": "uint128",
          "name": "accPerShare",
          "type": "uint128"
        },
        {
          "internalType": "uint64",
          "name": "lastRewardTime",
          "type": "uint64"
        },
        {
          "internalType": "uint64",
          "name": "allocPoint",
          "type": "uint64"
        }
      ],
      "stateMutability": "view",
      "type": "function"
    },
    {
      "inputs": [],
      "name": "poolLength",
      "outputs": [
        {
          "internalType": "uint256",
          "name": "pools",
          "type": "uint256"
        }
      ],
      "stateMutability": "view",
      "type": "function"
    },
    {
      "inputs": [],
      "name": "renounceOwnership",
      "outputs": [],
      "stateMutability": "nonpayable",
      "type": "function"
    },
    {
      "inputs": [],
      "name": "swapPair",
      "outputs": [
        {
          "internalType": "contract MineblastSwapPair",
          "name": "",
          "type": "address"
        }
      ],
      "stateMutability": "view",
      "type": "function"
    },
    {
      "inputs": [],
      "name": "totalAllocPoint",
      "outputs": [
        {
          "internalType": "uint256",
          "name": "",
          "type": "uint256"
        }
      ],
      "stateMutability": "view",
      "type": "function"
    },
    {
      "inputs": [
        {
          "internalType": "address",
          "name": "newOwner",
          "type": "address"
        }
      ],
      "name": "transferOwnership",
      "outputs": [],
      "stateMutability": "nonpayable",
      "type": "function"
    },
    {
      "inputs": [
        {
          "internalType": "uint256",
          "name": "pid",
          "type": "uint256"
        }
      ],
      "name": "updatePool",
      "outputs": [
        {
          "components": [
            {
              "internalType": "uint128",
              "name": "accPerShare",
              "type": "uint128"
            },
            {
              "internalType": "uint64",
              "name": "lastRewardTime",
              "type": "uint64"
            },
            {
              "internalType": "uint64",
              "name": "allocPoint",
              "type": "uint64"
            }
          ],
          "internalType": "struct MineblastVault.PoolInfo",
          "name": "pool",
          "type": "tuple"
        }
      ],
      "stateMutability": "nonpayable",
      "type": "function"
    },
    {
      "inputs": [
        {
          "internalType": "uint256",
          "name": "",
          "type": "uint256"
        },
        {
          "internalType": "address",
          "name": "",
          "type": "address"
        }
      ],
      "name": "userInfo",
      "outputs": [
        {
          "internalType": "uint256",
          "name": "amount",
          "type": "uint256"
        },
        {
          "internalType": "int256",
          "name": "rewardDebt",
          "type": "int256"
        }
      ],
      "stateMutability": "view",
      "type": "function"
    },
    {
      "inputs": [],
      "name": "weth",
      "outputs": [
        {
          "internalType": "contract WETH",
          "name": "",
          "type": "address"
        }
      ],
      "stateMutability": "view",
      "type": "function"
    },
    {
      "inputs": [
        {
          "internalType": "uint256",
          "name": "pid",
          "type": "uint256"
        },
        {
          "internalType": "uint256",
          "name": "amount",
          "type": "uint256"
        },
        {
          "internalType": "address",
          "name": "to",
          "type": "address"
        }
      ],
      "name": "withdraw",
      "outputs": [],
      "stateMutability": "nonpayable",
      "type": "function"
    },
    {
      "inputs": [
        {
          "internalType": "uint256",
          "name": "pid",
          "type": "uint256"
        },
        {
          "internalType": "uint256",
          "name": "amount",
          "type": "uint256"
        },
        {
          "internalType": "address",
          "name": "to",
          "type": "address"
        }
      ],
      "name": "withdrawAndHarvest",
      "outputs": [],
      "stateMutability": "nonpayable",
      "type": "function"
    },
    {
      "inputs": [],
      "name": "yieldToLiquidity",
      "outputs": [],
      "stateMutability": "nonpayable",
      "type": "function"
    }
  ],
  "bytecode": "0x60a060409080825234620002a857600090606081620025548038038091620000288285620002d7565b83398101031262000216576200003e81620002fb565b90836200004e60208301620002fb565b910151916001600160401b039081841690818503620002a45733156200028c578554336001600160a01b0319808316821789558951976001600160a01b039773420000000000000000000000000000000000002395949193899283167f8be0079c531659141344cd1fd0a4f28419497f9722a3daafe3b4186f6b6457e08d80a381600754951660805216906006541617600655600160a01b600160e01b039060a01b169063ffffffff60e01b161717600755420180421162000278571660018060401b0319600854161760085573430000000000000000000000000000000000000291823b156200027457634e606c4760e01b8152838160048183875af180156200026a5762000255575b5060208391600754166024865180948193631a33757d60e01b8352600260048401525af180156200024b576200021a575b50803b1562000216578180916024855180948193631d70c8d360e31b83523060048401525af180156200020c57620001f1575b8251612243908162000311823960805181818161032101528181610716015281816111ed015281816113500152611b2c0152f35b620001fd8291620002ad565b620002095780620001bd565b80fd5b83513d84823e3d90fd5b5080fd5b602090813d831162000243575b620002338183620002d7565b810103126200021657386200018a565b503d62000227565b84513d85823e3d90fd5b9262000263602094620002ad565b9262000159565b85513d86823e3d90fd5b8380fd5b634e487b7160e01b85526011600452602485fd5b8651631e4fbdf760e01b815260048101879052602490fd5b8580fd5b600080fd5b6001600160401b038111620002c157604052565b634e487b7160e01b600052604160045260246000fd5b601f909101601f19168101906001600160401b03821190821017620002c157604052565b51906001600160a01b0382168203620002a85756fe6040608081526004908136101561001557600080fd5b600091823560e01c80630599f50f146115d6578063081e3eda146115995780630ad58d2f146114d85780630fb5a6b41461148e5780631526fe271461140f57806317caf6f1146113d257806318fccc761461121157806323be76d9146111a257806326991cc81461114f5780632f940c70146110005780633fc8cef314610fad578063499582c014610f7057806351eb05a614610ef757806357a5b58c14610e5f578063715018a614610dc357806379d12ffb14610d5e5780637f37df3b14610b2f5780638da5cb5b14610ade5780638dbdbe6d1461096157806393f1a40b146108eb57806397d757761461089e578063c24a0f8b14610853578063d1abb9071461060e578063dd49756e1461059f578063f2fde38b146104bd5763fe4b84df1461013f57600080fd5b346104b9576020807ffffffffffffffffffffffffffffffffffffffffffffffffffffffffffffffffc3601126104b55781359261017a6121bc565b73ffffffffffffffffffffffffffffffffffffffff80600754169384875280845260ff838820541661045957600554946127109586810180911161042d5760055560025495680100000000000000009687811015610401578060016101e292016002556116ad565b81549060031b908685831b921b191617905567ffffffffffffffff9685519061020a8261174a565b8a8252884216888301528287830152600154908110156103d5579061023882600161023e9401600155611713565b90611e97565b81895282865284892060017fffffffffffffffffffffffffffffffffffffffffffffffffffffffffffffff00825416179055600254907fffffffffffffffffffffffffffffffffffffffffffffffffffffffffffffffff82019182116103a9579288928695927f4710feb78e3bce8d2e3ca2989a8eb2f8bcd32a6a55b4535942c180fc4d2e295289809761031d9a51908152a384517f23b872dd0000000000000000000000000000000000000000000000000000000081523391810191825230602083015260408201939093529194859283918b918391606090910190565b03927f0000000000000000000000000000000000000000000000000000000000000000165af19081156103a057509161036a939161036f9593610372575b505060075460a01c169061183e565b61218b565b80f35b8161039192903d10610399575b61038981836117a9565b810190611826565b50388061035b565b503d61037f565b513d87823e3d90fd5b60248a6011867f4e487b7100000000000000000000000000000000000000000000000000000000835252fd5b60248b6041877f4e487b7100000000000000000000000000000000000000000000000000000000835252fd5b60248a6041867f4e487b7100000000000000000000000000000000000000000000000000000000835252fd5b6024896011857f4e487b7100000000000000000000000000000000000000000000000000000000835252fd5b606490848451917f08c379a0000000000000000000000000000000000000000000000000000000008352820152601360248201527f546f6b656e20616c7265616479206164646564000000000000000000000000006044820152fd5b8380fd5b8280fd5b50346104b95760207ffffffffffffffffffffffffffffffffffffffffffffffffffffffffffffffffc3601126104b9576104f5611635565b906104fe6121bc565b73ffffffffffffffffffffffffffffffffffffffff8092169283156105705750508254827fffffffffffffffffffffffff00000000000000000000000000000000000000008216178455167f8be0079c531659141344cd1fd0a4f28419497f9722a3daafe3b4186f6b6457e08380a380f35b908460249251917f1e4fbdf7000000000000000000000000000000000000000000000000000000008352820152fd5b50346104b95760207ffffffffffffffffffffffffffffffffffffffffffffffffffffffffffffffffc3601126104b957359160025483101561060b575073ffffffffffffffffffffffffffffffffffffffff6105fc6020936116ad565b92905490519260031b1c168152f35b80fd5b5090346104b95761061e36611658565b90919261062a84611f3c565b9284875260209260038452828820338952845282882061069b8382548861069464e8d4a510008061066f6fffffffffffffffffffffffffffffffff8095511686611e02565b049061068d6001890194610684865485611e15565b9e511687611e02565b0490611e15565b9055611e2e565b90558473ffffffffffffffffffffffffffffffffffffffff9788868b875192838092816107127fa9059cbb00000000000000000000000000000000000000000000000000000000998a83528b8a84016020909392919373ffffffffffffffffffffffffffffffffffffffff60408201951681520152565b03927f0000000000000000000000000000000000000000000000000000000000000000165af18015610849579287928592879561082c575b508c8c6107568d6116ad565b90549060031b1c16926107978a5197889687958694855284016020909392919373ffffffffffffffffffffffffffffffffffffffff60408201951681520152565b03925af1801561082257918798917f71bab65ced2e5750775a0613be067df48ef06cf92a496ebf7663ae0660924954979893610805575b50845193845216917f8166bf25f8a2b7ed3c85049207da4358d16edbed977d23fa2ee6f0dde3ec2132853392a4519283523392a380f35b61081b90873d89116103995761038981836117a9565b50386107ce565b84513d8b823e3d90fd5b61084290853d87116103995761038981836117a9565b503861074a565b86513d8d823e3d90fd5b50503461089a57817ffffffffffffffffffffffffffffffffffffffffffffffffffffffffffffffffc36011261089a5760209067ffffffffffffffff600854169051908152f35b5080fd5b50503461089a57817ffffffffffffffffffffffffffffffffffffffffffffffffffffffffffffffffc36011261089a57602090517343000000000000000000000000000000000000028152f35b50346104b957817ffffffffffffffffffffffffffffffffffffffffffffffffffffffffffffffffc3601126104b95791819261092561160d565b90358252600360205273ffffffffffffffffffffffffffffffffffffffff83832091168252602052206001815491015482519182526020820152f35b5090346104b95761097136611658565b90919261097d84611f3c565b94848752602092600384528288209673ffffffffffffffffffffffffffffffffffffffff80921697888a5285526001848a206109ba8882546117ea565b81550164e8d4a510006109e26fffffffffffffffffffffffffffffffff835494511689611e02565b04918a83820193841291129080158216911516176103a9579285928792610a789555610a0d896116ad565b90549060031b1c16908a86518096819582947f23b872dd00000000000000000000000000000000000000000000000000000000845230903390850160409194939294606082019573ffffffffffffffffffffffffffffffffffffffff80921683521660208201520152565b03925af18015610ad457907f02d7e648dd130fc184d383e55bb126ac4c9c60e8f94bf05acdf557ba2d540b47939291610ab7575b50519283523392a480f35b610acd90833d85116103995761038981836117a9565b5038610aac565b82513d89823e3d90fd5b50503461089a57817ffffffffffffffffffffffffffffffffffffffffffffffffffffffffffffffffc36011261089a5773ffffffffffffffffffffffffffffffffffffffff60209254169051908152f35b50346104b957817ffffffffffffffffffffffffffffffffffffffffffffffffffffffffffffffffc3601126104b95780356024610b6a61160d565b92610b7d610b7784611713565b50611e3b565b958381526020966003885286822073ffffffffffffffffffffffffffffffffffffffff809716835288528787832096610bc96fffffffffffffffffffffffffffffffff845116976116ad565b90549060031b1c168851958680927f70a0823100000000000000000000000000000000000000000000000000000000825230888301525afa938415610d54578294610d25575b5067ffffffffffffffff878160085416804211600014610d1c575b828b8501511690818482161180610d13575b610c6b575b8b83610c648c600164e8d4a51000610c5a8f8454611e02565b0491015490611e15565b9051908152f35b91610c8c84610c82610c969694610c9f9896611e7d565b1660095490611e02565b9201511690611e02565b6005549061183e565b9164e8d4a5100092838102938185041490151715610ce7575050610c5a610cdc610c649594610cd660019564e8d4a510009561183e565b906117ea565b939438878180610c41565b9060116024927f4e487b7100000000000000000000000000000000000000000000000000000000835252fd5b50871515610c3c565b50814216610c2a565b9093508781813d8311610d4d575b610d3d81836117a9565b8101031261089a57519238610c0f565b503d610d33565b87513d84823e3d90fd5b50346104b95760207ffffffffffffffffffffffffffffffffffffffffffffffffffffffffffffffffc3601126104b9578160209360ff9273ffffffffffffffffffffffffffffffffffffffff610db2611635565b168252855220541690519015158152f35b833461060b57807ffffffffffffffffffffffffffffffffffffffffffffffffffffffffffffffffc36011261060b57610dfa6121bc565b8073ffffffffffffffffffffffffffffffffffffffff81547fffffffffffffffffffffffff000000000000000000000000000000000000000081168355167f8be0079c531659141344cd1fd0a4f28419497f9722a3daafe3b4186f6b6457e08280a380f35b83823461089a5760207ffffffffffffffffffffffffffffffffffffffffffffffffffffffffffffffffc36011261089a57803567ffffffffffffffff918282116104b557366023830112156104b5578101359182116104b95760249060053660248560051b84010111610ef357845b848110610ed9578580f35b80610eec85600193851b86010135611f3c565b5001610ece565b8480fd5b50913461060b5760207ffffffffffffffffffffffffffffffffffffffffffffffffffffffffffffffffc36011261060b5750610f3560609235611f3c565b908051916fffffffffffffffffffffffffffffffff81511683528160208201519167ffffffffffffffff809316602086015201511690820152f35b50503461089a57817ffffffffffffffffffffffffffffffffffffffffffffffffffffffffffffffffc36011261089a576020906009549051908152f35b50503461089a57817ffffffffffffffffffffffffffffffffffffffffffffffffffffffffffffffffc36011261089a5760209073ffffffffffffffffffffffffffffffffffffffff600754169051908152f35b50346104b957817ffffffffffffffffffffffffffffffffffffffffffffffffffffffffffffffffc3601126104b9576110e69160018483359261104161160d565b9084835260208096600382528285203386528252828520908582549783828a955501558461106e896116ad565b979073ffffffffffffffffffffffffffffffffffffffff988991549060031b1c169286519c8d95869485937fa9059cbb00000000000000000000000000000000000000000000000000000000855284016020909392919373ffffffffffffffffffffffffffffffffffffffff60408201951681520152565b03925af1968715611145577f2cac5e20e1541d836381527a43f651851e302817b71dc8e810284e69210c1c6b94959697611128575b505193845216933392a480f35b61113e90883d8a116103995761038981836117a9565b503861111b565b81513d8a823e3d90fd5b50503461089a57817ffffffffffffffffffffffffffffffffffffffffffffffffffffffffffffffffc36011261089a5760209073ffffffffffffffffffffffffffffffffffffffff600654169051908152f35b50503461089a57817ffffffffffffffffffffffffffffffffffffffffffffffffffffffffffffffffc36011261089a576020905173ffffffffffffffffffffffffffffffffffffffff7f0000000000000000000000000000000000000000000000000000000000000000168152f35b5090346104b957807ffffffffffffffffffffffffffffffffffffffffffffffffffffffffffffffffc3601126104b95781359061124c61160d565b9261125683611f3c565b91838652602091600383528187203388528352600164e8d4a51000611294848a20966fffffffffffffffffffffffffffffffff885491511690611e02565b049401936112a3855482611e15565b9455836112e3575b507f71bab65ced2e5750775a0613be067df48ef06cf92a496ebf7663ae0660924954929394506112d9611877565b519283523392a380f35b81517fa9059cbb00000000000000000000000000000000000000000000000000000000815273ffffffffffffffffffffffffffffffffffffffff9096169086019081526020810184905282908690819060400103818973ffffffffffffffffffffffffffffffffffffffff7f0000000000000000000000000000000000000000000000000000000000000000165af19485156113c8577f71bab65ced2e5750775a0613be067df48ef06cf92a496ebf7663ae06609249549394956113ab575b859493506112ab565b6113c190833d85116103995761038981836117a9565b50386113a2565b81513d88823e3d90fd5b50503461089a57817ffffffffffffffffffffffffffffffffffffffffffffffffffffffffffffffffc36011261089a576020906005549051908152f35b50346104b95760207ffffffffffffffffffffffffffffffffffffffffffffffffffffffffffffffffc3601126104b957359160015483101561060b5750611457606092611713565b5054908051916fffffffffffffffffffffffffffffffff8116835267ffffffffffffffff8160801c16602084015260c01c90820152f35b50503461089a57817ffffffffffffffffffffffffffffffffffffffffffffffffffffffffffffffffc36011261089a5760209067ffffffffffffffff60075460a01c169051908152f35b50346104b95761155891836114ec36611658565b909291936114f985611f3c565b8584528460209788926003845284872033885284528487209061153f600183019164e8d4a5100061068d6fffffffffffffffffffffffffffffffff855493511688611e02565b905561154c838254611e2e565b90558461106e896116ad565b03925af1968715611145577f8166bf25f8a2b7ed3c85049207da4358d16edbed977d23fa2ee6f0dde3ec21329495969761112857505193845216933392a480f35b50503461089a57817ffffffffffffffffffffffffffffffffffffffffffffffffffffffffffffffffc36011261089a576020906001549051908152f35b833461060b57807ffffffffffffffffffffffffffffffffffffffffffffffffffffffffffffffffc36011261060b5761036f611877565b6024359073ffffffffffffffffffffffffffffffffffffffff8216820361163057565b600080fd5b6004359073ffffffffffffffffffffffffffffffffffffffff8216820361163057565b7ffffffffffffffffffffffffffffffffffffffffffffffffffffffffffffffffc606091011261163057600435906024359060443573ffffffffffffffffffffffffffffffffffffffff811681036116305790565b6002548110156116e45760026000527f405787fa12a823e0f2b7631cc41b3ba8828b3321ca811111fa75cd3aa3bb5ace0190600090565b7f4e487b7100000000000000000000000000000000000000000000000000000000600052603260045260246000fd5b6001548110156116e45760016000527fb10e2d527612073b26eecdfd717e6a320cf44b4afac2b0732d9fcbe2b7fa0cf60190600090565b6060810190811067ffffffffffffffff82111761176657604052565b7f4e487b7100000000000000000000000000000000000000000000000000000000600052604160045260246000fd5b67ffffffffffffffff811161176657604052565b90601f7fffffffffffffffffffffffffffffffffffffffffffffffffffffffffffffffe0910116810190811067ffffffffffffffff82111761176657604052565b919082018092116117f757565b7f4e487b7100000000000000000000000000000000000000000000000000000000600052601160045260246000fd5b90816020910312611630575180151581036116305790565b8115611848570490565b7f4e487b7100000000000000000000000000000000000000000000000000000000600052601260045260246000fd5b60075460009073ffffffffffffffffffffffffffffffffffffffff80911660409283517fe12f3a6100000000000000000000000000000000000000000000000000000000815260049030828201526020938482602481845afa918215611ce9578492611dd3575b5066038d7ea4c680008210611dca5784875180927faad3ec9600000000000000000000000000000000000000000000000000000000825281878161194888308b84016020909392919373ffffffffffffffffffffffffffffffffffffffff60408201951681520152565b03925af18015611ce957908591611da1575b505085517f954fa5ee00000000000000000000000000000000000000000000000000000000815230838201523060248201528481604481877343000000000000000000000000000000000000025af18015611ce957908591611d78575b505084600754164790803b15610ef3578490848951809481937fd0e30db00000000000000000000000000000000000000000000000000000000083525af18015611ce957611d63575b50611a0c9047906117ea565b938060065416948651957f49faebde0000000000000000000000000000000000000000000000000000000087526dffffffffffffffffffffffffffff82168488015260c860248801528587604481845afa968715611d16578597611d34575b50803b15610ef357848091858a51809481937ffff6cae90000000000000000000000000000000000000000000000000000000083525af18015611d1657908591611d20575b5085611b1884600754168560065416948b519485809481937fa9059cbb00000000000000000000000000000000000000000000000000000000998a84528c84016020909392919373ffffffffffffffffffffffffffffffffffffffff60408201951681520152565b03925af18015611d1657611cf9575b5084827f000000000000000000000000000000000000000000000000000000000000000016968360065416908015600014611cf35750670de0b6b3a7640000925b611b9f8a51948593849384528884016020909392919373ffffffffffffffffffffffffffffffffffffffff60408201951681520152565b0381878a5af18015611ce9579185918593611ccc575b506006541660248851809481937f6a62784200000000000000000000000000000000000000000000000000000000835230888401525af18015611cc257908491611c99575b509060248651809681937f70a0823100000000000000000000000000000000000000000000000000000000835230908301525afa938415611c8f575092611c5d575b505061036a611c5b9167ffffffffffffffff60075460a01c169061183e565b565b90809250813d8311611c88575b611c7481836117a9565b81010312611630575161036a611c5b611c3c565b503d611c6a565b51903d90823e3d90fd5b813d8311611cbb575b611cac81836117a9565b81010312611630578238611bfa565b503d611ca2565b86513d85823e3d90fd5b611ce290833d85116103995761038981836117a9565b5038611bb5565b87513d86823e3d90fd5b92611b68565b611d0f90863d88116103995761038981836117a9565b5038611b27565b88513d87823e3d90fd5b611d2990611795565b6104b5578338611ab0565b9096508581813d8311611d5c575b611d4c81836117a9565b8101031261163057519538611a6b565b503d611d42565b92611d71611a0c9294611795565b9290611a00565b813d8311611d9a575b611d8b81836117a9565b810103126104b95783386119b7565b503d611d81565b813d8311611dc3575b611db481836117a9565b810103126104b957833861195a565b503d611daa565b50505050505050565b9091508481813d8311611dfb575b611deb81836117a9565b810103126104b5575190386118de565b503d611de1565b818102929181159184041417156117f757565b818103929160001380158285131691841216176117f757565b919082039182116117f757565b90604051611e488161174a565b60408193546fffffffffffffffffffffffffffffffff8116835267ffffffffffffffff8160801c16602084015260c01c910152565b67ffffffffffffffff91821690821603919082116117f757565b9190611f0d578051602082015160409092015160809290921b77ffffffffffffffff00000000000000000000000000000000166fffffffffffffffffffffffffffffffff919091161760c09190911b7fffffffffffffffff00000000000000000000000000000000000000000000000016179055565b7f4e487b7100000000000000000000000000000000000000000000000000000000600052600060045260246000fd5b906040918251611f4b8161174a565b600090818152818560209282848201520152611f69610b7784611713565b9467ffffffffffffffff806008541680421160001461218157935b838801908282511690838716918211611fa2575b5050505050505050565b73ffffffffffffffffffffffffffffffffffffffff96866024611fc48b6116ad565b9190549189519b8c9384927f70a0823100000000000000000000000000000000000000000000000000000000845230600485015260031b1c165afa97881561217757908b918399612144575b5088612083575b5050509181606095937f0fc9545022a542541ad085d091fb09a2ab36fee366a4576ab63714ea907ad353979593526120528a6102388a611713565b5116926fffffffffffffffffffffffffffffffff895116928251948552840152820152a23880808080808080611f98565b61209e918688610c8c82610c82610c9696828c511690611e7d565b906fffffffffffffffffffffffffffffffff91828c51169164e8d4a5100091828102928184041490151715612117575091612106606098969492610cd68b7f0fc9545022a542541ad085d091fb09a2ab36fee366a4576ab63714ea907ad3539c9a989661183e565b168b52919395509193958938612017565b807f4e487b7100000000000000000000000000000000000000000000000000000000602492526011600452fd5b8880929a508193503d8311612170575b61215e81836117a9565b8101031261089a578a90519738612010565b503d612154565b86513d84823e3d90fd5b5080421693611f84565b60207fce627de7a3c0ab1e1b091d6a60d128ea2327f929866814370c4be8e19d5def359180600955604051908152a1565b73ffffffffffffffffffffffffffffffffffffffff6000541633036121dd57565b60246040517f118cdaa7000000000000000000000000000000000000000000000000000000008152336004820152fdfea26469706673582212201b3d9a93c0007ecdee2993df4927842596be053dd2ffdbbe1fe7f9d392772a9164736f6c63430008170033",
  "linkReferences": {},
  "deployedLinkReferences": {}
}