{
  "_format": "hh-sol-artifact-1",
  "contractName": "ERC721Mock",
  "sourceName": "src/mocks/ERC721Mock.sol",
  "abi": [
    {
      "inputs": [],
      "stateMutability": "nonpayable",
      "type": "constructor"
    },
    {
      "inputs": [],
      "name": "ERC721EnumerableForbiddenBatchMint",
      "type": "error"
    },
    {
      "inputs": [
        {
          "internalType": "address",
          "name": "sender",
          "type": "address"
        },
        {
          "internalType": "uint256",
          "name": "tokenId",
          "type": "uint256"
        },
        {
          "internalType": "address",
          "name": "owner",
          "type": "address"
        }
      ],
      "name": "ERC721IncorrectOwner",
      "type": "error"
    },
    {
      "inputs": [
        {
          "internalType": "address",
          "name": "operator",
          "type": "address"
        },
        {
          "internalType": "uint256",
          "name": "tokenId",
          "type": "uint256"
        }
      ],
      "name": "ERC721InsufficientApproval",
      "type": "error"
    },
    {
      "inputs": [
        {
          "internalType": "address",
          "name": "approver",
          "type": "address"
        }
      ],
      "name": "ERC721InvalidApprover",
      "type": "error"
    },
    {
      "inputs": [
        {
          "internalType": "address",
          "name": "operator",
          "type": "address"
        }
      ],
      "name": "ERC721InvalidOperator",
      "type": "error"
    },
    {
      "inputs": [
        {
          "internalType": "address",
          "name": "owner",
          "type": "address"
        }
      ],
      "name": "ERC721InvalidOwner",
      "type": "error"
    },
    {
      "inputs": [
        {
          "internalType": "address",
          "name": "receiver",
          "type": "address"
        }
      ],
      "name": "ERC721InvalidReceiver",
      "type": "error"
    },
    {
      "inputs": [
        {
          "internalType": "address",
          "name": "sender",
          "type": "address"
        }
      ],
      "name": "ERC721InvalidSender",
      "type": "error"
    },
    {
      "inputs": [
        {
          "internalType": "uint256",
          "name": "tokenId",
          "type": "uint256"
        }
      ],
      "name": "ERC721NonexistentToken",
      "type": "error"
    },
    {
      "inputs": [
        {
          "internalType": "address",
          "name": "owner",
          "type": "address"
        },
        {
          "internalType": "uint256",
          "name": "index",
          "type": "uint256"
        }
      ],
      "name": "ERC721OutOfBoundsIndex",
      "type": "error"
    },
    {
      "anonymous": false,
      "inputs": [
        {
          "indexed": true,
          "internalType": "address",
          "name": "owner",
          "type": "address"
        },
        {
          "indexed": true,
          "internalType": "address",
          "name": "approved",
          "type": "address"
        },
        {
          "indexed": true,
          "internalType": "uint256",
          "name": "tokenId",
          "type": "uint256"
        }
      ],
      "name": "Approval",
      "type": "event"
    },
    {
      "anonymous": false,
      "inputs": [
        {
          "indexed": true,
          "internalType": "address",
          "name": "owner",
          "type": "address"
        },
        {
          "indexed": true,
          "internalType": "address",
          "name": "operator",
          "type": "address"
        },
        {
          "indexed": false,
          "internalType": "bool",
          "name": "approved",
          "type": "bool"
        }
      ],
      "name": "ApprovalForAll",
      "type": "event"
    },
    {
      "anonymous": false,
      "inputs": [
        {
          "indexed": true,
          "internalType": "address",
          "name": "from",
          "type": "address"
        },
        {
          "indexed": true,
          "internalType": "address",
          "name": "to",
          "type": "address"
        },
        {
          "indexed": true,
          "internalType": "uint256",
          "name": "tokenId",
          "type": "uint256"
        }
      ],
      "name": "Transfer",
      "type": "event"
    },
    {
      "inputs": [
        {
          "internalType": "address",
          "name": "to",
          "type": "address"
        },
        {
          "internalType": "uint256",
          "name": "tokenId",
          "type": "uint256"
        }
      ],
      "name": "approve",
      "outputs": [],
      "stateMutability": "nonpayable",
      "type": "function"
    },
    {
      "inputs": [
        {
          "internalType": "address",
          "name": "owner",
          "type": "address"
        }
      ],
      "name": "balanceOf",
      "outputs": [
        {
          "internalType": "uint256",
          "name": "",
          "type": "uint256"
        }
      ],
      "stateMutability": "view",
      "type": "function"
    },
    {
      "inputs": [
        {
          "internalType": "uint256",
          "name": "tokenId",
          "type": "uint256"
        }
      ],
      "name": "burn",
      "outputs": [],
      "stateMutability": "nonpayable",
      "type": "function"
    },
    {
      "inputs": [
        {
          "internalType": "uint256",
          "name": "tokenId",
          "type": "uint256"
        }
      ],
      "name": "getApproved",
      "outputs": [
        {
          "internalType": "address",
          "name": "",
          "type": "address"
        }
      ],
      "stateMutability": "view",
      "type": "function"
    },
    {
      "inputs": [
        {
          "internalType": "address",
          "name": "owner",
          "type": "address"
        },
        {
          "internalType": "address",
          "name": "operator",
          "type": "address"
        }
      ],
      "name": "isApprovedForAll",
      "outputs": [
        {
          "internalType": "bool",
          "name": "",
          "type": "bool"
        }
      ],
      "stateMutability": "view",
      "type": "function"
    },
    {
      "inputs": [],
      "name": "name",
      "outputs": [
        {
          "internalType": "string",
          "name": "",
          "type": "string"
        }
      ],
      "stateMutability": "view",
      "type": "function"
    },
    {
      "inputs": [
        {
          "internalType": "uint256",
          "name": "tokenId",
          "type": "uint256"
        }
      ],
      "name": "ownerOf",
      "outputs": [
        {
          "internalType": "address",
          "name": "",
          "type": "address"
        }
      ],
      "stateMutability": "view",
      "type": "function"
    },
    {
      "inputs": [
        {
          "internalType": "address",
          "name": "to",
          "type": "address"
        },
        {
          "internalType": "uint256",
          "name": "tokenId",
          "type": "uint256"
        }
      ],
      "name": "safeMint",
      "outputs": [],
      "stateMutability": "nonpayable",
      "type": "function"
    },
    {
      "inputs": [
        {
          "internalType": "address",
          "name": "from",
          "type": "address"
        },
        {
          "internalType": "address",
          "name": "to",
          "type": "address"
        },
        {
          "internalType": "uint256",
          "name": "tokenId",
          "type": "uint256"
        }
      ],
      "name": "safeTransferFrom",
      "outputs": [],
      "stateMutability": "nonpayable",
      "type": "function"
    },
    {
      "inputs": [
        {
          "internalType": "address",
          "name": "from",
          "type": "address"
        },
        {
          "internalType": "address",
          "name": "to",
          "type": "address"
        },
        {
          "internalType": "uint256",
          "name": "tokenId",
          "type": "uint256"
        },
        {
          "internalType": "bytes",
          "name": "data",
          "type": "bytes"
        }
      ],
      "name": "safeTransferFrom",
      "outputs": [],
      "stateMutability": "nonpayable",
      "type": "function"
    },
    {
      "inputs": [
        {
          "internalType": "address",
          "name": "operator",
          "type": "address"
        },
        {
          "internalType": "bool",
          "name": "approved",
          "type": "bool"
        }
      ],
      "name": "setApprovalForAll",
      "outputs": [],
      "stateMutability": "nonpayable",
      "type": "function"
    },
    {
      "inputs": [
        {
          "internalType": "bytes4",
          "name": "interfaceId",
          "type": "bytes4"
        }
      ],
      "name": "supportsInterface",
      "outputs": [
        {
          "internalType": "bool",
          "name": "",
          "type": "bool"
        }
      ],
      "stateMutability": "view",
      "type": "function"
    },
    {
      "inputs": [],
      "name": "symbol",
      "outputs": [
        {
          "internalType": "string",
          "name": "",
          "type": "string"
        }
      ],
      "stateMutability": "view",
      "type": "function"
    },
    {
      "inputs": [
        {
          "internalType": "uint256",
          "name": "index",
          "type": "uint256"
        }
      ],
      "name": "tokenByIndex",
      "outputs": [
        {
          "internalType": "uint256",
          "name": "",
          "type": "uint256"
        }
      ],
      "stateMutability": "view",
      "type": "function"
    },
    {
      "inputs": [
        {
          "internalType": "address",
          "name": "owner",
          "type": "address"
        },
        {
          "internalType": "uint256",
          "name": "index",
          "type": "uint256"
        }
      ],
      "name": "tokenOfOwnerByIndex",
      "outputs": [
        {
          "internalType": "uint256",
          "name": "",
          "type": "uint256"
        }
      ],
      "stateMutability": "view",
      "type": "function"
    },
    {
      "inputs": [
        {
          "internalType": "uint256",
          "name": "tokenId",
          "type": "uint256"
        }
      ],
      "name": "tokenURI",
      "outputs": [
        {
          "internalType": "string",
          "name": "",
          "type": "string"
        }
      ],
      "stateMutability": "view",
      "type": "function"
    },
    {
      "inputs": [],
      "name": "totalSupply",
      "outputs": [
        {
          "internalType": "uint256",
          "name": "",
          "type": "uint256"
        }
      ],
      "stateMutability": "view",
      "type": "function"
    },
    {
      "inputs": [
        {
          "internalType": "address",
          "name": "from",
          "type": "address"
        },
        {
          "internalType": "address",
          "name": "to",
          "type": "address"
        },
        {
          "internalType": "uint256",
          "name": "tokenId",
          "type": "uint256"
        }
      ],
      "name": "transferFrom",
      "outputs": [],
      "stateMutability": "nonpayable",
      "type": "function"
    }
  ],
  "bytecode": "0x6080346200030a576001600160401b039060409080820183811182821017620002f4578252600781526020926626bcaa37b5b2b760c91b84830152825183810181811083821117620002f457845260038152624d544b60e81b85820152825190828211620002f45760008054926001958685811c95168015620002e9575b89861014620002d5578190601f9586811162000282575b5089908683116001146200021e57849262000212575b5050600019600383901b1c191690861b1781555b8151938411620001fe5784548581811c91168015620001f3575b88821014620001df5783811162000197575b5086928411600114620001315783949596509262000125575b5050600019600383901b1c191690821b1790555b51611cf39081620003108239f35b01519050388062000103565b9190601f1984169685845280842093905b8882106200017f575050838596971062000165575b505050811b01905562000117565b015160001960f88460031b161c1916905538808062000157565b80878596829496860151815501950193019062000142565b8582528782208480870160051c8201928a8810620001d5575b0160051c019086905b828110620001c9575050620000ea565b838155018690620001b9565b92508192620001b0565b634e487b7160e01b82526022600452602482fd5b90607f1690620000d8565b634e487b7160e01b81526041600452602490fd5b015190503880620000aa565b8480528a85208994509190601f198416865b8d8282106200026b575050841162000251575b505050811b018155620000be565b015160001960f88460031b161c1916905538808062000243565b8385015186558c9790950194938401930162000230565b9091508380528984208680850160051c8201928c8610620002cb575b918a91869594930160051c01915b828110620002bc57505062000094565b8681558594508a9101620002ac565b925081926200029e565b634e487b7160e01b83526022600452602483fd5b94607f16946200007d565b634e487b7160e01b600052604160045260246000fd5b600080fdfe608060408181526004918236101561001657600080fd5b600092833560e01c91826301ffc9a71461130d5750816306fdde0314611222578163081812fc146111bd578163095ea7b31461106c57816318160ddd1461102f57816323b872dd146110175781632f745c5914610f4457816342842e0e14610f1557816342966c6814610b3c5781634f6ccce714610ab05781636352211e14610a5557816370a0823114610a0a57816395d89b4114610898578163a144819414610391578163a22cb4651461028d578163b88d4fde146101d6578163c87b56dd14610166575063e985e9c5146100eb57600080fd5b3461016257807ffffffffffffffffffffffffffffffffffffffffffffffffffffffffffffffffc3601126101625760ff8160209361012761148b565b61012f6114b3565b73ffffffffffffffffffffffffffffffffffffffff91821683526005875283832091168252855220549151911615158152f35b5080fd5b8383346101625760207ffffffffffffffffffffffffffffffffffffffffffffffffffffffffffffffffc360112610162576101a46101d29335611a93565b508181516101b181611536565b528051916101be83611536565b82525191829160208352602083019061142d565b0390f35b919050346102895760807ffffffffffffffffffffffffffffffffffffffffffffffffffffffffffffffffc3601126102895761021061148b565b6102186114b3565b60443591856064359567ffffffffffffffff87116101625736602388011215610162578601359561025461024b886115c2565b96519687611581565b868652366024888301011161016257866102869760246020930183890137860101526102818383836115fc565b611af4565b80f35b8280fd5b9190503461028957807ffffffffffffffffffffffffffffffffffffffffffffffffffffffffffffffffc360112610289576102c661148b565b906024359182151580930361038d5773ffffffffffffffffffffffffffffffffffffffff1692831561035f575033845260056020528084208385526020528084207fffffffffffffffffffffffffffffffffffffffffffffffffffffffffffffff0081541660ff8416179055519081527f17307eab39ab6107e8899845ad3d59bd9653f200f220920489ca2b5937696c3160203392a380f35b8360249251917f5b08ba18000000000000000000000000000000000000000000000000000000008352820152fd5b8480fd5b90503461028957817ffffffffffffffffffffffffffffffffffffffffffffffffffffffffffffffffc360112610289576103c961148b565b60249283358151906103da82611536565b86825273ffffffffffffffffffffffffffffffffffffffff9182851694851561086a57828952886020946002865286822054168781158682847fddf252ad1be2c89b69c2b068fc378daa952ba7f163c4a11628f55a4df523b3ef841597886107fc575b83815260038d528d81206001815401905584815260028d528d8120847fffffffffffffffffffffffff000000000000000000000000000000000000000082541617905580a41561077b5750600854858c526009875280888d20556801000000000000000081101561075057906104f4866104be8460018d96016008556119cf565b9091907fffffffffffffffffffffffffffffffffffffffffffffffffffffffffffffffff83549160031b92831b921b1916179055565b036106ce575b6106a0573b610507578780f35b90828888610560899a9b9697989995895195869485947f150b7a0200000000000000000000000000000000000000000000000000000000998a87523390870152850152604484015260806064840152608483019061142d565b0381868a5af1839181610644575b506105dc5750503d156105d4573d610585816115c2565b9061059285519283611581565b81528091833d92013e5b805191826105d15750505051917f64a0ae92000000000000000000000000000000000000000000000000000000008352820152fd5b01fd5b50606061059c565b7fffffffff000000000000000000000000000000000000000000000000000000009192979695949350160361061a5750505050388080808080808780f35b51917f64a0ae92000000000000000000000000000000000000000000000000000000008352820152fd5b9091508481813d8311610699575b61065c8183611581565b8101031261069557517fffffffff000000000000000000000000000000000000000000000000000000008116810361069557903861056e565b8380fd5b503d610652565b87878a8751917f73c6ac6e000000000000000000000000000000000000000000000000000000008352820152fd5b6106d782611a35565b7fffffffffffffffffffffffffffffffffffffffffffffffffffffffffffffffff810190811161072557878b5260068652868b20818c52865284878c2055848b5260078652868b20556104fa565b898b60118b7f4e487b7100000000000000000000000000000000000000000000000000000000835252fd5b8a8c60418c7f4e487b7100000000000000000000000000000000000000000000000000000000835252fd5b908082146104f45761078c81611a35565b868d5260078852888d2054898e8383036107c5575b9050889150528c89812055818d5260068852888d20908d5287528b888120556104f4565b84815260068b528181208482528b528181205485825260068c528282208483528c528083832055815260078b52205538898e6107a1565b61083585600052600460205260406000207fffffffffffffffffffffffff00000000000000000000000000000000000000008154169055565b82815260038d528d81207fffffffffffffffffffffffffffffffffffffffffffffffffffffffffffffffff815401905561043d565b87878a8751917f64a0ae92000000000000000000000000000000000000000000000000000000008352820152fd5b828434610a0757807ffffffffffffffffffffffffffffffffffffffffffffffffffffffffffffffffc360112610a075781519181600192600154938460011c91600186169586156109fd575b60209687851081146109d1578899509688969785829a52918260001461098c575050600114610930575b5050506101d29291610921910385611581565b5192828493845283019061142d565b9190869350600183527fb10e2d527612073b26eecdfd717e6a320cf44b4afac2b0732d9fcbe2b7fa0cf65b82841061097457505050820101816109216101d261090e565b8054848a01860152889550879490930192810161095b565b7fffffffffffffffffffffffffffffffffffffffffffffffffffffffffffffff00168782015293151560051b8601909301935084925061092191506101d2905061090e565b60248360228c7f4e487b7100000000000000000000000000000000000000000000000000000000835252fd5b92607f16926108e4565b80fd5b5050346101625760207ffffffffffffffffffffffffffffffffffffffffffffffffffffffffffffffffc36011261016257602090610a4e610a4961148b565b611a35565b9051908152f35b828434610a075760207ffffffffffffffffffffffffffffffffffffffffffffffffffffffffffffffffc360112610a07575073ffffffffffffffffffffffffffffffffffffffff610aa860209335611a93565b915191168152f35b9050346102895760207ffffffffffffffffffffffffffffffffffffffffffffffffffffffffffffffffc36011261028957803592600854841015610b0857602083610afa866119cf565b91905490519160031b1c8152f35b604493919251927fa57d13dc0000000000000000000000000000000000000000000000000000000084528301526024820152fd5b83833461016257602090817ffffffffffffffffffffffffffffffffffffffffffffffffffffffffffffffffc3601126102895783358084526002835273ffffffffffffffffffffffffffffffffffffffff808386205416903315159081610e41575b5050801580159081610dd3575b838752600286528487207fffffffffffffffffffffffff000000000000000000000000000000000000000081541690558387847fddf252ad1be2c89b69c2b068fc378daa952ba7f163c4a11628f55a4df523b3ef8280a415610d5257505060085481855260098452808386205568010000000000000000811015610d2657816104be826001610c3d94016008556119cf565b6008547fffffffffffffffffffffffffffffffffffffffffffffffffffffffffffffffff93848201918211610cfa5790600983928795948652818152610c8685872054936119cf565b90549060031b1c610c9a816104be866119cf565b8652528284205582528120556008548015610cce57810190610cbb826119cf565b909182549160031b1b1916905560085580f35b6024836031867f4e487b7100000000000000000000000000000000000000000000000000000000835252fd5b6024866011897f4e487b7100000000000000000000000000000000000000000000000000000000835252fd5b6024856041887f4e487b7100000000000000000000000000000000000000000000000000000000835252fd5b610d5d575b50610c3d565b610d6681611a35565b908286526007855283862054828103610d9c575b5082865285848120558552600684528285209085528352838281205585610d57565b8187526006865284872083885286528487205482885260068752858820828952875280868920558752600786528487205587610d7a565b610e0c84600052600460205260406000207fffffffffffffffffffffffff00000000000000000000000000000000000000008154169055565b828752600386528487207fffffffffffffffffffffffffffffffffffffffffffffffffffffffffffffffff8154019055610bab565b81610ec9575b5015610e54578680610b9e565b82869115600014610e8d579160249251917f7e273289000000000000000000000000000000000000000000000000000000008352820152fd5b517f177e802f00000000000000000000000000000000000000000000000000000000815233918101918252602082019290925281906040010390fd5b33831491508115610ef8575b8115610ee3575b5087610e47565b83875287865284872054163314905087610edc565b8287526005865284872033885286528487205460ff169150610ed5565b5050346101625761028690610f29366114d6565b91925192610f3684611536565b8584526102818383836115fc565b828434610a0757817ffffffffffffffffffffffffffffffffffffffffffffffffffffffffffffffffc360112610a0757610f7c61148b565b9260243590610f8a85611a35565b821015610fc5575090829173ffffffffffffffffffffffffffffffffffffffff60209516825260068552828220908252845220549051908152f35b92517fa57d13dc00000000000000000000000000000000000000000000000000000000815273ffffffffffffffffffffffffffffffffffffffff90941692840192835260208301525081906040010390fd5b8334610a0757610286611029366114d6565b916115fc565b50503461016257817ffffffffffffffffffffffffffffffffffffffffffffffffffffffffffffffffc360112610162576020906008549051908152f35b9190503461028957807ffffffffffffffffffffffffffffffffffffffffffffffffffffffffffffffffc360112610289576110a561148b565b916024356110b281611a93565b3315158061119d575b80611168575b61113957819073ffffffffffffffffffffffffffffffffffffffff809616958691167f8c5be1e5ebec7d5bd14f71427d1e84f3dd0314c0f7b2291e5b200ac8c7c3b9258880a484526020528220907fffffffffffffffffffffffff000000000000000000000000000000000000000082541617905580f35b83517fa9fbf51f0000000000000000000000000000000000000000000000000000000081523381850152602490fd5b5073ffffffffffffffffffffffffffffffffffffffff81168652600560205283862033875260205260ff8487205416156110c1565b503373ffffffffffffffffffffffffffffffffffffffff821614156110bb565b9050346102895760207ffffffffffffffffffffffffffffffffffffffffffffffffffffffffffffffffc36011261028957816020938273ffffffffffffffffffffffffffffffffffffffff933561121381611a93565b50825285522054169051908152f35b828434610a0757807ffffffffffffffffffffffffffffffffffffffffffffffffffffffffffffffffc360112610a07578151918182549260018460011c9160018616958615611303575b60209687851081146109d1578899509688969785829a52918260001461098c5750506001146112a8575050506101d29291610921910385611581565b91908693508280527f290decd9548b62a8d60345a988386fc84ba6bc95484008f6362f93160ef3e5635b8284106112eb57505050820101816109216101d261090e565b8054848a0186015288955087949093019281016112d2565b92607f169261126c565b8491346102895760207ffffffffffffffffffffffffffffffffffffffffffffffffffffffffffffffffc36011261028957357fffffffff00000000000000000000000000000000000000000000000000000000811680910361028957602092507f780e9d6300000000000000000000000000000000000000000000000000000000811490811561139f575b5015158152f35b7f80ac58cd00000000000000000000000000000000000000000000000000000000811491508115611403575b81156113d9575b5083611398565b7f01ffc9a700000000000000000000000000000000000000000000000000000000915014836113d2565b7f5b5e139f00000000000000000000000000000000000000000000000000000000811491506113cb565b919082519283825260005b8481106114775750507fffffffffffffffffffffffffffffffffffffffffffffffffffffffffffffffe0601f8460006020809697860101520116010190565b602081830181015184830182015201611438565b6004359073ffffffffffffffffffffffffffffffffffffffff821682036114ae57565b600080fd5b6024359073ffffffffffffffffffffffffffffffffffffffff821682036114ae57565b7ffffffffffffffffffffffffffffffffffffffffffffffffffffffffffffffffc60609101126114ae5773ffffffffffffffffffffffffffffffffffffffff9060043582811681036114ae579160243590811681036114ae579060443590565b6020810190811067ffffffffffffffff82111761155257604052565b7f4e487b7100000000000000000000000000000000000000000000000000000000600052604160045260246000fd5b90601f7fffffffffffffffffffffffffffffffffffffffffffffffffffffffffffffffe0910116810190811067ffffffffffffffff82111761155257604052565b67ffffffffffffffff811161155257601f017fffffffffffffffffffffffffffffffffffffffffffffffffffffffffffffffe01660200190565b9173ffffffffffffffffffffffffffffffffffffffff80831693841561199e576000948386526020956002875260409684888320541696331515806118de575b5087158015611870575b848452600383528984206001815401905587845260028352898420857fffffffffffffffffffffffff000000000000000000000000000000000000000082541617905587858a7fddf252ad1be2c89b69c2b068fc378daa952ba7f163c4a11628f55a4df523b3ef8780a4156117f45760085487845260098352808a852055680100000000000000008110156117c757876104be8260016116e994016008556119cf565b83880361173e575b5050505016928383036117045750505050565b6064945051927f64283d7b000000000000000000000000000000000000000000000000000000008452600484015260248301526044820152fd5b61174790611a35565b927fffffffffffffffffffffffffffffffffffffffffffffffffffffffffffffffff840193841161179a5782916007918a94526006815283832085845281528784842055878352522055388080806116f1565b6024837f4e487b710000000000000000000000000000000000000000000000000000000081526011600452fd5b6024847f4e487b710000000000000000000000000000000000000000000000000000000081526041600452fd5b8784146116e95761180488611a35565b8784526007835289842054818103611839575b50878452838a81205588845260068352898420908452825282898120556116e9565b898552600684528a852082865284528a8520548a8652600685528b86208287528552808c8720558552600784528a85205538611817565b6118a988600052600460205260406000207fffffffffffffffffffffffff00000000000000000000000000000000000000008154169055565b888452600383528984207fffffffffffffffffffffffffffffffffffffffffffffffffffffffffffffffff8154019055611646565b8061195d575b156118ef573861163c565b8887896119255760249151907f7e2732890000000000000000000000000000000000000000000000000000000082526004820152fd5b90517f177e802f0000000000000000000000000000000000000000000000000000000081523360048201526024810191909152604490fd5b503388148015611982575b806118e457508683526004825233868a85205416146118e4565b5087835260058252888320338452825260ff8984205416611968565b60246040517f64a0ae9200000000000000000000000000000000000000000000000000000000815260006004820152fd5b600854811015611a065760086000527ff3f7a9fe364faab93b216da50a3214154f22a0a2b415b23a84c8169e8b636ee30190600090565b7f4e487b7100000000000000000000000000000000000000000000000000000000600052603260045260246000fd5b73ffffffffffffffffffffffffffffffffffffffff168015611a6257600052600360205260406000205490565b60246040517f89c62b6400000000000000000000000000000000000000000000000000000000815260006004820152fd5b80600052600260205273ffffffffffffffffffffffffffffffffffffffff60406000205416908115611ac3575090565b602490604051907f7e2732890000000000000000000000000000000000000000000000000000000082526004820152fd5b813b611b01575b50505050565b73ffffffffffffffffffffffffffffffffffffffff949192939480931693604051937f150b7a02000000000000000000000000000000000000000000000000000000009283865233600487015216602485015260448401526080606484015282611b71602096608483019061142d565b039285816000958187895af1849181611c65575b50611bfd575050503d600014611bf5573d611b9f816115c2565b90611bad6040519283611581565b81528091843d92013e5b80519283611bf057602483604051907f64a0ae920000000000000000000000000000000000000000000000000000000082526004820152fd5b019050fd5b506060611bb7565b9092507fffffffff000000000000000000000000000000000000000000000000000000009194501603611c34575038808080611afb565b602490604051907f64a0ae920000000000000000000000000000000000000000000000000000000082526004820152fd5b9091508681813d8311611cb6575b611c7d8183611581565b8101031261038d57517fffffffff000000000000000000000000000000000000000000000000000000008116810361038d579038611b85565b503d611c7356fea264697066735822122058f6e1309497638d95e8078cd1fe5babd018645e6f3c41a627403943a5c1098d64736f6c63430008170033",
  "linkReferences": {},
  "deployedLinkReferences": {}
}